{"contracts/Leverager.sol":{"Leverager":{"abi":[{"inputs":[{"internalType":"address","name":"weth9","type":"address"},{"internalType":"address","name":"router","type":"address"},{"internalType":"address","name":"link","type":"address"},{"internalType":"address","name":"_vault","type":"address"}],"stateMutability":"nonpayable","type":"constructor"},{"inputs":[],"name":"InvalidFlashloanCallbackSender","type":"error"},{"inputs":[{"internalType":"address","name":"initiator","type":"address"}],"name":"InvalidInitiator","type":"error"},{"inputs":[{"internalType":"address","name":"router","type":"address"}],"name":"InvalidRouter","type":"error"},{"inputs":[],"name":"LengthMismatch","type":"error"},{"inputs":[{"internalType":"uint256","name":"msgValue","type":"uint256"},{"internalType":"uint256","name":"amount","type":"uint256"}],"name":"MsgValueAmountDiff","type":"error"},{"inputs":[{"internalType":"address","name":"owner","type":"address"}],"name":"OwnableInvalidOwner","type":"error"},{"inputs":[{"internalType":"address","name":"account","type":"address"}],"name":"OwnableUnauthorizedAccount","type":"error"},{"inputs":[],"name":"ReentrancyLock","type":"error"},{"inputs":[{"internalType":"address","name":"sender","type":"address"}],"name":"SenderNotAllowlisted","type":"error"},{"anonymous":false,"inputs":[{"indexed":true,"internalType":"address","name":"user","type":"address"},{"indexed":false,"internalType":"uint256","name":"srcChainId","type":"uint256"},{"indexed":false,"internalType":"uint256","name":"dstChainId","type":"uint256"},{"indexed":false,"internalType":"uint256","name":"amount","type":"uint256"},{"indexed":false,"internalType":"uint256","name":"ltv","type":"uint256"}],"name":"Close","type":"event"},{"anonymous":false,"inputs":[{"indexed":true,"internalType":"address","name":"user","type":"address"},{"indexed":true,"internalType":"address","name":"token","type":"address"},{"indexed":false,"internalType":"uint256","name":"amount","type":"uint256"},{"indexed":false,"internalType":"uint256","name":"ltv","type":"uint256"}],"name":"Deleverage","type":"event"},{"anonymous":false,"inputs":[{"indexed":true,"internalType":"address","name":"user","type":"address"},{"indexed":true,"internalType":"address","name":"token","type":"address"},{"indexed":false,"internalType":"uint256","name":"amount","type":"uint256"},{"indexed":false,"internalType":"uint256","name":"ltv","type":"uint256"}],"name":"Leverage","type":"event"},{"anonymous":false,"inputs":[{"indexed":true,"internalType":"bytes32","name":"messageId","type":"bytes32"},{"indexed":true,"internalType":"uint64","name":"sourceChainSelector","type":"uint64"},{"indexed":false,"internalType":"address","name":"sender","type":"address"},{"indexed":false,"internalType":"string","name":"text","type":"string"}],"name":"MessageReceived","type":"event"},{"anonymous":false,"inputs":[{"indexed":true,"internalType":"address","name":"previousOwner","type":"address"},{"indexed":true,"internalType":"address","name":"newOwner","type":"address"}],"name":"OwnershipTransferred","type":"event"},{"anonymous":false,"inputs":[{"indexed":true,"internalType":"address","name":"user","type":"address"},{"indexed":true,"internalType":"address","name":"token","type":"address"},{"indexed":false,"internalType":"uint256","name":"amount","type":"uint256"}],"name":"Supply","type":"event"},{"anonymous":false,"inputs":[{"indexed":true,"internalType":"address","name":"user","type":"address"},{"indexed":true,"internalType":"address","name":"token","type":"address"},{"indexed":false,"internalType":"uint256","name":"amount","type":"uint256"}],"name":"Withdraw","type":"event"},{"inputs":[],"name":"WETH9","outputs":[{"internalType":"address","name":"","type":"address"}],"stateMutability":"view","type":"function"},{"inputs":[{"components":[{"internalType":"address","name":"asset","type":"address"},{"internalType":"address","name":"counterAsset","type":"address"},{"internalType":"uint256","name":"amount","type":"uint256"},{"internalType":"uint8","name":"flags","type":"uint8"},{"internalType":"bytes","name":"data","type":"bytes"}],"internalType":"struct ILeverager.InputParams","name":"inputParams","type":"tuple"}],"name":"borrow","outputs":[{"internalType":"uint256","name":"returnAmount","type":"uint256"}],"stateMutability":"nonpayable","type":"function"},{"inputs":[{"components":[{"internalType":"bytes32","name":"messageId","type":"bytes32"},{"internalType":"uint64","name":"sourceChainSelector","type":"uint64"},{"internalType":"bytes","name":"sender","type":"bytes"},{"internalType":"bytes","name":"data","type":"bytes"},{"components":[{"internalType":"address","name":"token","type":"address"},{"internalType":"uint256","name":"amount","type":"uint256"}],"internalType":"struct Client.EVMTokenAmount[]","name":"destTokenAmounts","type":"tuple[]"}],"internalType":"struct Client.Any2EVMMessage","name":"message","type":"tuple"}],"name":"ccipReceive","outputs":[],"stateMutability":"nonpayable","type":"function"},{"inputs":[{"components":[{"internalType":"address","name":"asset","type":"address"},{"internalType":"address","name":"counterAsset","type":"address"},{"internalType":"uint256","name":"amount","type":"uint256"},{"internalType":"uint8","name":"flags","type":"uint8"},{"internalType":"bytes","name":"data","type":"bytes"}],"internalType":"struct ILeverager.InputParams","name":"inputParams","type":"tuple"}],"name":"close","outputs":[{"internalType":"uint256","name":"","type":"uint256"}],"stateMutability":"payable","type":"function"},{"inputs":[{"internalType":"address[]","name":"assets","type":"address[]"},{"internalType":"uint256[]","name":"amounts","type":"uint256[]"},{"internalType":"uint256[]","name":"premiums","type":"uint256[]"},{"internalType":"address","name":"initiator","type":"address"},{"internalType":"bytes","name":"params","type":"bytes"}],"name":"executeOperation","outputs":[{"internalType":"bool","name":"","type":"bool"}],"stateMutability":"nonpayable","type":"function"},{"inputs":[],"name":"getRouter","outputs":[{"internalType":"address","name":"","type":"address"}],"stateMutability":"view","type":"function"},{"inputs":[],"name":"i_link","outputs":[{"internalType":"address","name":"","type":"address"}],"stateMutability":"view","type":"function"},{"inputs":[],"name":"owner","outputs":[{"internalType":"address","name":"","type":"address"}],"stateMutability":"view","type":"function"},{"inputs":[],"name":"propagator","outputs":[{"internalType":"contract Propagator","name":"","type":"address"}],"stateMutability":"view","type":"function"},{"inputs":[],"name":"renounceOwnership","outputs":[],"stateMutability":"nonpayable","type":"function"},{"inputs":[{"components":[{"internalType":"address","name":"asset","type":"address"},{"internalType":"address","name":"counterAsset","type":"address"},{"internalType":"uint256","name":"amount","type":"uint256"},{"internalType":"uint8","name":"flags","type":"uint8"},{"internalType":"bytes","name":"data","type":"bytes"}],"internalType":"struct ILeverager.InputParams","name":"inputParams","type":"tuple"}],"name":"supply","outputs":[{"internalType":"uint256","name":"returnAmount","type":"uint256"}],"stateMutability":"payable","type":"function"},{"inputs":[{"internalType":"bytes4","name":"interfaceId","type":"bytes4"}],"name":"supportsInterface","outputs":[{"internalType":"bool","name":"","type":"bool"}],"stateMutability":"pure","type":"function"},{"inputs":[{"internalType":"address","name":"newOwner","type":"address"}],"name":"transferOwnership","outputs":[],"stateMutability":"nonpayable","type":"function"},{"inputs":[],"name":"vault","outputs":[{"internalType":"address","name":"","type":"address"}],"stateMutability":"view","type":"function"},{"inputs":[{"components":[{"internalType":"address","name":"asset","type":"address"},{"internalType":"address","name":"counterAsset","type":"address"},{"internalType":"uint256","name":"amount","type":"uint256"},{"internalType":"uint8","name":"flags","type":"uint8"},{"internalType":"bytes","name":"data","type":"bytes"}],"internalType":"struct ILeverager.InputParams","name":"inputParams","type":"tuple"}],"name":"withdraw","outputs":[{"internalType":"uint256","name":"returnAmount","type":"uint256"}],"stateMutability":"nonpayable","type":"function"},{"stateMutability":"payable","type":"receive"}],"evm":{"bytecode":{"linkReferences":{},"object":"6101206040523480156200001257600080fd5b5060405162007ef238038062007ef28339818101604052810190620000389190620003be565b8233600073ffffffffffffffffffffffffffffffffffffffff168173ffffffffffffffffffffffffffffffffffffffff1603620000af5760006040517f1e4fbdf7000000000000000000000000000000000000000000000000000000008152600401620000a6919062000441565b60405180910390fd5b620000c0816200028260201b60201c565b50600073ffffffffffffffffffffffffffffffffffffffff168173ffffffffffffffffffffffffffffffffffffffff1603620001365760006040517fd7f733340000000000000000000000000000000000000000000000000000000081526004016200012d919062000441565b60405180910390fd5b8073ffffffffffffffffffffffffffffffffffffffff1660808173ffffffffffffffffffffffffffffffffffffffff1681525050508373ffffffffffffffffffffffffffffffffffffffff1660c08173ffffffffffffffffffffffffffffffffffffffff16815250508073ffffffffffffffffffffffffffffffffffffffff1660a08173ffffffffffffffffffffffffffffffffffffffff16815250508173ffffffffffffffffffffffffffffffffffffffff1660e08173ffffffffffffffffffffffffffffffffffffffff1681525050828233604051620002189062000346565b62000226939291906200045e565b604051809103906000f08015801562000243573d6000803e3d6000fd5b5073ffffffffffffffffffffffffffffffffffffffff166101008173ffffffffffffffffffffffffffffffffffffffff1681525050505050506200049b565b60008060009054906101000a900473ffffffffffffffffffffffffffffffffffffffff169050816000806101000a81548173ffffffffffffffffffffffffffffffffffffffff021916908373ffffffffffffffffffffffffffffffffffffffff1602179055508173ffffffffffffffffffffffffffffffffffffffff168173ffffffffffffffffffffffffffffffffffffffff167f8be0079c531659141344cd1fd0a4f28419497f9722a3daafe3b4186f6b6457e060405160405180910390a35050565b611f148062005fde83390190565b600080fd5b600073ffffffffffffffffffffffffffffffffffffffff82169050919050565b6000620003868262000359565b9050919050565b620003988162000379565b8114620003a457600080fd5b50565b600081519050620003b8816200038d565b92915050565b60008060008060808587031215620003db57620003da62000354565b5b6000620003eb87828801620003a7565b9450506020620003fe87828801620003a7565b93505060406200041187828801620003a7565b92505060606200042487828801620003a7565b91505092959194509250565b6200043b8162000379565b82525050565b600060208201905062000458600083018462000430565b92915050565b600060608201905062000475600083018662000430565b62000484602083018562000430565b62000493604083018462000430565b949350505050565b60805160a05160c05160e05161010051615a646200057a60003960008181610ea501528181612c4f0152612e7901526000610ec90152600081816108ad01528181610b8501528181611722015281816118100152818161197101528181611b3401528181611b5701528181611bfc01528181611f6f01528181611ffb0152818161219401528181612296015281816127f7015281816130620152818161313e015281816132d701526133d201526000818161094c01528181610fd40152818161157a0152612896015260008181610eed01526114ce0152615a646000f3fe6080604052600436106100ec5760003560e01c80637d253aff1161008a57806395d992c31161005957806395d992c3146102fb578063b0f479a114610338578063f2fde38b14610363578063fbfa77cf1461038c576100f3565b80637d253aff1461023f57806385572ffb1461026a5780638da5cb5b14610293578063920f5c84146102be576100f3565b8063528e4e5f116100c6578063528e4e5f146101905780635beeab33146101cd578063715018a6146101fd57806379b2933314610214576100f3565b806301ffc9a7146100f85780632e99f1e4146101355780634aa4a4fc14610165576100f3565b366100f357005b600080fd5b34801561010457600080fd5b5061011f600480360381019061011a9190613c5c565b6103b7565b60405161012c9190613ca4565b60405180910390f35b61014f600480360381019061014a9190613f84565b610489565b60405161015c9190613fdc565b60405180910390f35b34801561017157600080fd5b5061017a610b83565b6040516101879190614006565b60405180910390f35b34801561019c57600080fd5b506101b760048036038101906101b29190613f84565b610ba7565b6040516101c49190613fdc565b60405180910390f35b6101e760048036038101906101e29190613f84565b610c23565b6040516101f49190613fdc565b60405180910390f35b34801561020957600080fd5b50610212610e8f565b005b34801561022057600080fd5b50610229610ea3565b6040516102369190614080565b60405180910390f35b34801561024b57600080fd5b50610254610ec7565b6040516102619190614006565b60405180910390f35b34801561027657600080fd5b50610291600480360381019061028c91906140bf565b610eeb565b005b34801561029f57600080fd5b506102a8610f90565b6040516102b59190614006565b60405180910390f35b3480156102ca57600080fd5b506102e560048036038101906102e09190614214565b610fb9565b6040516102f29190613ca4565b60405180910390f35b34801561030757600080fd5b50610322600480360381019061031d9190613f84565b6113a7565b60405161032f9190613fdc565b60405180910390f35b34801561034457600080fd5b5061034d6114ca565b60405161035a9190614006565b60405180910390f35b34801561036f57600080fd5b5061038a60048036038101906103859190614310565b6114f2565b005b34801561039857600080fd5b506103a1611578565b6040516103ae9190614006565b60405180910390f35b60007f85572ffb000000000000000000000000000000000000000000000000000000007bffffffffffffffffffffffffffffffffffffffffffffffffffffffff1916827bffffffffffffffffffffffffffffffffffffffffffffffffffffffff1916148061048257507f01ffc9a7000000000000000000000000000000000000000000000000000000007bffffffffffffffffffffffffffffffffffffffffffffffffffffffff1916827bffffffffffffffffffffffffffffffffffffffffffffffffffffffff1916145b9050919050565b60008061049461159c565b905060008160000154146104d4576040517f19239fc500000000000000000000000000000000000000000000000000000000815260040160405180910390fd5b60018160000181905550610501836000015173ffffffffffffffffffffffffffffffffffffffff166115cc565b8015610511575034836040015114155b15610559573483604001516040517fba38a90500000000000000000000000000000000000000000000000000000000815260040161055092919061433d565b60405180910390fd5b61058e33308560400151866000015173ffffffffffffffffffffffffffffffffffffffff16611687909392919063ffffffff16565b6105bb33846020015173ffffffffffffffffffffffffffffffffffffffff166116e690919063ffffffff16565b915060008360800151510361065d576000600184606001511660ff160361061c57610617610602846000015173ffffffffffffffffffffffffffffffffffffffff166115cc565b8460000151856020015186604001513361171b565b610658565b610657610642846000015173ffffffffffffffffffffffffffffffffffffffff166115cc565b84600001518560200151866040015133611969565b5b610b39565b610665613aa2565b836080015180602001905181019061067d9190614453565b846080018560a0018660c0018761010001849052848152508473ffffffffffffffffffffffffffffffffffffffff1673ffffffffffffffffffffffffffffffffffffffff168152508473ffffffffffffffffffffffffffffffffffffffff1673ffffffffffffffffffffffffffffffffffffffff1681525050505050600167ffffffffffffffff81111561071457610713613cd5565b5b6040519080825280602002602001820160405280156107425781602001602082028036833780820191505090505b50816101200181905250600167ffffffffffffffff81111561076757610766613cd5565b5b6040519080825280602002602001820160405280156107955781602001602082028036833780820191505090505b50816101400181905250600167ffffffffffffffff8111156107ba576107b9613cd5565b5b6040519080825280602002602001820160405280156107e85781602001602082028036833780820191505090505b508161016001819052506000600485606001511660ff161461080e578360000151610814565b80608001515b81610120015160008151811061082d5761082c6144d6565b5b602002602001019073ffffffffffffffffffffffffffffffffffffffff16908173ffffffffffffffffffffffffffffffffffffffff16815250506108a6816101200151600081518110610883576108826144d6565b5b602002602001015173ffffffffffffffffffffffffffffffffffffffff166115cc565b15610920577f00000000000000000000000000000000000000000000000000000000000000008161012001516000815181106108e5576108e46144d6565b5b602002602001019073ffffffffffffffffffffffffffffffffffffffff16908173ffffffffffffffffffffffffffffffffffffffff16815250505b8060c0015181610140015160008151811061093e5761093d6144d6565b5b6020026020010181815250507f000000000000000000000000000000000000000000000000000000000000000073ffffffffffffffffffffffffffffffffffffffff1663ab9c4b5d30836101200151846101400151856101600151306040518061014001604052803373ffffffffffffffffffffffffffffffffffffffff1681526020018c6000015173ffffffffffffffffffffffffffffffffffffffff1681526020018c6020015173ffffffffffffffffffffffffffffffffffffffff168152602001896080015173ffffffffffffffffffffffffffffffffffffffff1681526020018960a0015173ffffffffffffffffffffffffffffffffffffffff168152602001896101200151600081518110610a5b57610a5a6144d6565b5b602002602001015173ffffffffffffffffffffffffffffffffffffffff1681526020018c6040015181526020018960c0015181526020018c6060015160ff168152602001896101000151815250604051602001610ab89190614661565b60405160208183030381529060405260006040518863ffffffff1660e01b8152600401610aeb9796959493929190614874565b600060405180830381600087803b158015610b0557600080fd5b505af1158015610b19573d6000803e3d6000fd5b50505050610b2a8460000151611b0c565b610b378160800151611b0c565b505b81610b6733856020015173ffffffffffffffffffffffffffffffffffffffff166116e690919063ffffffff16565b610b71919061492e565b91506000816000018190555050919050565b7f000000000000000000000000000000000000000000000000000000000000000081565b600080610bcd836000015173ffffffffffffffffffffffffffffffffffffffff166115cc565b90506000600184606001511660ff1603610c0157610bfa8184600001518560200151866040015133611d59565b9150610c1d565b610c1a8184600001518560200151866040015133611e86565b91505b50919050565b600080610c2e61159c565b90506000816000015414610c6e576040517f19239fc500000000000000000000000000000000000000000000000000000000815260040160405180910390fd5b600181600001819055506000610c9d846000015173ffffffffffffffffffffffffffffffffffffffff166115cc565b9050808015610cb0575034846040015114155b15610cf8573484604001516040517fba38a905000000000000000000000000000000000000000000000000000000008152600401610cef92919061433d565b60405180910390fd5b610d2d33308660400151876000015173ffffffffffffffffffffffffffffffffffffffff16611687909392919063ffffffff16565b600084608001515103610d89576000600185606001511660ff1603610d6a57610d6581856000015186602001518760400151336120f1565b610d84565b610d83818560000151866020015187604001513361242c565b5b610e7e565b610d91613aa2565b846040015181600001818152505033816060019073ffffffffffffffffffffffffffffffffffffffff16908173ffffffffffffffffffffffffffffffffffffffff16815250508460000151816020019073ffffffffffffffffffffffffffffffffffffffff16908173ffffffffffffffffffffffffffffffffffffffff16815250508460200151816040019073ffffffffffffffffffffffffffffffffffffffff16908173ffffffffffffffffffffffffffffffffffffffff168152505084606001518160e0019060ff16908160ff16815250508460800151816101800181905250610e7c816125b3565b505b506000816000018190555050919050565b610e97612cf9565b610ea16000612d80565b565b7f000000000000000000000000000000000000000000000000000000000000000081565b7f000000000000000000000000000000000000000000000000000000000000000081565b7f000000000000000000000000000000000000000000000000000000000000000073ffffffffffffffffffffffffffffffffffffffff163373ffffffffffffffffffffffffffffffffffffffff1614610f7b57336040517fd7f73334000000000000000000000000000000000000000000000000000000008152600401610f729190614006565b60405180910390fd5b610f8d81610f8890614bcb565b612e44565b50565b60008060009054906101000a900473ffffffffffffffffffffffffffffffffffffffff16905090565b60003373ffffffffffffffffffffffffffffffffffffffff167f000000000000000000000000000000000000000000000000000000000000000073ffffffffffffffffffffffffffffffffffffffff1614611040576040517fe973de0b00000000000000000000000000000000000000000000000000000000815260040160405180910390fd5b3073ffffffffffffffffffffffffffffffffffffffff168473ffffffffffffffffffffffffffffffffffffffff16146110b057336040517f2a868ed00000000000000000000000000000000000000000000000000000000081526004016110a79190614006565b60405180910390fd5b600083839050111561121a57600083838101906110cd9190614cf0565b905060003373ffffffffffffffffffffffffffffffffffffffff1663074b2e436040518163ffffffff1660e01b8152600401602060405180830381865afa15801561111c573d6000803e3d6000fd5b505050506040513d601f19601f820116820180604052508101906111409190614d81565b6fffffffffffffffffffffffffffffffff169050600060018361010001511660ff16036111c1576111bc828989600081811061117f5761117e6144d6565b5b9050602002013560026111929190614dae565b8c8c60008181106111a6576111a56144d6565b5b905060200201356111b79190614df0565b612ff9565b611217565b61121682898960008181106111d9576111d86144d6565b5b9050602002013560026111ec9190614dae565b8c8c6000818110611200576111ff6144d6565b5b905060200201356112119190614df0565b613254565b5b50505b60005b8a8a90508110156113955761129a611233610f90565b888884818110611246576112456144d6565b5b905060200201358d8d858181106112605761125f6144d6565b5b90506020020160208101906112759190614310565b73ffffffffffffffffffffffffffffffffffffffff166134ed9092919063ffffffff16565b60008787838181106112af576112ae6144d6565b5b905060200201358a8a848181106112c9576112c86144d6565b5b905060200201356112da9190614df0565b905061132f3360008e8e868181106112f5576112f46144d6565b5b905060200201602081019061130a9190614310565b73ffffffffffffffffffffffffffffffffffffffff1661353c9092919063ffffffff16565b61138133828e8e86818110611347576113466144d6565b5b905060200201602081019061135c9190614310565b73ffffffffffffffffffffffffffffffffffffffff1661353c9092919063ffffffff16565b50808061138d90614e24565b91505061121d565b50600190509998505050505050505050565b6000806113b261159c565b905060008160000154146113f2576040517f19239fc500000000000000000000000000000000000000000000000000000000815260040160405180910390fd5b600181600001819055506000611421846000015173ffffffffffffffffffffffffffffffffffffffff166115cc565b90506000600185606001511660ff160361148d5761146a33308660400151876020015173ffffffffffffffffffffffffffffffffffffffff16611687909392919063ffffffff16565b6114888185600001518660200151876040015133896080015161358b565b6114ac565b6114ab818560000151866020015187604001513389608001516136e4565b5b6114b98460000151611b0c565b506000816000018190555050919050565b60007f0000000000000000000000000000000000000000000000000000000000000000905090565b6114fa612cf9565b600073ffffffffffffffffffffffffffffffffffffffff168173ffffffffffffffffffffffffffffffffffffffff160361156c5760006040517f1e4fbdf70000000000000000000000000000000000000000000000000000000081526004016115639190614006565b60405180910390fd5b61157581612d80565b50565b7f000000000000000000000000000000000000000000000000000000000000000081565b6000807f579d790592639b2d681736f3c42db3029bc25bdee19fb1af9a117b346237558560001b90508091505090565b600073eeeeeeeeeeeeeeeeeeeeeeeeeeeeeeeeeeeeeeee73ffffffffffffffffffffffffffffffffffffffff168273ffffffffffffffffffffffffffffffffffffffff161480611649575061101073ffffffffffffffffffffffffffffffffffffffff168273ffffffffffffffffffffffffffffffffffffffff16145b806116805750600073ffffffffffffffffffffffffffffffffffffffff168273ffffffffffffffffffffffffffffffffffffffff16145b9050919050565b60405181606052826040528360601b602c526f23b872dd000000000000000000000000600c52602060006064601c6000895af13d1560016000511417166116d657637939f4246000526004601cfd5b6000606052806040525050505050565b6000816014526f70a0823100000000000000000000000060005260208060246010865afa601f3d111660205102905092915050565b84611900577f000000000000000000000000000000000000000000000000000000000000000073ffffffffffffffffffffffffffffffffffffffff168473ffffffffffffffffffffffffffffffffffffffff161461180e5761179e83838673ffffffffffffffffffffffffffffffffffffffff1661353c9092919063ffffffff16565b8273ffffffffffffffffffffffffffffffffffffffff1663a0712d68836040518263ffffffff1660e01b81526004016117d79190613fdc565b600060405180830381600087803b1580156117f157600080fd5b505af1158015611805573d6000803e3d6000fd5b505050506118fb565b7f000000000000000000000000000000000000000000000000000000000000000073ffffffffffffffffffffffffffffffffffffffff16632e1a7d4d836040518263ffffffff1660e01b81526004016118679190613fdc565b600060405180830381600087803b15801561188157600080fd5b505af1158015611895573d6000803e3d6000fd5b505050508273ffffffffffffffffffffffffffffffffffffffff16631249c58b836040518263ffffffff1660e01b81526004016000604051808303818588803b1580156118e157600080fd5b505af11580156118f5573d6000803e3d6000fd5b50505050505b611962565b8273ffffffffffffffffffffffffffffffffffffffff16631249c58b836040518263ffffffff1660e01b81526004016000604051808303818588803b15801561194857600080fd5b505af115801561195c573d6000803e3d6000fd5b50505050505b5050505050565b84156119f4577f000000000000000000000000000000000000000000000000000000000000000093508373ffffffffffffffffffffffffffffffffffffffff1663d0e30db0836040518263ffffffff1660e01b81526004016000604051808303818588803b1580156119da57600080fd5b505af11580156119ee573d6000803e3d6000fd5b50505050505b60008373ffffffffffffffffffffffffffffffffffffffff16637535d2466040518163ffffffff1660e01b8152600401602060405180830381865afa158015611a41573d6000803e3d6000fd5b505050506040513d601f19601f82011682018060405250810190611a659190614e81565b9050611a9281848773ffffffffffffffffffffffffffffffffffffffff1661353c9092919063ffffffff16565b8073ffffffffffffffffffffffffffffffffffffffff1663e8eda9df86858560006040518563ffffffff1660e01b8152600401611ad29493929190614eae565b600060405180830381600087803b158015611aec57600080fd5b505af1158015611b00573d6000803e3d6000fd5b50505050505050505050565b6000611b2d8273ffffffffffffffffffffffffffffffffffffffff166115cc565b15611cf4577f000000000000000000000000000000000000000000000000000000000000000091507f000000000000000000000000000000000000000000000000000000000000000073ffffffffffffffffffffffffffffffffffffffff166370a08231306040518263ffffffff1660e01b8152600401611bae9190614006565b602060405180830381865afa158015611bcb573d6000803e3d6000fd5b505050506040513d601f19601f82011682018060405250810190611bef9190614ef3565b90506000811115611cef577f000000000000000000000000000000000000000000000000000000000000000073ffffffffffffffffffffffffffffffffffffffff16632e1a7d4d826040518263ffffffff1660e01b8152600401611c539190613fdc565b600060405180830381600087803b158015611c6d57600080fd5b505af1158015611c81573d6000803e3d6000fd5b505050503373ffffffffffffffffffffffffffffffffffffffff1681604051611ca990614f51565b60006040518083038185875af1925050503d8060008114611ce6576040519150601f19603f3d011682016040523d82523d6000602084013e611ceb565b606091505b5050505b611d55565b611d1d308373ffffffffffffffffffffffffffffffffffffffff166116e690919063ffffffff16565b90506000811115611d5457611d5333828473ffffffffffffffffffffffffffffffffffffffff166134ed9092919063ffffffff16565b5b5b5050565b6000611d888230858773ffffffffffffffffffffffffffffffffffffffff16611687909392919063ffffffff16565b8373ffffffffffffffffffffffffffffffffffffffff1663db006a75846040518263ffffffff1660e01b8152600401611dc19190613fdc565b600060405180830381600087803b158015611ddb57600080fd5b505af1158015611def573d6000803e3d6000fd5b50505050611e1c308673ffffffffffffffffffffffffffffffffffffffff1661398290919063ffffffff16565b90503073ffffffffffffffffffffffffffffffffffffffff168273ffffffffffffffffffffffffffffffffffffffff1614611e7d57611e7c82828773ffffffffffffffffffffffffffffffffffffffff166139e39092919063ffffffff16565b5b95945050505050565b6000611eb58230858773ffffffffffffffffffffffffffffffffffffffff16611687909392919063ffffffff16565b60008473ffffffffffffffffffffffffffffffffffffffff16637535d2466040518163ffffffff1660e01b8152600401602060405180830381865afa158015611f02573d6000803e3d6000fd5b505050506040513d601f19601f82011682018060405250810190611f269190614e81565b90508073ffffffffffffffffffffffffffffffffffffffff166369328dec611f638873ffffffffffffffffffffffffffffffffffffffff166115cc565b611f6d5787611f8f565b7f00000000000000000000000000000000000000000000000000000000000000005b86306040518463ffffffff1660e01b8152600401611faf93929190614f66565b6020604051808303816000875af1158015611fce573d6000803e3d6000fd5b505050506040513d601f19601f82011682018060405250810190611ff29190614ef3565b508615612085577f000000000000000000000000000000000000000000000000000000000000000073ffffffffffffffffffffffffffffffffffffffff16632e1a7d4d856040518263ffffffff1660e01b81526004016120529190613fdc565b600060405180830381600087803b15801561206c57600080fd5b505af1158015612080573d6000803e3d6000fd5b505050505b3073ffffffffffffffffffffffffffffffffffffffff168373ffffffffffffffffffffffffffffffffffffffff16146120e4576120e383858873ffffffffffffffffffffffffffffffffffffffff166139e39092919063ffffffff16565b5b8391505095945050505050565b60008373ffffffffffffffffffffffffffffffffffffffff166317bfdfbc836040518263ffffffff1660e01b815260040161212c9190614006565b6020604051808303816000875af115801561214b573d6000803e3d6000fd5b505050506040513d601f19601f8201168201806040525081019061216f9190614ef3565b905060008184116121805783612182565b815b9050600081111561242357866123a3577f000000000000000000000000000000000000000000000000000000000000000073ffffffffffffffffffffffffffffffffffffffff168673ffffffffffffffffffffffffffffffffffffffff16146122945761221085828873ffffffffffffffffffffffffffffffffffffffff1661353c9092919063ffffffff16565b8473ffffffffffffffffffffffffffffffffffffffff16632608f81884836040518363ffffffff1660e01b815260040161224b929190614f9d565b6020604051808303816000875af115801561226a573d6000803e3d6000fd5b505050506040513d601f19601f8201168201806040525081019061228e9190614ef3565b5061239e565b7f000000000000000000000000000000000000000000000000000000000000000073ffffffffffffffffffffffffffffffffffffffff16632e1a7d4d856040518263ffffffff1660e01b81526004016122ed9190613fdc565b600060405180830381600087803b15801561230757600080fd5b505af115801561231b573d6000803e3d6000fd5b505050508473ffffffffffffffffffffffffffffffffffffffff1663e597461982856040518363ffffffff1660e01b81526004016123599190614006565b60206040518083038185885af1158015612377573d6000803e3d6000fd5b50505050506040513d601f19601f8201168201806040525081019061239c9190614ef3565b505b612422565b8473ffffffffffffffffffffffffffffffffffffffff1663e597461982856040518363ffffffff1660e01b81526004016123dd9190614006565b60206040518083038185885af11580156123fb573d6000803e3d6000fd5b50505050506040513d601f19601f820116820180604052508101906124209190614ef3565b505b5b50505050505050565b60008373ffffffffffffffffffffffffffffffffffffffff16637535d2466040518163ffffffff1660e01b8152600401602060405180830381865afa158015612479573d6000803e3d6000fd5b505050506040513d601f19601f8201168201806040525081019061249d9190614e81565b905060006124ca838673ffffffffffffffffffffffffffffffffffffffff1661398290919063ffffffff16565b905060008185116124db57846124dd565b815b905060008111156125a95761251383828973ffffffffffffffffffffffffffffffffffffffff1661353c9092919063ffffffff16565b8273ffffffffffffffffffffffffffffffffffffffff1663573ade81888360028081111561254457612543614fc6565b5b886040518563ffffffff1660e01b81526004016125649493929190615026565b6020604051808303816000875af1158015612583573d6000803e3d6000fd5b505050506040513d601f19601f820116820180604052508101906125a79190614ef3565b505b5050505050505050565b8061018001518060200190518101906125cc9190614453565b846080018560a0018660c0018761018001849052848152508473ffffffffffffffffffffffffffffffffffffffff1673ffffffffffffffffffffffffffffffffffffffff168152508473ffffffffffffffffffffffffffffffffffffffff1673ffffffffffffffffffffffffffffffffffffffff1681525050505050600167ffffffffffffffff81111561266357612662613cd5565b5b6040519080825280602002602001820160405280156126915781602001602082028036833780820191505090505b50816101200181905250600167ffffffffffffffff8111156126b6576126b5613cd5565b5b6040519080825280602002602001820160405280156126e45781602001602082028036833780820191505090505b508161014001819052506000600167ffffffffffffffff81111561270b5761270a613cd5565b5b6040519080825280602002602001820160405280156127395781602001602082028036833780820191505090505b509050600060048360e001511660ff161461275857816020015161275e565b81608001515b826101200151600081518110612777576127766144d6565b5b602002602001019073ffffffffffffffffffffffffffffffffffffffff16908173ffffffffffffffffffffffffffffffffffffffff16815250506127f08261012001516000815181106127cd576127cc6144d6565b5b602002602001015173ffffffffffffffffffffffffffffffffffffffff166115cc565b1561286a577f000000000000000000000000000000000000000000000000000000000000000082610120015160008151811061282f5761282e6144d6565b5b602002602001019073ffffffffffffffffffffffffffffffffffffffff16908173ffffffffffffffffffffffffffffffffffffffff16815250505b8160c00151826101400151600081518110612888576128876144d6565b5b6020026020010181815250507f000000000000000000000000000000000000000000000000000000000000000073ffffffffffffffffffffffffffffffffffffffff1663ab9c4b5d3084610120015185610140015185306040518061014001604052808a6060015173ffffffffffffffffffffffffffffffffffffffff1681526020018a6020015173ffffffffffffffffffffffffffffffffffffffff1681526020018a6040015173ffffffffffffffffffffffffffffffffffffffff1681526020018a6080015173ffffffffffffffffffffffffffffffffffffffff1681526020018a60a0015173ffffffffffffffffffffffffffffffffffffffff1681526020018a6020015173ffffffffffffffffffffffffffffffffffffffff1681526020018a6000015181526020018a60c0015181526020018a60e0015160ff168152602001604051806020016040528060008152508152506040516020016129ef9190614661565b60405160208183030381529060405260006040518863ffffffff1660e01b8152600401612a229796959493929190614874565b600060405180830381600087803b158015612a3c57600080fd5b505af1158015612a50573d6000803e3d6000fd5b5050505060008261018001515114612cf557600080836101800151806020019051810190612a7e9190615224565b915091508151815114612abd576040517fff633a3800000000000000000000000000000000000000000000000000000000815260040160405180910390fd5b6000825167ffffffffffffffff811115612ada57612ad9613cd5565b5b604051908082528060200260200182016040528015612b1357816020015b612b00613b7b565b815260200190600190039081612af85790505b50905060005b8351811015612c4c5760006040518060a0016040528030604051602001612b409190614006565b60405160208183030381529060405281526020013389602001518a604001518b60e0015189604051602001612b7995949392919061536d565b6040516020818303038152906040528152602001600067ffffffffffffffff811115612ba857612ba7613cd5565b5b604051908082528060200260200182016040528015612be157816020015b612bce613bc0565b815260200190600190039081612bc65790505b508152602001600073ffffffffffffffffffffffffffffffffffffffff16815260200160405180602001604052806000815250815250905080838381518110612c2d57612c2c6144d6565b5b6020026020010181905250508080612c4490614e24565b915050612b19565b507f000000000000000000000000000000000000000000000000000000000000000073ffffffffffffffffffffffffffffffffffffffff16633626454d82856040518363ffffffff1660e01b8152600401612ca89291906156b0565b6000604051808303816000875af1158015612cc7573d6000803e3d6000fd5b505050506040513d6000823e3d601f19601f82011682018060405250810190612cf091906157bf565b505050505b5050565b612d01613a9a565b73ffffffffffffffffffffffffffffffffffffffff16612d1f610f90565b73ffffffffffffffffffffffffffffffffffffffff1614612d7e57612d42613a9a565b6040517f118cdaa7000000000000000000000000000000000000000000000000000000008152600401612d759190614006565b60405180910390fd5b565b60008060009054906101000a900473ffffffffffffffffffffffffffffffffffffffff169050816000806101000a81548173ffffffffffffffffffffffffffffffffffffffff021916908373ffffffffffffffffffffffffffffffffffffffff1602179055508173ffffffffffffffffffffffffffffffffffffffff168173ffffffffffffffffffffffffffffffffffffffff167f8be0079c531659141344cd1fd0a4f28419497f9722a3daafe3b4186f6b6457e060405160405180910390a35050565b60008160400151806020019051810190612e5e9190615808565b90508073ffffffffffffffffffffffffffffffffffffffff167f000000000000000000000000000000000000000000000000000000000000000073ffffffffffffffffffffffffffffffffffffffff1614612ef057806040517f71811df2000000000000000000000000000000000000000000000000000000008152600401612ee79190614006565b60405180910390fd5b60008060008060008660600151806020019051810190612f10919061584a565b94509450945094509450612f22613aa2565b85816060019073ffffffffffffffffffffffffffffffffffffffff16908173ffffffffffffffffffffffffffffffffffffffff168152505084816020019073ffffffffffffffffffffffffffffffffffffffff16908173ffffffffffffffffffffffffffffffffffffffff168152505083816040019073ffffffffffffffffffffffffffffffffffffffff16908173ffffffffffffffffffffffffffffffffffffffff1681525050828160e0019060ff16908160ff168152505081816101800181905250612fef816125b3565b5050505050505050565b600061301e836020015173ffffffffffffffffffffffffffffffffffffffff166115cc565b90506000613045846060015173ffffffffffffffffffffffffffffffffffffffff166115cc565b9050600060018561010001511660ff16036131e55780156130f0577f000000000000000000000000000000000000000000000000000000000000000073ffffffffffffffffffffffffffffffffffffffff16632e1a7d4d8560e001516040518263ffffffff1660e01b81526004016130bd9190613fdc565b600060405180830381600087803b1580156130d757600080fd5b505af11580156130eb573d6000803e3d6000fd5b505050505b61311c81856060015186608001518760e001518860c001516131129190614df0565b88600001516120f1565b6131358285602001518660400151868860000151611d59565b5081156131be577f000000000000000000000000000000000000000000000000000000000000000073ffffffffffffffffffffffffffffffffffffffff1663d0e30db0846040518263ffffffff1660e01b81526004016000604051808303818588803b1580156131a457600080fd5b505af11580156131b8573d6000803e3d6000fd5b50505050505b836060015173ffffffffffffffffffffffffffffffffffffffff168460a00151505061324e565b61321181856060015186608001518760e001518860c001516132079190614df0565b886000015161242c565b61322a8285602001518660400151868860000151611e86565b50836060015173ffffffffffffffffffffffffffffffffffffffff168460a0015150505b50505050565b6000613279836020015173ffffffffffffffffffffffffffffffffffffffff166115cc565b905060006132a0846060015173ffffffffffffffffffffffffffffffffffffffff166115cc565b9050600060018561010001511660ff160361347957600060048561010001511660ff16146132ce57816132d0565b805b15613365577f000000000000000000000000000000000000000000000000000000000000000073ffffffffffffffffffffffffffffffffffffffff16632e1a7d4d8560e001516040518263ffffffff1660e01b81526004016133329190613fdc565b600060405180830381600087803b15801561334c57600080fd5b505af1158015613360573d6000803e3d6000fd5b505050505b61339182856020015186604001518760e001518860c001516133879190614df0565b886000015161171b565b6133b0818560600151866080015186886000015189610120015161358b565b600060048561010001511660ff16146133c957816133cb565b805b15613452577f000000000000000000000000000000000000000000000000000000000000000073ffffffffffffffffffffffffffffffffffffffff1663d0e30db0846040518263ffffffff1660e01b81526004016000604051808303818588803b15801561343857600080fd5b505af115801561344c573d6000803e3d6000fd5b50505050505b836060015173ffffffffffffffffffffffffffffffffffffffff168460a0015150506134e7565b6134a582856020015186604001518760e001518860c0015161349b9190614df0565b8860000151611969565b6134c481856060015186608001518688600001518961012001516136e4565b836060015173ffffffffffffffffffffffffffffffffffffffff168460a0015150505b50505050565b81601452806034526fa9059cbb00000000000000000000000060005260206000604460106000875af13d156001600051141716613532576390b8ec186000526004601cfd5b6000603452505050565b81601452806034526f095ea7b300000000000000000000000060005260206000604460106000875af13d15600160005114171661358157633e3f8f736000526004601cfd5b6000603452505050565b8373ffffffffffffffffffffffffffffffffffffffff1663c5ebeaec846040518263ffffffff1660e01b81526004016135c49190613fdc565b6020604051808303816000875af11580156135e3573d6000803e3d6000fd5b505050506040513d601f19601f820116820180604052508101906136079190614ef3565b503073ffffffffffffffffffffffffffffffffffffffff168273ffffffffffffffffffffffffffffffffffffffff16146136dc5785156136af578173ffffffffffffffffffffffffffffffffffffffff168360405161366590614f51565b60006040518083038185875af1925050503d80600081146136a2576040519150601f19603f3d011682016040523d82523d6000602084013e6136a7565b606091505b5050506136db565b6136da82848773ffffffffffffffffffffffffffffffffffffffff166134ed9092919063ffffffff16565b5b5b505050505050565b60008473ffffffffffffffffffffffffffffffffffffffff16637535d2466040518163ffffffff1660e01b8152600401602060405180830381865afa158015613731573d6000803e3d6000fd5b505050506040513d601f19601f820116820180604052508101906137559190614e81565b9050838573ffffffffffffffffffffffffffffffffffffffff16636bd76d2485306040518363ffffffff1660e01b81526004016137939291906158e1565b602060405180830381865afa1580156137b0573d6000803e3d6000fd5b505050506040513d601f19601f820116820180604052508101906137d49190614ef3565b1015613894576000806000848060200190518101906137f3919061590a565b9250925092508773ffffffffffffffffffffffffffffffffffffffff16630b52d55887307fffffffffffffffffffffffffffffffffffffffffffffffffffffffffffffffff808888886040518863ffffffff1660e01b815260040161385e979695949392919061596c565b600060405180830381600087803b15801561387857600080fd5b505af115801561388c573d6000803e3d6000fd5b505050505050505b8073ffffffffffffffffffffffffffffffffffffffff1663a415bcad87866002808111156138c5576138c4614fc6565b5b6000886040518663ffffffff1660e01b81526004016138e89594939291906159db565b600060405180830381600087803b15801561390257600080fd5b505af1158015613916573d6000803e3d6000fd5b505050508273ffffffffffffffffffffffffffffffffffffffff163073ffffffffffffffffffffffffffffffffffffffff16146139795761397883858873ffffffffffffffffffffffffffffffffffffffff166139e39092919063ffffffff16565b5b50505050505050565b600061398d836115cc565b156139b1578173ffffffffffffffffffffffffffffffffffffffff163190506139dd565b6139da828473ffffffffffffffffffffffffffffffffffffffff166116e690919063ffffffff16565b90505b92915050565b6000811115613a95576139f5836115cc565b15613a68578173ffffffffffffffffffffffffffffffffffffffff1681604051613a1e90614f51565b60006040518083038185875af1925050503d8060008114613a5b576040519150601f19603f3d011682016040523d82523d6000602084013e613a60565b606091505b505050613a94565b613a9382828573ffffffffffffffffffffffffffffffffffffffff166134ed9092919063ffffffff16565b5b5b505050565b600033905090565b604051806101a0016040528060008152602001600073ffffffffffffffffffffffffffffffffffffffff168152602001600073ffffffffffffffffffffffffffffffffffffffff168152602001600073ffffffffffffffffffffffffffffffffffffffff168152602001600073ffffffffffffffffffffffffffffffffffffffff168152602001600073ffffffffffffffffffffffffffffffffffffffff16815260200160008152602001600060ff16815260200160608152602001606081526020016060815260200160608152602001606081525090565b6040518060a00160405280606081526020016060815260200160608152602001600073ffffffffffffffffffffffffffffffffffffffff168152602001606081525090565b6040518060400160405280600073ffffffffffffffffffffffffffffffffffffffff168152602001600081525090565b6000604051905090565b600080fd5b600080fd5b60007fffffffff0000000000000000000000000000000000000000000000000000000082169050919050565b613c3981613c04565b8114613c4457600080fd5b50565b600081359050613c5681613c30565b92915050565b600060208284031215613c7257613c71613bfa565b5b6000613c8084828501613c47565b91505092915050565b60008115159050919050565b613c9e81613c89565b82525050565b6000602082019050613cb96000830184613c95565b92915050565b600080fd5b6000601f19601f8301169050919050565b7f4e487b7100000000000000000000000000000000000000000000000000000000600052604160045260246000fd5b613d0d82613cc4565b810181811067ffffffffffffffff82111715613d2c57613d2b613cd5565b5b80604052505050565b6000613d3f613bf0565b9050613d4b8282613d04565b919050565b600080fd5b600073ffffffffffffffffffffffffffffffffffffffff82169050919050565b6000613d8082613d55565b9050919050565b613d9081613d75565b8114613d9b57600080fd5b50565b600081359050613dad81613d87565b92915050565b6000819050919050565b613dc681613db3565b8114613dd157600080fd5b50565b600081359050613de381613dbd565b92915050565b600060ff82169050919050565b613dff81613de9565b8114613e0a57600080fd5b50565b600081359050613e1c81613df6565b92915050565b600080fd5b600080fd5b600067ffffffffffffffff821115613e4757613e46613cd5565b5b613e5082613cc4565b9050602081019050919050565b82818337600083830152505050565b6000613e7f613e7a84613e2c565b613d35565b905082815260208101848484011115613e9b57613e9a613e27565b5b613ea6848285613e5d565b509392505050565b600082601f830112613ec357613ec2613e22565b5b8135613ed3848260208601613e6c565b91505092915050565b600060a08284031215613ef257613ef1613cbf565b5b613efc60a0613d35565b90506000613f0c84828501613d9e565b6000830152506020613f2084828501613d9e565b6020830152506040613f3484828501613dd4565b6040830152506060613f4884828501613e0d565b606083015250608082013567ffffffffffffffff811115613f6c57613f6b613d50565b5b613f7884828501613eae565b60808301525092915050565b600060208284031215613f9a57613f99613bfa565b5b600082013567ffffffffffffffff811115613fb857613fb7613bff565b5b613fc484828501613edc565b91505092915050565b613fd681613db3565b82525050565b6000602082019050613ff16000830184613fcd565b92915050565b61400081613d75565b82525050565b600060208201905061401b6000830184613ff7565b92915050565b6000819050919050565b600061404661404161403c84613d55565b614021565b613d55565b9050919050565b60006140588261402b565b9050919050565b600061406a8261404d565b9050919050565b61407a8161405f565b82525050565b60006020820190506140956000830184614071565b92915050565b600080fd5b600060a082840312156140b6576140b561409b565b5b81905092915050565b6000602082840312156140d5576140d4613bfa565b5b600082013567ffffffffffffffff8111156140f3576140f2613bff565b5b6140ff848285016140a0565b91505092915050565b600080fd5b600080fd5b60008083601f84011261412857614127613e22565b5b8235905067ffffffffffffffff81111561414557614144614108565b5b6020830191508360208202830111156141615761416061410d565b5b9250929050565b60008083601f84011261417e5761417d613e22565b5b8235905067ffffffffffffffff81111561419b5761419a614108565b5b6020830191508360208202830111156141b7576141b661410d565b5b9250929050565b60008083601f8401126141d4576141d3613e22565b5b8235905067ffffffffffffffff8111156141f1576141f0614108565b5b60208301915083600182028301111561420d5761420c61410d565b5b9250929050565b600080600080600080600080600060a08a8c03121561423657614235613bfa565b5b60008a013567ffffffffffffffff81111561425457614253613bff565b5b6142608c828d01614112565b995099505060208a013567ffffffffffffffff81111561428357614282613bff565b5b61428f8c828d01614168565b975097505060408a013567ffffffffffffffff8111156142b2576142b1613bff565b5b6142be8c828d01614168565b955095505060606142d18c828d01613d9e565b93505060808a013567ffffffffffffffff8111156142f2576142f1613bff565b5b6142fe8c828d016141be565b92509250509295985092959850929598565b60006020828403121561432657614325613bfa565b5b600061433484828501613d9e565b91505092915050565b60006040820190506143526000830185613fcd565b61435f6020830184613fcd565b9392505050565b600061437182613d55565b9050919050565b61438181614366565b811461438c57600080fd5b50565b60008151905061439e81614378565b92915050565b6000815190506143b381613dbd565b92915050565b60005b838110156143d75780820151818401526020810190506143bc565b60008484015250505050565b60006143f66143f184613e2c565b613d35565b90508281526020810184848401111561441257614411613e27565b5b61441d8482856143b9565b509392505050565b600082601f83011261443a57614439613e22565b5b815161444a8482602086016143e3565b91505092915050565b6000806000806080858703121561446d5761446c613bfa565b5b600061447b8782880161438f565b945050602061448c8782880161438f565b935050604061449d878288016143a4565b925050606085015167ffffffffffffffff8111156144be576144bd613bff565b5b6144ca87828801614425565b91505092959194509250565b7f4e487b7100000000000000000000000000000000000000000000000000000000600052603260045260246000fd5b61450e81613d75565b82525050565b61451d81613db3565b82525050565b61452c81613de9565b82525050565b600081519050919050565b600082825260208201905092915050565b600061455982614532565b614563818561453d565b93506145738185602086016143b9565b61457c81613cc4565b840191505092915050565b6000610140830160008301516145a06000860182614505565b5060208301516145b36020860182614505565b5060408301516145c66040860182614505565b5060608301516145d96060860182614505565b5060808301516145ec6080860182614505565b5060a08301516145ff60a0860182614505565b5060c083015161461260c0860182614514565b5060e083015161462560e0860182614514565b5061010083015161463a610100860182614523565b50610120830151848203610120860152614654828261454e565b9150508091505092915050565b6000602082019050818103600083015261467b8184614587565b905092915050565b600081519050919050565b600082825260208201905092915050565b6000819050602082019050919050565b60006146bb8383614505565b60208301905092915050565b6000602082019050919050565b60006146df82614683565b6146e9818561468e565b93506146f48361469f565b8060005b8381101561472557815161470c88826146af565b9750614717836146c7565b9250506001810190506146f8565b5085935050505092915050565b600081519050919050565b600082825260208201905092915050565b6000819050602082019050919050565b600061476a8383614514565b60208301905092915050565b6000602082019050919050565b600061478e82614732565b614798818561473d565b93506147a38361474e565b8060005b838110156147d45781516147bb888261475e565b97506147c683614776565b9250506001810190506147a7565b5085935050505092915050565b600082825260208201905092915050565b60006147fd82614532565b61480781856147e1565b93506148178185602086016143b9565b61482081613cc4565b840191505092915050565b6000819050919050565b600061ffff82169050919050565b600061485e6148596148548461482b565b614021565b614835565b9050919050565b61486e81614843565b82525050565b600060e082019050614889600083018a613ff7565b818103602083015261489b81896146d4565b905081810360408301526148af8188614783565b905081810360608301526148c38187614783565b90506148d26080830186613ff7565b81810360a08301526148e481856147f2565b90506148f360c0830184614865565b98975050505050505050565b7f4e487b7100000000000000000000000000000000000000000000000000000000600052601160045260246000fd5b600061493982613db3565b915061494483613db3565b925082820390508181111561495c5761495b6148ff565b5b92915050565b6000819050919050565b61497581614962565b811461498057600080fd5b50565b6000813590506149928161496c565b92915050565b600067ffffffffffffffff82169050919050565b6149b581614998565b81146149c057600080fd5b50565b6000813590506149d2816149ac565b92915050565b600067ffffffffffffffff8211156149f3576149f2613cd5565b5b602082029050602081019050919050565b600060408284031215614a1a57614a19613cbf565b5b614a246040613d35565b90506000614a3484828501613d9e565b6000830152506020614a4884828501613dd4565b60208301525092915050565b6000614a67614a62846149d8565b613d35565b90508083825260208201905060408402830185811115614a8a57614a8961410d565b5b835b81811015614ab35780614a9f8882614a04565b845260208401935050604081019050614a8c565b5050509392505050565b600082601f830112614ad257614ad1613e22565b5b8135614ae2848260208601614a54565b91505092915050565b600060a08284031215614b0157614b00613cbf565b5b614b0b60a0613d35565b90506000614b1b84828501614983565b6000830152506020614b2f848285016149c3565b602083015250604082013567ffffffffffffffff811115614b5357614b52613d50565b5b614b5f84828501613eae565b604083015250606082013567ffffffffffffffff811115614b8357614b82613d50565b5b614b8f84828501613eae565b606083015250608082013567ffffffffffffffff811115614bb357614bb2613d50565b5b614bbf84828501614abd565b60808301525092915050565b6000614bd73683614aeb565b9050919050565b60006101408284031215614bf557614bf4613cbf565b5b614c00610140613d35565b90506000614c1084828501613d9e565b6000830152506020614c2484828501613d9e565b6020830152506040614c3884828501613d9e565b6040830152506060614c4c84828501613d9e565b6060830152506080614c6084828501613d9e565b60808301525060a0614c7484828501613d9e565b60a08301525060c0614c8884828501613dd4565b60c08301525060e0614c9c84828501613dd4565b60e083015250610100614cb184828501613e0d565b6101008301525061012082013567ffffffffffffffff811115614cd757614cd6613d50565b5b614ce384828501613eae565b6101208301525092915050565b600060208284031215614d0657614d05613bfa565b5b600082013567ffffffffffffffff811115614d2457614d23613bff565b5b614d3084828501614bde565b91505092915050565b60006fffffffffffffffffffffffffffffffff82169050919050565b614d5e81614d39565b8114614d6957600080fd5b50565b600081519050614d7b81614d55565b92915050565b600060208284031215614d9757614d96613bfa565b5b6000614da584828501614d6c565b91505092915050565b6000614db982613db3565b9150614dc483613db3565b9250828202614dd281613db3565b91508282048414831517614de957614de86148ff565b5b5092915050565b6000614dfb82613db3565b9150614e0683613db3565b9250828201905080821115614e1e57614e1d6148ff565b5b92915050565b6000614e2f82613db3565b91507fffffffffffffffffffffffffffffffffffffffffffffffffffffffffffffffff8203614e6157614e606148ff565b5b600182019050919050565b600081519050614e7b81613d87565b92915050565b600060208284031215614e9757614e96613bfa565b5b6000614ea584828501614e6c565b91505092915050565b6000608082019050614ec36000830187613ff7565b614ed06020830186613fcd565b614edd6040830185613ff7565b614eea6060830184614865565b95945050505050565b600060208284031215614f0957614f08613bfa565b5b6000614f17848285016143a4565b91505092915050565b600081905092915050565b50565b6000614f3b600083614f20565b9150614f4682614f2b565b600082019050919050565b6000614f5c82614f2e565b9150819050919050565b6000606082019050614f7b6000830186613ff7565b614f886020830185613fcd565b614f956040830184613ff7565b949350505050565b6000604082019050614fb26000830185613ff7565b614fbf6020830184613fcd565b9392505050565b7f4e487b7100000000000000000000000000000000000000000000000000000000600052602160045260246000fd5b600061501061500b61500684613de9565b614021565b613db3565b9050919050565b61502081614ff5565b82525050565b600060808201905061503b6000830187613ff7565b6150486020830186613fcd565b6150556040830185615017565b6150626060830184613ff7565b95945050505050565b600067ffffffffffffffff82111561508657615085613cd5565b5b602082029050602081019050919050565b6000815190506150a6816149ac565b92915050565b60006150bf6150ba8461506b565b613d35565b905080838252602082019050602084028301858111156150e2576150e161410d565b5b835b8181101561510b57806150f78882615097565b8452602084019350506020810190506150e4565b5050509392505050565b600082601f83011261512a57615129613e22565b5b815161513a8482602086016150ac565b91505092915050565b600067ffffffffffffffff82111561515e5761515d613cd5565b5b602082029050602081019050919050565b600061518261517d84615143565b613d35565b905080838252602082019050602084028301858111156151a5576151a461410d565b5b835b818110156151ec57805167ffffffffffffffff8111156151ca576151c9613e22565b5b8086016151d78982614425565b855260208501945050506020810190506151a7565b5050509392505050565b600082601f83011261520b5761520a613e22565b5b815161521b84826020860161516f565b91505092915050565b6000806040838503121561523b5761523a613bfa565b5b600083015167ffffffffffffffff81111561525957615258613bff565b5b61526585828601615115565b925050602083015167ffffffffffffffff81111561528657615285613bff565b5b615292858286016151f6565b9150509250929050565b6152a581613de9565b82525050565b600081519050919050565b600082825260208201905092915050565b6000819050602082019050919050565b60006152e3838361454e565b905092915050565b6000602082019050919050565b6000615303826152ab565b61530d81856152b6565b93508360208202850161531f856152c7565b8060005b8581101561535b578484038952815161533c85826152d7565b9450615347836152eb565b925060208a01995050600181019050615323565b50829750879550505050505092915050565b600060a0820190506153826000830188613ff7565b61538f6020830187613ff7565b61539c6040830186613ff7565b6153a9606083018561529c565b81810360808301526153bb81846152f8565b90509695505050505050565b600081519050919050565b600082825260208201905092915050565b6000819050602082019050919050565b600081519050919050565b600082825260208201905092915050565b6000819050602082019050919050565b6040820160008201516154356000850182614505565b5060208201516154486020850182614514565b50505050565b600061545a838361541f565b60408301905092915050565b6000602082019050919050565b600061547e826153f3565b61548881856153fe565b93506154938361540f565b8060005b838110156154c45781516154ab888261544e565b97506154b683615466565b925050600181019050615497565b5085935050505092915050565b600060a08301600083015184820360008601526154ee828261454e565b91505060208301518482036020860152615508828261454e565b915050604083015184820360408601526155228282615473565b91505060608301516155376060860182614505565b506080830151848203608086015261554f828261454e565b9150508091505092915050565b600061556883836154d1565b905092915050565b6000602082019050919050565b6000615588826153c7565b61559281856153d2565b9350836020820285016155a4856153e3565b8060005b858110156155e057848403895281516155c1858261555c565b94506155cc83615570565b925060208a019950506001810190506155a8565b50829750879550505050505092915050565b600081519050919050565b600082825260208201905092915050565b6000819050602082019050919050565b61562781614998565b82525050565b6000615639838361561e565b60208301905092915050565b6000602082019050919050565b600061565d826155f2565b61566781856155fd565b93506156728361560e565b8060005b838110156156a357815161568a888261562d565b975061569583615645565b925050600181019050615676565b5085935050505092915050565b600060408201905081810360008301526156ca818561557d565b905081810360208301526156de8184615652565b90509392505050565b600067ffffffffffffffff82111561570257615701613cd5565b5b602082029050602081019050919050565b6000815190506157228161496c565b92915050565b600061573b615736846156e7565b613d35565b9050808382526020820190506020840283018581111561575e5761575d61410d565b5b835b8181101561578757806157738882615713565b845260208401935050602081019050615760565b5050509392505050565b600082601f8301126157a6576157a5613e22565b5b81516157b6848260208601615728565b91505092915050565b6000602082840312156157d5576157d4613bfa565b5b600082015167ffffffffffffffff8111156157f3576157f2613bff565b5b6157ff84828501615791565b91505092915050565b60006020828403121561581e5761581d613bfa565b5b600061582c8482850161438f565b91505092915050565b60008151905061584481613df6565b92915050565b600080600080600060a0868803121561586657615865613bfa565b5b60006158748882890161438f565b95505060206158858882890161438f565b94505060406158968882890161438f565b93505060606158a788828901615835565b925050608086015167ffffffffffffffff8111156158c8576158c7613bff565b5b6158d488828901614425565b9150509295509295909350565b60006040820190506158f66000830185613ff7565b6159036020830184613ff7565b9392505050565b60008060006060848603121561592357615922613bfa565b5b600061593186828701615835565b935050602061594286828701615713565b925050604061595386828701615713565b9150509250925092565b61596681614962565b82525050565b600060e082019050615981600083018a613ff7565b61598e6020830189613ff7565b61599b6040830188613fcd565b6159a86060830187613fcd565b6159b5608083018661529c565b6159c260a083018561595d565b6159cf60c083018461595d565b98975050505050505050565b600060a0820190506159f06000830188613ff7565b6159fd6020830187613fcd565b615a0a6040830186615017565b615a176060830185614865565b615a246080830184613ff7565b969550505050505056fea26469706673582212205bf4fafe02b785bf1a90ac3c563013d1ea74f99d6a0864bcea0661889dff820864736f6c6343000814003360e06040523480156200001157600080fd5b5060405162001f1438038062001f1483398181016040528101906200003791906200033a565b80600073ffffffffffffffffffffffffffffffffffffffff168173ffffffffffffffffffffffffffffffffffffffff1603620000ad5760006040517f1e4fbdf7000000000000000000000000000000000000000000000000000000008152600401620000a49190620003a7565b60405180910390fd5b620000be816200020c60201b60201c565b503373ffffffffffffffffffffffffffffffffffffffff1660808173ffffffffffffffffffffffffffffffffffffffff16815250508273ffffffffffffffffffffffffffffffffffffffff1660a08173ffffffffffffffffffffffffffffffffffffffff16815250508173ffffffffffffffffffffffffffffffffffffffff1660c08173ffffffffffffffffffffffffffffffffffffffff168152505060c05173ffffffffffffffffffffffffffffffffffffffff1663095ea7b360a0517fffffffffffffffffffffffffffffffffffffffffffffffffffffffffffffffff6040518363ffffffff1660e01b8152600401620001bc929190620003df565b6020604051808303816000875af1158015620001dc573d6000803e3d6000fd5b505050506040513d601f19601f8201168201806040525081019062000202919062000449565b505050506200047b565b60008060009054906101000a900473ffffffffffffffffffffffffffffffffffffffff169050816000806101000a81548173ffffffffffffffffffffffffffffffffffffffff021916908373ffffffffffffffffffffffffffffffffffffffff1602179055508173ffffffffffffffffffffffffffffffffffffffff168173ffffffffffffffffffffffffffffffffffffffff167f8be0079c531659141344cd1fd0a4f28419497f9722a3daafe3b4186f6b6457e060405160405180910390a35050565b600080fd5b600073ffffffffffffffffffffffffffffffffffffffff82169050919050565b60006200030282620002d5565b9050919050565b6200031481620002f5565b81146200032057600080fd5b50565b600081519050620003348162000309565b92915050565b600080600060608486031215620003565762000355620002d0565b5b6000620003668682870162000323565b9350506020620003798682870162000323565b92505060406200038c8682870162000323565b9150509250925092565b620003a181620002f5565b82525050565b6000602082019050620003be600083018462000396565b92915050565b6000819050919050565b620003d981620003c4565b82525050565b6000604082019050620003f6600083018562000396565b620004056020830184620003ce565b9392505050565b60008115159050919050565b62000423816200040c565b81146200042f57600080fd5b50565b600081519050620004438162000418565b92915050565b600060208284031215620004625762000461620002d0565b5b6000620004728482850162000432565b91505092915050565b60805160a05160c051611a46620004ce600039600061045b015260008181610423015281816104aa015281816107d4015281816108ab01526109510152600081816102cf015261054b0152611a466000f3fe6080604052600436106100955760003560e01c80638da5cb5b116100595780638da5cb5b14610174578063a48a90581461019f578063db3e3461146101dc578063f2fde38b14610207578063f3fef3a3146102305761009c565b806301e33667146100a15780633626454d146100ca578063581bdd1614610107578063715018a6146101325780637d253aff146101495761009c565b3661009c57005b600080fd5b3480156100ad57600080fd5b506100c860048036038101906100c39190610bec565b610259565b005b3480156100d657600080fd5b506100f160048036038101906100ec9190611187565b6102cb565b6040516100fe91906112c7565b60405180910390f35b34801561011357600080fd5b5061011c610421565b60405161012991906112f8565b60405180910390f35b34801561013e57600080fd5b50610147610445565b005b34801561015557600080fd5b5061015e610459565b60405161016b91906112f8565b60405180910390f35b34801561018057600080fd5b5061018961047d565b60405161019691906112f8565b60405180910390f35b3480156101ab57600080fd5b506101c660048036038101906101c19190611313565b6104a6565b6040516101d3919061135b565b60405180910390f35b3480156101e857600080fd5b506101f1610549565b6040516101fe91906112f8565b60405180910390f35b34801561021357600080fd5b5061022e60048036038101906102299190611376565b61056d565b005b34801561023c57600080fd5b50610257600480360381019061025291906113a3565b6105f3565b005b6102616106c4565b600061028c308473ffffffffffffffffffffffffffffffffffffffff1661074b90919063ffffffff16565b90508082111561029a578091505b6102c584838573ffffffffffffffffffffffffffffffffffffffff166107809092919063ffffffff16565b50505050565b60607f000000000000000000000000000000000000000000000000000000000000000073ffffffffffffffffffffffffffffffffffffffff163373ffffffffffffffffffffffffffffffffffffffff1614610352576040517fb32d8c6600000000000000000000000000000000000000000000000000000000815260040160405180910390fd5b825167ffffffffffffffff81111561036d5761036c610c55565b5b60405190808252806020026020018201604052801561039b5781602001602082028036833780820191505090505b50905060005b835181101561041a576103e88482815181106103c0576103bf6113e3565b5b60200260200101518483815181106103db576103da6113e3565b5b60200260200101516107cf565b8282815181106103fb576103fa6113e3565b5b602002602001018181525050808061041290611441565b9150506103a1565b5092915050565b7f000000000000000000000000000000000000000000000000000000000000000081565b61044d6106c4565b6104576000610a78565b565b7f000000000000000000000000000000000000000000000000000000000000000081565b60008060009054906101000a900473ffffffffffffffffffffffffffffffffffffffff16905090565b60007f000000000000000000000000000000000000000000000000000000000000000073ffffffffffffffffffffffffffffffffffffffff1663a48a9058836040518263ffffffff1660e01b81526004016105019190611498565b602060405180830381865afa15801561051e573d6000803e3d6000fd5b505050506040513d601f19601f8201168201806040525081019061054291906114df565b9050919050565b7f000000000000000000000000000000000000000000000000000000000000000081565b6105756106c4565b600073ffffffffffffffffffffffffffffffffffffffff168173ffffffffffffffffffffffffffffffffffffffff16036105e75760006040517f1e4fbdf70000000000000000000000000000000000000000000000000000000081526004016105de91906112f8565b60405180910390fd5b6105f081610a78565b50565b6105fb6106c4565b60004790508082111561060c578091505b60008373ffffffffffffffffffffffffffffffffffffffff16836040516106329061153d565b60006040518083038185875af1925050503d806000811461066f576040519150601f19603f3d011682016040523d82523d6000602084013e610674565b606091505b50509050806106be573384846040517f9d11f5630000000000000000000000000000000000000000000000000000000081526004016106b593929190611561565b60405180910390fd5b50505050565b6106cc610b3c565b73ffffffffffffffffffffffffffffffffffffffff166106ea61047d565b73ffffffffffffffffffffffffffffffffffffffff16146107495761070d610b3c565b6040517f118cdaa700000000000000000000000000000000000000000000000000000000815260040161074091906112f8565b60405180910390fd5b565b6000816014526f70a0823100000000000000000000000060005260208060246010865afa601f3d111660205102905092915050565b81601452806034526fa9059cbb00000000000000000000000060005260206000604460106000875af13d1560016000511417166107c5576390b8ec186000526004601cfd5b6000603452505050565b6000807f000000000000000000000000000000000000000000000000000000000000000073ffffffffffffffffffffffffffffffffffffffff166320487ded84866040518363ffffffff1660e01b815260040161082d92919061179e565b602060405180830381865afa15801561084a573d6000803e3d6000fd5b505050506040513d601f19601f8201168201806040525081019061086e91906117e3565b905060008073ffffffffffffffffffffffffffffffffffffffff16856060015173ffffffffffffffffffffffffffffffffffffffff160361094f577f000000000000000000000000000000000000000000000000000000000000000073ffffffffffffffffffffffffffffffffffffffff166396f4e9f98386886040518463ffffffff1660e01b815260040161090592919061179e565b60206040518083038185885af1158015610923573d6000803e3d6000fd5b50505050506040513d601f19601f82011682018060405250810190610948919061183c565b90506109f0565b7f000000000000000000000000000000000000000000000000000000000000000073ffffffffffffffffffffffffffffffffffffffff166396f4e9f985876040518363ffffffff1660e01b81526004016109aa92919061179e565b6020604051808303816000875af11580156109c9573d6000803e3d6000fd5b505050506040513d601f19601f820116820180604052508101906109ed919061183c565b90505b60008560200151806020019051810190610a0a9190611950565b5050505090508073ffffffffffffffffffffffffffffffffffffffff168567ffffffffffffffff16837fbb84df71a0e51d82ff2e818a77257c7a05d8ea1bbcf265b377fd30d8e9e790213087604051610a649291906119e7565b60405180910390a481935050505092915050565b60008060009054906101000a900473ffffffffffffffffffffffffffffffffffffffff169050816000806101000a81548173ffffffffffffffffffffffffffffffffffffffff021916908373ffffffffffffffffffffffffffffffffffffffff1602179055508173ffffffffffffffffffffffffffffffffffffffff168173ffffffffffffffffffffffffffffffffffffffff167f8be0079c531659141344cd1fd0a4f28419497f9722a3daafe3b4186f6b6457e060405160405180910390a35050565b600033905090565b6000604051905090565b600080fd5b600080fd5b600073ffffffffffffffffffffffffffffffffffffffff82169050919050565b6000610b8382610b58565b9050919050565b610b9381610b78565b8114610b9e57600080fd5b50565b600081359050610bb081610b8a565b92915050565b6000819050919050565b610bc981610bb6565b8114610bd457600080fd5b50565b600081359050610be681610bc0565b92915050565b600080600060608486031215610c0557610c04610b4e565b5b6000610c1386828701610ba1565b9350506020610c2486828701610ba1565b9250506040610c3586828701610bd7565b9150509250925092565b600080fd5b6000601f19601f8301169050919050565b7f4e487b7100000000000000000000000000000000000000000000000000000000600052604160045260246000fd5b610c8d82610c44565b810181811067ffffffffffffffff82111715610cac57610cab610c55565b5b80604052505050565b6000610cbf610b44565b9050610ccb8282610c84565b919050565b600067ffffffffffffffff821115610ceb57610cea610c55565b5b602082029050602081019050919050565b600080fd5b600080fd5b600080fd5b600080fd5b600067ffffffffffffffff821115610d2b57610d2a610c55565b5b610d3482610c44565b9050602081019050919050565b82818337600083830152505050565b6000610d63610d5e84610d10565b610cb5565b905082815260208101848484011115610d7f57610d7e610d0b565b5b610d8a848285610d41565b509392505050565b600082601f830112610da757610da6610c3f565b5b8135610db7848260208601610d50565b91505092915050565b600067ffffffffffffffff821115610ddb57610dda610c55565b5b602082029050602081019050919050565b600060408284031215610e0257610e01610d01565b5b610e0c6040610cb5565b90506000610e1c84828501610ba1565b6000830152506020610e3084828501610bd7565b60208301525092915050565b6000610e4f610e4a84610dc0565b610cb5565b90508083825260208201905060408402830185811115610e7257610e71610cfc565b5b835b81811015610e9b5780610e878882610dec565b845260208401935050604081019050610e74565b5050509392505050565b600082601f830112610eba57610eb9610c3f565b5b8135610eca848260208601610e3c565b91505092915050565b600060a08284031215610ee957610ee8610d01565b5b610ef360a0610cb5565b9050600082013567ffffffffffffffff811115610f1357610f12610d06565b5b610f1f84828501610d92565b600083015250602082013567ffffffffffffffff811115610f4357610f42610d06565b5b610f4f84828501610d92565b602083015250604082013567ffffffffffffffff811115610f7357610f72610d06565b5b610f7f84828501610ea5565b6040830152506060610f9384828501610ba1565b606083015250608082013567ffffffffffffffff811115610fb757610fb6610d06565b5b610fc384828501610d92565b60808301525092915050565b6000610fe2610fdd84610cd0565b610cb5565b9050808382526020820190506020840283018581111561100557611004610cfc565b5b835b8181101561104c57803567ffffffffffffffff81111561102a57611029610c3f565b5b8086016110378982610ed3565b85526020850194505050602081019050611007565b5050509392505050565b600082601f83011261106b5761106a610c3f565b5b813561107b848260208601610fcf565b91505092915050565b600067ffffffffffffffff82111561109f5761109e610c55565b5b602082029050602081019050919050565b600067ffffffffffffffff82169050919050565b6110cd816110b0565b81146110d857600080fd5b50565b6000813590506110ea816110c4565b92915050565b60006111036110fe84611084565b610cb5565b9050808382526020820190506020840283018581111561112657611125610cfc565b5b835b8181101561114f578061113b88826110db565b845260208401935050602081019050611128565b5050509392505050565b600082601f83011261116e5761116d610c3f565b5b813561117e8482602086016110f0565b91505092915050565b6000806040838503121561119e5761119d610b4e565b5b600083013567ffffffffffffffff8111156111bc576111bb610b53565b5b6111c885828601611056565b925050602083013567ffffffffffffffff8111156111e9576111e8610b53565b5b6111f585828601611159565b9150509250929050565b600081519050919050565b600082825260208201905092915050565b6000819050602082019050919050565b6000819050919050565b61123e8161122b565b82525050565b60006112508383611235565b60208301905092915050565b6000602082019050919050565b6000611274826111ff565b61127e818561120a565b93506112898361121b565b8060005b838110156112ba5781516112a18882611244565b97506112ac8361125c565b92505060018101905061128d565b5085935050505092915050565b600060208201905081810360008301526112e18184611269565b905092915050565b6112f281610b78565b82525050565b600060208201905061130d60008301846112e9565b92915050565b60006020828403121561132957611328610b4e565b5b6000611337848285016110db565b91505092915050565b60008115159050919050565b61135581611340565b82525050565b6000602082019050611370600083018461134c565b92915050565b60006020828403121561138c5761138b610b4e565b5b600061139a84828501610ba1565b91505092915050565b600080604083850312156113ba576113b9610b4e565b5b60006113c885828601610ba1565b92505060206113d985828601610bd7565b9150509250929050565b7f4e487b7100000000000000000000000000000000000000000000000000000000600052603260045260246000fd5b7f4e487b7100000000000000000000000000000000000000000000000000000000600052601160045260246000fd5b600061144c82610bb6565b91507fffffffffffffffffffffffffffffffffffffffffffffffffffffffffffffffff820361147e5761147d611412565b5b600182019050919050565b611492816110b0565b82525050565b60006020820190506114ad6000830184611489565b92915050565b6114bc81611340565b81146114c757600080fd5b50565b6000815190506114d9816114b3565b92915050565b6000602082840312156114f5576114f4610b4e565b5b6000611503848285016114ca565b91505092915050565b600081905092915050565b50565b600061152760008361150c565b915061153282611517565b600082019050919050565b60006115488261151a565b9150819050919050565b61155b81610bb6565b82525050565b600060608201905061157660008301866112e9565b61158360208301856112e9565b6115906040830184611552565b949350505050565b600081519050919050565b600082825260208201905092915050565b60005b838110156115d25780820151818401526020810190506115b7565b60008484015250505050565b60006115e982611598565b6115f381856115a3565b93506116038185602086016115b4565b61160c81610c44565b840191505092915050565b600081519050919050565b600082825260208201905092915050565b6000819050602082019050919050565b61164c81610b78565b82525050565b61165b81610bb6565b82525050565b6040820160008201516116776000850182611643565b50602082015161168a6020850182611652565b50505050565b600061169c8383611661565b60408301905092915050565b6000602082019050919050565b60006116c082611617565b6116ca8185611622565b93506116d583611633565b8060005b838110156117065781516116ed8882611690565b97506116f8836116a8565b9250506001810190506116d9565b5085935050505092915050565b600060a083016000830151848203600086015261173082826115de565b9150506020830151848203602086015261174a82826115de565b9150506040830151848203604086015261176482826116b5565b91505060608301516117796060860182611643565b506080830151848203608086015261179182826115de565b9150508091505092915050565b60006040820190506117b36000830185611489565b81810360208301526117c58184611713565b90509392505050565b6000815190506117dd81610bc0565b92915050565b6000602082840312156117f9576117f8610b4e565b5b6000611807848285016117ce565b91505092915050565b6118198161122b565b811461182457600080fd5b50565b60008151905061183681611810565b92915050565b60006020828403121561185257611851610b4e565b5b600061186084828501611827565b91505092915050565b600061187482610b58565b9050919050565b61188481611869565b811461188f57600080fd5b50565b6000815190506118a18161187b565b92915050565b600060ff82169050919050565b6118bd816118a7565b81146118c857600080fd5b50565b6000815190506118da816118b4565b92915050565b60006118f36118ee84610d10565b610cb5565b90508281526020810184848401111561190f5761190e610d0b565b5b61191a8482856115b4565b509392505050565b600082601f83011261193757611936610c3f565b5b81516119478482602086016118e0565b91505092915050565b600080600080600060a0868803121561196c5761196b610b4e565b5b600061197a88828901611892565b955050602061198b88828901611892565b945050604061199c88828901611892565b93505060606119ad888289016118cb565b925050608086015167ffffffffffffffff8111156119ce576119cd610b53565b5b6119da88828901611922565b9150509295509295909350565b60006040820190506119fc60008301856112e9565b611a096020830184611552565b939250505056fea26469706673582212207260749d28c6f63f821317490a82201992ebdd17bc72b5761627e9b20d1ae9b664736f6c63430008140033","opcodes":"PUSH2 0x120 PUSH1 0x40 MSTORE CALLVALUE DUP1 ISZERO PUSH3 0x12 JUMPI PUSH1 0x0 DUP1 REVERT JUMPDEST POP PUSH1 0x40 MLOAD PUSH3 0x7EF2 CODESIZE SUB DUP1 PUSH3 0x7EF2 DUP4 CODECOPY DUP2 DUP2 ADD PUSH1 0x40 MSTORE DUP2 ADD SWAP1 PUSH3 0x38 SWAP2 SWAP1 PUSH3 0x3BE JUMP JUMPDEST DUP3 CALLER PUSH1 0x0 PUSH20 0xFFFFFFFFFFFFFFFFFFFFFFFFFFFFFFFFFFFFFFFF AND DUP2 PUSH20 0xFFFFFFFFFFFFFFFFFFFFFFFFFFFFFFFFFFFFFFFF AND SUB PUSH3 0xAF JUMPI PUSH1 0x0 PUSH1 0x40 MLOAD PUSH32 0x1E4FBDF700000000000000000000000000000000000000000000000000000000 DUP2 MSTORE PUSH1 0x4 ADD PUSH3 0xA6 SWAP2 SWAP1 PUSH3 0x441 JUMP JUMPDEST PUSH1 0x40 MLOAD DUP1 SWAP2 SUB SWAP1 REVERT JUMPDEST PUSH3 0xC0 DUP2 PUSH3 0x282 PUSH1 0x20 SHL PUSH1 0x20 SHR JUMP JUMPDEST POP PUSH1 0x0 PUSH20 0xFFFFFFFFFFFFFFFFFFFFFFFFFFFFFFFFFFFFFFFF AND DUP2 PUSH20 0xFFFFFFFFFFFFFFFFFFFFFFFFFFFFFFFFFFFFFFFF AND SUB PUSH3 0x136 JUMPI PUSH1 0x0 PUSH1 0x40 MLOAD PUSH32 0xD7F7333400000000000000000000000000000000000000000000000000000000 DUP2 MSTORE PUSH1 0x4 ADD PUSH3 0x12D SWAP2 SWAP1 PUSH3 0x441 JUMP JUMPDEST PUSH1 0x40 MLOAD DUP1 SWAP2 SUB SWAP1 REVERT JUMPDEST DUP1 PUSH20 0xFFFFFFFFFFFFFFFFFFFFFFFFFFFFFFFFFFFFFFFF AND PUSH1 0x80 DUP2 PUSH20 0xFFFFFFFFFFFFFFFFFFFFFFFFFFFFFFFFFFFFFFFF AND DUP2 MSTORE POP POP POP DUP4 PUSH20 0xFFFFFFFFFFFFFFFFFFFFFFFFFFFFFFFFFFFFFFFF AND PUSH1 0xC0 DUP2 PUSH20 0xFFFFFFFFFFFFFFFFFFFFFFFFFFFFFFFFFFFFFFFF AND DUP2 MSTORE POP POP DUP1 PUSH20 0xFFFFFFFFFFFFFFFFFFFFFFFFFFFFFFFFFFFFFFFF AND PUSH1 0xA0 DUP2 PUSH20 0xFFFFFFFFFFFFFFFFFFFFFFFFFFFFFFFFFFFFFFFF AND DUP2 MSTORE POP POP DUP2 PUSH20 0xFFFFFFFFFFFFFFFFFFFFFFFFFFFFFFFFFFFFFFFF AND PUSH1 0xE0 DUP2 PUSH20 0xFFFFFFFFFFFFFFFFFFFFFFFFFFFFFFFFFFFFFFFF AND DUP2 MSTORE POP POP DUP3 DUP3 CALLER PUSH1 0x40 MLOAD PUSH3 0x218 SWAP1 PUSH3 0x346 JUMP JUMPDEST PUSH3 0x226 SWAP4 SWAP3 SWAP2 SWAP1 PUSH3 0x45E JUMP JUMPDEST PUSH1 0x40 MLOAD DUP1 SWAP2 SUB SWAP1 PUSH1 0x0 CREATE DUP1 ISZERO DUP1 ISZERO PUSH3 0x243 JUMPI RETURNDATASIZE PUSH1 0x0 DUP1 RETURNDATACOPY RETURNDATASIZE PUSH1 0x0 REVERT JUMPDEST POP PUSH20 0xFFFFFFFFFFFFFFFFFFFFFFFFFFFFFFFFFFFFFFFF AND PUSH2 0x100 DUP2 PUSH20 0xFFFFFFFFFFFFFFFFFFFFFFFFFFFFFFFFFFFFFFFF AND DUP2 MSTORE POP POP POP POP POP POP PUSH3 0x49B JUMP JUMPDEST PUSH1 0x0 DUP1 PUSH1 0x0 SWAP1 SLOAD SWAP1 PUSH2 0x100 EXP SWAP1 DIV PUSH20 0xFFFFFFFFFFFFFFFFFFFFFFFFFFFFFFFFFFFFFFFF AND SWAP1 POP DUP2 PUSH1 0x0 DUP1 PUSH2 0x100 EXP DUP2 SLOAD DUP2 PUSH20 0xFFFFFFFFFFFFFFFFFFFFFFFFFFFFFFFFFFFFFFFF MUL NOT AND SWAP1 DUP4 PUSH20 0xFFFFFFFFFFFFFFFFFFFFFFFFFFFFFFFFFFFFFFFF AND MUL OR SWAP1 SSTORE POP DUP2 PUSH20 0xFFFFFFFFFFFFFFFFFFFFFFFFFFFFFFFFFFFFFFFF AND DUP2 PUSH20 0xFFFFFFFFFFFFFFFFFFFFFFFFFFFFFFFFFFFFFFFF AND PUSH32 0x8BE0079C531659141344CD1FD0A4F28419497F9722A3DAAFE3B4186F6B6457E0 PUSH1 0x40 MLOAD PUSH1 0x40 MLOAD DUP1 SWAP2 SUB SWAP1 LOG3 POP POP JUMP JUMPDEST PUSH2 0x1F14 DUP1 PUSH3 0x5FDE DUP4 CODECOPY ADD SWAP1 JUMP JUMPDEST PUSH1 0x0 DUP1 REVERT JUMPDEST PUSH1 0x0 PUSH20 0xFFFFFFFFFFFFFFFFFFFFFFFFFFFFFFFFFFFFFFFF DUP3 AND SWAP1 POP SWAP2 SWAP1 POP JUMP JUMPDEST PUSH1 0x0 PUSH3 0x386 DUP3 PUSH3 0x359 JUMP JUMPDEST SWAP1 POP SWAP2 SWAP1 POP JUMP JUMPDEST PUSH3 0x398 DUP2 PUSH3 0x379 JUMP JUMPDEST DUP2 EQ PUSH3 0x3A4 JUMPI PUSH1 0x0 DUP1 REVERT JUMPDEST POP JUMP JUMPDEST PUSH1 0x0 DUP2 MLOAD SWAP1 POP PUSH3 0x3B8 DUP2 PUSH3 0x38D JUMP JUMPDEST SWAP3 SWAP2 POP POP JUMP JUMPDEST PUSH1 0x0 DUP1 PUSH1 0x0 DUP1 PUSH1 0x80 DUP6 DUP8 SUB SLT ISZERO PUSH3 0x3DB JUMPI PUSH3 0x3DA PUSH3 0x354 JUMP JUMPDEST JUMPDEST PUSH1 0x0 PUSH3 0x3EB DUP8 DUP3 DUP9 ADD PUSH3 0x3A7 JUMP JUMPDEST SWAP5 POP POP PUSH1 0x20 PUSH3 0x3FE DUP8 DUP3 DUP9 ADD PUSH3 0x3A7 JUMP JUMPDEST SWAP4 POP POP PUSH1 0x40 PUSH3 0x411 DUP8 DUP3 DUP9 ADD PUSH3 0x3A7 JUMP JUMPDEST SWAP3 POP POP PUSH1 0x60 PUSH3 0x424 DUP8 DUP3 DUP9 ADD PUSH3 0x3A7 JUMP JUMPDEST SWAP2 POP POP SWAP3 SWAP6 SWAP2 SWAP5 POP SWAP3 POP JUMP JUMPDEST PUSH3 0x43B DUP2 PUSH3 0x379 JUMP JUMPDEST DUP3 MSTORE POP POP JUMP JUMPDEST PUSH1 0x0 PUSH1 0x20 DUP3 ADD SWAP1 POP PUSH3 0x458 PUSH1 0x0 DUP4 ADD DUP5 PUSH3 0x430 JUMP JUMPDEST SWAP3 SWAP2 POP POP JUMP JUMPDEST PUSH1 0x0 PUSH1 0x60 DUP3 ADD SWAP1 POP PUSH3 0x475 PUSH1 0x0 DUP4 ADD DUP7 PUSH3 0x430 JUMP JUMPDEST PUSH3 0x484 PUSH1 0x20 DUP4 ADD DUP6 PUSH3 0x430 JUMP JUMPDEST PUSH3 0x493 PUSH1 0x40 DUP4 ADD DUP5 PUSH3 0x430 JUMP JUMPDEST SWAP5 SWAP4 POP POP POP POP JUMP JUMPDEST PUSH1 0x80 MLOAD PUSH1 0xA0 MLOAD PUSH1 0xC0 MLOAD PUSH1 0xE0 MLOAD PUSH2 0x100 MLOAD PUSH2 0x5A64 PUSH3 0x57A PUSH1 0x0 CODECOPY PUSH1 0x0 DUP2 DUP2 PUSH2 0xEA5 ADD MSTORE DUP2 DUP2 PUSH2 0x2C4F ADD MSTORE PUSH2 0x2E79 ADD MSTORE PUSH1 0x0 PUSH2 0xEC9 ADD MSTORE PUSH1 0x0 DUP2 DUP2 PUSH2 0x8AD ADD MSTORE DUP2 DUP2 PUSH2 0xB85 ADD MSTORE DUP2 DUP2 PUSH2 0x1722 ADD MSTORE DUP2 DUP2 PUSH2 0x1810 ADD MSTORE DUP2 DUP2 PUSH2 0x1971 ADD MSTORE DUP2 DUP2 PUSH2 0x1B34 ADD MSTORE DUP2 DUP2 PUSH2 0x1B57 ADD MSTORE DUP2 DUP2 PUSH2 0x1BFC ADD MSTORE DUP2 DUP2 PUSH2 0x1F6F ADD MSTORE DUP2 DUP2 PUSH2 0x1FFB ADD MSTORE DUP2 DUP2 PUSH2 0x2194 ADD MSTORE DUP2 DUP2 PUSH2 0x2296 ADD MSTORE DUP2 DUP2 PUSH2 0x27F7 ADD MSTORE DUP2 DUP2 PUSH2 0x3062 ADD MSTORE DUP2 DUP2 PUSH2 0x313E ADD MSTORE DUP2 DUP2 PUSH2 0x32D7 ADD MSTORE PUSH2 0x33D2 ADD MSTORE PUSH1 0x0 DUP2 DUP2 PUSH2 0x94C ADD MSTORE DUP2 DUP2 PUSH2 0xFD4 ADD MSTORE DUP2 DUP2 PUSH2 0x157A ADD MSTORE PUSH2 0x2896 ADD MSTORE PUSH1 0x0 DUP2 DUP2 PUSH2 0xEED ADD MSTORE PUSH2 0x14CE ADD MSTORE PUSH2 0x5A64 PUSH1 0x0 RETURN INVALID PUSH1 0x80 PUSH1 0x40 MSTORE PUSH1 0x4 CALLDATASIZE LT PUSH2 0xEC JUMPI PUSH1 0x0 CALLDATALOAD PUSH1 0xE0 SHR DUP1 PUSH4 0x7D253AFF GT PUSH2 0x8A JUMPI DUP1 PUSH4 0x95D992C3 GT PUSH2 0x59 JUMPI DUP1 PUSH4 0x95D992C3 EQ PUSH2 0x2FB JUMPI DUP1 PUSH4 0xB0F479A1 EQ PUSH2 0x338 JUMPI DUP1 PUSH4 0xF2FDE38B EQ PUSH2 0x363 JUMPI DUP1 PUSH4 0xFBFA77CF EQ PUSH2 0x38C JUMPI PUSH2 0xF3 JUMP JUMPDEST DUP1 PUSH4 0x7D253AFF EQ PUSH2 0x23F JUMPI DUP1 PUSH4 0x85572FFB EQ PUSH2 0x26A JUMPI DUP1 PUSH4 0x8DA5CB5B EQ PUSH2 0x293 JUMPI DUP1 PUSH4 0x920F5C84 EQ PUSH2 0x2BE JUMPI PUSH2 0xF3 JUMP JUMPDEST DUP1 PUSH4 0x528E4E5F GT PUSH2 0xC6 JUMPI DUP1 PUSH4 0x528E4E5F EQ PUSH2 0x190 JUMPI DUP1 PUSH4 0x5BEEAB33 EQ PUSH2 0x1CD JUMPI DUP1 PUSH4 0x715018A6 EQ PUSH2 0x1FD JUMPI DUP1 PUSH4 0x79B29333 EQ PUSH2 0x214 JUMPI PUSH2 0xF3 JUMP JUMPDEST DUP1 PUSH4 0x1FFC9A7 EQ PUSH2 0xF8 JUMPI DUP1 PUSH4 0x2E99F1E4 EQ PUSH2 0x135 JUMPI DUP1 PUSH4 0x4AA4A4FC EQ PUSH2 0x165 JUMPI PUSH2 0xF3 JUMP JUMPDEST CALLDATASIZE PUSH2 0xF3 JUMPI STOP JUMPDEST PUSH1 0x0 DUP1 REVERT JUMPDEST CALLVALUE DUP1 ISZERO PUSH2 0x104 JUMPI PUSH1 0x0 DUP1 REVERT JUMPDEST POP PUSH2 0x11F PUSH1 0x4 DUP1 CALLDATASIZE SUB DUP2 ADD SWAP1 PUSH2 0x11A SWAP2 SWAP1 PUSH2 0x3C5C JUMP JUMPDEST PUSH2 0x3B7 JUMP JUMPDEST PUSH1 0x40 MLOAD PUSH2 0x12C SWAP2 SWAP1 PUSH2 0x3CA4 JUMP JUMPDEST PUSH1 0x40 MLOAD DUP1 SWAP2 SUB SWAP1 RETURN JUMPDEST PUSH2 0x14F PUSH1 0x4 DUP1 CALLDATASIZE SUB DUP2 ADD SWAP1 PUSH2 0x14A SWAP2 SWAP1 PUSH2 0x3F84 JUMP JUMPDEST PUSH2 0x489 JUMP JUMPDEST PUSH1 0x40 MLOAD PUSH2 0x15C SWAP2 SWAP1 PUSH2 0x3FDC JUMP JUMPDEST PUSH1 0x40 MLOAD DUP1 SWAP2 SUB SWAP1 RETURN JUMPDEST CALLVALUE DUP1 ISZERO PUSH2 0x171 JUMPI PUSH1 0x0 DUP1 REVERT JUMPDEST POP PUSH2 0x17A PUSH2 0xB83 JUMP JUMPDEST PUSH1 0x40 MLOAD PUSH2 0x187 SWAP2 SWAP1 PUSH2 0x4006 JUMP JUMPDEST PUSH1 0x40 MLOAD DUP1 SWAP2 SUB SWAP1 RETURN JUMPDEST CALLVALUE DUP1 ISZERO PUSH2 0x19C JUMPI PUSH1 0x0 DUP1 REVERT JUMPDEST POP PUSH2 0x1B7 PUSH1 0x4 DUP1 CALLDATASIZE SUB DUP2 ADD SWAP1 PUSH2 0x1B2 SWAP2 SWAP1 PUSH2 0x3F84 JUMP JUMPDEST PUSH2 0xBA7 JUMP JUMPDEST PUSH1 0x40 MLOAD PUSH2 0x1C4 SWAP2 SWAP1 PUSH2 0x3FDC JUMP JUMPDEST PUSH1 0x40 MLOAD DUP1 SWAP2 SUB SWAP1 RETURN JUMPDEST PUSH2 0x1E7 PUSH1 0x4 DUP1 CALLDATASIZE SUB DUP2 ADD SWAP1 PUSH2 0x1E2 SWAP2 SWAP1 PUSH2 0x3F84 JUMP JUMPDEST PUSH2 0xC23 JUMP JUMPDEST PUSH1 0x40 MLOAD PUSH2 0x1F4 SWAP2 SWAP1 PUSH2 0x3FDC JUMP JUMPDEST PUSH1 0x40 MLOAD DUP1 SWAP2 SUB SWAP1 RETURN JUMPDEST CALLVALUE DUP1 ISZERO PUSH2 0x209 JUMPI PUSH1 0x0 DUP1 REVERT JUMPDEST POP PUSH2 0x212 PUSH2 0xE8F JUMP JUMPDEST STOP JUMPDEST CALLVALUE DUP1 ISZERO PUSH2 0x220 JUMPI PUSH1 0x0 DUP1 REVERT JUMPDEST POP PUSH2 0x229 PUSH2 0xEA3 JUMP JUMPDEST PUSH1 0x40 MLOAD PUSH2 0x236 SWAP2 SWAP1 PUSH2 0x4080 JUMP JUMPDEST PUSH1 0x40 MLOAD DUP1 SWAP2 SUB SWAP1 RETURN JUMPDEST CALLVALUE DUP1 ISZERO PUSH2 0x24B JUMPI PUSH1 0x0 DUP1 REVERT JUMPDEST POP PUSH2 0x254 PUSH2 0xEC7 JUMP JUMPDEST PUSH1 0x40 MLOAD PUSH2 0x261 SWAP2 SWAP1 PUSH2 0x4006 JUMP JUMPDEST PUSH1 0x40 MLOAD DUP1 SWAP2 SUB SWAP1 RETURN JUMPDEST CALLVALUE DUP1 ISZERO PUSH2 0x276 JUMPI PUSH1 0x0 DUP1 REVERT JUMPDEST POP PUSH2 0x291 PUSH1 0x4 DUP1 CALLDATASIZE SUB DUP2 ADD SWAP1 PUSH2 0x28C SWAP2 SWAP1 PUSH2 0x40BF JUMP JUMPDEST PUSH2 0xEEB JUMP JUMPDEST STOP JUMPDEST CALLVALUE DUP1 ISZERO PUSH2 0x29F JUMPI PUSH1 0x0 DUP1 REVERT JUMPDEST POP PUSH2 0x2A8 PUSH2 0xF90 JUMP JUMPDEST PUSH1 0x40 MLOAD PUSH2 0x2B5 SWAP2 SWAP1 PUSH2 0x4006 JUMP JUMPDEST PUSH1 0x40 MLOAD DUP1 SWAP2 SUB SWAP1 RETURN JUMPDEST CALLVALUE DUP1 ISZERO PUSH2 0x2CA JUMPI PUSH1 0x0 DUP1 REVERT JUMPDEST POP PUSH2 0x2E5 PUSH1 0x4 DUP1 CALLDATASIZE SUB DUP2 ADD SWAP1 PUSH2 0x2E0 SWAP2 SWAP1 PUSH2 0x4214 JUMP JUMPDEST PUSH2 0xFB9 JUMP JUMPDEST PUSH1 0x40 MLOAD PUSH2 0x2F2 SWAP2 SWAP1 PUSH2 0x3CA4 JUMP JUMPDEST PUSH1 0x40 MLOAD DUP1 SWAP2 SUB SWAP1 RETURN JUMPDEST CALLVALUE DUP1 ISZERO PUSH2 0x307 JUMPI PUSH1 0x0 DUP1 REVERT JUMPDEST POP PUSH2 0x322 PUSH1 0x4 DUP1 CALLDATASIZE SUB DUP2 ADD SWAP1 PUSH2 0x31D SWAP2 SWAP1 PUSH2 0x3F84 JUMP JUMPDEST PUSH2 0x13A7 JUMP JUMPDEST PUSH1 0x40 MLOAD PUSH2 0x32F SWAP2 SWAP1 PUSH2 0x3FDC JUMP JUMPDEST PUSH1 0x40 MLOAD DUP1 SWAP2 SUB SWAP1 RETURN JUMPDEST CALLVALUE DUP1 ISZERO PUSH2 0x344 JUMPI PUSH1 0x0 DUP1 REVERT JUMPDEST POP PUSH2 0x34D PUSH2 0x14CA JUMP JUMPDEST PUSH1 0x40 MLOAD PUSH2 0x35A SWAP2 SWAP1 PUSH2 0x4006 JUMP JUMPDEST PUSH1 0x40 MLOAD DUP1 SWAP2 SUB SWAP1 RETURN JUMPDEST CALLVALUE DUP1 ISZERO PUSH2 0x36F JUMPI PUSH1 0x0 DUP1 REVERT JUMPDEST POP PUSH2 0x38A PUSH1 0x4 DUP1 CALLDATASIZE SUB DUP2 ADD SWAP1 PUSH2 0x385 SWAP2 SWAP1 PUSH2 0x4310 JUMP JUMPDEST PUSH2 0x14F2 JUMP JUMPDEST STOP JUMPDEST CALLVALUE DUP1 ISZERO PUSH2 0x398 JUMPI PUSH1 0x0 DUP1 REVERT JUMPDEST POP PUSH2 0x3A1 PUSH2 0x1578 JUMP JUMPDEST PUSH1 0x40 MLOAD PUSH2 0x3AE SWAP2 SWAP1 PUSH2 0x4006 JUMP JUMPDEST PUSH1 0x40 MLOAD DUP1 SWAP2 SUB SWAP1 RETURN JUMPDEST PUSH1 0x0 PUSH32 0x85572FFB00000000000000000000000000000000000000000000000000000000 PUSH28 0xFFFFFFFFFFFFFFFFFFFFFFFFFFFFFFFFFFFFFFFFFFFFFFFFFFFFFFFF NOT AND DUP3 PUSH28 0xFFFFFFFFFFFFFFFFFFFFFFFFFFFFFFFFFFFFFFFFFFFFFFFFFFFFFFFF NOT AND EQ DUP1 PUSH2 0x482 JUMPI POP PUSH32 0x1FFC9A700000000000000000000000000000000000000000000000000000000 PUSH28 0xFFFFFFFFFFFFFFFFFFFFFFFFFFFFFFFFFFFFFFFFFFFFFFFFFFFFFFFF NOT AND DUP3 PUSH28 0xFFFFFFFFFFFFFFFFFFFFFFFFFFFFFFFFFFFFFFFFFFFFFFFFFFFFFFFF NOT AND EQ JUMPDEST SWAP1 POP SWAP2 SWAP1 POP JUMP JUMPDEST PUSH1 0x0 DUP1 PUSH2 0x494 PUSH2 0x159C JUMP JUMPDEST SWAP1 POP PUSH1 0x0 DUP2 PUSH1 0x0 ADD SLOAD EQ PUSH2 0x4D4 JUMPI PUSH1 0x40 MLOAD PUSH32 0x19239FC500000000000000000000000000000000000000000000000000000000 DUP2 MSTORE PUSH1 0x4 ADD PUSH1 0x40 MLOAD DUP1 SWAP2 SUB SWAP1 REVERT JUMPDEST PUSH1 0x1 DUP2 PUSH1 0x0 ADD DUP2 SWAP1 SSTORE POP PUSH2 0x501 DUP4 PUSH1 0x0 ADD MLOAD PUSH20 0xFFFFFFFFFFFFFFFFFFFFFFFFFFFFFFFFFFFFFFFF AND PUSH2 0x15CC JUMP JUMPDEST DUP1 ISZERO PUSH2 0x511 JUMPI POP CALLVALUE DUP4 PUSH1 0x40 ADD MLOAD EQ ISZERO JUMPDEST ISZERO PUSH2 0x559 JUMPI CALLVALUE DUP4 PUSH1 0x40 ADD MLOAD PUSH1 0x40 MLOAD PUSH32 0xBA38A90500000000000000000000000000000000000000000000000000000000 DUP2 MSTORE PUSH1 0x4 ADD PUSH2 0x550 SWAP3 SWAP2 SWAP1 PUSH2 0x433D JUMP JUMPDEST PUSH1 0x40 MLOAD DUP1 SWAP2 SUB SWAP1 REVERT JUMPDEST PUSH2 0x58E CALLER ADDRESS DUP6 PUSH1 0x40 ADD MLOAD DUP7 PUSH1 0x0 ADD MLOAD PUSH20 0xFFFFFFFFFFFFFFFFFFFFFFFFFFFFFFFFFFFFFFFF AND PUSH2 0x1687 SWAP1 SWAP4 SWAP3 SWAP2 SWAP1 PUSH4 0xFFFFFFFF AND JUMP JUMPDEST PUSH2 0x5BB CALLER DUP5 PUSH1 0x20 ADD MLOAD PUSH20 0xFFFFFFFFFFFFFFFFFFFFFFFFFFFFFFFFFFFFFFFF AND PUSH2 0x16E6 SWAP1 SWAP2 SWAP1 PUSH4 0xFFFFFFFF AND JUMP JUMPDEST SWAP2 POP PUSH1 0x0 DUP4 PUSH1 0x80 ADD MLOAD MLOAD SUB PUSH2 0x65D JUMPI PUSH1 0x0 PUSH1 0x1 DUP5 PUSH1 0x60 ADD MLOAD AND PUSH1 0xFF AND SUB PUSH2 0x61C JUMPI PUSH2 0x617 PUSH2 0x602 DUP5 PUSH1 0x0 ADD MLOAD PUSH20 0xFFFFFFFFFFFFFFFFFFFFFFFFFFFFFFFFFFFFFFFF AND PUSH2 0x15CC JUMP JUMPDEST DUP5 PUSH1 0x0 ADD MLOAD DUP6 PUSH1 0x20 ADD MLOAD DUP7 PUSH1 0x40 ADD MLOAD CALLER PUSH2 0x171B JUMP JUMPDEST PUSH2 0x658 JUMP JUMPDEST PUSH2 0x657 PUSH2 0x642 DUP5 PUSH1 0x0 ADD MLOAD PUSH20 0xFFFFFFFFFFFFFFFFFFFFFFFFFFFFFFFFFFFFFFFF AND PUSH2 0x15CC JUMP JUMPDEST DUP5 PUSH1 0x0 ADD MLOAD DUP6 PUSH1 0x20 ADD MLOAD DUP7 PUSH1 0x40 ADD MLOAD CALLER PUSH2 0x1969 JUMP JUMPDEST JUMPDEST PUSH2 0xB39 JUMP JUMPDEST PUSH2 0x665 PUSH2 0x3AA2 JUMP JUMPDEST DUP4 PUSH1 0x80 ADD MLOAD DUP1 PUSH1 0x20 ADD SWAP1 MLOAD DUP2 ADD SWAP1 PUSH2 0x67D SWAP2 SWAP1 PUSH2 0x4453 JUMP JUMPDEST DUP5 PUSH1 0x80 ADD DUP6 PUSH1 0xA0 ADD DUP7 PUSH1 0xC0 ADD DUP8 PUSH2 0x100 ADD DUP5 SWAP1 MSTORE DUP5 DUP2 MSTORE POP DUP5 PUSH20 0xFFFFFFFFFFFFFFFFFFFFFFFFFFFFFFFFFFFFFFFF AND PUSH20 0xFFFFFFFFFFFFFFFFFFFFFFFFFFFFFFFFFFFFFFFF AND DUP2 MSTORE POP DUP5 PUSH20 0xFFFFFFFFFFFFFFFFFFFFFFFFFFFFFFFFFFFFFFFF AND PUSH20 0xFFFFFFFFFFFFFFFFFFFFFFFFFFFFFFFFFFFFFFFF AND DUP2 MSTORE POP POP POP POP POP PUSH1 0x1 PUSH8 0xFFFFFFFFFFFFFFFF DUP2 GT ISZERO PUSH2 0x714 JUMPI PUSH2 0x713 PUSH2 0x3CD5 JUMP JUMPDEST JUMPDEST PUSH1 0x40 MLOAD SWAP1 DUP1 DUP3 MSTORE DUP1 PUSH1 0x20 MUL PUSH1 0x20 ADD DUP3 ADD PUSH1 0x40 MSTORE DUP1 ISZERO PUSH2 0x742 JUMPI DUP2 PUSH1 0x20 ADD PUSH1 0x20 DUP3 MUL DUP1 CALLDATASIZE DUP4 CALLDATACOPY DUP1 DUP3 ADD SWAP2 POP POP SWAP1 POP JUMPDEST POP DUP2 PUSH2 0x120 ADD DUP2 SWAP1 MSTORE POP PUSH1 0x1 PUSH8 0xFFFFFFFFFFFFFFFF DUP2 GT ISZERO PUSH2 0x767 JUMPI PUSH2 0x766 PUSH2 0x3CD5 JUMP JUMPDEST JUMPDEST PUSH1 0x40 MLOAD SWAP1 DUP1 DUP3 MSTORE DUP1 PUSH1 0x20 MUL PUSH1 0x20 ADD DUP3 ADD PUSH1 0x40 MSTORE DUP1 ISZERO PUSH2 0x795 JUMPI DUP2 PUSH1 0x20 ADD PUSH1 0x20 DUP3 MUL DUP1 CALLDATASIZE DUP4 CALLDATACOPY DUP1 DUP3 ADD SWAP2 POP POP SWAP1 POP JUMPDEST POP DUP2 PUSH2 0x140 ADD DUP2 SWAP1 MSTORE POP PUSH1 0x1 PUSH8 0xFFFFFFFFFFFFFFFF DUP2 GT ISZERO PUSH2 0x7BA JUMPI PUSH2 0x7B9 PUSH2 0x3CD5 JUMP JUMPDEST JUMPDEST PUSH1 0x40 MLOAD SWAP1 DUP1 DUP3 MSTORE DUP1 PUSH1 0x20 MUL PUSH1 0x20 ADD DUP3 ADD PUSH1 0x40 MSTORE DUP1 ISZERO PUSH2 0x7E8 JUMPI DUP2 PUSH1 0x20 ADD PUSH1 0x20 DUP3 MUL DUP1 CALLDATASIZE DUP4 CALLDATACOPY DUP1 DUP3 ADD SWAP2 POP POP SWAP1 POP JUMPDEST POP DUP2 PUSH2 0x160 ADD DUP2 SWAP1 MSTORE POP PUSH1 0x0 PUSH1 0x4 DUP6 PUSH1 0x60 ADD MLOAD AND PUSH1 0xFF AND EQ PUSH2 0x80E JUMPI DUP4 PUSH1 0x0 ADD MLOAD PUSH2 0x814 JUMP JUMPDEST DUP1 PUSH1 0x80 ADD MLOAD JUMPDEST DUP2 PUSH2 0x120 ADD MLOAD PUSH1 0x0 DUP2 MLOAD DUP2 LT PUSH2 0x82D JUMPI PUSH2 0x82C PUSH2 0x44D6 JUMP JUMPDEST JUMPDEST PUSH1 0x20 MUL PUSH1 0x20 ADD ADD SWAP1 PUSH20 0xFFFFFFFFFFFFFFFFFFFFFFFFFFFFFFFFFFFFFFFF AND SWAP1 DUP2 PUSH20 0xFFFFFFFFFFFFFFFFFFFFFFFFFFFFFFFFFFFFFFFF AND DUP2 MSTORE POP POP PUSH2 0x8A6 DUP2 PUSH2 0x120 ADD MLOAD PUSH1 0x0 DUP2 MLOAD DUP2 LT PUSH2 0x883 JUMPI PUSH2 0x882 PUSH2 0x44D6 JUMP JUMPDEST JUMPDEST PUSH1 0x20 MUL PUSH1 0x20 ADD ADD MLOAD PUSH20 0xFFFFFFFFFFFFFFFFFFFFFFFFFFFFFFFFFFFFFFFF AND PUSH2 0x15CC JUMP JUMPDEST ISZERO PUSH2 0x920 JUMPI PUSH32 0x0 DUP2 PUSH2 0x120 ADD MLOAD PUSH1 0x0 DUP2 MLOAD DUP2 LT PUSH2 0x8E5 JUMPI PUSH2 0x8E4 PUSH2 0x44D6 JUMP JUMPDEST JUMPDEST PUSH1 0x20 MUL PUSH1 0x20 ADD ADD SWAP1 PUSH20 0xFFFFFFFFFFFFFFFFFFFFFFFFFFFFFFFFFFFFFFFF AND SWAP1 DUP2 PUSH20 0xFFFFFFFFFFFFFFFFFFFFFFFFFFFFFFFFFFFFFFFF AND DUP2 MSTORE POP POP JUMPDEST DUP1 PUSH1 0xC0 ADD MLOAD DUP2 PUSH2 0x140 ADD MLOAD PUSH1 0x0 DUP2 MLOAD DUP2 LT PUSH2 0x93E JUMPI PUSH2 0x93D PUSH2 0x44D6 JUMP JUMPDEST JUMPDEST PUSH1 0x20 MUL PUSH1 0x20 ADD ADD DUP2 DUP2 MSTORE POP POP PUSH32 0x0 PUSH20 0xFFFFFFFFFFFFFFFFFFFFFFFFFFFFFFFFFFFFFFFF AND PUSH4 0xAB9C4B5D ADDRESS DUP4 PUSH2 0x120 ADD MLOAD DUP5 PUSH2 0x140 ADD MLOAD DUP6 PUSH2 0x160 ADD MLOAD ADDRESS PUSH1 0x40 MLOAD DUP1 PUSH2 0x140 ADD PUSH1 0x40 MSTORE DUP1 CALLER PUSH20 0xFFFFFFFFFFFFFFFFFFFFFFFFFFFFFFFFFFFFFFFF AND DUP2 MSTORE PUSH1 0x20 ADD DUP13 PUSH1 0x0 ADD MLOAD PUSH20 0xFFFFFFFFFFFFFFFFFFFFFFFFFFFFFFFFFFFFFFFF AND DUP2 MSTORE PUSH1 0x20 ADD DUP13 PUSH1 0x20 ADD MLOAD PUSH20 0xFFFFFFFFFFFFFFFFFFFFFFFFFFFFFFFFFFFFFFFF AND DUP2 MSTORE PUSH1 0x20 ADD DUP10 PUSH1 0x80 ADD MLOAD PUSH20 0xFFFFFFFFFFFFFFFFFFFFFFFFFFFFFFFFFFFFFFFF AND DUP2 MSTORE PUSH1 0x20 ADD DUP10 PUSH1 0xA0 ADD MLOAD PUSH20 0xFFFFFFFFFFFFFFFFFFFFFFFFFFFFFFFFFFFFFFFF AND DUP2 MSTORE PUSH1 0x20 ADD DUP10 PUSH2 0x120 ADD MLOAD PUSH1 0x0 DUP2 MLOAD DUP2 LT PUSH2 0xA5B JUMPI PUSH2 0xA5A PUSH2 0x44D6 JUMP JUMPDEST JUMPDEST PUSH1 0x20 MUL PUSH1 0x20 ADD ADD MLOAD PUSH20 0xFFFFFFFFFFFFFFFFFFFFFFFFFFFFFFFFFFFFFFFF AND DUP2 MSTORE PUSH1 0x20 ADD DUP13 PUSH1 0x40 ADD MLOAD DUP2 MSTORE PUSH1 0x20 ADD DUP10 PUSH1 0xC0 ADD MLOAD DUP2 MSTORE PUSH1 0x20 ADD DUP13 PUSH1 0x60 ADD MLOAD PUSH1 0xFF AND DUP2 MSTORE PUSH1 0x20 ADD DUP10 PUSH2 0x100 ADD MLOAD DUP2 MSTORE POP PUSH1 0x40 MLOAD PUSH1 0x20 ADD PUSH2 0xAB8 SWAP2 SWAP1 PUSH2 0x4661 JUMP JUMPDEST PUSH1 0x40 MLOAD PUSH1 0x20 DUP2 DUP4 SUB SUB DUP2 MSTORE SWAP1 PUSH1 0x40 MSTORE PUSH1 0x0 PUSH1 0x40 MLOAD DUP9 PUSH4 0xFFFFFFFF AND PUSH1 0xE0 SHL DUP2 MSTORE PUSH1 0x4 ADD PUSH2 0xAEB SWAP8 SWAP7 SWAP6 SWAP5 SWAP4 SWAP3 SWAP2 SWAP1 PUSH2 0x4874 JUMP JUMPDEST PUSH1 0x0 PUSH1 0x40 MLOAD DUP1 DUP4 SUB DUP2 PUSH1 0x0 DUP8 DUP1 EXTCODESIZE ISZERO DUP1 ISZERO PUSH2 0xB05 JUMPI PUSH1 0x0 DUP1 REVERT JUMPDEST POP GAS CALL ISZERO DUP1 ISZERO PUSH2 0xB19 JUMPI RETURNDATASIZE PUSH1 0x0 DUP1 RETURNDATACOPY RETURNDATASIZE PUSH1 0x0 REVERT JUMPDEST POP POP POP POP PUSH2 0xB2A DUP5 PUSH1 0x0 ADD MLOAD PUSH2 0x1B0C JUMP JUMPDEST PUSH2 0xB37 DUP2 PUSH1 0x80 ADD MLOAD PUSH2 0x1B0C JUMP JUMPDEST POP JUMPDEST DUP2 PUSH2 0xB67 CALLER DUP6 PUSH1 0x20 ADD MLOAD PUSH20 0xFFFFFFFFFFFFFFFFFFFFFFFFFFFFFFFFFFFFFFFF AND PUSH2 0x16E6 SWAP1 SWAP2 SWAP1 PUSH4 0xFFFFFFFF AND JUMP JUMPDEST PUSH2 0xB71 SWAP2 SWAP1 PUSH2 0x492E JUMP JUMPDEST SWAP2 POP PUSH1 0x0 DUP2 PUSH1 0x0 ADD DUP2 SWAP1 SSTORE POP POP SWAP2 SWAP1 POP JUMP JUMPDEST PUSH32 0x0 DUP2 JUMP JUMPDEST PUSH1 0x0 DUP1 PUSH2 0xBCD DUP4 PUSH1 0x0 ADD MLOAD PUSH20 0xFFFFFFFFFFFFFFFFFFFFFFFFFFFFFFFFFFFFFFFF AND PUSH2 0x15CC JUMP JUMPDEST SWAP1 POP PUSH1 0x0 PUSH1 0x1 DUP5 PUSH1 0x60 ADD MLOAD AND PUSH1 0xFF AND SUB PUSH2 0xC01 JUMPI PUSH2 0xBFA DUP2 DUP5 PUSH1 0x0 ADD MLOAD DUP6 PUSH1 0x20 ADD MLOAD DUP7 PUSH1 0x40 ADD MLOAD CALLER PUSH2 0x1D59 JUMP JUMPDEST SWAP2 POP PUSH2 0xC1D JUMP JUMPDEST PUSH2 0xC1A DUP2 DUP5 PUSH1 0x0 ADD MLOAD DUP6 PUSH1 0x20 ADD MLOAD DUP7 PUSH1 0x40 ADD MLOAD CALLER PUSH2 0x1E86 JUMP JUMPDEST SWAP2 POP JUMPDEST POP SWAP2 SWAP1 POP JUMP JUMPDEST PUSH1 0x0 DUP1 PUSH2 0xC2E PUSH2 0x159C JUMP JUMPDEST SWAP1 POP PUSH1 0x0 DUP2 PUSH1 0x0 ADD SLOAD EQ PUSH2 0xC6E JUMPI PUSH1 0x40 MLOAD PUSH32 0x19239FC500000000000000000000000000000000000000000000000000000000 DUP2 MSTORE PUSH1 0x4 ADD PUSH1 0x40 MLOAD DUP1 SWAP2 SUB SWAP1 REVERT JUMPDEST PUSH1 0x1 DUP2 PUSH1 0x0 ADD DUP2 SWAP1 SSTORE POP PUSH1 0x0 PUSH2 0xC9D DUP5 PUSH1 0x0 ADD MLOAD PUSH20 0xFFFFFFFFFFFFFFFFFFFFFFFFFFFFFFFFFFFFFFFF AND PUSH2 0x15CC JUMP JUMPDEST SWAP1 POP DUP1 DUP1 ISZERO PUSH2 0xCB0 JUMPI POP CALLVALUE DUP5 PUSH1 0x40 ADD MLOAD EQ ISZERO JUMPDEST ISZERO PUSH2 0xCF8 JUMPI CALLVALUE DUP5 PUSH1 0x40 ADD MLOAD PUSH1 0x40 MLOAD PUSH32 0xBA38A90500000000000000000000000000000000000000000000000000000000 DUP2 MSTORE PUSH1 0x4 ADD PUSH2 0xCEF SWAP3 SWAP2 SWAP1 PUSH2 0x433D JUMP JUMPDEST PUSH1 0x40 MLOAD DUP1 SWAP2 SUB SWAP1 REVERT JUMPDEST PUSH2 0xD2D CALLER ADDRESS DUP7 PUSH1 0x40 ADD MLOAD DUP8 PUSH1 0x0 ADD MLOAD PUSH20 0xFFFFFFFFFFFFFFFFFFFFFFFFFFFFFFFFFFFFFFFF AND PUSH2 0x1687 SWAP1 SWAP4 SWAP3 SWAP2 SWAP1 PUSH4 0xFFFFFFFF AND JUMP JUMPDEST PUSH1 0x0 DUP5 PUSH1 0x80 ADD MLOAD MLOAD SUB PUSH2 0xD89 JUMPI PUSH1 0x0 PUSH1 0x1 DUP6 PUSH1 0x60 ADD MLOAD AND PUSH1 0xFF AND SUB PUSH2 0xD6A JUMPI PUSH2 0xD65 DUP2 DUP6 PUSH1 0x0 ADD MLOAD DUP7 PUSH1 0x20 ADD MLOAD DUP8 PUSH1 0x40 ADD MLOAD CALLER PUSH2 0x20F1 JUMP JUMPDEST PUSH2 0xD84 JUMP JUMPDEST PUSH2 0xD83 DUP2 DUP6 PUSH1 0x0 ADD MLOAD DUP7 PUSH1 0x20 ADD MLOAD DUP8 PUSH1 0x40 ADD MLOAD CALLER PUSH2 0x242C JUMP JUMPDEST JUMPDEST PUSH2 0xE7E JUMP JUMPDEST PUSH2 0xD91 PUSH2 0x3AA2 JUMP JUMPDEST DUP5 PUSH1 0x40 ADD MLOAD DUP2 PUSH1 0x0 ADD DUP2 DUP2 MSTORE POP POP CALLER DUP2 PUSH1 0x60 ADD SWAP1 PUSH20 0xFFFFFFFFFFFFFFFFFFFFFFFFFFFFFFFFFFFFFFFF AND SWAP1 DUP2 PUSH20 0xFFFFFFFFFFFFFFFFFFFFFFFFFFFFFFFFFFFFFFFF AND DUP2 MSTORE POP POP DUP5 PUSH1 0x0 ADD MLOAD DUP2 PUSH1 0x20 ADD SWAP1 PUSH20 0xFFFFFFFFFFFFFFFFFFFFFFFFFFFFFFFFFFFFFFFF AND SWAP1 DUP2 PUSH20 0xFFFFFFFFFFFFFFFFFFFFFFFFFFFFFFFFFFFFFFFF AND DUP2 MSTORE POP POP DUP5 PUSH1 0x20 ADD MLOAD DUP2 PUSH1 0x40 ADD SWAP1 PUSH20 0xFFFFFFFFFFFFFFFFFFFFFFFFFFFFFFFFFFFFFFFF AND SWAP1 DUP2 PUSH20 0xFFFFFFFFFFFFFFFFFFFFFFFFFFFFFFFFFFFFFFFF AND DUP2 MSTORE POP POP DUP5 PUSH1 0x60 ADD MLOAD DUP2 PUSH1 0xE0 ADD SWAP1 PUSH1 0xFF AND SWAP1 DUP2 PUSH1 0xFF AND DUP2 MSTORE POP POP DUP5 PUSH1 0x80 ADD MLOAD DUP2 PUSH2 0x180 ADD DUP2 SWAP1 MSTORE POP PUSH2 0xE7C DUP2 PUSH2 0x25B3 JUMP JUMPDEST POP JUMPDEST POP PUSH1 0x0 DUP2 PUSH1 0x0 ADD DUP2 SWAP1 SSTORE POP POP SWAP2 SWAP1 POP JUMP JUMPDEST PUSH2 0xE97 PUSH2 0x2CF9 JUMP JUMPDEST PUSH2 0xEA1 PUSH1 0x0 PUSH2 0x2D80 JUMP JUMPDEST JUMP JUMPDEST PUSH32 0x0 DUP2 JUMP JUMPDEST PUSH32 0x0 DUP2 JUMP JUMPDEST PUSH32 0x0 PUSH20 0xFFFFFFFFFFFFFFFFFFFFFFFFFFFFFFFFFFFFFFFF AND CALLER PUSH20 0xFFFFFFFFFFFFFFFFFFFFFFFFFFFFFFFFFFFFFFFF AND EQ PUSH2 0xF7B JUMPI CALLER PUSH1 0x40 MLOAD PUSH32 0xD7F7333400000000000000000000000000000000000000000000000000000000 DUP2 MSTORE PUSH1 0x4 ADD PUSH2 0xF72 SWAP2 SWAP1 PUSH2 0x4006 JUMP JUMPDEST PUSH1 0x40 MLOAD DUP1 SWAP2 SUB SWAP1 REVERT JUMPDEST PUSH2 0xF8D DUP2 PUSH2 0xF88 SWAP1 PUSH2 0x4BCB JUMP JUMPDEST PUSH2 0x2E44 JUMP JUMPDEST POP JUMP JUMPDEST PUSH1 0x0 DUP1 PUSH1 0x0 SWAP1 SLOAD SWAP1 PUSH2 0x100 EXP SWAP1 DIV PUSH20 0xFFFFFFFFFFFFFFFFFFFFFFFFFFFFFFFFFFFFFFFF AND SWAP1 POP SWAP1 JUMP JUMPDEST PUSH1 0x0 CALLER PUSH20 0xFFFFFFFFFFFFFFFFFFFFFFFFFFFFFFFFFFFFFFFF AND PUSH32 0x0 PUSH20 0xFFFFFFFFFFFFFFFFFFFFFFFFFFFFFFFFFFFFFFFF AND EQ PUSH2 0x1040 JUMPI PUSH1 0x40 MLOAD PUSH32 0xE973DE0B00000000000000000000000000000000000000000000000000000000 DUP2 MSTORE PUSH1 0x4 ADD PUSH1 0x40 MLOAD DUP1 SWAP2 SUB SWAP1 REVERT JUMPDEST ADDRESS PUSH20 0xFFFFFFFFFFFFFFFFFFFFFFFFFFFFFFFFFFFFFFFF AND DUP5 PUSH20 0xFFFFFFFFFFFFFFFFFFFFFFFFFFFFFFFFFFFFFFFF AND EQ PUSH2 0x10B0 JUMPI CALLER PUSH1 0x40 MLOAD PUSH32 0x2A868ED000000000000000000000000000000000000000000000000000000000 DUP2 MSTORE PUSH1 0x4 ADD PUSH2 0x10A7 SWAP2 SWAP1 PUSH2 0x4006 JUMP JUMPDEST PUSH1 0x40 MLOAD DUP1 SWAP2 SUB SWAP1 REVERT JUMPDEST PUSH1 0x0 DUP4 DUP4 SWAP1 POP GT ISZERO PUSH2 0x121A JUMPI PUSH1 0x0 DUP4 DUP4 DUP2 ADD SWAP1 PUSH2 0x10CD SWAP2 SWAP1 PUSH2 0x4CF0 JUMP JUMPDEST SWAP1 POP PUSH1 0x0 CALLER PUSH20 0xFFFFFFFFFFFFFFFFFFFFFFFFFFFFFFFFFFFFFFFF AND PUSH4 0x74B2E43 PUSH1 0x40 MLOAD DUP2 PUSH4 0xFFFFFFFF AND PUSH1 0xE0 SHL DUP2 MSTORE PUSH1 0x4 ADD PUSH1 0x20 PUSH1 0x40 MLOAD DUP1 DUP4 SUB DUP2 DUP7 GAS STATICCALL ISZERO DUP1 ISZERO PUSH2 0x111C JUMPI RETURNDATASIZE PUSH1 0x0 DUP1 RETURNDATACOPY RETURNDATASIZE PUSH1 0x0 REVERT JUMPDEST POP POP POP POP PUSH1 0x40 MLOAD RETURNDATASIZE PUSH1 0x1F NOT PUSH1 0x1F DUP3 ADD AND DUP3 ADD DUP1 PUSH1 0x40 MSTORE POP DUP2 ADD SWAP1 PUSH2 0x1140 SWAP2 SWAP1 PUSH2 0x4D81 JUMP JUMPDEST PUSH16 0xFFFFFFFFFFFFFFFFFFFFFFFFFFFFFFFF AND SWAP1 POP PUSH1 0x0 PUSH1 0x1 DUP4 PUSH2 0x100 ADD MLOAD AND PUSH1 0xFF AND SUB PUSH2 0x11C1 JUMPI PUSH2 0x11BC DUP3 DUP10 DUP10 PUSH1 0x0 DUP2 DUP2 LT PUSH2 0x117F JUMPI PUSH2 0x117E PUSH2 0x44D6 JUMP JUMPDEST JUMPDEST SWAP1 POP PUSH1 0x20 MUL ADD CALLDATALOAD PUSH1 0x2 PUSH2 0x1192 SWAP2 SWAP1 PUSH2 0x4DAE JUMP JUMPDEST DUP13 DUP13 PUSH1 0x0 DUP2 DUP2 LT PUSH2 0x11A6 JUMPI PUSH2 0x11A5 PUSH2 0x44D6 JUMP JUMPDEST JUMPDEST SWAP1 POP PUSH1 0x20 MUL ADD CALLDATALOAD PUSH2 0x11B7 SWAP2 SWAP1 PUSH2 0x4DF0 JUMP JUMPDEST PUSH2 0x2FF9 JUMP JUMPDEST PUSH2 0x1217 JUMP JUMPDEST PUSH2 0x1216 DUP3 DUP10 DUP10 PUSH1 0x0 DUP2 DUP2 LT PUSH2 0x11D9 JUMPI PUSH2 0x11D8 PUSH2 0x44D6 JUMP JUMPDEST JUMPDEST SWAP1 POP PUSH1 0x20 MUL ADD CALLDATALOAD PUSH1 0x2 PUSH2 0x11EC SWAP2 SWAP1 PUSH2 0x4DAE JUMP JUMPDEST DUP13 DUP13 PUSH1 0x0 DUP2 DUP2 LT PUSH2 0x1200 JUMPI PUSH2 0x11FF PUSH2 0x44D6 JUMP JUMPDEST JUMPDEST SWAP1 POP PUSH1 0x20 MUL ADD CALLDATALOAD PUSH2 0x1211 SWAP2 SWAP1 PUSH2 0x4DF0 JUMP JUMPDEST PUSH2 0x3254 JUMP JUMPDEST JUMPDEST POP POP JUMPDEST PUSH1 0x0 JUMPDEST DUP11 DUP11 SWAP1 POP DUP2 LT ISZERO PUSH2 0x1395 JUMPI PUSH2 0x129A PUSH2 0x1233 PUSH2 0xF90 JUMP JUMPDEST DUP9 DUP9 DUP5 DUP2 DUP2 LT PUSH2 0x1246 JUMPI PUSH2 0x1245 PUSH2 0x44D6 JUMP JUMPDEST JUMPDEST SWAP1 POP PUSH1 0x20 MUL ADD CALLDATALOAD DUP14 DUP14 DUP6 DUP2 DUP2 LT PUSH2 0x1260 JUMPI PUSH2 0x125F PUSH2 0x44D6 JUMP JUMPDEST JUMPDEST SWAP1 POP PUSH1 0x20 MUL ADD PUSH1 0x20 DUP2 ADD SWAP1 PUSH2 0x1275 SWAP2 SWAP1 PUSH2 0x4310 JUMP JUMPDEST PUSH20 0xFFFFFFFFFFFFFFFFFFFFFFFFFFFFFFFFFFFFFFFF AND PUSH2 0x34ED SWAP1 SWAP3 SWAP2 SWAP1 PUSH4 0xFFFFFFFF AND JUMP JUMPDEST PUSH1 0x0 DUP8 DUP8 DUP4 DUP2 DUP2 LT PUSH2 0x12AF JUMPI PUSH2 0x12AE PUSH2 0x44D6 JUMP JUMPDEST JUMPDEST SWAP1 POP PUSH1 0x20 MUL ADD CALLDATALOAD DUP11 DUP11 DUP5 DUP2 DUP2 LT PUSH2 0x12C9 JUMPI PUSH2 0x12C8 PUSH2 0x44D6 JUMP JUMPDEST JUMPDEST SWAP1 POP PUSH1 0x20 MUL ADD CALLDATALOAD PUSH2 0x12DA SWAP2 SWAP1 PUSH2 0x4DF0 JUMP JUMPDEST SWAP1 POP PUSH2 0x132F CALLER PUSH1 0x0 DUP15 DUP15 DUP7 DUP2 DUP2 LT PUSH2 0x12F5 JUMPI PUSH2 0x12F4 PUSH2 0x44D6 JUMP JUMPDEST JUMPDEST SWAP1 POP PUSH1 0x20 MUL ADD PUSH1 0x20 DUP2 ADD SWAP1 PUSH2 0x130A SWAP2 SWAP1 PUSH2 0x4310 JUMP JUMPDEST PUSH20 0xFFFFFFFFFFFFFFFFFFFFFFFFFFFFFFFFFFFFFFFF AND PUSH2 0x353C SWAP1 SWAP3 SWAP2 SWAP1 PUSH4 0xFFFFFFFF AND JUMP JUMPDEST PUSH2 0x1381 CALLER DUP3 DUP15 DUP15 DUP7 DUP2 DUP2 LT PUSH2 0x1347 JUMPI PUSH2 0x1346 PUSH2 0x44D6 JUMP JUMPDEST JUMPDEST SWAP1 POP PUSH1 0x20 MUL ADD PUSH1 0x20 DUP2 ADD SWAP1 PUSH2 0x135C SWAP2 SWAP1 PUSH2 0x4310 JUMP JUMPDEST PUSH20 0xFFFFFFFFFFFFFFFFFFFFFFFFFFFFFFFFFFFFFFFF AND PUSH2 0x353C SWAP1 SWAP3 SWAP2 SWAP1 PUSH4 0xFFFFFFFF AND JUMP JUMPDEST POP DUP1 DUP1 PUSH2 0x138D SWAP1 PUSH2 0x4E24 JUMP JUMPDEST SWAP2 POP POP PUSH2 0x121D JUMP JUMPDEST POP PUSH1 0x1 SWAP1 POP SWAP10 SWAP9 POP POP POP POP POP POP POP POP POP JUMP JUMPDEST PUSH1 0x0 DUP1 PUSH2 0x13B2 PUSH2 0x159C JUMP JUMPDEST SWAP1 POP PUSH1 0x0 DUP2 PUSH1 0x0 ADD SLOAD EQ PUSH2 0x13F2 JUMPI PUSH1 0x40 MLOAD PUSH32 0x19239FC500000000000000000000000000000000000000000000000000000000 DUP2 MSTORE PUSH1 0x4 ADD PUSH1 0x40 MLOAD DUP1 SWAP2 SUB SWAP1 REVERT JUMPDEST PUSH1 0x1 DUP2 PUSH1 0x0 ADD DUP2 SWAP1 SSTORE POP PUSH1 0x0 PUSH2 0x1421 DUP5 PUSH1 0x0 ADD MLOAD PUSH20 0xFFFFFFFFFFFFFFFFFFFFFFFFFFFFFFFFFFFFFFFF AND PUSH2 0x15CC JUMP JUMPDEST SWAP1 POP PUSH1 0x0 PUSH1 0x1 DUP6 PUSH1 0x60 ADD MLOAD AND PUSH1 0xFF AND SUB PUSH2 0x148D JUMPI PUSH2 0x146A CALLER ADDRESS DUP7 PUSH1 0x40 ADD MLOAD DUP8 PUSH1 0x20 ADD MLOAD PUSH20 0xFFFFFFFFFFFFFFFFFFFFFFFFFFFFFFFFFFFFFFFF AND PUSH2 0x1687 SWAP1 SWAP4 SWAP3 SWAP2 SWAP1 PUSH4 0xFFFFFFFF AND JUMP JUMPDEST PUSH2 0x1488 DUP2 DUP6 PUSH1 0x0 ADD MLOAD DUP7 PUSH1 0x20 ADD MLOAD DUP8 PUSH1 0x40 ADD MLOAD CALLER DUP10 PUSH1 0x80 ADD MLOAD PUSH2 0x358B JUMP JUMPDEST PUSH2 0x14AC JUMP JUMPDEST PUSH2 0x14AB DUP2 DUP6 PUSH1 0x0 ADD MLOAD DUP7 PUSH1 0x20 ADD MLOAD DUP8 PUSH1 0x40 ADD MLOAD CALLER DUP10 PUSH1 0x80 ADD MLOAD PUSH2 0x36E4 JUMP JUMPDEST JUMPDEST PUSH2 0x14B9 DUP5 PUSH1 0x0 ADD MLOAD PUSH2 0x1B0C JUMP JUMPDEST POP PUSH1 0x0 DUP2 PUSH1 0x0 ADD DUP2 SWAP1 SSTORE POP POP SWAP2 SWAP1 POP JUMP JUMPDEST PUSH1 0x0 PUSH32 0x0 SWAP1 POP SWAP1 JUMP JUMPDEST PUSH2 0x14FA PUSH2 0x2CF9 JUMP JUMPDEST PUSH1 0x0 PUSH20 0xFFFFFFFFFFFFFFFFFFFFFFFFFFFFFFFFFFFFFFFF AND DUP2 PUSH20 0xFFFFFFFFFFFFFFFFFFFFFFFFFFFFFFFFFFFFFFFF AND SUB PUSH2 0x156C JUMPI PUSH1 0x0 PUSH1 0x40 MLOAD PUSH32 0x1E4FBDF700000000000000000000000000000000000000000000000000000000 DUP2 MSTORE PUSH1 0x4 ADD PUSH2 0x1563 SWAP2 SWAP1 PUSH2 0x4006 JUMP JUMPDEST PUSH1 0x40 MLOAD DUP1 SWAP2 SUB SWAP1 REVERT JUMPDEST PUSH2 0x1575 DUP2 PUSH2 0x2D80 JUMP JUMPDEST POP JUMP JUMPDEST PUSH32 0x0 DUP2 JUMP JUMPDEST PUSH1 0x0 DUP1 PUSH32 0x579D790592639B2D681736F3C42DB3029BC25BDEE19FB1AF9A117B3462375585 PUSH1 0x0 SHL SWAP1 POP DUP1 SWAP2 POP POP SWAP1 JUMP JUMPDEST PUSH1 0x0 PUSH20 0xEEEEEEEEEEEEEEEEEEEEEEEEEEEEEEEEEEEEEEEE PUSH20 0xFFFFFFFFFFFFFFFFFFFFFFFFFFFFFFFFFFFFFFFF AND DUP3 PUSH20 0xFFFFFFFFFFFFFFFFFFFFFFFFFFFFFFFFFFFFFFFF AND EQ DUP1 PUSH2 0x1649 JUMPI POP PUSH2 0x1010 PUSH20 0xFFFFFFFFFFFFFFFFFFFFFFFFFFFFFFFFFFFFFFFF AND DUP3 PUSH20 0xFFFFFFFFFFFFFFFFFFFFFFFFFFFFFFFFFFFFFFFF AND EQ JUMPDEST DUP1 PUSH2 0x1680 JUMPI POP PUSH1 0x0 PUSH20 0xFFFFFFFFFFFFFFFFFFFFFFFFFFFFFFFFFFFFFFFF AND DUP3 PUSH20 0xFFFFFFFFFFFFFFFFFFFFFFFFFFFFFFFFFFFFFFFF AND EQ JUMPDEST SWAP1 POP SWAP2 SWAP1 POP JUMP JUMPDEST PUSH1 0x40 MLOAD DUP2 PUSH1 0x60 MSTORE DUP3 PUSH1 0x40 MSTORE DUP4 PUSH1 0x60 SHL PUSH1 0x2C MSTORE PUSH16 0x23B872DD000000000000000000000000 PUSH1 0xC MSTORE PUSH1 0x20 PUSH1 0x0 PUSH1 0x64 PUSH1 0x1C PUSH1 0x0 DUP10 GAS CALL RETURNDATASIZE ISZERO PUSH1 0x1 PUSH1 0x0 MLOAD EQ OR AND PUSH2 0x16D6 JUMPI PUSH4 0x7939F424 PUSH1 0x0 MSTORE PUSH1 0x4 PUSH1 0x1C REVERT JUMPDEST PUSH1 0x0 PUSH1 0x60 MSTORE DUP1 PUSH1 0x40 MSTORE POP POP POP POP POP JUMP JUMPDEST PUSH1 0x0 DUP2 PUSH1 0x14 MSTORE PUSH16 0x70A08231000000000000000000000000 PUSH1 0x0 MSTORE PUSH1 0x20 DUP1 PUSH1 0x24 PUSH1 0x10 DUP7 GAS STATICCALL PUSH1 0x1F RETURNDATASIZE GT AND PUSH1 0x20 MLOAD MUL SWAP1 POP SWAP3 SWAP2 POP POP JUMP JUMPDEST DUP5 PUSH2 0x1900 JUMPI PUSH32 0x0 PUSH20 0xFFFFFFFFFFFFFFFFFFFFFFFFFFFFFFFFFFFFFFFF AND DUP5 PUSH20 0xFFFFFFFFFFFFFFFFFFFFFFFFFFFFFFFFFFFFFFFF AND EQ PUSH2 0x180E JUMPI PUSH2 0x179E DUP4 DUP4 DUP7 PUSH20 0xFFFFFFFFFFFFFFFFFFFFFFFFFFFFFFFFFFFFFFFF AND PUSH2 0x353C SWAP1 SWAP3 SWAP2 SWAP1 PUSH4 0xFFFFFFFF AND JUMP JUMPDEST DUP3 PUSH20 0xFFFFFFFFFFFFFFFFFFFFFFFFFFFFFFFFFFFFFFFF AND PUSH4 0xA0712D68 DUP4 PUSH1 0x40 MLOAD DUP3 PUSH4 0xFFFFFFFF AND PUSH1 0xE0 SHL DUP2 MSTORE PUSH1 0x4 ADD PUSH2 0x17D7 SWAP2 SWAP1 PUSH2 0x3FDC JUMP JUMPDEST PUSH1 0x0 PUSH1 0x40 MLOAD DUP1 DUP4 SUB DUP2 PUSH1 0x0 DUP8 DUP1 EXTCODESIZE ISZERO DUP1 ISZERO PUSH2 0x17F1 JUMPI PUSH1 0x0 DUP1 REVERT JUMPDEST POP GAS CALL ISZERO DUP1 ISZERO PUSH2 0x1805 JUMPI RETURNDATASIZE PUSH1 0x0 DUP1 RETURNDATACOPY RETURNDATASIZE PUSH1 0x0 REVERT JUMPDEST POP POP POP POP PUSH2 0x18FB JUMP JUMPDEST PUSH32 0x0 PUSH20 0xFFFFFFFFFFFFFFFFFFFFFFFFFFFFFFFFFFFFFFFF AND PUSH4 0x2E1A7D4D DUP4 PUSH1 0x40 MLOAD DUP3 PUSH4 0xFFFFFFFF AND PUSH1 0xE0 SHL DUP2 MSTORE PUSH1 0x4 ADD PUSH2 0x1867 SWAP2 SWAP1 PUSH2 0x3FDC JUMP JUMPDEST PUSH1 0x0 PUSH1 0x40 MLOAD DUP1 DUP4 SUB DUP2 PUSH1 0x0 DUP8 DUP1 EXTCODESIZE ISZERO DUP1 ISZERO PUSH2 0x1881 JUMPI PUSH1 0x0 DUP1 REVERT JUMPDEST POP GAS CALL ISZERO DUP1 ISZERO PUSH2 0x1895 JUMPI RETURNDATASIZE PUSH1 0x0 DUP1 RETURNDATACOPY RETURNDATASIZE PUSH1 0x0 REVERT JUMPDEST POP POP POP POP DUP3 PUSH20 0xFFFFFFFFFFFFFFFFFFFFFFFFFFFFFFFFFFFFFFFF AND PUSH4 0x1249C58B DUP4 PUSH1 0x40 MLOAD DUP3 PUSH4 0xFFFFFFFF AND PUSH1 0xE0 SHL DUP2 MSTORE PUSH1 0x4 ADD PUSH1 0x0 PUSH1 0x40 MLOAD DUP1 DUP4 SUB DUP2 DUP6 DUP9 DUP1 EXTCODESIZE ISZERO DUP1 ISZERO PUSH2 0x18E1 JUMPI PUSH1 0x0 DUP1 REVERT JUMPDEST POP GAS CALL ISZERO DUP1 ISZERO PUSH2 0x18F5 JUMPI RETURNDATASIZE PUSH1 0x0 DUP1 RETURNDATACOPY RETURNDATASIZE PUSH1 0x0 REVERT JUMPDEST POP POP POP POP POP JUMPDEST PUSH2 0x1962 JUMP JUMPDEST DUP3 PUSH20 0xFFFFFFFFFFFFFFFFFFFFFFFFFFFFFFFFFFFFFFFF AND PUSH4 0x1249C58B DUP4 PUSH1 0x40 MLOAD DUP3 PUSH4 0xFFFFFFFF AND PUSH1 0xE0 SHL DUP2 MSTORE PUSH1 0x4 ADD PUSH1 0x0 PUSH1 0x40 MLOAD DUP1 DUP4 SUB DUP2 DUP6 DUP9 DUP1 EXTCODESIZE ISZERO DUP1 ISZERO PUSH2 0x1948 JUMPI PUSH1 0x0 DUP1 REVERT JUMPDEST POP GAS CALL ISZERO DUP1 ISZERO PUSH2 0x195C JUMPI RETURNDATASIZE PUSH1 0x0 DUP1 RETURNDATACOPY RETURNDATASIZE PUSH1 0x0 REVERT JUMPDEST POP POP POP POP POP JUMPDEST POP POP POP POP POP JUMP JUMPDEST DUP5 ISZERO PUSH2 0x19F4 JUMPI PUSH32 0x0 SWAP4 POP DUP4 PUSH20 0xFFFFFFFFFFFFFFFFFFFFFFFFFFFFFFFFFFFFFFFF AND PUSH4 0xD0E30DB0 DUP4 PUSH1 0x40 MLOAD DUP3 PUSH4 0xFFFFFFFF AND PUSH1 0xE0 SHL DUP2 MSTORE PUSH1 0x4 ADD PUSH1 0x0 PUSH1 0x40 MLOAD DUP1 DUP4 SUB DUP2 DUP6 DUP9 DUP1 EXTCODESIZE ISZERO DUP1 ISZERO PUSH2 0x19DA JUMPI PUSH1 0x0 DUP1 REVERT JUMPDEST POP GAS CALL ISZERO DUP1 ISZERO PUSH2 0x19EE JUMPI RETURNDATASIZE PUSH1 0x0 DUP1 RETURNDATACOPY RETURNDATASIZE PUSH1 0x0 REVERT JUMPDEST POP POP POP POP POP JUMPDEST PUSH1 0x0 DUP4 PUSH20 0xFFFFFFFFFFFFFFFFFFFFFFFFFFFFFFFFFFFFFFFF AND PUSH4 0x7535D246 PUSH1 0x40 MLOAD DUP2 PUSH4 0xFFFFFFFF AND PUSH1 0xE0 SHL DUP2 MSTORE PUSH1 0x4 ADD PUSH1 0x20 PUSH1 0x40 MLOAD DUP1 DUP4 SUB DUP2 DUP7 GAS STATICCALL ISZERO DUP1 ISZERO PUSH2 0x1A41 JUMPI RETURNDATASIZE PUSH1 0x0 DUP1 RETURNDATACOPY RETURNDATASIZE PUSH1 0x0 REVERT JUMPDEST POP POP POP POP PUSH1 0x40 MLOAD RETURNDATASIZE PUSH1 0x1F NOT PUSH1 0x1F DUP3 ADD AND DUP3 ADD DUP1 PUSH1 0x40 MSTORE POP DUP2 ADD SWAP1 PUSH2 0x1A65 SWAP2 SWAP1 PUSH2 0x4E81 JUMP JUMPDEST SWAP1 POP PUSH2 0x1A92 DUP2 DUP5 DUP8 PUSH20 0xFFFFFFFFFFFFFFFFFFFFFFFFFFFFFFFFFFFFFFFF AND PUSH2 0x353C SWAP1 SWAP3 SWAP2 SWAP1 PUSH4 0xFFFFFFFF AND JUMP JUMPDEST DUP1 PUSH20 0xFFFFFFFFFFFFFFFFFFFFFFFFFFFFFFFFFFFFFFFF AND PUSH4 0xE8EDA9DF DUP7 DUP6 DUP6 PUSH1 0x0 PUSH1 0x40 MLOAD DUP6 PUSH4 0xFFFFFFFF AND PUSH1 0xE0 SHL DUP2 MSTORE PUSH1 0x4 ADD PUSH2 0x1AD2 SWAP5 SWAP4 SWAP3 SWAP2 SWAP1 PUSH2 0x4EAE JUMP JUMPDEST PUSH1 0x0 PUSH1 0x40 MLOAD DUP1 DUP4 SUB DUP2 PUSH1 0x0 DUP8 DUP1 EXTCODESIZE ISZERO DUP1 ISZERO PUSH2 0x1AEC JUMPI PUSH1 0x0 DUP1 REVERT JUMPDEST POP GAS CALL ISZERO DUP1 ISZERO PUSH2 0x1B00 JUMPI RETURNDATASIZE PUSH1 0x0 DUP1 RETURNDATACOPY RETURNDATASIZE PUSH1 0x0 REVERT JUMPDEST POP POP POP POP POP POP POP POP POP POP JUMP JUMPDEST PUSH1 0x0 PUSH2 0x1B2D DUP3 PUSH20 0xFFFFFFFFFFFFFFFFFFFFFFFFFFFFFFFFFFFFFFFF AND PUSH2 0x15CC JUMP JUMPDEST ISZERO PUSH2 0x1CF4 JUMPI PUSH32 0x0 SWAP2 POP PUSH32 0x0 PUSH20 0xFFFFFFFFFFFFFFFFFFFFFFFFFFFFFFFFFFFFFFFF AND PUSH4 0x70A08231 ADDRESS PUSH1 0x40 MLOAD DUP3 PUSH4 0xFFFFFFFF AND PUSH1 0xE0 SHL DUP2 MSTORE PUSH1 0x4 ADD PUSH2 0x1BAE SWAP2 SWAP1 PUSH2 0x4006 JUMP JUMPDEST PUSH1 0x20 PUSH1 0x40 MLOAD DUP1 DUP4 SUB DUP2 DUP7 GAS STATICCALL ISZERO DUP1 ISZERO PUSH2 0x1BCB JUMPI RETURNDATASIZE PUSH1 0x0 DUP1 RETURNDATACOPY RETURNDATASIZE PUSH1 0x0 REVERT JUMPDEST POP POP POP POP PUSH1 0x40 MLOAD RETURNDATASIZE PUSH1 0x1F NOT PUSH1 0x1F DUP3 ADD AND DUP3 ADD DUP1 PUSH1 0x40 MSTORE POP DUP2 ADD SWAP1 PUSH2 0x1BEF SWAP2 SWAP1 PUSH2 0x4EF3 JUMP JUMPDEST SWAP1 POP PUSH1 0x0 DUP2 GT ISZERO PUSH2 0x1CEF JUMPI PUSH32 0x0 PUSH20 0xFFFFFFFFFFFFFFFFFFFFFFFFFFFFFFFFFFFFFFFF AND PUSH4 0x2E1A7D4D DUP3 PUSH1 0x40 MLOAD DUP3 PUSH4 0xFFFFFFFF AND PUSH1 0xE0 SHL DUP2 MSTORE PUSH1 0x4 ADD PUSH2 0x1C53 SWAP2 SWAP1 PUSH2 0x3FDC JUMP JUMPDEST PUSH1 0x0 PUSH1 0x40 MLOAD DUP1 DUP4 SUB DUP2 PUSH1 0x0 DUP8 DUP1 EXTCODESIZE ISZERO DUP1 ISZERO PUSH2 0x1C6D JUMPI PUSH1 0x0 DUP1 REVERT JUMPDEST POP GAS CALL ISZERO DUP1 ISZERO PUSH2 0x1C81 JUMPI RETURNDATASIZE PUSH1 0x0 DUP1 RETURNDATACOPY RETURNDATASIZE PUSH1 0x0 REVERT JUMPDEST POP POP POP POP CALLER PUSH20 0xFFFFFFFFFFFFFFFFFFFFFFFFFFFFFFFFFFFFFFFF AND DUP2 PUSH1 0x40 MLOAD PUSH2 0x1CA9 SWAP1 PUSH2 0x4F51 JUMP JUMPDEST PUSH1 0x0 PUSH1 0x40 MLOAD DUP1 DUP4 SUB DUP2 DUP6 DUP8 GAS CALL SWAP3 POP POP POP RETURNDATASIZE DUP1 PUSH1 0x0 DUP2 EQ PUSH2 0x1CE6 JUMPI PUSH1 0x40 MLOAD SWAP2 POP PUSH1 0x1F NOT PUSH1 0x3F RETURNDATASIZE ADD AND DUP3 ADD PUSH1 0x40 MSTORE RETURNDATASIZE DUP3 MSTORE RETURNDATASIZE PUSH1 0x0 PUSH1 0x20 DUP5 ADD RETURNDATACOPY PUSH2 0x1CEB JUMP JUMPDEST PUSH1 0x60 SWAP2 POP JUMPDEST POP POP POP JUMPDEST PUSH2 0x1D55 JUMP JUMPDEST PUSH2 0x1D1D ADDRESS DUP4 PUSH20 0xFFFFFFFFFFFFFFFFFFFFFFFFFFFFFFFFFFFFFFFF AND PUSH2 0x16E6 SWAP1 SWAP2 SWAP1 PUSH4 0xFFFFFFFF AND JUMP JUMPDEST SWAP1 POP PUSH1 0x0 DUP2 GT ISZERO PUSH2 0x1D54 JUMPI PUSH2 0x1D53 CALLER DUP3 DUP5 PUSH20 0xFFFFFFFFFFFFFFFFFFFFFFFFFFFFFFFFFFFFFFFF AND PUSH2 0x34ED SWAP1 SWAP3 SWAP2 SWAP1 PUSH4 0xFFFFFFFF AND JUMP JUMPDEST JUMPDEST JUMPDEST POP POP JUMP JUMPDEST PUSH1 0x0 PUSH2 0x1D88 DUP3 ADDRESS DUP6 DUP8 PUSH20 0xFFFFFFFFFFFFFFFFFFFFFFFFFFFFFFFFFFFFFFFF AND PUSH2 0x1687 SWAP1 SWAP4 SWAP3 SWAP2 SWAP1 PUSH4 0xFFFFFFFF AND JUMP JUMPDEST DUP4 PUSH20 0xFFFFFFFFFFFFFFFFFFFFFFFFFFFFFFFFFFFFFFFF AND PUSH4 0xDB006A75 DUP5 PUSH1 0x40 MLOAD DUP3 PUSH4 0xFFFFFFFF AND PUSH1 0xE0 SHL DUP2 MSTORE PUSH1 0x4 ADD PUSH2 0x1DC1 SWAP2 SWAP1 PUSH2 0x3FDC JUMP JUMPDEST PUSH1 0x0 PUSH1 0x40 MLOAD DUP1 DUP4 SUB DUP2 PUSH1 0x0 DUP8 DUP1 EXTCODESIZE ISZERO DUP1 ISZERO PUSH2 0x1DDB JUMPI PUSH1 0x0 DUP1 REVERT JUMPDEST POP GAS CALL ISZERO DUP1 ISZERO PUSH2 0x1DEF JUMPI RETURNDATASIZE PUSH1 0x0 DUP1 RETURNDATACOPY RETURNDATASIZE PUSH1 0x0 REVERT JUMPDEST POP POP POP POP PUSH2 0x1E1C ADDRESS DUP7 PUSH20 0xFFFFFFFFFFFFFFFFFFFFFFFFFFFFFFFFFFFFFFFF AND PUSH2 0x3982 SWAP1 SWAP2 SWAP1 PUSH4 0xFFFFFFFF AND JUMP JUMPDEST SWAP1 POP ADDRESS PUSH20 0xFFFFFFFFFFFFFFFFFFFFFFFFFFFFFFFFFFFFFFFF AND DUP3 PUSH20 0xFFFFFFFFFFFFFFFFFFFFFFFFFFFFFFFFFFFFFFFF AND EQ PUSH2 0x1E7D JUMPI PUSH2 0x1E7C DUP3 DUP3 DUP8 PUSH20 0xFFFFFFFFFFFFFFFFFFFFFFFFFFFFFFFFFFFFFFFF AND PUSH2 0x39E3 SWAP1 SWAP3 SWAP2 SWAP1 PUSH4 0xFFFFFFFF AND JUMP JUMPDEST JUMPDEST SWAP6 SWAP5 POP POP POP POP POP JUMP JUMPDEST PUSH1 0x0 PUSH2 0x1EB5 DUP3 ADDRESS DUP6 DUP8 PUSH20 0xFFFFFFFFFFFFFFFFFFFFFFFFFFFFFFFFFFFFFFFF AND PUSH2 0x1687 SWAP1 SWAP4 SWAP3 SWAP2 SWAP1 PUSH4 0xFFFFFFFF AND JUMP JUMPDEST PUSH1 0x0 DUP5 PUSH20 0xFFFFFFFFFFFFFFFFFFFFFFFFFFFFFFFFFFFFFFFF AND PUSH4 0x7535D246 PUSH1 0x40 MLOAD DUP2 PUSH4 0xFFFFFFFF AND PUSH1 0xE0 SHL DUP2 MSTORE PUSH1 0x4 ADD PUSH1 0x20 PUSH1 0x40 MLOAD DUP1 DUP4 SUB DUP2 DUP7 GAS STATICCALL ISZERO DUP1 ISZERO PUSH2 0x1F02 JUMPI RETURNDATASIZE PUSH1 0x0 DUP1 RETURNDATACOPY RETURNDATASIZE PUSH1 0x0 REVERT JUMPDEST POP POP POP POP PUSH1 0x40 MLOAD RETURNDATASIZE PUSH1 0x1F NOT PUSH1 0x1F DUP3 ADD AND DUP3 ADD DUP1 PUSH1 0x40 MSTORE POP DUP2 ADD SWAP1 PUSH2 0x1F26 SWAP2 SWAP1 PUSH2 0x4E81 JUMP JUMPDEST SWAP1 POP DUP1 PUSH20 0xFFFFFFFFFFFFFFFFFFFFFFFFFFFFFFFFFFFFFFFF AND PUSH4 0x69328DEC PUSH2 0x1F63 DUP9 PUSH20 0xFFFFFFFFFFFFFFFFFFFFFFFFFFFFFFFFFFFFFFFF AND PUSH2 0x15CC JUMP JUMPDEST PUSH2 0x1F6D JUMPI DUP8 PUSH2 0x1F8F JUMP JUMPDEST PUSH32 0x0 JUMPDEST DUP7 ADDRESS PUSH1 0x40 MLOAD DUP5 PUSH4 0xFFFFFFFF AND PUSH1 0xE0 SHL DUP2 MSTORE PUSH1 0x4 ADD PUSH2 0x1FAF SWAP4 SWAP3 SWAP2 SWAP1 PUSH2 0x4F66 JUMP JUMPDEST PUSH1 0x20 PUSH1 0x40 MLOAD DUP1 DUP4 SUB DUP2 PUSH1 0x0 DUP8 GAS CALL ISZERO DUP1 ISZERO PUSH2 0x1FCE JUMPI RETURNDATASIZE PUSH1 0x0 DUP1 RETURNDATACOPY RETURNDATASIZE PUSH1 0x0 REVERT JUMPDEST POP POP POP POP PUSH1 0x40 MLOAD RETURNDATASIZE PUSH1 0x1F NOT PUSH1 0x1F DUP3 ADD AND DUP3 ADD DUP1 PUSH1 0x40 MSTORE POP DUP2 ADD SWAP1 PUSH2 0x1FF2 SWAP2 SWAP1 PUSH2 0x4EF3 JUMP JUMPDEST POP DUP7 ISZERO PUSH2 0x2085 JUMPI PUSH32 0x0 PUSH20 0xFFFFFFFFFFFFFFFFFFFFFFFFFFFFFFFFFFFFFFFF AND PUSH4 0x2E1A7D4D DUP6 PUSH1 0x40 MLOAD DUP3 PUSH4 0xFFFFFFFF AND PUSH1 0xE0 SHL DUP2 MSTORE PUSH1 0x4 ADD PUSH2 0x2052 SWAP2 SWAP1 PUSH2 0x3FDC JUMP JUMPDEST PUSH1 0x0 PUSH1 0x40 MLOAD DUP1 DUP4 SUB DUP2 PUSH1 0x0 DUP8 DUP1 EXTCODESIZE ISZERO DUP1 ISZERO PUSH2 0x206C JUMPI PUSH1 0x0 DUP1 REVERT JUMPDEST POP GAS CALL ISZERO DUP1 ISZERO PUSH2 0x2080 JUMPI RETURNDATASIZE PUSH1 0x0 DUP1 RETURNDATACOPY RETURNDATASIZE PUSH1 0x0 REVERT JUMPDEST POP POP POP POP JUMPDEST ADDRESS PUSH20 0xFFFFFFFFFFFFFFFFFFFFFFFFFFFFFFFFFFFFFFFF AND DUP4 PUSH20 0xFFFFFFFFFFFFFFFFFFFFFFFFFFFFFFFFFFFFFFFF AND EQ PUSH2 0x20E4 JUMPI PUSH2 0x20E3 DUP4 DUP6 DUP9 PUSH20 0xFFFFFFFFFFFFFFFFFFFFFFFFFFFFFFFFFFFFFFFF AND PUSH2 0x39E3 SWAP1 SWAP3 SWAP2 SWAP1 PUSH4 0xFFFFFFFF AND JUMP JUMPDEST JUMPDEST DUP4 SWAP2 POP POP SWAP6 SWAP5 POP POP POP POP POP JUMP JUMPDEST PUSH1 0x0 DUP4 PUSH20 0xFFFFFFFFFFFFFFFFFFFFFFFFFFFFFFFFFFFFFFFF AND PUSH4 0x17BFDFBC DUP4 PUSH1 0x40 MLOAD DUP3 PUSH4 0xFFFFFFFF AND PUSH1 0xE0 SHL DUP2 MSTORE PUSH1 0x4 ADD PUSH2 0x212C SWAP2 SWAP1 PUSH2 0x4006 JUMP JUMPDEST PUSH1 0x20 PUSH1 0x40 MLOAD DUP1 DUP4 SUB DUP2 PUSH1 0x0 DUP8 GAS CALL ISZERO DUP1 ISZERO PUSH2 0x214B JUMPI RETURNDATASIZE PUSH1 0x0 DUP1 RETURNDATACOPY RETURNDATASIZE PUSH1 0x0 REVERT JUMPDEST POP POP POP POP PUSH1 0x40 MLOAD RETURNDATASIZE PUSH1 0x1F NOT PUSH1 0x1F DUP3 ADD AND DUP3 ADD DUP1 PUSH1 0x40 MSTORE POP DUP2 ADD SWAP1 PUSH2 0x216F SWAP2 SWAP1 PUSH2 0x4EF3 JUMP JUMPDEST SWAP1 POP PUSH1 0x0 DUP2 DUP5 GT PUSH2 0x2180 JUMPI DUP4 PUSH2 0x2182 JUMP JUMPDEST DUP2 JUMPDEST SWAP1 POP PUSH1 0x0 DUP2 GT ISZERO PUSH2 0x2423 JUMPI DUP7 PUSH2 0x23A3 JUMPI PUSH32 0x0 PUSH20 0xFFFFFFFFFFFFFFFFFFFFFFFFFFFFFFFFFFFFFFFF AND DUP7 PUSH20 0xFFFFFFFFFFFFFFFFFFFFFFFFFFFFFFFFFFFFFFFF AND EQ PUSH2 0x2294 JUMPI PUSH2 0x2210 DUP6 DUP3 DUP9 PUSH20 0xFFFFFFFFFFFFFFFFFFFFFFFFFFFFFFFFFFFFFFFF AND PUSH2 0x353C SWAP1 SWAP3 SWAP2 SWAP1 PUSH4 0xFFFFFFFF AND JUMP JUMPDEST DUP5 PUSH20 0xFFFFFFFFFFFFFFFFFFFFFFFFFFFFFFFFFFFFFFFF AND PUSH4 0x2608F818 DUP5 DUP4 PUSH1 0x40 MLOAD DUP4 PUSH4 0xFFFFFFFF AND PUSH1 0xE0 SHL DUP2 MSTORE PUSH1 0x4 ADD PUSH2 0x224B SWAP3 SWAP2 SWAP1 PUSH2 0x4F9D JUMP JUMPDEST PUSH1 0x20 PUSH1 0x40 MLOAD DUP1 DUP4 SUB DUP2 PUSH1 0x0 DUP8 GAS CALL ISZERO DUP1 ISZERO PUSH2 0x226A JUMPI RETURNDATASIZE PUSH1 0x0 DUP1 RETURNDATACOPY RETURNDATASIZE PUSH1 0x0 REVERT JUMPDEST POP POP POP POP PUSH1 0x40 MLOAD RETURNDATASIZE PUSH1 0x1F NOT PUSH1 0x1F DUP3 ADD AND DUP3 ADD DUP1 PUSH1 0x40 MSTORE POP DUP2 ADD SWAP1 PUSH2 0x228E SWAP2 SWAP1 PUSH2 0x4EF3 JUMP JUMPDEST POP PUSH2 0x239E JUMP JUMPDEST PUSH32 0x0 PUSH20 0xFFFFFFFFFFFFFFFFFFFFFFFFFFFFFFFFFFFFFFFF AND PUSH4 0x2E1A7D4D DUP6 PUSH1 0x40 MLOAD DUP3 PUSH4 0xFFFFFFFF AND PUSH1 0xE0 SHL DUP2 MSTORE PUSH1 0x4 ADD PUSH2 0x22ED SWAP2 SWAP1 PUSH2 0x3FDC JUMP JUMPDEST PUSH1 0x0 PUSH1 0x40 MLOAD DUP1 DUP4 SUB DUP2 PUSH1 0x0 DUP8 DUP1 EXTCODESIZE ISZERO DUP1 ISZERO PUSH2 0x2307 JUMPI PUSH1 0x0 DUP1 REVERT JUMPDEST POP GAS CALL ISZERO DUP1 ISZERO PUSH2 0x231B JUMPI RETURNDATASIZE PUSH1 0x0 DUP1 RETURNDATACOPY RETURNDATASIZE PUSH1 0x0 REVERT JUMPDEST POP POP POP POP DUP5 PUSH20 0xFFFFFFFFFFFFFFFFFFFFFFFFFFFFFFFFFFFFFFFF AND PUSH4 0xE5974619 DUP3 DUP6 PUSH1 0x40 MLOAD DUP4 PUSH4 0xFFFFFFFF AND PUSH1 0xE0 SHL DUP2 MSTORE PUSH1 0x4 ADD PUSH2 0x2359 SWAP2 SWAP1 PUSH2 0x4006 JUMP JUMPDEST PUSH1 0x20 PUSH1 0x40 MLOAD DUP1 DUP4 SUB DUP2 DUP6 DUP9 GAS CALL ISZERO DUP1 ISZERO PUSH2 0x2377 JUMPI RETURNDATASIZE PUSH1 0x0 DUP1 RETURNDATACOPY RETURNDATASIZE PUSH1 0x0 REVERT JUMPDEST POP POP POP POP POP PUSH1 0x40 MLOAD RETURNDATASIZE PUSH1 0x1F NOT PUSH1 0x1F DUP3 ADD AND DUP3 ADD DUP1 PUSH1 0x40 MSTORE POP DUP2 ADD SWAP1 PUSH2 0x239C SWAP2 SWAP1 PUSH2 0x4EF3 JUMP JUMPDEST POP JUMPDEST PUSH2 0x2422 JUMP JUMPDEST DUP5 PUSH20 0xFFFFFFFFFFFFFFFFFFFFFFFFFFFFFFFFFFFFFFFF AND PUSH4 0xE5974619 DUP3 DUP6 PUSH1 0x40 MLOAD DUP4 PUSH4 0xFFFFFFFF AND PUSH1 0xE0 SHL DUP2 MSTORE PUSH1 0x4 ADD PUSH2 0x23DD SWAP2 SWAP1 PUSH2 0x4006 JUMP JUMPDEST PUSH1 0x20 PUSH1 0x40 MLOAD DUP1 DUP4 SUB DUP2 DUP6 DUP9 GAS CALL ISZERO DUP1 ISZERO PUSH2 0x23FB JUMPI RETURNDATASIZE PUSH1 0x0 DUP1 RETURNDATACOPY RETURNDATASIZE PUSH1 0x0 REVERT JUMPDEST POP POP POP POP POP PUSH1 0x40 MLOAD RETURNDATASIZE PUSH1 0x1F NOT PUSH1 0x1F DUP3 ADD AND DUP3 ADD DUP1 PUSH1 0x40 MSTORE POP DUP2 ADD SWAP1 PUSH2 0x2420 SWAP2 SWAP1 PUSH2 0x4EF3 JUMP JUMPDEST POP JUMPDEST JUMPDEST POP POP POP POP POP POP POP JUMP JUMPDEST PUSH1 0x0 DUP4 PUSH20 0xFFFFFFFFFFFFFFFFFFFFFFFFFFFFFFFFFFFFFFFF AND PUSH4 0x7535D246 PUSH1 0x40 MLOAD DUP2 PUSH4 0xFFFFFFFF AND PUSH1 0xE0 SHL DUP2 MSTORE PUSH1 0x4 ADD PUSH1 0x20 PUSH1 0x40 MLOAD DUP1 DUP4 SUB DUP2 DUP7 GAS STATICCALL ISZERO DUP1 ISZERO PUSH2 0x2479 JUMPI RETURNDATASIZE PUSH1 0x0 DUP1 RETURNDATACOPY RETURNDATASIZE PUSH1 0x0 REVERT JUMPDEST POP POP POP POP PUSH1 0x40 MLOAD RETURNDATASIZE PUSH1 0x1F NOT PUSH1 0x1F DUP3 ADD AND DUP3 ADD DUP1 PUSH1 0x40 MSTORE POP DUP2 ADD SWAP1 PUSH2 0x249D SWAP2 SWAP1 PUSH2 0x4E81 JUMP JUMPDEST SWAP1 POP PUSH1 0x0 PUSH2 0x24CA DUP4 DUP7 PUSH20 0xFFFFFFFFFFFFFFFFFFFFFFFFFFFFFFFFFFFFFFFF AND PUSH2 0x3982 SWAP1 SWAP2 SWAP1 PUSH4 0xFFFFFFFF AND JUMP JUMPDEST SWAP1 POP PUSH1 0x0 DUP2 DUP6 GT PUSH2 0x24DB JUMPI DUP5 PUSH2 0x24DD JUMP JUMPDEST DUP2 JUMPDEST SWAP1 POP PUSH1 0x0 DUP2 GT ISZERO PUSH2 0x25A9 JUMPI PUSH2 0x2513 DUP4 DUP3 DUP10 PUSH20 0xFFFFFFFFFFFFFFFFFFFFFFFFFFFFFFFFFFFFFFFF AND PUSH2 0x353C SWAP1 SWAP3 SWAP2 SWAP1 PUSH4 0xFFFFFFFF AND JUMP JUMPDEST DUP3 PUSH20 0xFFFFFFFFFFFFFFFFFFFFFFFFFFFFFFFFFFFFFFFF AND PUSH4 0x573ADE81 DUP9 DUP4 PUSH1 0x2 DUP1 DUP2 GT ISZERO PUSH2 0x2544 JUMPI PUSH2 0x2543 PUSH2 0x4FC6 JUMP JUMPDEST JUMPDEST DUP9 PUSH1 0x40 MLOAD DUP6 PUSH4 0xFFFFFFFF AND PUSH1 0xE0 SHL DUP2 MSTORE PUSH1 0x4 ADD PUSH2 0x2564 SWAP5 SWAP4 SWAP3 SWAP2 SWAP1 PUSH2 0x5026 JUMP JUMPDEST PUSH1 0x20 PUSH1 0x40 MLOAD DUP1 DUP4 SUB DUP2 PUSH1 0x0 DUP8 GAS CALL ISZERO DUP1 ISZERO PUSH2 0x2583 JUMPI RETURNDATASIZE PUSH1 0x0 DUP1 RETURNDATACOPY RETURNDATASIZE PUSH1 0x0 REVERT JUMPDEST POP POP POP POP PUSH1 0x40 MLOAD RETURNDATASIZE PUSH1 0x1F NOT PUSH1 0x1F DUP3 ADD AND DUP3 ADD DUP1 PUSH1 0x40 MSTORE POP DUP2 ADD SWAP1 PUSH2 0x25A7 SWAP2 SWAP1 PUSH2 0x4EF3 JUMP JUMPDEST POP JUMPDEST POP POP POP POP POP POP POP POP JUMP JUMPDEST DUP1 PUSH2 0x180 ADD MLOAD DUP1 PUSH1 0x20 ADD SWAP1 MLOAD DUP2 ADD SWAP1 PUSH2 0x25CC SWAP2 SWAP1 PUSH2 0x4453 JUMP JUMPDEST DUP5 PUSH1 0x80 ADD DUP6 PUSH1 0xA0 ADD DUP7 PUSH1 0xC0 ADD DUP8 PUSH2 0x180 ADD DUP5 SWAP1 MSTORE DUP5 DUP2 MSTORE POP DUP5 PUSH20 0xFFFFFFFFFFFFFFFFFFFFFFFFFFFFFFFFFFFFFFFF AND PUSH20 0xFFFFFFFFFFFFFFFFFFFFFFFFFFFFFFFFFFFFFFFF AND DUP2 MSTORE POP DUP5 PUSH20 0xFFFFFFFFFFFFFFFFFFFFFFFFFFFFFFFFFFFFFFFF AND PUSH20 0xFFFFFFFFFFFFFFFFFFFFFFFFFFFFFFFFFFFFFFFF AND DUP2 MSTORE POP POP POP POP POP PUSH1 0x1 PUSH8 0xFFFFFFFFFFFFFFFF DUP2 GT ISZERO PUSH2 0x2663 JUMPI PUSH2 0x2662 PUSH2 0x3CD5 JUMP JUMPDEST JUMPDEST PUSH1 0x40 MLOAD SWAP1 DUP1 DUP3 MSTORE DUP1 PUSH1 0x20 MUL PUSH1 0x20 ADD DUP3 ADD PUSH1 0x40 MSTORE DUP1 ISZERO PUSH2 0x2691 JUMPI DUP2 PUSH1 0x20 ADD PUSH1 0x20 DUP3 MUL DUP1 CALLDATASIZE DUP4 CALLDATACOPY DUP1 DUP3 ADD SWAP2 POP POP SWAP1 POP JUMPDEST POP DUP2 PUSH2 0x120 ADD DUP2 SWAP1 MSTORE POP PUSH1 0x1 PUSH8 0xFFFFFFFFFFFFFFFF DUP2 GT ISZERO PUSH2 0x26B6 JUMPI PUSH2 0x26B5 PUSH2 0x3CD5 JUMP JUMPDEST JUMPDEST PUSH1 0x40 MLOAD SWAP1 DUP1 DUP3 MSTORE DUP1 PUSH1 0x20 MUL PUSH1 0x20 ADD DUP3 ADD PUSH1 0x40 MSTORE DUP1 ISZERO PUSH2 0x26E4 JUMPI DUP2 PUSH1 0x20 ADD PUSH1 0x20 DUP3 MUL DUP1 CALLDATASIZE DUP4 CALLDATACOPY DUP1 DUP3 ADD SWAP2 POP POP SWAP1 POP JUMPDEST POP DUP2 PUSH2 0x140 ADD DUP2 SWAP1 MSTORE POP PUSH1 0x0 PUSH1 0x1 PUSH8 0xFFFFFFFFFFFFFFFF DUP2 GT ISZERO PUSH2 0x270B JUMPI PUSH2 0x270A PUSH2 0x3CD5 JUMP JUMPDEST JUMPDEST PUSH1 0x40 MLOAD SWAP1 DUP1 DUP3 MSTORE DUP1 PUSH1 0x20 MUL PUSH1 0x20 ADD DUP3 ADD PUSH1 0x40 MSTORE DUP1 ISZERO PUSH2 0x2739 JUMPI DUP2 PUSH1 0x20 ADD PUSH1 0x20 DUP3 MUL DUP1 CALLDATASIZE DUP4 CALLDATACOPY DUP1 DUP3 ADD SWAP2 POP POP SWAP1 POP JUMPDEST POP SWAP1 POP PUSH1 0x0 PUSH1 0x4 DUP4 PUSH1 0xE0 ADD MLOAD AND PUSH1 0xFF AND EQ PUSH2 0x2758 JUMPI DUP2 PUSH1 0x20 ADD MLOAD PUSH2 0x275E JUMP JUMPDEST DUP2 PUSH1 0x80 ADD MLOAD JUMPDEST DUP3 PUSH2 0x120 ADD MLOAD PUSH1 0x0 DUP2 MLOAD DUP2 LT PUSH2 0x2777 JUMPI PUSH2 0x2776 PUSH2 0x44D6 JUMP JUMPDEST JUMPDEST PUSH1 0x20 MUL PUSH1 0x20 ADD ADD SWAP1 PUSH20 0xFFFFFFFFFFFFFFFFFFFFFFFFFFFFFFFFFFFFFFFF AND SWAP1 DUP2 PUSH20 0xFFFFFFFFFFFFFFFFFFFFFFFFFFFFFFFFFFFFFFFF AND DUP2 MSTORE POP POP PUSH2 0x27F0 DUP3 PUSH2 0x120 ADD MLOAD PUSH1 0x0 DUP2 MLOAD DUP2 LT PUSH2 0x27CD JUMPI PUSH2 0x27CC PUSH2 0x44D6 JUMP JUMPDEST JUMPDEST PUSH1 0x20 MUL PUSH1 0x20 ADD ADD MLOAD PUSH20 0xFFFFFFFFFFFFFFFFFFFFFFFFFFFFFFFFFFFFFFFF AND PUSH2 0x15CC JUMP JUMPDEST ISZERO PUSH2 0x286A JUMPI PUSH32 0x0 DUP3 PUSH2 0x120 ADD MLOAD PUSH1 0x0 DUP2 MLOAD DUP2 LT PUSH2 0x282F JUMPI PUSH2 0x282E PUSH2 0x44D6 JUMP JUMPDEST JUMPDEST PUSH1 0x20 MUL PUSH1 0x20 ADD ADD SWAP1 PUSH20 0xFFFFFFFFFFFFFFFFFFFFFFFFFFFFFFFFFFFFFFFF AND SWAP1 DUP2 PUSH20 0xFFFFFFFFFFFFFFFFFFFFFFFFFFFFFFFFFFFFFFFF AND DUP2 MSTORE POP POP JUMPDEST DUP2 PUSH1 0xC0 ADD MLOAD DUP3 PUSH2 0x140 ADD MLOAD PUSH1 0x0 DUP2 MLOAD DUP2 LT PUSH2 0x2888 JUMPI PUSH2 0x2887 PUSH2 0x44D6 JUMP JUMPDEST JUMPDEST PUSH1 0x20 MUL PUSH1 0x20 ADD ADD DUP2 DUP2 MSTORE POP POP PUSH32 0x0 PUSH20 0xFFFFFFFFFFFFFFFFFFFFFFFFFFFFFFFFFFFFFFFF AND PUSH4 0xAB9C4B5D ADDRESS DUP5 PUSH2 0x120 ADD MLOAD DUP6 PUSH2 0x140 ADD MLOAD DUP6 ADDRESS PUSH1 0x40 MLOAD DUP1 PUSH2 0x140 ADD PUSH1 0x40 MSTORE DUP1 DUP11 PUSH1 0x60 ADD MLOAD PUSH20 0xFFFFFFFFFFFFFFFFFFFFFFFFFFFFFFFFFFFFFFFF AND DUP2 MSTORE PUSH1 0x20 ADD DUP11 PUSH1 0x20 ADD MLOAD PUSH20 0xFFFFFFFFFFFFFFFFFFFFFFFFFFFFFFFFFFFFFFFF AND DUP2 MSTORE PUSH1 0x20 ADD DUP11 PUSH1 0x40 ADD MLOAD PUSH20 0xFFFFFFFFFFFFFFFFFFFFFFFFFFFFFFFFFFFFFFFF AND DUP2 MSTORE PUSH1 0x20 ADD DUP11 PUSH1 0x80 ADD MLOAD PUSH20 0xFFFFFFFFFFFFFFFFFFFFFFFFFFFFFFFFFFFFFFFF AND DUP2 MSTORE PUSH1 0x20 ADD DUP11 PUSH1 0xA0 ADD MLOAD PUSH20 0xFFFFFFFFFFFFFFFFFFFFFFFFFFFFFFFFFFFFFFFF AND DUP2 MSTORE PUSH1 0x20 ADD DUP11 PUSH1 0x20 ADD MLOAD PUSH20 0xFFFFFFFFFFFFFFFFFFFFFFFFFFFFFFFFFFFFFFFF AND DUP2 MSTORE PUSH1 0x20 ADD DUP11 PUSH1 0x0 ADD MLOAD DUP2 MSTORE PUSH1 0x20 ADD DUP11 PUSH1 0xC0 ADD MLOAD DUP2 MSTORE PUSH1 0x20 ADD DUP11 PUSH1 0xE0 ADD MLOAD PUSH1 0xFF AND DUP2 MSTORE PUSH1 0x20 ADD PUSH1 0x40 MLOAD DUP1 PUSH1 0x20 ADD PUSH1 0x40 MSTORE DUP1 PUSH1 0x0 DUP2 MSTORE POP DUP2 MSTORE POP PUSH1 0x40 MLOAD PUSH1 0x20 ADD PUSH2 0x29EF SWAP2 SWAP1 PUSH2 0x4661 JUMP JUMPDEST PUSH1 0x40 MLOAD PUSH1 0x20 DUP2 DUP4 SUB SUB DUP2 MSTORE SWAP1 PUSH1 0x40 MSTORE PUSH1 0x0 PUSH1 0x40 MLOAD DUP9 PUSH4 0xFFFFFFFF AND PUSH1 0xE0 SHL DUP2 MSTORE PUSH1 0x4 ADD PUSH2 0x2A22 SWAP8 SWAP7 SWAP6 SWAP5 SWAP4 SWAP3 SWAP2 SWAP1 PUSH2 0x4874 JUMP JUMPDEST PUSH1 0x0 PUSH1 0x40 MLOAD DUP1 DUP4 SUB DUP2 PUSH1 0x0 DUP8 DUP1 EXTCODESIZE ISZERO DUP1 ISZERO PUSH2 0x2A3C JUMPI PUSH1 0x0 DUP1 REVERT JUMPDEST POP GAS CALL ISZERO DUP1 ISZERO PUSH2 0x2A50 JUMPI RETURNDATASIZE PUSH1 0x0 DUP1 RETURNDATACOPY RETURNDATASIZE PUSH1 0x0 REVERT JUMPDEST POP POP POP POP PUSH1 0x0 DUP3 PUSH2 0x180 ADD MLOAD MLOAD EQ PUSH2 0x2CF5 JUMPI PUSH1 0x0 DUP1 DUP4 PUSH2 0x180 ADD MLOAD DUP1 PUSH1 0x20 ADD SWAP1 MLOAD DUP2 ADD SWAP1 PUSH2 0x2A7E SWAP2 SWAP1 PUSH2 0x5224 JUMP JUMPDEST SWAP2 POP SWAP2 POP DUP2 MLOAD DUP2 MLOAD EQ PUSH2 0x2ABD JUMPI PUSH1 0x40 MLOAD PUSH32 0xFF633A3800000000000000000000000000000000000000000000000000000000 DUP2 MSTORE PUSH1 0x4 ADD PUSH1 0x40 MLOAD DUP1 SWAP2 SUB SWAP1 REVERT JUMPDEST PUSH1 0x0 DUP3 MLOAD PUSH8 0xFFFFFFFFFFFFFFFF DUP2 GT ISZERO PUSH2 0x2ADA JUMPI PUSH2 0x2AD9 PUSH2 0x3CD5 JUMP JUMPDEST JUMPDEST PUSH1 0x40 MLOAD SWAP1 DUP1 DUP3 MSTORE DUP1 PUSH1 0x20 MUL PUSH1 0x20 ADD DUP3 ADD PUSH1 0x40 MSTORE DUP1 ISZERO PUSH2 0x2B13 JUMPI DUP2 PUSH1 0x20 ADD JUMPDEST PUSH2 0x2B00 PUSH2 0x3B7B JUMP JUMPDEST DUP2 MSTORE PUSH1 0x20 ADD SWAP1 PUSH1 0x1 SWAP1 SUB SWAP1 DUP2 PUSH2 0x2AF8 JUMPI SWAP1 POP JUMPDEST POP SWAP1 POP PUSH1 0x0 JUMPDEST DUP4 MLOAD DUP2 LT ISZERO PUSH2 0x2C4C JUMPI PUSH1 0x0 PUSH1 0x40 MLOAD DUP1 PUSH1 0xA0 ADD PUSH1 0x40 MSTORE DUP1 ADDRESS PUSH1 0x40 MLOAD PUSH1 0x20 ADD PUSH2 0x2B40 SWAP2 SWAP1 PUSH2 0x4006 JUMP JUMPDEST PUSH1 0x40 MLOAD PUSH1 0x20 DUP2 DUP4 SUB SUB DUP2 MSTORE SWAP1 PUSH1 0x40 MSTORE DUP2 MSTORE PUSH1 0x20 ADD CALLER DUP10 PUSH1 0x20 ADD MLOAD DUP11 PUSH1 0x40 ADD MLOAD DUP12 PUSH1 0xE0 ADD MLOAD DUP10 PUSH1 0x40 MLOAD PUSH1 0x20 ADD PUSH2 0x2B79 SWAP6 SWAP5 SWAP4 SWAP3 SWAP2 SWAP1 PUSH2 0x536D JUMP JUMPDEST PUSH1 0x40 MLOAD PUSH1 0x20 DUP2 DUP4 SUB SUB DUP2 MSTORE SWAP1 PUSH1 0x40 MSTORE DUP2 MSTORE PUSH1 0x20 ADD PUSH1 0x0 PUSH8 0xFFFFFFFFFFFFFFFF DUP2 GT ISZERO PUSH2 0x2BA8 JUMPI PUSH2 0x2BA7 PUSH2 0x3CD5 JUMP JUMPDEST JUMPDEST PUSH1 0x40 MLOAD SWAP1 DUP1 DUP3 MSTORE DUP1 PUSH1 0x20 MUL PUSH1 0x20 ADD DUP3 ADD PUSH1 0x40 MSTORE DUP1 ISZERO PUSH2 0x2BE1 JUMPI DUP2 PUSH1 0x20 ADD JUMPDEST PUSH2 0x2BCE PUSH2 0x3BC0 JUMP JUMPDEST DUP2 MSTORE PUSH1 0x20 ADD SWAP1 PUSH1 0x1 SWAP1 SUB SWAP1 DUP2 PUSH2 0x2BC6 JUMPI SWAP1 POP JUMPDEST POP DUP2 MSTORE PUSH1 0x20 ADD PUSH1 0x0 PUSH20 0xFFFFFFFFFFFFFFFFFFFFFFFFFFFFFFFFFFFFFFFF AND DUP2 MSTORE PUSH1 0x20 ADD PUSH1 0x40 MLOAD DUP1 PUSH1 0x20 ADD PUSH1 0x40 MSTORE DUP1 PUSH1 0x0 DUP2 MSTORE POP DUP2 MSTORE POP SWAP1 POP DUP1 DUP4 DUP4 DUP2 MLOAD DUP2 LT PUSH2 0x2C2D JUMPI PUSH2 0x2C2C PUSH2 0x44D6 JUMP JUMPDEST JUMPDEST PUSH1 0x20 MUL PUSH1 0x20 ADD ADD DUP2 SWAP1 MSTORE POP POP DUP1 DUP1 PUSH2 0x2C44 SWAP1 PUSH2 0x4E24 JUMP JUMPDEST SWAP2 POP POP PUSH2 0x2B19 JUMP JUMPDEST POP PUSH32 0x0 PUSH20 0xFFFFFFFFFFFFFFFFFFFFFFFFFFFFFFFFFFFFFFFF AND PUSH4 0x3626454D DUP3 DUP6 PUSH1 0x40 MLOAD DUP4 PUSH4 0xFFFFFFFF AND PUSH1 0xE0 SHL DUP2 MSTORE PUSH1 0x4 ADD PUSH2 0x2CA8 SWAP3 SWAP2 SWAP1 PUSH2 0x56B0 JUMP JUMPDEST PUSH1 0x0 PUSH1 0x40 MLOAD DUP1 DUP4 SUB DUP2 PUSH1 0x0 DUP8 GAS CALL ISZERO DUP1 ISZERO PUSH2 0x2CC7 JUMPI RETURNDATASIZE PUSH1 0x0 DUP1 RETURNDATACOPY RETURNDATASIZE PUSH1 0x0 REVERT JUMPDEST POP POP POP POP PUSH1 0x40 MLOAD RETURNDATASIZE PUSH1 0x0 DUP3 RETURNDATACOPY RETURNDATASIZE PUSH1 0x1F NOT PUSH1 0x1F DUP3 ADD AND DUP3 ADD DUP1 PUSH1 0x40 MSTORE POP DUP2 ADD SWAP1 PUSH2 0x2CF0 SWAP2 SWAP1 PUSH2 0x57BF JUMP JUMPDEST POP POP POP POP JUMPDEST POP POP JUMP JUMPDEST PUSH2 0x2D01 PUSH2 0x3A9A JUMP JUMPDEST PUSH20 0xFFFFFFFFFFFFFFFFFFFFFFFFFFFFFFFFFFFFFFFF AND PUSH2 0x2D1F PUSH2 0xF90 JUMP JUMPDEST PUSH20 0xFFFFFFFFFFFFFFFFFFFFFFFFFFFFFFFFFFFFFFFF AND EQ PUSH2 0x2D7E JUMPI PUSH2 0x2D42 PUSH2 0x3A9A JUMP JUMPDEST PUSH1 0x40 MLOAD PUSH32 0x118CDAA700000000000000000000000000000000000000000000000000000000 DUP2 MSTORE PUSH1 0x4 ADD PUSH2 0x2D75 SWAP2 SWAP1 PUSH2 0x4006 JUMP JUMPDEST PUSH1 0x40 MLOAD DUP1 SWAP2 SUB SWAP1 REVERT JUMPDEST JUMP JUMPDEST PUSH1 0x0 DUP1 PUSH1 0x0 SWAP1 SLOAD SWAP1 PUSH2 0x100 EXP SWAP1 DIV PUSH20 0xFFFFFFFFFFFFFFFFFFFFFFFFFFFFFFFFFFFFFFFF AND SWAP1 POP DUP2 PUSH1 0x0 DUP1 PUSH2 0x100 EXP DUP2 SLOAD DUP2 PUSH20 0xFFFFFFFFFFFFFFFFFFFFFFFFFFFFFFFFFFFFFFFF MUL NOT AND SWAP1 DUP4 PUSH20 0xFFFFFFFFFFFFFFFFFFFFFFFFFFFFFFFFFFFFFFFF AND MUL OR SWAP1 SSTORE POP DUP2 PUSH20 0xFFFFFFFFFFFFFFFFFFFFFFFFFFFFFFFFFFFFFFFF AND DUP2 PUSH20 0xFFFFFFFFFFFFFFFFFFFFFFFFFFFFFFFFFFFFFFFF AND PUSH32 0x8BE0079C531659141344CD1FD0A4F28419497F9722A3DAAFE3B4186F6B6457E0 PUSH1 0x40 MLOAD PUSH1 0x40 MLOAD DUP1 SWAP2 SUB SWAP1 LOG3 POP POP JUMP JUMPDEST PUSH1 0x0 DUP2 PUSH1 0x40 ADD MLOAD DUP1 PUSH1 0x20 ADD SWAP1 MLOAD DUP2 ADD SWAP1 PUSH2 0x2E5E SWAP2 SWAP1 PUSH2 0x5808 JUMP JUMPDEST SWAP1 POP DUP1 PUSH20 0xFFFFFFFFFFFFFFFFFFFFFFFFFFFFFFFFFFFFFFFF AND PUSH32 0x0 PUSH20 0xFFFFFFFFFFFFFFFFFFFFFFFFFFFFFFFFFFFFFFFF AND EQ PUSH2 0x2EF0 JUMPI DUP1 PUSH1 0x40 MLOAD PUSH32 0x71811DF200000000000000000000000000000000000000000000000000000000 DUP2 MSTORE PUSH1 0x4 ADD PUSH2 0x2EE7 SWAP2 SWAP1 PUSH2 0x4006 JUMP JUMPDEST PUSH1 0x40 MLOAD DUP1 SWAP2 SUB SWAP1 REVERT JUMPDEST PUSH1 0x0 DUP1 PUSH1 0x0 DUP1 PUSH1 0x0 DUP7 PUSH1 0x60 ADD MLOAD DUP1 PUSH1 0x20 ADD SWAP1 MLOAD DUP2 ADD SWAP1 PUSH2 0x2F10 SWAP2 SWAP1 PUSH2 0x584A JUMP JUMPDEST SWAP5 POP SWAP5 POP SWAP5 POP SWAP5 POP SWAP5 POP PUSH2 0x2F22 PUSH2 0x3AA2 JUMP JUMPDEST DUP6 DUP2 PUSH1 0x60 ADD SWAP1 PUSH20 0xFFFFFFFFFFFFFFFFFFFFFFFFFFFFFFFFFFFFFFFF AND SWAP1 DUP2 PUSH20 0xFFFFFFFFFFFFFFFFFFFFFFFFFFFFFFFFFFFFFFFF AND DUP2 MSTORE POP POP DUP5 DUP2 PUSH1 0x20 ADD SWAP1 PUSH20 0xFFFFFFFFFFFFFFFFFFFFFFFFFFFFFFFFFFFFFFFF AND SWAP1 DUP2 PUSH20 0xFFFFFFFFFFFFFFFFFFFFFFFFFFFFFFFFFFFFFFFF AND DUP2 MSTORE POP POP DUP4 DUP2 PUSH1 0x40 ADD SWAP1 PUSH20 0xFFFFFFFFFFFFFFFFFFFFFFFFFFFFFFFFFFFFFFFF AND SWAP1 DUP2 PUSH20 0xFFFFFFFFFFFFFFFFFFFFFFFFFFFFFFFFFFFFFFFF AND DUP2 MSTORE POP POP DUP3 DUP2 PUSH1 0xE0 ADD SWAP1 PUSH1 0xFF AND SWAP1 DUP2 PUSH1 0xFF AND DUP2 MSTORE POP POP DUP2 DUP2 PUSH2 0x180 ADD DUP2 SWAP1 MSTORE POP PUSH2 0x2FEF DUP2 PUSH2 0x25B3 JUMP JUMPDEST POP POP POP POP POP POP POP POP JUMP JUMPDEST PUSH1 0x0 PUSH2 0x301E DUP4 PUSH1 0x20 ADD MLOAD PUSH20 0xFFFFFFFFFFFFFFFFFFFFFFFFFFFFFFFFFFFFFFFF AND PUSH2 0x15CC JUMP JUMPDEST SWAP1 POP PUSH1 0x0 PUSH2 0x3045 DUP5 PUSH1 0x60 ADD MLOAD PUSH20 0xFFFFFFFFFFFFFFFFFFFFFFFFFFFFFFFFFFFFFFFF AND PUSH2 0x15CC JUMP JUMPDEST SWAP1 POP PUSH1 0x0 PUSH1 0x1 DUP6 PUSH2 0x100 ADD MLOAD AND PUSH1 0xFF AND SUB PUSH2 0x31E5 JUMPI DUP1 ISZERO PUSH2 0x30F0 JUMPI PUSH32 0x0 PUSH20 0xFFFFFFFFFFFFFFFFFFFFFFFFFFFFFFFFFFFFFFFF AND PUSH4 0x2E1A7D4D DUP6 PUSH1 0xE0 ADD MLOAD PUSH1 0x40 MLOAD DUP3 PUSH4 0xFFFFFFFF AND PUSH1 0xE0 SHL DUP2 MSTORE PUSH1 0x4 ADD PUSH2 0x30BD SWAP2 SWAP1 PUSH2 0x3FDC JUMP JUMPDEST PUSH1 0x0 PUSH1 0x40 MLOAD DUP1 DUP4 SUB DUP2 PUSH1 0x0 DUP8 DUP1 EXTCODESIZE ISZERO DUP1 ISZERO PUSH2 0x30D7 JUMPI PUSH1 0x0 DUP1 REVERT JUMPDEST POP GAS CALL ISZERO DUP1 ISZERO PUSH2 0x30EB JUMPI RETURNDATASIZE PUSH1 0x0 DUP1 RETURNDATACOPY RETURNDATASIZE PUSH1 0x0 REVERT JUMPDEST POP POP POP POP JUMPDEST PUSH2 0x311C DUP2 DUP6 PUSH1 0x60 ADD MLOAD DUP7 PUSH1 0x80 ADD MLOAD DUP8 PUSH1 0xE0 ADD MLOAD DUP9 PUSH1 0xC0 ADD MLOAD PUSH2 0x3112 SWAP2 SWAP1 PUSH2 0x4DF0 JUMP JUMPDEST DUP9 PUSH1 0x0 ADD MLOAD PUSH2 0x20F1 JUMP JUMPDEST PUSH2 0x3135 DUP3 DUP6 PUSH1 0x20 ADD MLOAD DUP7 PUSH1 0x40 ADD MLOAD DUP7 DUP9 PUSH1 0x0 ADD MLOAD PUSH2 0x1D59 JUMP JUMPDEST POP DUP2 ISZERO PUSH2 0x31BE JUMPI PUSH32 0x0 PUSH20 0xFFFFFFFFFFFFFFFFFFFFFFFFFFFFFFFFFFFFFFFF AND PUSH4 0xD0E30DB0 DUP5 PUSH1 0x40 MLOAD DUP3 PUSH4 0xFFFFFFFF AND PUSH1 0xE0 SHL DUP2 MSTORE PUSH1 0x4 ADD PUSH1 0x0 PUSH1 0x40 MLOAD DUP1 DUP4 SUB DUP2 DUP6 DUP9 DUP1 EXTCODESIZE ISZERO DUP1 ISZERO PUSH2 0x31A4 JUMPI PUSH1 0x0 DUP1 REVERT JUMPDEST POP GAS CALL ISZERO DUP1 ISZERO PUSH2 0x31B8 JUMPI RETURNDATASIZE PUSH1 0x0 DUP1 RETURNDATACOPY RETURNDATASIZE PUSH1 0x0 REVERT JUMPDEST POP POP POP POP POP JUMPDEST DUP4 PUSH1 0x60 ADD MLOAD PUSH20 0xFFFFFFFFFFFFFFFFFFFFFFFFFFFFFFFFFFFFFFFF AND DUP5 PUSH1 0xA0 ADD MLOAD POP POP PUSH2 0x324E JUMP JUMPDEST PUSH2 0x3211 DUP2 DUP6 PUSH1 0x60 ADD MLOAD DUP7 PUSH1 0x80 ADD MLOAD DUP8 PUSH1 0xE0 ADD MLOAD DUP9 PUSH1 0xC0 ADD MLOAD PUSH2 0x3207 SWAP2 SWAP1 PUSH2 0x4DF0 JUMP JUMPDEST DUP9 PUSH1 0x0 ADD MLOAD PUSH2 0x242C JUMP JUMPDEST PUSH2 0x322A DUP3 DUP6 PUSH1 0x20 ADD MLOAD DUP7 PUSH1 0x40 ADD MLOAD DUP7 DUP9 PUSH1 0x0 ADD MLOAD PUSH2 0x1E86 JUMP JUMPDEST POP DUP4 PUSH1 0x60 ADD MLOAD PUSH20 0xFFFFFFFFFFFFFFFFFFFFFFFFFFFFFFFFFFFFFFFF AND DUP5 PUSH1 0xA0 ADD MLOAD POP POP JUMPDEST POP POP POP POP JUMP JUMPDEST PUSH1 0x0 PUSH2 0x3279 DUP4 PUSH1 0x20 ADD MLOAD PUSH20 0xFFFFFFFFFFFFFFFFFFFFFFFFFFFFFFFFFFFFFFFF AND PUSH2 0x15CC JUMP JUMPDEST SWAP1 POP PUSH1 0x0 PUSH2 0x32A0 DUP5 PUSH1 0x60 ADD MLOAD PUSH20 0xFFFFFFFFFFFFFFFFFFFFFFFFFFFFFFFFFFFFFFFF AND PUSH2 0x15CC JUMP JUMPDEST SWAP1 POP PUSH1 0x0 PUSH1 0x1 DUP6 PUSH2 0x100 ADD MLOAD AND PUSH1 0xFF AND SUB PUSH2 0x3479 JUMPI PUSH1 0x0 PUSH1 0x4 DUP6 PUSH2 0x100 ADD MLOAD AND PUSH1 0xFF AND EQ PUSH2 0x32CE JUMPI DUP2 PUSH2 0x32D0 JUMP JUMPDEST DUP1 JUMPDEST ISZERO PUSH2 0x3365 JUMPI PUSH32 0x0 PUSH20 0xFFFFFFFFFFFFFFFFFFFFFFFFFFFFFFFFFFFFFFFF AND PUSH4 0x2E1A7D4D DUP6 PUSH1 0xE0 ADD MLOAD PUSH1 0x40 MLOAD DUP3 PUSH4 0xFFFFFFFF AND PUSH1 0xE0 SHL DUP2 MSTORE PUSH1 0x4 ADD PUSH2 0x3332 SWAP2 SWAP1 PUSH2 0x3FDC JUMP JUMPDEST PUSH1 0x0 PUSH1 0x40 MLOAD DUP1 DUP4 SUB DUP2 PUSH1 0x0 DUP8 DUP1 EXTCODESIZE ISZERO DUP1 ISZERO PUSH2 0x334C JUMPI PUSH1 0x0 DUP1 REVERT JUMPDEST POP GAS CALL ISZERO DUP1 ISZERO PUSH2 0x3360 JUMPI RETURNDATASIZE PUSH1 0x0 DUP1 RETURNDATACOPY RETURNDATASIZE PUSH1 0x0 REVERT JUMPDEST POP POP POP POP JUMPDEST PUSH2 0x3391 DUP3 DUP6 PUSH1 0x20 ADD MLOAD DUP7 PUSH1 0x40 ADD MLOAD DUP8 PUSH1 0xE0 ADD MLOAD DUP9 PUSH1 0xC0 ADD MLOAD PUSH2 0x3387 SWAP2 SWAP1 PUSH2 0x4DF0 JUMP JUMPDEST DUP9 PUSH1 0x0 ADD MLOAD PUSH2 0x171B JUMP JUMPDEST PUSH2 0x33B0 DUP2 DUP6 PUSH1 0x60 ADD MLOAD DUP7 PUSH1 0x80 ADD MLOAD DUP7 DUP9 PUSH1 0x0 ADD MLOAD DUP10 PUSH2 0x120 ADD MLOAD PUSH2 0x358B JUMP JUMPDEST PUSH1 0x0 PUSH1 0x4 DUP6 PUSH2 0x100 ADD MLOAD AND PUSH1 0xFF AND EQ PUSH2 0x33C9 JUMPI DUP2 PUSH2 0x33CB JUMP JUMPDEST DUP1 JUMPDEST ISZERO PUSH2 0x3452 JUMPI PUSH32 0x0 PUSH20 0xFFFFFFFFFFFFFFFFFFFFFFFFFFFFFFFFFFFFFFFF AND PUSH4 0xD0E30DB0 DUP5 PUSH1 0x40 MLOAD DUP3 PUSH4 0xFFFFFFFF AND PUSH1 0xE0 SHL DUP2 MSTORE PUSH1 0x4 ADD PUSH1 0x0 PUSH1 0x40 MLOAD DUP1 DUP4 SUB DUP2 DUP6 DUP9 DUP1 EXTCODESIZE ISZERO DUP1 ISZERO PUSH2 0x3438 JUMPI PUSH1 0x0 DUP1 REVERT JUMPDEST POP GAS CALL ISZERO DUP1 ISZERO PUSH2 0x344C JUMPI RETURNDATASIZE PUSH1 0x0 DUP1 RETURNDATACOPY RETURNDATASIZE PUSH1 0x0 REVERT JUMPDEST POP POP POP POP POP JUMPDEST DUP4 PUSH1 0x60 ADD MLOAD PUSH20 0xFFFFFFFFFFFFFFFFFFFFFFFFFFFFFFFFFFFFFFFF AND DUP5 PUSH1 0xA0 ADD MLOAD POP POP PUSH2 0x34E7 JUMP JUMPDEST PUSH2 0x34A5 DUP3 DUP6 PUSH1 0x20 ADD MLOAD DUP7 PUSH1 0x40 ADD MLOAD DUP8 PUSH1 0xE0 ADD MLOAD DUP9 PUSH1 0xC0 ADD MLOAD PUSH2 0x349B SWAP2 SWAP1 PUSH2 0x4DF0 JUMP JUMPDEST DUP9 PUSH1 0x0 ADD MLOAD PUSH2 0x1969 JUMP JUMPDEST PUSH2 0x34C4 DUP2 DUP6 PUSH1 0x60 ADD MLOAD DUP7 PUSH1 0x80 ADD MLOAD DUP7 DUP9 PUSH1 0x0 ADD MLOAD DUP10 PUSH2 0x120 ADD MLOAD PUSH2 0x36E4 JUMP JUMPDEST DUP4 PUSH1 0x60 ADD MLOAD PUSH20 0xFFFFFFFFFFFFFFFFFFFFFFFFFFFFFFFFFFFFFFFF AND DUP5 PUSH1 0xA0 ADD MLOAD POP POP JUMPDEST POP POP POP POP JUMP JUMPDEST DUP2 PUSH1 0x14 MSTORE DUP1 PUSH1 0x34 MSTORE PUSH16 0xA9059CBB000000000000000000000000 PUSH1 0x0 MSTORE PUSH1 0x20 PUSH1 0x0 PUSH1 0x44 PUSH1 0x10 PUSH1 0x0 DUP8 GAS CALL RETURNDATASIZE ISZERO PUSH1 0x1 PUSH1 0x0 MLOAD EQ OR AND PUSH2 0x3532 JUMPI PUSH4 0x90B8EC18 PUSH1 0x0 MSTORE PUSH1 0x4 PUSH1 0x1C REVERT JUMPDEST PUSH1 0x0 PUSH1 0x34 MSTORE POP POP POP JUMP JUMPDEST DUP2 PUSH1 0x14 MSTORE DUP1 PUSH1 0x34 MSTORE PUSH16 0x95EA7B3000000000000000000000000 PUSH1 0x0 MSTORE PUSH1 0x20 PUSH1 0x0 PUSH1 0x44 PUSH1 0x10 PUSH1 0x0 DUP8 GAS CALL RETURNDATASIZE ISZERO PUSH1 0x1 PUSH1 0x0 MLOAD EQ OR AND PUSH2 0x3581 JUMPI PUSH4 0x3E3F8F73 PUSH1 0x0 MSTORE PUSH1 0x4 PUSH1 0x1C REVERT JUMPDEST PUSH1 0x0 PUSH1 0x34 MSTORE POP POP POP JUMP JUMPDEST DUP4 PUSH20 0xFFFFFFFFFFFFFFFFFFFFFFFFFFFFFFFFFFFFFFFF AND PUSH4 0xC5EBEAEC DUP5 PUSH1 0x40 MLOAD DUP3 PUSH4 0xFFFFFFFF AND PUSH1 0xE0 SHL DUP2 MSTORE PUSH1 0x4 ADD PUSH2 0x35C4 SWAP2 SWAP1 PUSH2 0x3FDC JUMP JUMPDEST PUSH1 0x20 PUSH1 0x40 MLOAD DUP1 DUP4 SUB DUP2 PUSH1 0x0 DUP8 GAS CALL ISZERO DUP1 ISZERO PUSH2 0x35E3 JUMPI RETURNDATASIZE PUSH1 0x0 DUP1 RETURNDATACOPY RETURNDATASIZE PUSH1 0x0 REVERT JUMPDEST POP POP POP POP PUSH1 0x40 MLOAD RETURNDATASIZE PUSH1 0x1F NOT PUSH1 0x1F DUP3 ADD AND DUP3 ADD DUP1 PUSH1 0x40 MSTORE POP DUP2 ADD SWAP1 PUSH2 0x3607 SWAP2 SWAP1 PUSH2 0x4EF3 JUMP JUMPDEST POP ADDRESS PUSH20 0xFFFFFFFFFFFFFFFFFFFFFFFFFFFFFFFFFFFFFFFF AND DUP3 PUSH20 0xFFFFFFFFFFFFFFFFFFFFFFFFFFFFFFFFFFFFFFFF AND EQ PUSH2 0x36DC JUMPI DUP6 ISZERO PUSH2 0x36AF JUMPI DUP2 PUSH20 0xFFFFFFFFFFFFFFFFFFFFFFFFFFFFFFFFFFFFFFFF AND DUP4 PUSH1 0x40 MLOAD PUSH2 0x3665 SWAP1 PUSH2 0x4F51 JUMP JUMPDEST PUSH1 0x0 PUSH1 0x40 MLOAD DUP1 DUP4 SUB DUP2 DUP6 DUP8 GAS CALL SWAP3 POP POP POP RETURNDATASIZE DUP1 PUSH1 0x0 DUP2 EQ PUSH2 0x36A2 JUMPI PUSH1 0x40 MLOAD SWAP2 POP PUSH1 0x1F NOT PUSH1 0x3F RETURNDATASIZE ADD AND DUP3 ADD PUSH1 0x40 MSTORE RETURNDATASIZE DUP3 MSTORE RETURNDATASIZE PUSH1 0x0 PUSH1 0x20 DUP5 ADD RETURNDATACOPY PUSH2 0x36A7 JUMP JUMPDEST PUSH1 0x60 SWAP2 POP JUMPDEST POP POP POP PUSH2 0x36DB JUMP JUMPDEST PUSH2 0x36DA DUP3 DUP5 DUP8 PUSH20 0xFFFFFFFFFFFFFFFFFFFFFFFFFFFFFFFFFFFFFFFF AND PUSH2 0x34ED SWAP1 SWAP3 SWAP2 SWAP1 PUSH4 0xFFFFFFFF AND JUMP JUMPDEST JUMPDEST JUMPDEST POP POP POP POP POP POP JUMP JUMPDEST PUSH1 0x0 DUP5 PUSH20 0xFFFFFFFFFFFFFFFFFFFFFFFFFFFFFFFFFFFFFFFF AND PUSH4 0x7535D246 PUSH1 0x40 MLOAD DUP2 PUSH4 0xFFFFFFFF AND PUSH1 0xE0 SHL DUP2 MSTORE PUSH1 0x4 ADD PUSH1 0x20 PUSH1 0x40 MLOAD DUP1 DUP4 SUB DUP2 DUP7 GAS STATICCALL ISZERO DUP1 ISZERO PUSH2 0x3731 JUMPI RETURNDATASIZE PUSH1 0x0 DUP1 RETURNDATACOPY RETURNDATASIZE PUSH1 0x0 REVERT JUMPDEST POP POP POP POP PUSH1 0x40 MLOAD RETURNDATASIZE PUSH1 0x1F NOT PUSH1 0x1F DUP3 ADD AND DUP3 ADD DUP1 PUSH1 0x40 MSTORE POP DUP2 ADD SWAP1 PUSH2 0x3755 SWAP2 SWAP1 PUSH2 0x4E81 JUMP JUMPDEST SWAP1 POP DUP4 DUP6 PUSH20 0xFFFFFFFFFFFFFFFFFFFFFFFFFFFFFFFFFFFFFFFF AND PUSH4 0x6BD76D24 DUP6 ADDRESS PUSH1 0x40 MLOAD DUP4 PUSH4 0xFFFFFFFF AND PUSH1 0xE0 SHL DUP2 MSTORE PUSH1 0x4 ADD PUSH2 0x3793 SWAP3 SWAP2 SWAP1 PUSH2 0x58E1 JUMP JUMPDEST PUSH1 0x20 PUSH1 0x40 MLOAD DUP1 DUP4 SUB DUP2 DUP7 GAS STATICCALL ISZERO DUP1 ISZERO PUSH2 0x37B0 JUMPI RETURNDATASIZE PUSH1 0x0 DUP1 RETURNDATACOPY RETURNDATASIZE PUSH1 0x0 REVERT JUMPDEST POP POP POP POP PUSH1 0x40 MLOAD RETURNDATASIZE PUSH1 0x1F NOT PUSH1 0x1F DUP3 ADD AND DUP3 ADD DUP1 PUSH1 0x40 MSTORE POP DUP2 ADD SWAP1 PUSH2 0x37D4 SWAP2 SWAP1 PUSH2 0x4EF3 JUMP JUMPDEST LT ISZERO PUSH2 0x3894 JUMPI PUSH1 0x0 DUP1 PUSH1 0x0 DUP5 DUP1 PUSH1 0x20 ADD SWAP1 MLOAD DUP2 ADD SWAP1 PUSH2 0x37F3 SWAP2 SWAP1 PUSH2 0x590A JUMP JUMPDEST SWAP3 POP SWAP3 POP SWAP3 POP DUP8 PUSH20 0xFFFFFFFFFFFFFFFFFFFFFFFFFFFFFFFFFFFFFFFF AND PUSH4 0xB52D558 DUP8 ADDRESS PUSH32 0xFFFFFFFFFFFFFFFFFFFFFFFFFFFFFFFFFFFFFFFFFFFFFFFFFFFFFFFFFFFFFFFF DUP1 DUP9 DUP9 DUP9 PUSH1 0x40 MLOAD DUP9 PUSH4 0xFFFFFFFF AND PUSH1 0xE0 SHL DUP2 MSTORE PUSH1 0x4 ADD PUSH2 0x385E SWAP8 SWAP7 SWAP6 SWAP5 SWAP4 SWAP3 SWAP2 SWAP1 PUSH2 0x596C JUMP JUMPDEST PUSH1 0x0 PUSH1 0x40 MLOAD DUP1 DUP4 SUB DUP2 PUSH1 0x0 DUP8 DUP1 EXTCODESIZE ISZERO DUP1 ISZERO PUSH2 0x3878 JUMPI PUSH1 0x0 DUP1 REVERT JUMPDEST POP GAS CALL ISZERO DUP1 ISZERO PUSH2 0x388C JUMPI RETURNDATASIZE PUSH1 0x0 DUP1 RETURNDATACOPY RETURNDATASIZE PUSH1 0x0 REVERT JUMPDEST POP POP POP POP POP POP POP JUMPDEST DUP1 PUSH20 0xFFFFFFFFFFFFFFFFFFFFFFFFFFFFFFFFFFFFFFFF AND PUSH4 0xA415BCAD DUP8 DUP7 PUSH1 0x2 DUP1 DUP2 GT ISZERO PUSH2 0x38C5 JUMPI PUSH2 0x38C4 PUSH2 0x4FC6 JUMP JUMPDEST JUMPDEST PUSH1 0x0 DUP9 PUSH1 0x40 MLOAD DUP7 PUSH4 0xFFFFFFFF AND PUSH1 0xE0 SHL DUP2 MSTORE PUSH1 0x4 ADD PUSH2 0x38E8 SWAP6 SWAP5 SWAP4 SWAP3 SWAP2 SWAP1 PUSH2 0x59DB JUMP JUMPDEST PUSH1 0x0 PUSH1 0x40 MLOAD DUP1 DUP4 SUB DUP2 PUSH1 0x0 DUP8 DUP1 EXTCODESIZE ISZERO DUP1 ISZERO PUSH2 0x3902 JUMPI PUSH1 0x0 DUP1 REVERT JUMPDEST POP GAS CALL ISZERO DUP1 ISZERO PUSH2 0x3916 JUMPI RETURNDATASIZE PUSH1 0x0 DUP1 RETURNDATACOPY RETURNDATASIZE PUSH1 0x0 REVERT JUMPDEST POP POP POP POP DUP3 PUSH20 0xFFFFFFFFFFFFFFFFFFFFFFFFFFFFFFFFFFFFFFFF AND ADDRESS PUSH20 0xFFFFFFFFFFFFFFFFFFFFFFFFFFFFFFFFFFFFFFFF AND EQ PUSH2 0x3979 JUMPI PUSH2 0x3978 DUP4 DUP6 DUP9 PUSH20 0xFFFFFFFFFFFFFFFFFFFFFFFFFFFFFFFFFFFFFFFF AND PUSH2 0x39E3 SWAP1 SWAP3 SWAP2 SWAP1 PUSH4 0xFFFFFFFF AND JUMP JUMPDEST JUMPDEST POP POP POP POP POP POP POP JUMP JUMPDEST PUSH1 0x0 PUSH2 0x398D DUP4 PUSH2 0x15CC JUMP JUMPDEST ISZERO PUSH2 0x39B1 JUMPI DUP2 PUSH20 0xFFFFFFFFFFFFFFFFFFFFFFFFFFFFFFFFFFFFFFFF AND BALANCE SWAP1 POP PUSH2 0x39DD JUMP JUMPDEST PUSH2 0x39DA DUP3 DUP5 PUSH20 0xFFFFFFFFFFFFFFFFFFFFFFFFFFFFFFFFFFFFFFFF AND PUSH2 0x16E6 SWAP1 SWAP2 SWAP1 PUSH4 0xFFFFFFFF AND JUMP JUMPDEST SWAP1 POP JUMPDEST SWAP3 SWAP2 POP POP JUMP JUMPDEST PUSH1 0x0 DUP2 GT ISZERO PUSH2 0x3A95 JUMPI PUSH2 0x39F5 DUP4 PUSH2 0x15CC JUMP JUMPDEST ISZERO PUSH2 0x3A68 JUMPI DUP2 PUSH20 0xFFFFFFFFFFFFFFFFFFFFFFFFFFFFFFFFFFFFFFFF AND DUP2 PUSH1 0x40 MLOAD PUSH2 0x3A1E SWAP1 PUSH2 0x4F51 JUMP JUMPDEST PUSH1 0x0 PUSH1 0x40 MLOAD DUP1 DUP4 SUB DUP2 DUP6 DUP8 GAS CALL SWAP3 POP POP POP RETURNDATASIZE DUP1 PUSH1 0x0 DUP2 EQ PUSH2 0x3A5B JUMPI PUSH1 0x40 MLOAD SWAP2 POP PUSH1 0x1F NOT PUSH1 0x3F RETURNDATASIZE ADD AND DUP3 ADD PUSH1 0x40 MSTORE RETURNDATASIZE DUP3 MSTORE RETURNDATASIZE PUSH1 0x0 PUSH1 0x20 DUP5 ADD RETURNDATACOPY PUSH2 0x3A60 JUMP JUMPDEST PUSH1 0x60 SWAP2 POP JUMPDEST POP POP POP PUSH2 0x3A94 JUMP JUMPDEST PUSH2 0x3A93 DUP3 DUP3 DUP6 PUSH20 0xFFFFFFFFFFFFFFFFFFFFFFFFFFFFFFFFFFFFFFFF AND PUSH2 0x34ED SWAP1 SWAP3 SWAP2 SWAP1 PUSH4 0xFFFFFFFF AND JUMP JUMPDEST JUMPDEST JUMPDEST POP POP POP JUMP JUMPDEST PUSH1 0x0 CALLER SWAP1 POP SWAP1 JUMP JUMPDEST PUSH1 0x40 MLOAD DUP1 PUSH2 0x1A0 ADD PUSH1 0x40 MSTORE DUP1 PUSH1 0x0 DUP2 MSTORE PUSH1 0x20 ADD PUSH1 0x0 PUSH20 0xFFFFFFFFFFFFFFFFFFFFFFFFFFFFFFFFFFFFFFFF AND DUP2 MSTORE PUSH1 0x20 ADD PUSH1 0x0 PUSH20 0xFFFFFFFFFFFFFFFFFFFFFFFFFFFFFFFFFFFFFFFF AND DUP2 MSTORE PUSH1 0x20 ADD PUSH1 0x0 PUSH20 0xFFFFFFFFFFFFFFFFFFFFFFFFFFFFFFFFFFFFFFFF AND DUP2 MSTORE PUSH1 0x20 ADD PUSH1 0x0 PUSH20 0xFFFFFFFFFFFFFFFFFFFFFFFFFFFFFFFFFFFFFFFF AND DUP2 MSTORE PUSH1 0x20 ADD PUSH1 0x0 PUSH20 0xFFFFFFFFFFFFFFFFFFFFFFFFFFFFFFFFFFFFFFFF AND DUP2 MSTORE PUSH1 0x20 ADD PUSH1 0x0 DUP2 MSTORE PUSH1 0x20 ADD PUSH1 0x0 PUSH1 0xFF AND DUP2 MSTORE PUSH1 0x20 ADD PUSH1 0x60 DUP2 MSTORE PUSH1 0x20 ADD PUSH1 0x60 DUP2 MSTORE PUSH1 0x20 ADD PUSH1 0x60 DUP2 MSTORE PUSH1 0x20 ADD PUSH1 0x60 DUP2 MSTORE PUSH1 0x20 ADD PUSH1 0x60 DUP2 MSTORE POP SWAP1 JUMP JUMPDEST PUSH1 0x40 MLOAD DUP1 PUSH1 0xA0 ADD PUSH1 0x40 MSTORE DUP1 PUSH1 0x60 DUP2 MSTORE PUSH1 0x20 ADD PUSH1 0x60 DUP2 MSTORE PUSH1 0x20 ADD PUSH1 0x60 DUP2 MSTORE PUSH1 0x20 ADD PUSH1 0x0 PUSH20 0xFFFFFFFFFFFFFFFFFFFFFFFFFFFFFFFFFFFFFFFF AND DUP2 MSTORE PUSH1 0x20 ADD PUSH1 0x60 DUP2 MSTORE POP SWAP1 JUMP JUMPDEST PUSH1 0x40 MLOAD DUP1 PUSH1 0x40 ADD PUSH1 0x40 MSTORE DUP1 PUSH1 0x0 PUSH20 0xFFFFFFFFFFFFFFFFFFFFFFFFFFFFFFFFFFFFFFFF AND DUP2 MSTORE PUSH1 0x20 ADD PUSH1 0x0 DUP2 MSTORE POP SWAP1 JUMP JUMPDEST PUSH1 0x0 PUSH1 0x40 MLOAD SWAP1 POP SWAP1 JUMP JUMPDEST PUSH1 0x0 DUP1 REVERT JUMPDEST PUSH1 0x0 DUP1 REVERT JUMPDEST PUSH1 0x0 PUSH32 0xFFFFFFFF00000000000000000000000000000000000000000000000000000000 DUP3 AND SWAP1 POP SWAP2 SWAP1 POP JUMP JUMPDEST PUSH2 0x3C39 DUP2 PUSH2 0x3C04 JUMP JUMPDEST DUP2 EQ PUSH2 0x3C44 JUMPI PUSH1 0x0 DUP1 REVERT JUMPDEST POP JUMP JUMPDEST PUSH1 0x0 DUP2 CALLDATALOAD SWAP1 POP PUSH2 0x3C56 DUP2 PUSH2 0x3C30 JUMP JUMPDEST SWAP3 SWAP2 POP POP JUMP JUMPDEST PUSH1 0x0 PUSH1 0x20 DUP3 DUP5 SUB SLT ISZERO PUSH2 0x3C72 JUMPI PUSH2 0x3C71 PUSH2 0x3BFA JUMP JUMPDEST JUMPDEST PUSH1 0x0 PUSH2 0x3C80 DUP5 DUP3 DUP6 ADD PUSH2 0x3C47 JUMP JUMPDEST SWAP2 POP POP SWAP3 SWAP2 POP POP JUMP JUMPDEST PUSH1 0x0 DUP2 ISZERO ISZERO SWAP1 POP SWAP2 SWAP1 POP JUMP JUMPDEST PUSH2 0x3C9E DUP2 PUSH2 0x3C89 JUMP JUMPDEST DUP3 MSTORE POP POP JUMP JUMPDEST PUSH1 0x0 PUSH1 0x20 DUP3 ADD SWAP1 POP PUSH2 0x3CB9 PUSH1 0x0 DUP4 ADD DUP5 PUSH2 0x3C95 JUMP JUMPDEST SWAP3 SWAP2 POP POP JUMP JUMPDEST PUSH1 0x0 DUP1 REVERT JUMPDEST PUSH1 0x0 PUSH1 0x1F NOT PUSH1 0x1F DUP4 ADD AND SWAP1 POP SWAP2 SWAP1 POP JUMP JUMPDEST PUSH32 0x4E487B7100000000000000000000000000000000000000000000000000000000 PUSH1 0x0 MSTORE PUSH1 0x41 PUSH1 0x4 MSTORE PUSH1 0x24 PUSH1 0x0 REVERT JUMPDEST PUSH2 0x3D0D DUP3 PUSH2 0x3CC4 JUMP JUMPDEST DUP2 ADD DUP2 DUP2 LT PUSH8 0xFFFFFFFFFFFFFFFF DUP3 GT OR ISZERO PUSH2 0x3D2C JUMPI PUSH2 0x3D2B PUSH2 0x3CD5 JUMP JUMPDEST JUMPDEST DUP1 PUSH1 0x40 MSTORE POP POP POP JUMP JUMPDEST PUSH1 0x0 PUSH2 0x3D3F PUSH2 0x3BF0 JUMP JUMPDEST SWAP1 POP PUSH2 0x3D4B DUP3 DUP3 PUSH2 0x3D04 JUMP JUMPDEST SWAP2 SWAP1 POP JUMP JUMPDEST PUSH1 0x0 DUP1 REVERT JUMPDEST PUSH1 0x0 PUSH20 0xFFFFFFFFFFFFFFFFFFFFFFFFFFFFFFFFFFFFFFFF DUP3 AND SWAP1 POP SWAP2 SWAP1 POP JUMP JUMPDEST PUSH1 0x0 PUSH2 0x3D80 DUP3 PUSH2 0x3D55 JUMP JUMPDEST SWAP1 POP SWAP2 SWAP1 POP JUMP JUMPDEST PUSH2 0x3D90 DUP2 PUSH2 0x3D75 JUMP JUMPDEST DUP2 EQ PUSH2 0x3D9B JUMPI PUSH1 0x0 DUP1 REVERT JUMPDEST POP JUMP JUMPDEST PUSH1 0x0 DUP2 CALLDATALOAD SWAP1 POP PUSH2 0x3DAD DUP2 PUSH2 0x3D87 JUMP JUMPDEST SWAP3 SWAP2 POP POP JUMP JUMPDEST PUSH1 0x0 DUP2 SWAP1 POP SWAP2 SWAP1 POP JUMP JUMPDEST PUSH2 0x3DC6 DUP2 PUSH2 0x3DB3 JUMP JUMPDEST DUP2 EQ PUSH2 0x3DD1 JUMPI PUSH1 0x0 DUP1 REVERT JUMPDEST POP JUMP JUMPDEST PUSH1 0x0 DUP2 CALLDATALOAD SWAP1 POP PUSH2 0x3DE3 DUP2 PUSH2 0x3DBD JUMP JUMPDEST SWAP3 SWAP2 POP POP JUMP JUMPDEST PUSH1 0x0 PUSH1 0xFF DUP3 AND SWAP1 POP SWAP2 SWAP1 POP JUMP JUMPDEST PUSH2 0x3DFF DUP2 PUSH2 0x3DE9 JUMP JUMPDEST DUP2 EQ PUSH2 0x3E0A JUMPI PUSH1 0x0 DUP1 REVERT JUMPDEST POP JUMP JUMPDEST PUSH1 0x0 DUP2 CALLDATALOAD SWAP1 POP PUSH2 0x3E1C DUP2 PUSH2 0x3DF6 JUMP JUMPDEST SWAP3 SWAP2 POP POP JUMP JUMPDEST PUSH1 0x0 DUP1 REVERT JUMPDEST PUSH1 0x0 DUP1 REVERT JUMPDEST PUSH1 0x0 PUSH8 0xFFFFFFFFFFFFFFFF DUP3 GT ISZERO PUSH2 0x3E47 JUMPI PUSH2 0x3E46 PUSH2 0x3CD5 JUMP JUMPDEST JUMPDEST PUSH2 0x3E50 DUP3 PUSH2 0x3CC4 JUMP JUMPDEST SWAP1 POP PUSH1 0x20 DUP2 ADD SWAP1 POP SWAP2 SWAP1 POP JUMP JUMPDEST DUP3 DUP2 DUP4 CALLDATACOPY PUSH1 0x0 DUP4 DUP4 ADD MSTORE POP POP POP JUMP JUMPDEST PUSH1 0x0 PUSH2 0x3E7F PUSH2 0x3E7A DUP5 PUSH2 0x3E2C JUMP JUMPDEST PUSH2 0x3D35 JUMP JUMPDEST SWAP1 POP DUP3 DUP2 MSTORE PUSH1 0x20 DUP2 ADD DUP5 DUP5 DUP5 ADD GT ISZERO PUSH2 0x3E9B JUMPI PUSH2 0x3E9A PUSH2 0x3E27 JUMP JUMPDEST JUMPDEST PUSH2 0x3EA6 DUP5 DUP3 DUP6 PUSH2 0x3E5D JUMP JUMPDEST POP SWAP4 SWAP3 POP POP POP JUMP JUMPDEST PUSH1 0x0 DUP3 PUSH1 0x1F DUP4 ADD SLT PUSH2 0x3EC3 JUMPI PUSH2 0x3EC2 PUSH2 0x3E22 JUMP JUMPDEST JUMPDEST DUP2 CALLDATALOAD PUSH2 0x3ED3 DUP5 DUP3 PUSH1 0x20 DUP7 ADD PUSH2 0x3E6C JUMP JUMPDEST SWAP2 POP POP SWAP3 SWAP2 POP POP JUMP JUMPDEST PUSH1 0x0 PUSH1 0xA0 DUP3 DUP5 SUB SLT ISZERO PUSH2 0x3EF2 JUMPI PUSH2 0x3EF1 PUSH2 0x3CBF JUMP JUMPDEST JUMPDEST PUSH2 0x3EFC PUSH1 0xA0 PUSH2 0x3D35 JUMP JUMPDEST SWAP1 POP PUSH1 0x0 PUSH2 0x3F0C DUP5 DUP3 DUP6 ADD PUSH2 0x3D9E JUMP JUMPDEST PUSH1 0x0 DUP4 ADD MSTORE POP PUSH1 0x20 PUSH2 0x3F20 DUP5 DUP3 DUP6 ADD PUSH2 0x3D9E JUMP JUMPDEST PUSH1 0x20 DUP4 ADD MSTORE POP PUSH1 0x40 PUSH2 0x3F34 DUP5 DUP3 DUP6 ADD PUSH2 0x3DD4 JUMP JUMPDEST PUSH1 0x40 DUP4 ADD MSTORE POP PUSH1 0x60 PUSH2 0x3F48 DUP5 DUP3 DUP6 ADD PUSH2 0x3E0D JUMP JUMPDEST PUSH1 0x60 DUP4 ADD MSTORE POP PUSH1 0x80 DUP3 ADD CALLDATALOAD PUSH8 0xFFFFFFFFFFFFFFFF DUP2 GT ISZERO PUSH2 0x3F6C JUMPI PUSH2 0x3F6B PUSH2 0x3D50 JUMP JUMPDEST JUMPDEST PUSH2 0x3F78 DUP5 DUP3 DUP6 ADD PUSH2 0x3EAE JUMP JUMPDEST PUSH1 0x80 DUP4 ADD MSTORE POP SWAP3 SWAP2 POP POP JUMP JUMPDEST PUSH1 0x0 PUSH1 0x20 DUP3 DUP5 SUB SLT ISZERO PUSH2 0x3F9A JUMPI PUSH2 0x3F99 PUSH2 0x3BFA JUMP JUMPDEST JUMPDEST PUSH1 0x0 DUP3 ADD CALLDATALOAD PUSH8 0xFFFFFFFFFFFFFFFF DUP2 GT ISZERO PUSH2 0x3FB8 JUMPI PUSH2 0x3FB7 PUSH2 0x3BFF JUMP JUMPDEST JUMPDEST PUSH2 0x3FC4 DUP5 DUP3 DUP6 ADD PUSH2 0x3EDC JUMP JUMPDEST SWAP2 POP POP SWAP3 SWAP2 POP POP JUMP JUMPDEST PUSH2 0x3FD6 DUP2 PUSH2 0x3DB3 JUMP JUMPDEST DUP3 MSTORE POP POP JUMP JUMPDEST PUSH1 0x0 PUSH1 0x20 DUP3 ADD SWAP1 POP PUSH2 0x3FF1 PUSH1 0x0 DUP4 ADD DUP5 PUSH2 0x3FCD JUMP JUMPDEST SWAP3 SWAP2 POP POP JUMP JUMPDEST PUSH2 0x4000 DUP2 PUSH2 0x3D75 JUMP JUMPDEST DUP3 MSTORE POP POP JUMP JUMPDEST PUSH1 0x0 PUSH1 0x20 DUP3 ADD SWAP1 POP PUSH2 0x401B PUSH1 0x0 DUP4 ADD DUP5 PUSH2 0x3FF7 JUMP JUMPDEST SWAP3 SWAP2 POP POP JUMP JUMPDEST PUSH1 0x0 DUP2 SWAP1 POP SWAP2 SWAP1 POP JUMP JUMPDEST PUSH1 0x0 PUSH2 0x4046 PUSH2 0x4041 PUSH2 0x403C DUP5 PUSH2 0x3D55 JUMP JUMPDEST PUSH2 0x4021 JUMP JUMPDEST PUSH2 0x3D55 JUMP JUMPDEST SWAP1 POP SWAP2 SWAP1 POP JUMP JUMPDEST PUSH1 0x0 PUSH2 0x4058 DUP3 PUSH2 0x402B JUMP JUMPDEST SWAP1 POP SWAP2 SWAP1 POP JUMP JUMPDEST PUSH1 0x0 PUSH2 0x406A DUP3 PUSH2 0x404D JUMP JUMPDEST SWAP1 POP SWAP2 SWAP1 POP JUMP JUMPDEST PUSH2 0x407A DUP2 PUSH2 0x405F JUMP JUMPDEST DUP3 MSTORE POP POP JUMP JUMPDEST PUSH1 0x0 PUSH1 0x20 DUP3 ADD SWAP1 POP PUSH2 0x4095 PUSH1 0x0 DUP4 ADD DUP5 PUSH2 0x4071 JUMP JUMPDEST SWAP3 SWAP2 POP POP JUMP JUMPDEST PUSH1 0x0 DUP1 REVERT JUMPDEST PUSH1 0x0 PUSH1 0xA0 DUP3 DUP5 SUB SLT ISZERO PUSH2 0x40B6 JUMPI PUSH2 0x40B5 PUSH2 0x409B JUMP JUMPDEST JUMPDEST DUP2 SWAP1 POP SWAP3 SWAP2 POP POP JUMP JUMPDEST PUSH1 0x0 PUSH1 0x20 DUP3 DUP5 SUB SLT ISZERO PUSH2 0x40D5 JUMPI PUSH2 0x40D4 PUSH2 0x3BFA JUMP JUMPDEST JUMPDEST PUSH1 0x0 DUP3 ADD CALLDATALOAD PUSH8 0xFFFFFFFFFFFFFFFF DUP2 GT ISZERO PUSH2 0x40F3 JUMPI PUSH2 0x40F2 PUSH2 0x3BFF JUMP JUMPDEST JUMPDEST PUSH2 0x40FF DUP5 DUP3 DUP6 ADD PUSH2 0x40A0 JUMP JUMPDEST SWAP2 POP POP SWAP3 SWAP2 POP POP JUMP JUMPDEST PUSH1 0x0 DUP1 REVERT JUMPDEST PUSH1 0x0 DUP1 REVERT JUMPDEST PUSH1 0x0 DUP1 DUP4 PUSH1 0x1F DUP5 ADD SLT PUSH2 0x4128 JUMPI PUSH2 0x4127 PUSH2 0x3E22 JUMP JUMPDEST JUMPDEST DUP3 CALLDATALOAD SWAP1 POP PUSH8 0xFFFFFFFFFFFFFFFF DUP2 GT ISZERO PUSH2 0x4145 JUMPI PUSH2 0x4144 PUSH2 0x4108 JUMP JUMPDEST JUMPDEST PUSH1 0x20 DUP4 ADD SWAP2 POP DUP4 PUSH1 0x20 DUP3 MUL DUP4 ADD GT ISZERO PUSH2 0x4161 JUMPI PUSH2 0x4160 PUSH2 0x410D JUMP JUMPDEST JUMPDEST SWAP3 POP SWAP3 SWAP1 POP JUMP JUMPDEST PUSH1 0x0 DUP1 DUP4 PUSH1 0x1F DUP5 ADD SLT PUSH2 0x417E JUMPI PUSH2 0x417D PUSH2 0x3E22 JUMP JUMPDEST JUMPDEST DUP3 CALLDATALOAD SWAP1 POP PUSH8 0xFFFFFFFFFFFFFFFF DUP2 GT ISZERO PUSH2 0x419B JUMPI PUSH2 0x419A PUSH2 0x4108 JUMP JUMPDEST JUMPDEST PUSH1 0x20 DUP4 ADD SWAP2 POP DUP4 PUSH1 0x20 DUP3 MUL DUP4 ADD GT ISZERO PUSH2 0x41B7 JUMPI PUSH2 0x41B6 PUSH2 0x410D JUMP JUMPDEST JUMPDEST SWAP3 POP SWAP3 SWAP1 POP JUMP JUMPDEST PUSH1 0x0 DUP1 DUP4 PUSH1 0x1F DUP5 ADD SLT PUSH2 0x41D4 JUMPI PUSH2 0x41D3 PUSH2 0x3E22 JUMP JUMPDEST JUMPDEST DUP3 CALLDATALOAD SWAP1 POP PUSH8 0xFFFFFFFFFFFFFFFF DUP2 GT ISZERO PUSH2 0x41F1 JUMPI PUSH2 0x41F0 PUSH2 0x4108 JUMP JUMPDEST JUMPDEST PUSH1 0x20 DUP4 ADD SWAP2 POP DUP4 PUSH1 0x1 DUP3 MUL DUP4 ADD GT ISZERO PUSH2 0x420D JUMPI PUSH2 0x420C PUSH2 0x410D JUMP JUMPDEST JUMPDEST SWAP3 POP SWAP3 SWAP1 POP JUMP JUMPDEST PUSH1 0x0 DUP1 PUSH1 0x0 DUP1 PUSH1 0x0 DUP1 PUSH1 0x0 DUP1 PUSH1 0x0 PUSH1 0xA0 DUP11 DUP13 SUB SLT ISZERO PUSH2 0x4236 JUMPI PUSH2 0x4235 PUSH2 0x3BFA JUMP JUMPDEST JUMPDEST PUSH1 0x0 DUP11 ADD CALLDATALOAD PUSH8 0xFFFFFFFFFFFFFFFF DUP2 GT ISZERO PUSH2 0x4254 JUMPI PUSH2 0x4253 PUSH2 0x3BFF JUMP JUMPDEST JUMPDEST PUSH2 0x4260 DUP13 DUP3 DUP14 ADD PUSH2 0x4112 JUMP JUMPDEST SWAP10 POP SWAP10 POP POP PUSH1 0x20 DUP11 ADD CALLDATALOAD PUSH8 0xFFFFFFFFFFFFFFFF DUP2 GT ISZERO PUSH2 0x4283 JUMPI PUSH2 0x4282 PUSH2 0x3BFF JUMP JUMPDEST JUMPDEST PUSH2 0x428F DUP13 DUP3 DUP14 ADD PUSH2 0x4168 JUMP JUMPDEST SWAP8 POP SWAP8 POP POP PUSH1 0x40 DUP11 ADD CALLDATALOAD PUSH8 0xFFFFFFFFFFFFFFFF DUP2 GT ISZERO PUSH2 0x42B2 JUMPI PUSH2 0x42B1 PUSH2 0x3BFF JUMP JUMPDEST JUMPDEST PUSH2 0x42BE DUP13 DUP3 DUP14 ADD PUSH2 0x4168 JUMP JUMPDEST SWAP6 POP SWAP6 POP POP PUSH1 0x60 PUSH2 0x42D1 DUP13 DUP3 DUP14 ADD PUSH2 0x3D9E JUMP JUMPDEST SWAP4 POP POP PUSH1 0x80 DUP11 ADD CALLDATALOAD PUSH8 0xFFFFFFFFFFFFFFFF DUP2 GT ISZERO PUSH2 0x42F2 JUMPI PUSH2 0x42F1 PUSH2 0x3BFF JUMP JUMPDEST JUMPDEST PUSH2 0x42FE DUP13 DUP3 DUP14 ADD PUSH2 0x41BE JUMP JUMPDEST SWAP3 POP SWAP3 POP POP SWAP3 SWAP6 SWAP9 POP SWAP3 SWAP6 SWAP9 POP SWAP3 SWAP6 SWAP9 JUMP JUMPDEST PUSH1 0x0 PUSH1 0x20 DUP3 DUP5 SUB SLT ISZERO PUSH2 0x4326 JUMPI PUSH2 0x4325 PUSH2 0x3BFA JUMP JUMPDEST JUMPDEST PUSH1 0x0 PUSH2 0x4334 DUP5 DUP3 DUP6 ADD PUSH2 0x3D9E JUMP JUMPDEST SWAP2 POP POP SWAP3 SWAP2 POP POP JUMP JUMPDEST PUSH1 0x0 PUSH1 0x40 DUP3 ADD SWAP1 POP PUSH2 0x4352 PUSH1 0x0 DUP4 ADD DUP6 PUSH2 0x3FCD JUMP JUMPDEST PUSH2 0x435F PUSH1 0x20 DUP4 ADD DUP5 PUSH2 0x3FCD JUMP JUMPDEST SWAP4 SWAP3 POP POP POP JUMP JUMPDEST PUSH1 0x0 PUSH2 0x4371 DUP3 PUSH2 0x3D55 JUMP JUMPDEST SWAP1 POP SWAP2 SWAP1 POP JUMP JUMPDEST PUSH2 0x4381 DUP2 PUSH2 0x4366 JUMP JUMPDEST DUP2 EQ PUSH2 0x438C JUMPI PUSH1 0x0 DUP1 REVERT JUMPDEST POP JUMP JUMPDEST PUSH1 0x0 DUP2 MLOAD SWAP1 POP PUSH2 0x439E DUP2 PUSH2 0x4378 JUMP JUMPDEST SWAP3 SWAP2 POP POP JUMP JUMPDEST PUSH1 0x0 DUP2 MLOAD SWAP1 POP PUSH2 0x43B3 DUP2 PUSH2 0x3DBD JUMP JUMPDEST SWAP3 SWAP2 POP POP JUMP JUMPDEST PUSH1 0x0 JUMPDEST DUP4 DUP2 LT ISZERO PUSH2 0x43D7 JUMPI DUP1 DUP3 ADD MLOAD DUP2 DUP5 ADD MSTORE PUSH1 0x20 DUP2 ADD SWAP1 POP PUSH2 0x43BC JUMP JUMPDEST PUSH1 0x0 DUP5 DUP5 ADD MSTORE POP POP POP POP JUMP JUMPDEST PUSH1 0x0 PUSH2 0x43F6 PUSH2 0x43F1 DUP5 PUSH2 0x3E2C JUMP JUMPDEST PUSH2 0x3D35 JUMP JUMPDEST SWAP1 POP DUP3 DUP2 MSTORE PUSH1 0x20 DUP2 ADD DUP5 DUP5 DUP5 ADD GT ISZERO PUSH2 0x4412 JUMPI PUSH2 0x4411 PUSH2 0x3E27 JUMP JUMPDEST JUMPDEST PUSH2 0x441D DUP5 DUP3 DUP6 PUSH2 0x43B9 JUMP JUMPDEST POP SWAP4 SWAP3 POP POP POP JUMP JUMPDEST PUSH1 0x0 DUP3 PUSH1 0x1F DUP4 ADD SLT PUSH2 0x443A JUMPI PUSH2 0x4439 PUSH2 0x3E22 JUMP JUMPDEST JUMPDEST DUP2 MLOAD PUSH2 0x444A DUP5 DUP3 PUSH1 0x20 DUP7 ADD PUSH2 0x43E3 JUMP JUMPDEST SWAP2 POP POP SWAP3 SWAP2 POP POP JUMP JUMPDEST PUSH1 0x0 DUP1 PUSH1 0x0 DUP1 PUSH1 0x80 DUP6 DUP8 SUB SLT ISZERO PUSH2 0x446D JUMPI PUSH2 0x446C PUSH2 0x3BFA JUMP JUMPDEST JUMPDEST PUSH1 0x0 PUSH2 0x447B DUP8 DUP3 DUP9 ADD PUSH2 0x438F JUMP JUMPDEST SWAP5 POP POP PUSH1 0x20 PUSH2 0x448C DUP8 DUP3 DUP9 ADD PUSH2 0x438F JUMP JUMPDEST SWAP4 POP POP PUSH1 0x40 PUSH2 0x449D DUP8 DUP3 DUP9 ADD PUSH2 0x43A4 JUMP JUMPDEST SWAP3 POP POP PUSH1 0x60 DUP6 ADD MLOAD PUSH8 0xFFFFFFFFFFFFFFFF DUP2 GT ISZERO PUSH2 0x44BE JUMPI PUSH2 0x44BD PUSH2 0x3BFF JUMP JUMPDEST JUMPDEST PUSH2 0x44CA DUP8 DUP3 DUP9 ADD PUSH2 0x4425 JUMP JUMPDEST SWAP2 POP POP SWAP3 SWAP6 SWAP2 SWAP5 POP SWAP3 POP JUMP JUMPDEST PUSH32 0x4E487B7100000000000000000000000000000000000000000000000000000000 PUSH1 0x0 MSTORE PUSH1 0x32 PUSH1 0x4 MSTORE PUSH1 0x24 PUSH1 0x0 REVERT JUMPDEST PUSH2 0x450E DUP2 PUSH2 0x3D75 JUMP JUMPDEST DUP3 MSTORE POP POP JUMP JUMPDEST PUSH2 0x451D DUP2 PUSH2 0x3DB3 JUMP JUMPDEST DUP3 MSTORE POP POP JUMP JUMPDEST PUSH2 0x452C DUP2 PUSH2 0x3DE9 JUMP JUMPDEST DUP3 MSTORE POP POP JUMP JUMPDEST PUSH1 0x0 DUP2 MLOAD SWAP1 POP SWAP2 SWAP1 POP JUMP JUMPDEST PUSH1 0x0 DUP3 DUP3 MSTORE PUSH1 0x20 DUP3 ADD SWAP1 POP SWAP3 SWAP2 POP POP JUMP JUMPDEST PUSH1 0x0 PUSH2 0x4559 DUP3 PUSH2 0x4532 JUMP JUMPDEST PUSH2 0x4563 DUP2 DUP6 PUSH2 0x453D JUMP JUMPDEST SWAP4 POP PUSH2 0x4573 DUP2 DUP6 PUSH1 0x20 DUP7 ADD PUSH2 0x43B9 JUMP JUMPDEST PUSH2 0x457C DUP2 PUSH2 0x3CC4 JUMP JUMPDEST DUP5 ADD SWAP2 POP POP SWAP3 SWAP2 POP POP JUMP JUMPDEST PUSH1 0x0 PUSH2 0x140 DUP4 ADD PUSH1 0x0 DUP4 ADD MLOAD PUSH2 0x45A0 PUSH1 0x0 DUP7 ADD DUP3 PUSH2 0x4505 JUMP JUMPDEST POP PUSH1 0x20 DUP4 ADD MLOAD PUSH2 0x45B3 PUSH1 0x20 DUP7 ADD DUP3 PUSH2 0x4505 JUMP JUMPDEST POP PUSH1 0x40 DUP4 ADD MLOAD PUSH2 0x45C6 PUSH1 0x40 DUP7 ADD DUP3 PUSH2 0x4505 JUMP JUMPDEST POP PUSH1 0x60 DUP4 ADD MLOAD PUSH2 0x45D9 PUSH1 0x60 DUP7 ADD DUP3 PUSH2 0x4505 JUMP JUMPDEST POP PUSH1 0x80 DUP4 ADD MLOAD PUSH2 0x45EC PUSH1 0x80 DUP7 ADD DUP3 PUSH2 0x4505 JUMP JUMPDEST POP PUSH1 0xA0 DUP4 ADD MLOAD PUSH2 0x45FF PUSH1 0xA0 DUP7 ADD DUP3 PUSH2 0x4505 JUMP JUMPDEST POP PUSH1 0xC0 DUP4 ADD MLOAD PUSH2 0x4612 PUSH1 0xC0 DUP7 ADD DUP3 PUSH2 0x4514 JUMP JUMPDEST POP PUSH1 0xE0 DUP4 ADD MLOAD PUSH2 0x4625 PUSH1 0xE0 DUP7 ADD DUP3 PUSH2 0x4514 JUMP JUMPDEST POP PUSH2 0x100 DUP4 ADD MLOAD PUSH2 0x463A PUSH2 0x100 DUP7 ADD DUP3 PUSH2 0x4523 JUMP JUMPDEST POP PUSH2 0x120 DUP4 ADD MLOAD DUP5 DUP3 SUB PUSH2 0x120 DUP7 ADD MSTORE PUSH2 0x4654 DUP3 DUP3 PUSH2 0x454E JUMP JUMPDEST SWAP2 POP POP DUP1 SWAP2 POP POP SWAP3 SWAP2 POP POP JUMP JUMPDEST PUSH1 0x0 PUSH1 0x20 DUP3 ADD SWAP1 POP DUP2 DUP2 SUB PUSH1 0x0 DUP4 ADD MSTORE PUSH2 0x467B DUP2 DUP5 PUSH2 0x4587 JUMP JUMPDEST SWAP1 POP SWAP3 SWAP2 POP POP JUMP JUMPDEST PUSH1 0x0 DUP2 MLOAD SWAP1 POP SWAP2 SWAP1 POP JUMP JUMPDEST PUSH1 0x0 DUP3 DUP3 MSTORE PUSH1 0x20 DUP3 ADD SWAP1 POP SWAP3 SWAP2 POP POP JUMP JUMPDEST PUSH1 0x0 DUP2 SWAP1 POP PUSH1 0x20 DUP3 ADD SWAP1 POP SWAP2 SWAP1 POP JUMP JUMPDEST PUSH1 0x0 PUSH2 0x46BB DUP4 DUP4 PUSH2 0x4505 JUMP JUMPDEST PUSH1 0x20 DUP4 ADD SWAP1 POP SWAP3 SWAP2 POP POP JUMP JUMPDEST PUSH1 0x0 PUSH1 0x20 DUP3 ADD SWAP1 POP SWAP2 SWAP1 POP JUMP JUMPDEST PUSH1 0x0 PUSH2 0x46DF DUP3 PUSH2 0x4683 JUMP JUMPDEST PUSH2 0x46E9 DUP2 DUP6 PUSH2 0x468E JUMP JUMPDEST SWAP4 POP PUSH2 0x46F4 DUP4 PUSH2 0x469F JUMP JUMPDEST DUP1 PUSH1 0x0 JUMPDEST DUP4 DUP2 LT ISZERO PUSH2 0x4725 JUMPI DUP2 MLOAD PUSH2 0x470C DUP9 DUP3 PUSH2 0x46AF JUMP JUMPDEST SWAP8 POP PUSH2 0x4717 DUP4 PUSH2 0x46C7 JUMP JUMPDEST SWAP3 POP POP PUSH1 0x1 DUP2 ADD SWAP1 POP PUSH2 0x46F8 JUMP JUMPDEST POP DUP6 SWAP4 POP POP POP POP SWAP3 SWAP2 POP POP JUMP JUMPDEST PUSH1 0x0 DUP2 MLOAD SWAP1 POP SWAP2 SWAP1 POP JUMP JUMPDEST PUSH1 0x0 DUP3 DUP3 MSTORE PUSH1 0x20 DUP3 ADD SWAP1 POP SWAP3 SWAP2 POP POP JUMP JUMPDEST PUSH1 0x0 DUP2 SWAP1 POP PUSH1 0x20 DUP3 ADD SWAP1 POP SWAP2 SWAP1 POP JUMP JUMPDEST PUSH1 0x0 PUSH2 0x476A DUP4 DUP4 PUSH2 0x4514 JUMP JUMPDEST PUSH1 0x20 DUP4 ADD SWAP1 POP SWAP3 SWAP2 POP POP JUMP JUMPDEST PUSH1 0x0 PUSH1 0x20 DUP3 ADD SWAP1 POP SWAP2 SWAP1 POP JUMP JUMPDEST PUSH1 0x0 PUSH2 0x478E DUP3 PUSH2 0x4732 JUMP JUMPDEST PUSH2 0x4798 DUP2 DUP6 PUSH2 0x473D JUMP JUMPDEST SWAP4 POP PUSH2 0x47A3 DUP4 PUSH2 0x474E JUMP JUMPDEST DUP1 PUSH1 0x0 JUMPDEST DUP4 DUP2 LT ISZERO PUSH2 0x47D4 JUMPI DUP2 MLOAD PUSH2 0x47BB DUP9 DUP3 PUSH2 0x475E JUMP JUMPDEST SWAP8 POP PUSH2 0x47C6 DUP4 PUSH2 0x4776 JUMP JUMPDEST SWAP3 POP POP PUSH1 0x1 DUP2 ADD SWAP1 POP PUSH2 0x47A7 JUMP JUMPDEST POP DUP6 SWAP4 POP POP POP POP SWAP3 SWAP2 POP POP JUMP JUMPDEST PUSH1 0x0 DUP3 DUP3 MSTORE PUSH1 0x20 DUP3 ADD SWAP1 POP SWAP3 SWAP2 POP POP JUMP JUMPDEST PUSH1 0x0 PUSH2 0x47FD DUP3 PUSH2 0x4532 JUMP JUMPDEST PUSH2 0x4807 DUP2 DUP6 PUSH2 0x47E1 JUMP JUMPDEST SWAP4 POP PUSH2 0x4817 DUP2 DUP6 PUSH1 0x20 DUP7 ADD PUSH2 0x43B9 JUMP JUMPDEST PUSH2 0x4820 DUP2 PUSH2 0x3CC4 JUMP JUMPDEST DUP5 ADD SWAP2 POP POP SWAP3 SWAP2 POP POP JUMP JUMPDEST PUSH1 0x0 DUP2 SWAP1 POP SWAP2 SWAP1 POP JUMP JUMPDEST PUSH1 0x0 PUSH2 0xFFFF DUP3 AND SWAP1 POP SWAP2 SWAP1 POP JUMP JUMPDEST PUSH1 0x0 PUSH2 0x485E PUSH2 0x4859 PUSH2 0x4854 DUP5 PUSH2 0x482B JUMP JUMPDEST PUSH2 0x4021 JUMP JUMPDEST PUSH2 0x4835 JUMP JUMPDEST SWAP1 POP SWAP2 SWAP1 POP JUMP JUMPDEST PUSH2 0x486E DUP2 PUSH2 0x4843 JUMP JUMPDEST DUP3 MSTORE POP POP JUMP JUMPDEST PUSH1 0x0 PUSH1 0xE0 DUP3 ADD SWAP1 POP PUSH2 0x4889 PUSH1 0x0 DUP4 ADD DUP11 PUSH2 0x3FF7 JUMP JUMPDEST DUP2 DUP2 SUB PUSH1 0x20 DUP4 ADD MSTORE PUSH2 0x489B DUP2 DUP10 PUSH2 0x46D4 JUMP JUMPDEST SWAP1 POP DUP2 DUP2 SUB PUSH1 0x40 DUP4 ADD MSTORE PUSH2 0x48AF DUP2 DUP9 PUSH2 0x4783 JUMP JUMPDEST SWAP1 POP DUP2 DUP2 SUB PUSH1 0x60 DUP4 ADD MSTORE PUSH2 0x48C3 DUP2 DUP8 PUSH2 0x4783 JUMP JUMPDEST SWAP1 POP PUSH2 0x48D2 PUSH1 0x80 DUP4 ADD DUP7 PUSH2 0x3FF7 JUMP JUMPDEST DUP2 DUP2 SUB PUSH1 0xA0 DUP4 ADD MSTORE PUSH2 0x48E4 DUP2 DUP6 PUSH2 0x47F2 JUMP JUMPDEST SWAP1 POP PUSH2 0x48F3 PUSH1 0xC0 DUP4 ADD DUP5 PUSH2 0x4865 JUMP JUMPDEST SWAP9 SWAP8 POP POP POP POP POP POP POP POP JUMP JUMPDEST PUSH32 0x4E487B7100000000000000000000000000000000000000000000000000000000 PUSH1 0x0 MSTORE PUSH1 0x11 PUSH1 0x4 MSTORE PUSH1 0x24 PUSH1 0x0 REVERT JUMPDEST PUSH1 0x0 PUSH2 0x4939 DUP3 PUSH2 0x3DB3 JUMP JUMPDEST SWAP2 POP PUSH2 0x4944 DUP4 PUSH2 0x3DB3 JUMP JUMPDEST SWAP3 POP DUP3 DUP3 SUB SWAP1 POP DUP2 DUP2 GT ISZERO PUSH2 0x495C JUMPI PUSH2 0x495B PUSH2 0x48FF JUMP JUMPDEST JUMPDEST SWAP3 SWAP2 POP POP JUMP JUMPDEST PUSH1 0x0 DUP2 SWAP1 POP SWAP2 SWAP1 POP JUMP JUMPDEST PUSH2 0x4975 DUP2 PUSH2 0x4962 JUMP JUMPDEST DUP2 EQ PUSH2 0x4980 JUMPI PUSH1 0x0 DUP1 REVERT JUMPDEST POP JUMP JUMPDEST PUSH1 0x0 DUP2 CALLDATALOAD SWAP1 POP PUSH2 0x4992 DUP2 PUSH2 0x496C JUMP JUMPDEST SWAP3 SWAP2 POP POP JUMP JUMPDEST PUSH1 0x0 PUSH8 0xFFFFFFFFFFFFFFFF DUP3 AND SWAP1 POP SWAP2 SWAP1 POP JUMP JUMPDEST PUSH2 0x49B5 DUP2 PUSH2 0x4998 JUMP JUMPDEST DUP2 EQ PUSH2 0x49C0 JUMPI PUSH1 0x0 DUP1 REVERT JUMPDEST POP JUMP JUMPDEST PUSH1 0x0 DUP2 CALLDATALOAD SWAP1 POP PUSH2 0x49D2 DUP2 PUSH2 0x49AC JUMP JUMPDEST SWAP3 SWAP2 POP POP JUMP JUMPDEST PUSH1 0x0 PUSH8 0xFFFFFFFFFFFFFFFF DUP3 GT ISZERO PUSH2 0x49F3 JUMPI PUSH2 0x49F2 PUSH2 0x3CD5 JUMP JUMPDEST JUMPDEST PUSH1 0x20 DUP3 MUL SWAP1 POP PUSH1 0x20 DUP2 ADD SWAP1 POP SWAP2 SWAP1 POP JUMP JUMPDEST PUSH1 0x0 PUSH1 0x40 DUP3 DUP5 SUB SLT ISZERO PUSH2 0x4A1A JUMPI PUSH2 0x4A19 PUSH2 0x3CBF JUMP JUMPDEST JUMPDEST PUSH2 0x4A24 PUSH1 0x40 PUSH2 0x3D35 JUMP JUMPDEST SWAP1 POP PUSH1 0x0 PUSH2 0x4A34 DUP5 DUP3 DUP6 ADD PUSH2 0x3D9E JUMP JUMPDEST PUSH1 0x0 DUP4 ADD MSTORE POP PUSH1 0x20 PUSH2 0x4A48 DUP5 DUP3 DUP6 ADD PUSH2 0x3DD4 JUMP JUMPDEST PUSH1 0x20 DUP4 ADD MSTORE POP SWAP3 SWAP2 POP POP JUMP JUMPDEST PUSH1 0x0 PUSH2 0x4A67 PUSH2 0x4A62 DUP5 PUSH2 0x49D8 JUMP JUMPDEST PUSH2 0x3D35 JUMP JUMPDEST SWAP1 POP DUP1 DUP4 DUP3 MSTORE PUSH1 0x20 DUP3 ADD SWAP1 POP PUSH1 0x40 DUP5 MUL DUP4 ADD DUP6 DUP2 GT ISZERO PUSH2 0x4A8A JUMPI PUSH2 0x4A89 PUSH2 0x410D JUMP JUMPDEST JUMPDEST DUP4 JUMPDEST DUP2 DUP2 LT ISZERO PUSH2 0x4AB3 JUMPI DUP1 PUSH2 0x4A9F DUP9 DUP3 PUSH2 0x4A04 JUMP JUMPDEST DUP5 MSTORE PUSH1 0x20 DUP5 ADD SWAP4 POP POP PUSH1 0x40 DUP2 ADD SWAP1 POP PUSH2 0x4A8C JUMP JUMPDEST POP POP POP SWAP4 SWAP3 POP POP POP JUMP JUMPDEST PUSH1 0x0 DUP3 PUSH1 0x1F DUP4 ADD SLT PUSH2 0x4AD2 JUMPI PUSH2 0x4AD1 PUSH2 0x3E22 JUMP JUMPDEST JUMPDEST DUP2 CALLDATALOAD PUSH2 0x4AE2 DUP5 DUP3 PUSH1 0x20 DUP7 ADD PUSH2 0x4A54 JUMP JUMPDEST SWAP2 POP POP SWAP3 SWAP2 POP POP JUMP JUMPDEST PUSH1 0x0 PUSH1 0xA0 DUP3 DUP5 SUB SLT ISZERO PUSH2 0x4B01 JUMPI PUSH2 0x4B00 PUSH2 0x3CBF JUMP JUMPDEST JUMPDEST PUSH2 0x4B0B PUSH1 0xA0 PUSH2 0x3D35 JUMP JUMPDEST SWAP1 POP PUSH1 0x0 PUSH2 0x4B1B DUP5 DUP3 DUP6 ADD PUSH2 0x4983 JUMP JUMPDEST PUSH1 0x0 DUP4 ADD MSTORE POP PUSH1 0x20 PUSH2 0x4B2F DUP5 DUP3 DUP6 ADD PUSH2 0x49C3 JUMP JUMPDEST PUSH1 0x20 DUP4 ADD MSTORE POP PUSH1 0x40 DUP3 ADD CALLDATALOAD PUSH8 0xFFFFFFFFFFFFFFFF DUP2 GT ISZERO PUSH2 0x4B53 JUMPI PUSH2 0x4B52 PUSH2 0x3D50 JUMP JUMPDEST JUMPDEST PUSH2 0x4B5F DUP5 DUP3 DUP6 ADD PUSH2 0x3EAE JUMP JUMPDEST PUSH1 0x40 DUP4 ADD MSTORE POP PUSH1 0x60 DUP3 ADD CALLDATALOAD PUSH8 0xFFFFFFFFFFFFFFFF DUP2 GT ISZERO PUSH2 0x4B83 JUMPI PUSH2 0x4B82 PUSH2 0x3D50 JUMP JUMPDEST JUMPDEST PUSH2 0x4B8F DUP5 DUP3 DUP6 ADD PUSH2 0x3EAE JUMP JUMPDEST PUSH1 0x60 DUP4 ADD MSTORE POP PUSH1 0x80 DUP3 ADD CALLDATALOAD PUSH8 0xFFFFFFFFFFFFFFFF DUP2 GT ISZERO PUSH2 0x4BB3 JUMPI PUSH2 0x4BB2 PUSH2 0x3D50 JUMP JUMPDEST JUMPDEST PUSH2 0x4BBF DUP5 DUP3 DUP6 ADD PUSH2 0x4ABD JUMP JUMPDEST PUSH1 0x80 DUP4 ADD MSTORE POP SWAP3 SWAP2 POP POP JUMP JUMPDEST PUSH1 0x0 PUSH2 0x4BD7 CALLDATASIZE DUP4 PUSH2 0x4AEB JUMP JUMPDEST SWAP1 POP SWAP2 SWAP1 POP JUMP JUMPDEST PUSH1 0x0 PUSH2 0x140 DUP3 DUP5 SUB SLT ISZERO PUSH2 0x4BF5 JUMPI PUSH2 0x4BF4 PUSH2 0x3CBF JUMP JUMPDEST JUMPDEST PUSH2 0x4C00 PUSH2 0x140 PUSH2 0x3D35 JUMP JUMPDEST SWAP1 POP PUSH1 0x0 PUSH2 0x4C10 DUP5 DUP3 DUP6 ADD PUSH2 0x3D9E JUMP JUMPDEST PUSH1 0x0 DUP4 ADD MSTORE POP PUSH1 0x20 PUSH2 0x4C24 DUP5 DUP3 DUP6 ADD PUSH2 0x3D9E JUMP JUMPDEST PUSH1 0x20 DUP4 ADD MSTORE POP PUSH1 0x40 PUSH2 0x4C38 DUP5 DUP3 DUP6 ADD PUSH2 0x3D9E JUMP JUMPDEST PUSH1 0x40 DUP4 ADD MSTORE POP PUSH1 0x60 PUSH2 0x4C4C DUP5 DUP3 DUP6 ADD PUSH2 0x3D9E JUMP JUMPDEST PUSH1 0x60 DUP4 ADD MSTORE POP PUSH1 0x80 PUSH2 0x4C60 DUP5 DUP3 DUP6 ADD PUSH2 0x3D9E JUMP JUMPDEST PUSH1 0x80 DUP4 ADD MSTORE POP PUSH1 0xA0 PUSH2 0x4C74 DUP5 DUP3 DUP6 ADD PUSH2 0x3D9E JUMP JUMPDEST PUSH1 0xA0 DUP4 ADD MSTORE POP PUSH1 0xC0 PUSH2 0x4C88 DUP5 DUP3 DUP6 ADD PUSH2 0x3DD4 JUMP JUMPDEST PUSH1 0xC0 DUP4 ADD MSTORE POP PUSH1 0xE0 PUSH2 0x4C9C DUP5 DUP3 DUP6 ADD PUSH2 0x3DD4 JUMP JUMPDEST PUSH1 0xE0 DUP4 ADD MSTORE POP PUSH2 0x100 PUSH2 0x4CB1 DUP5 DUP3 DUP6 ADD PUSH2 0x3E0D JUMP JUMPDEST PUSH2 0x100 DUP4 ADD MSTORE POP PUSH2 0x120 DUP3 ADD CALLDATALOAD PUSH8 0xFFFFFFFFFFFFFFFF DUP2 GT ISZERO PUSH2 0x4CD7 JUMPI PUSH2 0x4CD6 PUSH2 0x3D50 JUMP JUMPDEST JUMPDEST PUSH2 0x4CE3 DUP5 DUP3 DUP6 ADD PUSH2 0x3EAE JUMP JUMPDEST PUSH2 0x120 DUP4 ADD MSTORE POP SWAP3 SWAP2 POP POP JUMP JUMPDEST PUSH1 0x0 PUSH1 0x20 DUP3 DUP5 SUB SLT ISZERO PUSH2 0x4D06 JUMPI PUSH2 0x4D05 PUSH2 0x3BFA JUMP JUMPDEST JUMPDEST PUSH1 0x0 DUP3 ADD CALLDATALOAD PUSH8 0xFFFFFFFFFFFFFFFF DUP2 GT ISZERO PUSH2 0x4D24 JUMPI PUSH2 0x4D23 PUSH2 0x3BFF JUMP JUMPDEST JUMPDEST PUSH2 0x4D30 DUP5 DUP3 DUP6 ADD PUSH2 0x4BDE JUMP JUMPDEST SWAP2 POP POP SWAP3 SWAP2 POP POP JUMP JUMPDEST PUSH1 0x0 PUSH16 0xFFFFFFFFFFFFFFFFFFFFFFFFFFFFFFFF DUP3 AND SWAP1 POP SWAP2 SWAP1 POP JUMP JUMPDEST PUSH2 0x4D5E DUP2 PUSH2 0x4D39 JUMP JUMPDEST DUP2 EQ PUSH2 0x4D69 JUMPI PUSH1 0x0 DUP1 REVERT JUMPDEST POP JUMP JUMPDEST PUSH1 0x0 DUP2 MLOAD SWAP1 POP PUSH2 0x4D7B DUP2 PUSH2 0x4D55 JUMP JUMPDEST SWAP3 SWAP2 POP POP JUMP JUMPDEST PUSH1 0x0 PUSH1 0x20 DUP3 DUP5 SUB SLT ISZERO PUSH2 0x4D97 JUMPI PUSH2 0x4D96 PUSH2 0x3BFA JUMP JUMPDEST JUMPDEST PUSH1 0x0 PUSH2 0x4DA5 DUP5 DUP3 DUP6 ADD PUSH2 0x4D6C JUMP JUMPDEST SWAP2 POP POP SWAP3 SWAP2 POP POP JUMP JUMPDEST PUSH1 0x0 PUSH2 0x4DB9 DUP3 PUSH2 0x3DB3 JUMP JUMPDEST SWAP2 POP PUSH2 0x4DC4 DUP4 PUSH2 0x3DB3 JUMP JUMPDEST SWAP3 POP DUP3 DUP3 MUL PUSH2 0x4DD2 DUP2 PUSH2 0x3DB3 JUMP JUMPDEST SWAP2 POP DUP3 DUP3 DIV DUP5 EQ DUP4 ISZERO OR PUSH2 0x4DE9 JUMPI PUSH2 0x4DE8 PUSH2 0x48FF JUMP JUMPDEST JUMPDEST POP SWAP3 SWAP2 POP POP JUMP JUMPDEST PUSH1 0x0 PUSH2 0x4DFB DUP3 PUSH2 0x3DB3 JUMP JUMPDEST SWAP2 POP PUSH2 0x4E06 DUP4 PUSH2 0x3DB3 JUMP JUMPDEST SWAP3 POP DUP3 DUP3 ADD SWAP1 POP DUP1 DUP3 GT ISZERO PUSH2 0x4E1E JUMPI PUSH2 0x4E1D PUSH2 0x48FF JUMP JUMPDEST JUMPDEST SWAP3 SWAP2 POP POP JUMP JUMPDEST PUSH1 0x0 PUSH2 0x4E2F DUP3 PUSH2 0x3DB3 JUMP JUMPDEST SWAP2 POP PUSH32 0xFFFFFFFFFFFFFFFFFFFFFFFFFFFFFFFFFFFFFFFFFFFFFFFFFFFFFFFFFFFFFFFF DUP3 SUB PUSH2 0x4E61 JUMPI PUSH2 0x4E60 PUSH2 0x48FF JUMP JUMPDEST JUMPDEST PUSH1 0x1 DUP3 ADD SWAP1 POP SWAP2 SWAP1 POP JUMP JUMPDEST PUSH1 0x0 DUP2 MLOAD SWAP1 POP PUSH2 0x4E7B DUP2 PUSH2 0x3D87 JUMP JUMPDEST SWAP3 SWAP2 POP POP JUMP JUMPDEST PUSH1 0x0 PUSH1 0x20 DUP3 DUP5 SUB SLT ISZERO PUSH2 0x4E97 JUMPI PUSH2 0x4E96 PUSH2 0x3BFA JUMP JUMPDEST JUMPDEST PUSH1 0x0 PUSH2 0x4EA5 DUP5 DUP3 DUP6 ADD PUSH2 0x4E6C JUMP JUMPDEST SWAP2 POP POP SWAP3 SWAP2 POP POP JUMP JUMPDEST PUSH1 0x0 PUSH1 0x80 DUP3 ADD SWAP1 POP PUSH2 0x4EC3 PUSH1 0x0 DUP4 ADD DUP8 PUSH2 0x3FF7 JUMP JUMPDEST PUSH2 0x4ED0 PUSH1 0x20 DUP4 ADD DUP7 PUSH2 0x3FCD JUMP JUMPDEST PUSH2 0x4EDD PUSH1 0x40 DUP4 ADD DUP6 PUSH2 0x3FF7 JUMP JUMPDEST PUSH2 0x4EEA PUSH1 0x60 DUP4 ADD DUP5 PUSH2 0x4865 JUMP JUMPDEST SWAP6 SWAP5 POP POP POP POP POP JUMP JUMPDEST PUSH1 0x0 PUSH1 0x20 DUP3 DUP5 SUB SLT ISZERO PUSH2 0x4F09 JUMPI PUSH2 0x4F08 PUSH2 0x3BFA JUMP JUMPDEST JUMPDEST PUSH1 0x0 PUSH2 0x4F17 DUP5 DUP3 DUP6 ADD PUSH2 0x43A4 JUMP JUMPDEST SWAP2 POP POP SWAP3 SWAP2 POP POP JUMP JUMPDEST PUSH1 0x0 DUP2 SWAP1 POP SWAP3 SWAP2 POP POP JUMP JUMPDEST POP JUMP JUMPDEST PUSH1 0x0 PUSH2 0x4F3B PUSH1 0x0 DUP4 PUSH2 0x4F20 JUMP JUMPDEST SWAP2 POP PUSH2 0x4F46 DUP3 PUSH2 0x4F2B JUMP JUMPDEST PUSH1 0x0 DUP3 ADD SWAP1 POP SWAP2 SWAP1 POP JUMP JUMPDEST PUSH1 0x0 PUSH2 0x4F5C DUP3 PUSH2 0x4F2E JUMP JUMPDEST SWAP2 POP DUP2 SWAP1 POP SWAP2 SWAP1 POP JUMP JUMPDEST PUSH1 0x0 PUSH1 0x60 DUP3 ADD SWAP1 POP PUSH2 0x4F7B PUSH1 0x0 DUP4 ADD DUP7 PUSH2 0x3FF7 JUMP JUMPDEST PUSH2 0x4F88 PUSH1 0x20 DUP4 ADD DUP6 PUSH2 0x3FCD JUMP JUMPDEST PUSH2 0x4F95 PUSH1 0x40 DUP4 ADD DUP5 PUSH2 0x3FF7 JUMP JUMPDEST SWAP5 SWAP4 POP POP POP POP JUMP JUMPDEST PUSH1 0x0 PUSH1 0x40 DUP3 ADD SWAP1 POP PUSH2 0x4FB2 PUSH1 0x0 DUP4 ADD DUP6 PUSH2 0x3FF7 JUMP JUMPDEST PUSH2 0x4FBF PUSH1 0x20 DUP4 ADD DUP5 PUSH2 0x3FCD JUMP JUMPDEST SWAP4 SWAP3 POP POP POP JUMP JUMPDEST PUSH32 0x4E487B7100000000000000000000000000000000000000000000000000000000 PUSH1 0x0 MSTORE PUSH1 0x21 PUSH1 0x4 MSTORE PUSH1 0x24 PUSH1 0x0 REVERT JUMPDEST PUSH1 0x0 PUSH2 0x5010 PUSH2 0x500B PUSH2 0x5006 DUP5 PUSH2 0x3DE9 JUMP JUMPDEST PUSH2 0x4021 JUMP JUMPDEST PUSH2 0x3DB3 JUMP JUMPDEST SWAP1 POP SWAP2 SWAP1 POP JUMP JUMPDEST PUSH2 0x5020 DUP2 PUSH2 0x4FF5 JUMP JUMPDEST DUP3 MSTORE POP POP JUMP JUMPDEST PUSH1 0x0 PUSH1 0x80 DUP3 ADD SWAP1 POP PUSH2 0x503B PUSH1 0x0 DUP4 ADD DUP8 PUSH2 0x3FF7 JUMP JUMPDEST PUSH2 0x5048 PUSH1 0x20 DUP4 ADD DUP7 PUSH2 0x3FCD JUMP JUMPDEST PUSH2 0x5055 PUSH1 0x40 DUP4 ADD DUP6 PUSH2 0x5017 JUMP JUMPDEST PUSH2 0x5062 PUSH1 0x60 DUP4 ADD DUP5 PUSH2 0x3FF7 JUMP JUMPDEST SWAP6 SWAP5 POP POP POP POP POP JUMP JUMPDEST PUSH1 0x0 PUSH8 0xFFFFFFFFFFFFFFFF DUP3 GT ISZERO PUSH2 0x5086 JUMPI PUSH2 0x5085 PUSH2 0x3CD5 JUMP JUMPDEST JUMPDEST PUSH1 0x20 DUP3 MUL SWAP1 POP PUSH1 0x20 DUP2 ADD SWAP1 POP SWAP2 SWAP1 POP JUMP JUMPDEST PUSH1 0x0 DUP2 MLOAD SWAP1 POP PUSH2 0x50A6 DUP2 PUSH2 0x49AC JUMP JUMPDEST SWAP3 SWAP2 POP POP JUMP JUMPDEST PUSH1 0x0 PUSH2 0x50BF PUSH2 0x50BA DUP5 PUSH2 0x506B JUMP JUMPDEST PUSH2 0x3D35 JUMP JUMPDEST SWAP1 POP DUP1 DUP4 DUP3 MSTORE PUSH1 0x20 DUP3 ADD SWAP1 POP PUSH1 0x20 DUP5 MUL DUP4 ADD DUP6 DUP2 GT ISZERO PUSH2 0x50E2 JUMPI PUSH2 0x50E1 PUSH2 0x410D JUMP JUMPDEST JUMPDEST DUP4 JUMPDEST DUP2 DUP2 LT ISZERO PUSH2 0x510B JUMPI DUP1 PUSH2 0x50F7 DUP9 DUP3 PUSH2 0x5097 JUMP JUMPDEST DUP5 MSTORE PUSH1 0x20 DUP5 ADD SWAP4 POP POP PUSH1 0x20 DUP2 ADD SWAP1 POP PUSH2 0x50E4 JUMP JUMPDEST POP POP POP SWAP4 SWAP3 POP POP POP JUMP JUMPDEST PUSH1 0x0 DUP3 PUSH1 0x1F DUP4 ADD SLT PUSH2 0x512A JUMPI PUSH2 0x5129 PUSH2 0x3E22 JUMP JUMPDEST JUMPDEST DUP2 MLOAD PUSH2 0x513A DUP5 DUP3 PUSH1 0x20 DUP7 ADD PUSH2 0x50AC JUMP JUMPDEST SWAP2 POP POP SWAP3 SWAP2 POP POP JUMP JUMPDEST PUSH1 0x0 PUSH8 0xFFFFFFFFFFFFFFFF DUP3 GT ISZERO PUSH2 0x515E JUMPI PUSH2 0x515D PUSH2 0x3CD5 JUMP JUMPDEST JUMPDEST PUSH1 0x20 DUP3 MUL SWAP1 POP PUSH1 0x20 DUP2 ADD SWAP1 POP SWAP2 SWAP1 POP JUMP JUMPDEST PUSH1 0x0 PUSH2 0x5182 PUSH2 0x517D DUP5 PUSH2 0x5143 JUMP JUMPDEST PUSH2 0x3D35 JUMP JUMPDEST SWAP1 POP DUP1 DUP4 DUP3 MSTORE PUSH1 0x20 DUP3 ADD SWAP1 POP PUSH1 0x20 DUP5 MUL DUP4 ADD DUP6 DUP2 GT ISZERO PUSH2 0x51A5 JUMPI PUSH2 0x51A4 PUSH2 0x410D JUMP JUMPDEST JUMPDEST DUP4 JUMPDEST DUP2 DUP2 LT ISZERO PUSH2 0x51EC JUMPI DUP1 MLOAD PUSH8 0xFFFFFFFFFFFFFFFF DUP2 GT ISZERO PUSH2 0x51CA JUMPI PUSH2 0x51C9 PUSH2 0x3E22 JUMP JUMPDEST JUMPDEST DUP1 DUP7 ADD PUSH2 0x51D7 DUP10 DUP3 PUSH2 0x4425 JUMP JUMPDEST DUP6 MSTORE PUSH1 0x20 DUP6 ADD SWAP5 POP POP POP PUSH1 0x20 DUP2 ADD SWAP1 POP PUSH2 0x51A7 JUMP JUMPDEST POP POP POP SWAP4 SWAP3 POP POP POP JUMP JUMPDEST PUSH1 0x0 DUP3 PUSH1 0x1F DUP4 ADD SLT PUSH2 0x520B JUMPI PUSH2 0x520A PUSH2 0x3E22 JUMP JUMPDEST JUMPDEST DUP2 MLOAD PUSH2 0x521B DUP5 DUP3 PUSH1 0x20 DUP7 ADD PUSH2 0x516F JUMP JUMPDEST SWAP2 POP POP SWAP3 SWAP2 POP POP JUMP JUMPDEST PUSH1 0x0 DUP1 PUSH1 0x40 DUP4 DUP6 SUB SLT ISZERO PUSH2 0x523B JUMPI PUSH2 0x523A PUSH2 0x3BFA JUMP JUMPDEST JUMPDEST PUSH1 0x0 DUP4 ADD MLOAD PUSH8 0xFFFFFFFFFFFFFFFF DUP2 GT ISZERO PUSH2 0x5259 JUMPI PUSH2 0x5258 PUSH2 0x3BFF JUMP JUMPDEST JUMPDEST PUSH2 0x5265 DUP6 DUP3 DUP7 ADD PUSH2 0x5115 JUMP JUMPDEST SWAP3 POP POP PUSH1 0x20 DUP4 ADD MLOAD PUSH8 0xFFFFFFFFFFFFFFFF DUP2 GT ISZERO PUSH2 0x5286 JUMPI PUSH2 0x5285 PUSH2 0x3BFF JUMP JUMPDEST JUMPDEST PUSH2 0x5292 DUP6 DUP3 DUP7 ADD PUSH2 0x51F6 JUMP JUMPDEST SWAP2 POP POP SWAP3 POP SWAP3 SWAP1 POP JUMP JUMPDEST PUSH2 0x52A5 DUP2 PUSH2 0x3DE9 JUMP JUMPDEST DUP3 MSTORE POP POP JUMP JUMPDEST PUSH1 0x0 DUP2 MLOAD SWAP1 POP SWAP2 SWAP1 POP JUMP JUMPDEST PUSH1 0x0 DUP3 DUP3 MSTORE PUSH1 0x20 DUP3 ADD SWAP1 POP SWAP3 SWAP2 POP POP JUMP JUMPDEST PUSH1 0x0 DUP2 SWAP1 POP PUSH1 0x20 DUP3 ADD SWAP1 POP SWAP2 SWAP1 POP JUMP JUMPDEST PUSH1 0x0 PUSH2 0x52E3 DUP4 DUP4 PUSH2 0x454E JUMP JUMPDEST SWAP1 POP SWAP3 SWAP2 POP POP JUMP JUMPDEST PUSH1 0x0 PUSH1 0x20 DUP3 ADD SWAP1 POP SWAP2 SWAP1 POP JUMP JUMPDEST PUSH1 0x0 PUSH2 0x5303 DUP3 PUSH2 0x52AB JUMP JUMPDEST PUSH2 0x530D DUP2 DUP6 PUSH2 0x52B6 JUMP JUMPDEST SWAP4 POP DUP4 PUSH1 0x20 DUP3 MUL DUP6 ADD PUSH2 0x531F DUP6 PUSH2 0x52C7 JUMP JUMPDEST DUP1 PUSH1 0x0 JUMPDEST DUP6 DUP2 LT ISZERO PUSH2 0x535B JUMPI DUP5 DUP5 SUB DUP10 MSTORE DUP2 MLOAD PUSH2 0x533C DUP6 DUP3 PUSH2 0x52D7 JUMP JUMPDEST SWAP5 POP PUSH2 0x5347 DUP4 PUSH2 0x52EB JUMP JUMPDEST SWAP3 POP PUSH1 0x20 DUP11 ADD SWAP10 POP POP PUSH1 0x1 DUP2 ADD SWAP1 POP PUSH2 0x5323 JUMP JUMPDEST POP DUP3 SWAP8 POP DUP8 SWAP6 POP POP POP POP POP POP SWAP3 SWAP2 POP POP JUMP JUMPDEST PUSH1 0x0 PUSH1 0xA0 DUP3 ADD SWAP1 POP PUSH2 0x5382 PUSH1 0x0 DUP4 ADD DUP9 PUSH2 0x3FF7 JUMP JUMPDEST PUSH2 0x538F PUSH1 0x20 DUP4 ADD DUP8 PUSH2 0x3FF7 JUMP JUMPDEST PUSH2 0x539C PUSH1 0x40 DUP4 ADD DUP7 PUSH2 0x3FF7 JUMP JUMPDEST PUSH2 0x53A9 PUSH1 0x60 DUP4 ADD DUP6 PUSH2 0x529C JUMP JUMPDEST DUP2 DUP2 SUB PUSH1 0x80 DUP4 ADD MSTORE PUSH2 0x53BB DUP2 DUP5 PUSH2 0x52F8 JUMP JUMPDEST SWAP1 POP SWAP7 SWAP6 POP POP POP POP POP POP JUMP JUMPDEST PUSH1 0x0 DUP2 MLOAD SWAP1 POP SWAP2 SWAP1 POP JUMP JUMPDEST PUSH1 0x0 DUP3 DUP3 MSTORE PUSH1 0x20 DUP3 ADD SWAP1 POP SWAP3 SWAP2 POP POP JUMP JUMPDEST PUSH1 0x0 DUP2 SWAP1 POP PUSH1 0x20 DUP3 ADD SWAP1 POP SWAP2 SWAP1 POP JUMP JUMPDEST PUSH1 0x0 DUP2 MLOAD SWAP1 POP SWAP2 SWAP1 POP JUMP JUMPDEST PUSH1 0x0 DUP3 DUP3 MSTORE PUSH1 0x20 DUP3 ADD SWAP1 POP SWAP3 SWAP2 POP POP JUMP JUMPDEST PUSH1 0x0 DUP2 SWAP1 POP PUSH1 0x20 DUP3 ADD SWAP1 POP SWAP2 SWAP1 POP JUMP JUMPDEST PUSH1 0x40 DUP3 ADD PUSH1 0x0 DUP3 ADD MLOAD PUSH2 0x5435 PUSH1 0x0 DUP6 ADD DUP3 PUSH2 0x4505 JUMP JUMPDEST POP PUSH1 0x20 DUP3 ADD MLOAD PUSH2 0x5448 PUSH1 0x20 DUP6 ADD DUP3 PUSH2 0x4514 JUMP JUMPDEST POP POP POP POP JUMP JUMPDEST PUSH1 0x0 PUSH2 0x545A DUP4 DUP4 PUSH2 0x541F JUMP JUMPDEST PUSH1 0x40 DUP4 ADD SWAP1 POP SWAP3 SWAP2 POP POP JUMP JUMPDEST PUSH1 0x0 PUSH1 0x20 DUP3 ADD SWAP1 POP SWAP2 SWAP1 POP JUMP JUMPDEST PUSH1 0x0 PUSH2 0x547E DUP3 PUSH2 0x53F3 JUMP JUMPDEST PUSH2 0x5488 DUP2 DUP6 PUSH2 0x53FE JUMP JUMPDEST SWAP4 POP PUSH2 0x5493 DUP4 PUSH2 0x540F JUMP JUMPDEST DUP1 PUSH1 0x0 JUMPDEST DUP4 DUP2 LT ISZERO PUSH2 0x54C4 JUMPI DUP2 MLOAD PUSH2 0x54AB DUP9 DUP3 PUSH2 0x544E JUMP JUMPDEST SWAP8 POP PUSH2 0x54B6 DUP4 PUSH2 0x5466 JUMP JUMPDEST SWAP3 POP POP PUSH1 0x1 DUP2 ADD SWAP1 POP PUSH2 0x5497 JUMP JUMPDEST POP DUP6 SWAP4 POP POP POP POP SWAP3 SWAP2 POP POP JUMP JUMPDEST PUSH1 0x0 PUSH1 0xA0 DUP4 ADD PUSH1 0x0 DUP4 ADD MLOAD DUP5 DUP3 SUB PUSH1 0x0 DUP7 ADD MSTORE PUSH2 0x54EE DUP3 DUP3 PUSH2 0x454E JUMP JUMPDEST SWAP2 POP POP PUSH1 0x20 DUP4 ADD MLOAD DUP5 DUP3 SUB PUSH1 0x20 DUP7 ADD MSTORE PUSH2 0x5508 DUP3 DUP3 PUSH2 0x454E JUMP JUMPDEST SWAP2 POP POP PUSH1 0x40 DUP4 ADD MLOAD DUP5 DUP3 SUB PUSH1 0x40 DUP7 ADD MSTORE PUSH2 0x5522 DUP3 DUP3 PUSH2 0x5473 JUMP JUMPDEST SWAP2 POP POP PUSH1 0x60 DUP4 ADD MLOAD PUSH2 0x5537 PUSH1 0x60 DUP7 ADD DUP3 PUSH2 0x4505 JUMP JUMPDEST POP PUSH1 0x80 DUP4 ADD MLOAD DUP5 DUP3 SUB PUSH1 0x80 DUP7 ADD MSTORE PUSH2 0x554F DUP3 DUP3 PUSH2 0x454E JUMP JUMPDEST SWAP2 POP POP DUP1 SWAP2 POP POP SWAP3 SWAP2 POP POP JUMP JUMPDEST PUSH1 0x0 PUSH2 0x5568 DUP4 DUP4 PUSH2 0x54D1 JUMP JUMPDEST SWAP1 POP SWAP3 SWAP2 POP POP JUMP JUMPDEST PUSH1 0x0 PUSH1 0x20 DUP3 ADD SWAP1 POP SWAP2 SWAP1 POP JUMP JUMPDEST PUSH1 0x0 PUSH2 0x5588 DUP3 PUSH2 0x53C7 JUMP JUMPDEST PUSH2 0x5592 DUP2 DUP6 PUSH2 0x53D2 JUMP JUMPDEST SWAP4 POP DUP4 PUSH1 0x20 DUP3 MUL DUP6 ADD PUSH2 0x55A4 DUP6 PUSH2 0x53E3 JUMP JUMPDEST DUP1 PUSH1 0x0 JUMPDEST DUP6 DUP2 LT ISZERO PUSH2 0x55E0 JUMPI DUP5 DUP5 SUB DUP10 MSTORE DUP2 MLOAD PUSH2 0x55C1 DUP6 DUP3 PUSH2 0x555C JUMP JUMPDEST SWAP5 POP PUSH2 0x55CC DUP4 PUSH2 0x5570 JUMP JUMPDEST SWAP3 POP PUSH1 0x20 DUP11 ADD SWAP10 POP POP PUSH1 0x1 DUP2 ADD SWAP1 POP PUSH2 0x55A8 JUMP JUMPDEST POP DUP3 SWAP8 POP DUP8 SWAP6 POP POP POP POP POP POP SWAP3 SWAP2 POP POP JUMP JUMPDEST PUSH1 0x0 DUP2 MLOAD SWAP1 POP SWAP2 SWAP1 POP JUMP JUMPDEST PUSH1 0x0 DUP3 DUP3 MSTORE PUSH1 0x20 DUP3 ADD SWAP1 POP SWAP3 SWAP2 POP POP JUMP JUMPDEST PUSH1 0x0 DUP2 SWAP1 POP PUSH1 0x20 DUP3 ADD SWAP1 POP SWAP2 SWAP1 POP JUMP JUMPDEST PUSH2 0x5627 DUP2 PUSH2 0x4998 JUMP JUMPDEST DUP3 MSTORE POP POP JUMP JUMPDEST PUSH1 0x0 PUSH2 0x5639 DUP4 DUP4 PUSH2 0x561E JUMP JUMPDEST PUSH1 0x20 DUP4 ADD SWAP1 POP SWAP3 SWAP2 POP POP JUMP JUMPDEST PUSH1 0x0 PUSH1 0x20 DUP3 ADD SWAP1 POP SWAP2 SWAP1 POP JUMP JUMPDEST PUSH1 0x0 PUSH2 0x565D DUP3 PUSH2 0x55F2 JUMP JUMPDEST PUSH2 0x5667 DUP2 DUP6 PUSH2 0x55FD JUMP JUMPDEST SWAP4 POP PUSH2 0x5672 DUP4 PUSH2 0x560E JUMP JUMPDEST DUP1 PUSH1 0x0 JUMPDEST DUP4 DUP2 LT ISZERO PUSH2 0x56A3 JUMPI DUP2 MLOAD PUSH2 0x568A DUP9 DUP3 PUSH2 0x562D JUMP JUMPDEST SWAP8 POP PUSH2 0x5695 DUP4 PUSH2 0x5645 JUMP JUMPDEST SWAP3 POP POP PUSH1 0x1 DUP2 ADD SWAP1 POP PUSH2 0x5676 JUMP JUMPDEST POP DUP6 SWAP4 POP POP POP POP SWAP3 SWAP2 POP POP JUMP JUMPDEST PUSH1 0x0 PUSH1 0x40 DUP3 ADD SWAP1 POP DUP2 DUP2 SUB PUSH1 0x0 DUP4 ADD MSTORE PUSH2 0x56CA DUP2 DUP6 PUSH2 0x557D JUMP JUMPDEST SWAP1 POP DUP2 DUP2 SUB PUSH1 0x20 DUP4 ADD MSTORE PUSH2 0x56DE DUP2 DUP5 PUSH2 0x5652 JUMP JUMPDEST SWAP1 POP SWAP4 SWAP3 POP POP POP JUMP JUMPDEST PUSH1 0x0 PUSH8 0xFFFFFFFFFFFFFFFF DUP3 GT ISZERO PUSH2 0x5702 JUMPI PUSH2 0x5701 PUSH2 0x3CD5 JUMP JUMPDEST JUMPDEST PUSH1 0x20 DUP3 MUL SWAP1 POP PUSH1 0x20 DUP2 ADD SWAP1 POP SWAP2 SWAP1 POP JUMP JUMPDEST PUSH1 0x0 DUP2 MLOAD SWAP1 POP PUSH2 0x5722 DUP2 PUSH2 0x496C JUMP JUMPDEST SWAP3 SWAP2 POP POP JUMP JUMPDEST PUSH1 0x0 PUSH2 0x573B PUSH2 0x5736 DUP5 PUSH2 0x56E7 JUMP JUMPDEST PUSH2 0x3D35 JUMP JUMPDEST SWAP1 POP DUP1 DUP4 DUP3 MSTORE PUSH1 0x20 DUP3 ADD SWAP1 POP PUSH1 0x20 DUP5 MUL DUP4 ADD DUP6 DUP2 GT ISZERO PUSH2 0x575E JUMPI PUSH2 0x575D PUSH2 0x410D JUMP JUMPDEST JUMPDEST DUP4 JUMPDEST DUP2 DUP2 LT ISZERO PUSH2 0x5787 JUMPI DUP1 PUSH2 0x5773 DUP9 DUP3 PUSH2 0x5713 JUMP JUMPDEST DUP5 MSTORE PUSH1 0x20 DUP5 ADD SWAP4 POP POP PUSH1 0x20 DUP2 ADD SWAP1 POP PUSH2 0x5760 JUMP JUMPDEST POP POP POP SWAP4 SWAP3 POP POP POP JUMP JUMPDEST PUSH1 0x0 DUP3 PUSH1 0x1F DUP4 ADD SLT PUSH2 0x57A6 JUMPI PUSH2 0x57A5 PUSH2 0x3E22 JUMP JUMPDEST JUMPDEST DUP2 MLOAD PUSH2 0x57B6 DUP5 DUP3 PUSH1 0x20 DUP7 ADD PUSH2 0x5728 JUMP JUMPDEST SWAP2 POP POP SWAP3 SWAP2 POP POP JUMP JUMPDEST PUSH1 0x0 PUSH1 0x20 DUP3 DUP5 SUB SLT ISZERO PUSH2 0x57D5 JUMPI PUSH2 0x57D4 PUSH2 0x3BFA JUMP JUMPDEST JUMPDEST PUSH1 0x0 DUP3 ADD MLOAD PUSH8 0xFFFFFFFFFFFFFFFF DUP2 GT ISZERO PUSH2 0x57F3 JUMPI PUSH2 0x57F2 PUSH2 0x3BFF JUMP JUMPDEST JUMPDEST PUSH2 0x57FF DUP5 DUP3 DUP6 ADD PUSH2 0x5791 JUMP JUMPDEST SWAP2 POP POP SWAP3 SWAP2 POP POP JUMP JUMPDEST PUSH1 0x0 PUSH1 0x20 DUP3 DUP5 SUB SLT ISZERO PUSH2 0x581E JUMPI PUSH2 0x581D PUSH2 0x3BFA JUMP JUMPDEST JUMPDEST PUSH1 0x0 PUSH2 0x582C DUP5 DUP3 DUP6 ADD PUSH2 0x438F JUMP JUMPDEST SWAP2 POP POP SWAP3 SWAP2 POP POP JUMP JUMPDEST PUSH1 0x0 DUP2 MLOAD SWAP1 POP PUSH2 0x5844 DUP2 PUSH2 0x3DF6 JUMP JUMPDEST SWAP3 SWAP2 POP POP JUMP JUMPDEST PUSH1 0x0 DUP1 PUSH1 0x0 DUP1 PUSH1 0x0 PUSH1 0xA0 DUP7 DUP9 SUB SLT ISZERO PUSH2 0x5866 JUMPI PUSH2 0x5865 PUSH2 0x3BFA JUMP JUMPDEST JUMPDEST PUSH1 0x0 PUSH2 0x5874 DUP9 DUP3 DUP10 ADD PUSH2 0x438F JUMP JUMPDEST SWAP6 POP POP PUSH1 0x20 PUSH2 0x5885 DUP9 DUP3 DUP10 ADD PUSH2 0x438F JUMP JUMPDEST SWAP5 POP POP PUSH1 0x40 PUSH2 0x5896 DUP9 DUP3 DUP10 ADD PUSH2 0x438F JUMP JUMPDEST SWAP4 POP POP PUSH1 0x60 PUSH2 0x58A7 DUP9 DUP3 DUP10 ADD PUSH2 0x5835 JUMP JUMPDEST SWAP3 POP POP PUSH1 0x80 DUP7 ADD MLOAD PUSH8 0xFFFFFFFFFFFFFFFF DUP2 GT ISZERO PUSH2 0x58C8 JUMPI PUSH2 0x58C7 PUSH2 0x3BFF JUMP JUMPDEST JUMPDEST PUSH2 0x58D4 DUP9 DUP3 DUP10 ADD PUSH2 0x4425 JUMP JUMPDEST SWAP2 POP POP SWAP3 SWAP6 POP SWAP3 SWAP6 SWAP1 SWAP4 POP JUMP JUMPDEST PUSH1 0x0 PUSH1 0x40 DUP3 ADD SWAP1 POP PUSH2 0x58F6 PUSH1 0x0 DUP4 ADD DUP6 PUSH2 0x3FF7 JUMP JUMPDEST PUSH2 0x5903 PUSH1 0x20 DUP4 ADD DUP5 PUSH2 0x3FF7 JUMP JUMPDEST SWAP4 SWAP3 POP POP POP JUMP JUMPDEST PUSH1 0x0 DUP1 PUSH1 0x0 PUSH1 0x60 DUP5 DUP7 SUB SLT ISZERO PUSH2 0x5923 JUMPI PUSH2 0x5922 PUSH2 0x3BFA JUMP JUMPDEST JUMPDEST PUSH1 0x0 PUSH2 0x5931 DUP7 DUP3 DUP8 ADD PUSH2 0x5835 JUMP JUMPDEST SWAP4 POP POP PUSH1 0x20 PUSH2 0x5942 DUP7 DUP3 DUP8 ADD PUSH2 0x5713 JUMP JUMPDEST SWAP3 POP POP PUSH1 0x40 PUSH2 0x5953 DUP7 DUP3 DUP8 ADD PUSH2 0x5713 JUMP JUMPDEST SWAP2 POP POP SWAP3 POP SWAP3 POP SWAP3 JUMP JUMPDEST PUSH2 0x5966 DUP2 PUSH2 0x4962 JUMP JUMPDEST DUP3 MSTORE POP POP JUMP JUMPDEST PUSH1 0x0 PUSH1 0xE0 DUP3 ADD SWAP1 POP PUSH2 0x5981 PUSH1 0x0 DUP4 ADD DUP11 PUSH2 0x3FF7 JUMP JUMPDEST PUSH2 0x598E PUSH1 0x20 DUP4 ADD DUP10 PUSH2 0x3FF7 JUMP JUMPDEST PUSH2 0x599B PUSH1 0x40 DUP4 ADD DUP9 PUSH2 0x3FCD JUMP JUMPDEST PUSH2 0x59A8 PUSH1 0x60 DUP4 ADD DUP8 PUSH2 0x3FCD JUMP JUMPDEST PUSH2 0x59B5 PUSH1 0x80 DUP4 ADD DUP7 PUSH2 0x529C JUMP JUMPDEST PUSH2 0x59C2 PUSH1 0xA0 DUP4 ADD DUP6 PUSH2 0x595D JUMP JUMPDEST PUSH2 0x59CF PUSH1 0xC0 DUP4 ADD DUP5 PUSH2 0x595D JUMP JUMPDEST SWAP9 SWAP8 POP POP POP POP POP POP POP POP JUMP JUMPDEST PUSH1 0x0 PUSH1 0xA0 DUP3 ADD SWAP1 POP PUSH2 0x59F0 PUSH1 0x0 DUP4 ADD DUP9 PUSH2 0x3FF7 JUMP JUMPDEST PUSH2 0x59FD PUSH1 0x20 DUP4 ADD DUP8 PUSH2 0x3FCD JUMP JUMPDEST PUSH2 0x5A0A PUSH1 0x40 DUP4 ADD DUP7 PUSH2 0x5017 JUMP JUMPDEST PUSH2 0x5A17 PUSH1 0x60 DUP4 ADD DUP6 PUSH2 0x4865 JUMP JUMPDEST PUSH2 0x5A24 PUSH1 0x80 DUP4 ADD DUP5 PUSH2 0x3FF7 JUMP JUMPDEST SWAP7 SWAP6 POP POP POP POP POP POP JUMP INVALID LOG2 PUSH5 0x6970667358 0x22 SLT KECCAK256 JUMPDEST DELEGATECALL STATICCALL INVALID MUL 0xB7 DUP6 0xBF BYTE SWAP1 0xAC EXTCODECOPY JUMP ADDRESS SGT 0xD1 0xEA PUSH21 0xF99D6A0864BCEA0661889DFF820864736F6C634300 ADDMOD EQ STOP CALLER PUSH1 0xE0 PUSH1 0x40 MSTORE CALLVALUE DUP1 ISZERO PUSH3 0x11 JUMPI PUSH1 0x0 DUP1 REVERT JUMPDEST POP PUSH1 0x40 MLOAD PUSH3 0x1F14 CODESIZE SUB DUP1 PUSH3 0x1F14 DUP4 CODECOPY DUP2 DUP2 ADD PUSH1 0x40 MSTORE DUP2 ADD SWAP1 PUSH3 0x37 SWAP2 SWAP1 PUSH3 0x33A JUMP JUMPDEST DUP1 PUSH1 0x0 PUSH20 0xFFFFFFFFFFFFFFFFFFFFFFFFFFFFFFFFFFFFFFFF AND DUP2 PUSH20 0xFFFFFFFFFFFFFFFFFFFFFFFFFFFFFFFFFFFFFFFF AND SUB PUSH3 0xAD JUMPI PUSH1 0x0 PUSH1 0x40 MLOAD PUSH32 0x1E4FBDF700000000000000000000000000000000000000000000000000000000 DUP2 MSTORE PUSH1 0x4 ADD PUSH3 0xA4 SWAP2 SWAP1 PUSH3 0x3A7 JUMP JUMPDEST PUSH1 0x40 MLOAD DUP1 SWAP2 SUB SWAP1 REVERT JUMPDEST PUSH3 0xBE DUP2 PUSH3 0x20C PUSH1 0x20 SHL PUSH1 0x20 SHR JUMP JUMPDEST POP CALLER PUSH20 0xFFFFFFFFFFFFFFFFFFFFFFFFFFFFFFFFFFFFFFFF AND PUSH1 0x80 DUP2 PUSH20 0xFFFFFFFFFFFFFFFFFFFFFFFFFFFFFFFFFFFFFFFF AND DUP2 MSTORE POP POP DUP3 PUSH20 0xFFFFFFFFFFFFFFFFFFFFFFFFFFFFFFFFFFFFFFFF AND PUSH1 0xA0 DUP2 PUSH20 0xFFFFFFFFFFFFFFFFFFFFFFFFFFFFFFFFFFFFFFFF AND DUP2 MSTORE POP POP DUP2 PUSH20 0xFFFFFFFFFFFFFFFFFFFFFFFFFFFFFFFFFFFFFFFF AND PUSH1 0xC0 DUP2 PUSH20 0xFFFFFFFFFFFFFFFFFFFFFFFFFFFFFFFFFFFFFFFF AND DUP2 MSTORE POP POP PUSH1 0xC0 MLOAD PUSH20 0xFFFFFFFFFFFFFFFFFFFFFFFFFFFFFFFFFFFFFFFF AND PUSH4 0x95EA7B3 PUSH1 0xA0 MLOAD PUSH32 0xFFFFFFFFFFFFFFFFFFFFFFFFFFFFFFFFFFFFFFFFFFFFFFFFFFFFFFFFFFFFFFFF PUSH1 0x40 MLOAD DUP4 PUSH4 0xFFFFFFFF AND PUSH1 0xE0 SHL DUP2 MSTORE PUSH1 0x4 ADD PUSH3 0x1BC SWAP3 SWAP2 SWAP1 PUSH3 0x3DF JUMP JUMPDEST PUSH1 0x20 PUSH1 0x40 MLOAD DUP1 DUP4 SUB DUP2 PUSH1 0x0 DUP8 GAS CALL ISZERO DUP1 ISZERO PUSH3 0x1DC JUMPI RETURNDATASIZE PUSH1 0x0 DUP1 RETURNDATACOPY RETURNDATASIZE PUSH1 0x0 REVERT JUMPDEST POP POP POP POP PUSH1 0x40 MLOAD RETURNDATASIZE PUSH1 0x1F NOT PUSH1 0x1F DUP3 ADD AND DUP3 ADD DUP1 PUSH1 0x40 MSTORE POP DUP2 ADD SWAP1 PUSH3 0x202 SWAP2 SWAP1 PUSH3 0x449 JUMP JUMPDEST POP POP POP POP PUSH3 0x47B JUMP JUMPDEST PUSH1 0x0 DUP1 PUSH1 0x0 SWAP1 SLOAD SWAP1 PUSH2 0x100 EXP SWAP1 DIV PUSH20 0xFFFFFFFFFFFFFFFFFFFFFFFFFFFFFFFFFFFFFFFF AND SWAP1 POP DUP2 PUSH1 0x0 DUP1 PUSH2 0x100 EXP DUP2 SLOAD DUP2 PUSH20 0xFFFFFFFFFFFFFFFFFFFFFFFFFFFFFFFFFFFFFFFF MUL NOT AND SWAP1 DUP4 PUSH20 0xFFFFFFFFFFFFFFFFFFFFFFFFFFFFFFFFFFFFFFFF AND MUL OR SWAP1 SSTORE POP DUP2 PUSH20 0xFFFFFFFFFFFFFFFFFFFFFFFFFFFFFFFFFFFFFFFF AND DUP2 PUSH20 0xFFFFFFFFFFFFFFFFFFFFFFFFFFFFFFFFFFFFFFFF AND PUSH32 0x8BE0079C531659141344CD1FD0A4F28419497F9722A3DAAFE3B4186F6B6457E0 PUSH1 0x40 MLOAD PUSH1 0x40 MLOAD DUP1 SWAP2 SUB SWAP1 LOG3 POP POP JUMP JUMPDEST PUSH1 0x0 DUP1 REVERT JUMPDEST PUSH1 0x0 PUSH20 0xFFFFFFFFFFFFFFFFFFFFFFFFFFFFFFFFFFFFFFFF DUP3 AND SWAP1 POP SWAP2 SWAP1 POP JUMP JUMPDEST PUSH1 0x0 PUSH3 0x302 DUP3 PUSH3 0x2D5 JUMP JUMPDEST SWAP1 POP SWAP2 SWAP1 POP JUMP JUMPDEST PUSH3 0x314 DUP2 PUSH3 0x2F5 JUMP JUMPDEST DUP2 EQ PUSH3 0x320 JUMPI PUSH1 0x0 DUP1 REVERT JUMPDEST POP JUMP JUMPDEST PUSH1 0x0 DUP2 MLOAD SWAP1 POP PUSH3 0x334 DUP2 PUSH3 0x309 JUMP JUMPDEST SWAP3 SWAP2 POP POP JUMP JUMPDEST PUSH1 0x0 DUP1 PUSH1 0x0 PUSH1 0x60 DUP5 DUP7 SUB SLT ISZERO PUSH3 0x356 JUMPI PUSH3 0x355 PUSH3 0x2D0 JUMP JUMPDEST JUMPDEST PUSH1 0x0 PUSH3 0x366 DUP7 DUP3 DUP8 ADD PUSH3 0x323 JUMP JUMPDEST SWAP4 POP POP PUSH1 0x20 PUSH3 0x379 DUP7 DUP3 DUP8 ADD PUSH3 0x323 JUMP JUMPDEST SWAP3 POP POP PUSH1 0x40 PUSH3 0x38C DUP7 DUP3 DUP8 ADD PUSH3 0x323 JUMP JUMPDEST SWAP2 POP POP SWAP3 POP SWAP3 POP SWAP3 JUMP JUMPDEST PUSH3 0x3A1 DUP2 PUSH3 0x2F5 JUMP JUMPDEST DUP3 MSTORE POP POP JUMP JUMPDEST PUSH1 0x0 PUSH1 0x20 DUP3 ADD SWAP1 POP PUSH3 0x3BE PUSH1 0x0 DUP4 ADD DUP5 PUSH3 0x396 JUMP JUMPDEST SWAP3 SWAP2 POP POP JUMP JUMPDEST PUSH1 0x0 DUP2 SWAP1 POP SWAP2 SWAP1 POP JUMP JUMPDEST PUSH3 0x3D9 DUP2 PUSH3 0x3C4 JUMP JUMPDEST DUP3 MSTORE POP POP JUMP JUMPDEST PUSH1 0x0 PUSH1 0x40 DUP3 ADD SWAP1 POP PUSH3 0x3F6 PUSH1 0x0 DUP4 ADD DUP6 PUSH3 0x396 JUMP JUMPDEST PUSH3 0x405 PUSH1 0x20 DUP4 ADD DUP5 PUSH3 0x3CE JUMP JUMPDEST SWAP4 SWAP3 POP POP POP JUMP JUMPDEST PUSH1 0x0 DUP2 ISZERO ISZERO SWAP1 POP SWAP2 SWAP1 POP JUMP JUMPDEST PUSH3 0x423 DUP2 PUSH3 0x40C JUMP JUMPDEST DUP2 EQ PUSH3 0x42F JUMPI PUSH1 0x0 DUP1 REVERT JUMPDEST POP JUMP JUMPDEST PUSH1 0x0 DUP2 MLOAD SWAP1 POP PUSH3 0x443 DUP2 PUSH3 0x418 JUMP JUMPDEST SWAP3 SWAP2 POP POP JUMP JUMPDEST PUSH1 0x0 PUSH1 0x20 DUP3 DUP5 SUB SLT ISZERO PUSH3 0x462 JUMPI PUSH3 0x461 PUSH3 0x2D0 JUMP JUMPDEST JUMPDEST PUSH1 0x0 PUSH3 0x472 DUP5 DUP3 DUP6 ADD PUSH3 0x432 JUMP JUMPDEST SWAP2 POP POP SWAP3 SWAP2 POP POP JUMP JUMPDEST PUSH1 0x80 MLOAD PUSH1 0xA0 MLOAD PUSH1 0xC0 MLOAD PUSH2 0x1A46 PUSH3 0x4CE PUSH1 0x0 CODECOPY PUSH1 0x0 PUSH2 0x45B ADD MSTORE PUSH1 0x0 DUP2 DUP2 PUSH2 0x423 ADD MSTORE DUP2 DUP2 PUSH2 0x4AA ADD MSTORE DUP2 DUP2 PUSH2 0x7D4 ADD MSTORE DUP2 DUP2 PUSH2 0x8AB ADD MSTORE PUSH2 0x951 ADD MSTORE PUSH1 0x0 DUP2 DUP2 PUSH2 0x2CF ADD MSTORE PUSH2 0x54B ADD MSTORE PUSH2 0x1A46 PUSH1 0x0 RETURN INVALID PUSH1 0x80 PUSH1 0x40 MSTORE PUSH1 0x4 CALLDATASIZE LT PUSH2 0x95 JUMPI PUSH1 0x0 CALLDATALOAD PUSH1 0xE0 SHR DUP1 PUSH4 0x8DA5CB5B GT PUSH2 0x59 JUMPI DUP1 PUSH4 0x8DA5CB5B EQ PUSH2 0x174 JUMPI DUP1 PUSH4 0xA48A9058 EQ PUSH2 0x19F JUMPI DUP1 PUSH4 0xDB3E3461 EQ PUSH2 0x1DC JUMPI DUP1 PUSH4 0xF2FDE38B EQ PUSH2 0x207 JUMPI DUP1 PUSH4 0xF3FEF3A3 EQ PUSH2 0x230 JUMPI PUSH2 0x9C JUMP JUMPDEST DUP1 PUSH4 0x1E33667 EQ PUSH2 0xA1 JUMPI DUP1 PUSH4 0x3626454D EQ PUSH2 0xCA JUMPI DUP1 PUSH4 0x581BDD16 EQ PUSH2 0x107 JUMPI DUP1 PUSH4 0x715018A6 EQ PUSH2 0x132 JUMPI DUP1 PUSH4 0x7D253AFF EQ PUSH2 0x149 JUMPI PUSH2 0x9C JUMP JUMPDEST CALLDATASIZE PUSH2 0x9C JUMPI STOP JUMPDEST PUSH1 0x0 DUP1 REVERT JUMPDEST CALLVALUE DUP1 ISZERO PUSH2 0xAD JUMPI PUSH1 0x0 DUP1 REVERT JUMPDEST POP PUSH2 0xC8 PUSH1 0x4 DUP1 CALLDATASIZE SUB DUP2 ADD SWAP1 PUSH2 0xC3 SWAP2 SWAP1 PUSH2 0xBEC JUMP JUMPDEST PUSH2 0x259 JUMP JUMPDEST STOP JUMPDEST CALLVALUE DUP1 ISZERO PUSH2 0xD6 JUMPI PUSH1 0x0 DUP1 REVERT JUMPDEST POP PUSH2 0xF1 PUSH1 0x4 DUP1 CALLDATASIZE SUB DUP2 ADD SWAP1 PUSH2 0xEC SWAP2 SWAP1 PUSH2 0x1187 JUMP JUMPDEST PUSH2 0x2CB JUMP JUMPDEST PUSH1 0x40 MLOAD PUSH2 0xFE SWAP2 SWAP1 PUSH2 0x12C7 JUMP JUMPDEST PUSH1 0x40 MLOAD DUP1 SWAP2 SUB SWAP1 RETURN JUMPDEST CALLVALUE DUP1 ISZERO PUSH2 0x113 JUMPI PUSH1 0x0 DUP1 REVERT JUMPDEST POP PUSH2 0x11C PUSH2 0x421 JUMP JUMPDEST PUSH1 0x40 MLOAD PUSH2 0x129 SWAP2 SWAP1 PUSH2 0x12F8 JUMP JUMPDEST PUSH1 0x40 MLOAD DUP1 SWAP2 SUB SWAP1 RETURN JUMPDEST CALLVALUE DUP1 ISZERO PUSH2 0x13E JUMPI PUSH1 0x0 DUP1 REVERT JUMPDEST POP PUSH2 0x147 PUSH2 0x445 JUMP JUMPDEST STOP JUMPDEST CALLVALUE DUP1 ISZERO PUSH2 0x155 JUMPI PUSH1 0x0 DUP1 REVERT JUMPDEST POP PUSH2 0x15E PUSH2 0x459 JUMP JUMPDEST PUSH1 0x40 MLOAD PUSH2 0x16B SWAP2 SWAP1 PUSH2 0x12F8 JUMP JUMPDEST PUSH1 0x40 MLOAD DUP1 SWAP2 SUB SWAP1 RETURN JUMPDEST CALLVALUE DUP1 ISZERO PUSH2 0x180 JUMPI PUSH1 0x0 DUP1 REVERT JUMPDEST POP PUSH2 0x189 PUSH2 0x47D JUMP JUMPDEST PUSH1 0x40 MLOAD PUSH2 0x196 SWAP2 SWAP1 PUSH2 0x12F8 JUMP JUMPDEST PUSH1 0x40 MLOAD DUP1 SWAP2 SUB SWAP1 RETURN JUMPDEST CALLVALUE DUP1 ISZERO PUSH2 0x1AB JUMPI PUSH1 0x0 DUP1 REVERT JUMPDEST POP PUSH2 0x1C6 PUSH1 0x4 DUP1 CALLDATASIZE SUB DUP2 ADD SWAP1 PUSH2 0x1C1 SWAP2 SWAP1 PUSH2 0x1313 JUMP JUMPDEST PUSH2 0x4A6 JUMP JUMPDEST PUSH1 0x40 MLOAD PUSH2 0x1D3 SWAP2 SWAP1 PUSH2 0x135B JUMP JUMPDEST PUSH1 0x40 MLOAD DUP1 SWAP2 SUB SWAP1 RETURN JUMPDEST CALLVALUE DUP1 ISZERO PUSH2 0x1E8 JUMPI PUSH1 0x0 DUP1 REVERT JUMPDEST POP PUSH2 0x1F1 PUSH2 0x549 JUMP JUMPDEST PUSH1 0x40 MLOAD PUSH2 0x1FE SWAP2 SWAP1 PUSH2 0x12F8 JUMP JUMPDEST PUSH1 0x40 MLOAD DUP1 SWAP2 SUB SWAP1 RETURN JUMPDEST CALLVALUE DUP1 ISZERO PUSH2 0x213 JUMPI PUSH1 0x0 DUP1 REVERT JUMPDEST POP PUSH2 0x22E PUSH1 0x4 DUP1 CALLDATASIZE SUB DUP2 ADD SWAP1 PUSH2 0x229 SWAP2 SWAP1 PUSH2 0x1376 JUMP JUMPDEST PUSH2 0x56D JUMP JUMPDEST STOP JUMPDEST CALLVALUE DUP1 ISZERO PUSH2 0x23C JUMPI PUSH1 0x0 DUP1 REVERT JUMPDEST POP PUSH2 0x257 PUSH1 0x4 DUP1 CALLDATASIZE SUB DUP2 ADD SWAP1 PUSH2 0x252 SWAP2 SWAP1 PUSH2 0x13A3 JUMP JUMPDEST PUSH2 0x5F3 JUMP JUMPDEST STOP JUMPDEST PUSH2 0x261 PUSH2 0x6C4 JUMP JUMPDEST PUSH1 0x0 PUSH2 0x28C ADDRESS DUP5 PUSH20 0xFFFFFFFFFFFFFFFFFFFFFFFFFFFFFFFFFFFFFFFF AND PUSH2 0x74B SWAP1 SWAP2 SWAP1 PUSH4 0xFFFFFFFF AND JUMP JUMPDEST SWAP1 POP DUP1 DUP3 GT ISZERO PUSH2 0x29A JUMPI DUP1 SWAP2 POP JUMPDEST PUSH2 0x2C5 DUP5 DUP4 DUP6 PUSH20 0xFFFFFFFFFFFFFFFFFFFFFFFFFFFFFFFFFFFFFFFF AND PUSH2 0x780 SWAP1 SWAP3 SWAP2 SWAP1 PUSH4 0xFFFFFFFF AND JUMP JUMPDEST POP POP POP POP JUMP JUMPDEST PUSH1 0x60 PUSH32 0x0 PUSH20 0xFFFFFFFFFFFFFFFFFFFFFFFFFFFFFFFFFFFFFFFF AND CALLER PUSH20 0xFFFFFFFFFFFFFFFFFFFFFFFFFFFFFFFFFFFFFFFF AND EQ PUSH2 0x352 JUMPI PUSH1 0x40 MLOAD PUSH32 0xB32D8C6600000000000000000000000000000000000000000000000000000000 DUP2 MSTORE PUSH1 0x4 ADD PUSH1 0x40 MLOAD DUP1 SWAP2 SUB SWAP1 REVERT JUMPDEST DUP3 MLOAD PUSH8 0xFFFFFFFFFFFFFFFF DUP2 GT ISZERO PUSH2 0x36D JUMPI PUSH2 0x36C PUSH2 0xC55 JUMP JUMPDEST JUMPDEST PUSH1 0x40 MLOAD SWAP1 DUP1 DUP3 MSTORE DUP1 PUSH1 0x20 MUL PUSH1 0x20 ADD DUP3 ADD PUSH1 0x40 MSTORE DUP1 ISZERO PUSH2 0x39B JUMPI DUP2 PUSH1 0x20 ADD PUSH1 0x20 DUP3 MUL DUP1 CALLDATASIZE DUP4 CALLDATACOPY DUP1 DUP3 ADD SWAP2 POP POP SWAP1 POP JUMPDEST POP SWAP1 POP PUSH1 0x0 JUMPDEST DUP4 MLOAD DUP2 LT ISZERO PUSH2 0x41A JUMPI PUSH2 0x3E8 DUP5 DUP3 DUP2 MLOAD DUP2 LT PUSH2 0x3C0 JUMPI PUSH2 0x3BF PUSH2 0x13E3 JUMP JUMPDEST JUMPDEST PUSH1 0x20 MUL PUSH1 0x20 ADD ADD MLOAD DUP5 DUP4 DUP2 MLOAD DUP2 LT PUSH2 0x3DB JUMPI PUSH2 0x3DA PUSH2 0x13E3 JUMP JUMPDEST JUMPDEST PUSH1 0x20 MUL PUSH1 0x20 ADD ADD MLOAD PUSH2 0x7CF JUMP JUMPDEST DUP3 DUP3 DUP2 MLOAD DUP2 LT PUSH2 0x3FB JUMPI PUSH2 0x3FA PUSH2 0x13E3 JUMP JUMPDEST JUMPDEST PUSH1 0x20 MUL PUSH1 0x20 ADD ADD DUP2 DUP2 MSTORE POP POP DUP1 DUP1 PUSH2 0x412 SWAP1 PUSH2 0x1441 JUMP JUMPDEST SWAP2 POP POP PUSH2 0x3A1 JUMP JUMPDEST POP SWAP3 SWAP2 POP POP JUMP JUMPDEST PUSH32 0x0 DUP2 JUMP JUMPDEST PUSH2 0x44D PUSH2 0x6C4 JUMP JUMPDEST PUSH2 0x457 PUSH1 0x0 PUSH2 0xA78 JUMP JUMPDEST JUMP JUMPDEST PUSH32 0x0 DUP2 JUMP JUMPDEST PUSH1 0x0 DUP1 PUSH1 0x0 SWAP1 SLOAD SWAP1 PUSH2 0x100 EXP SWAP1 DIV PUSH20 0xFFFFFFFFFFFFFFFFFFFFFFFFFFFFFFFFFFFFFFFF AND SWAP1 POP SWAP1 JUMP JUMPDEST PUSH1 0x0 PUSH32 0x0 PUSH20 0xFFFFFFFFFFFFFFFFFFFFFFFFFFFFFFFFFFFFFFFF AND PUSH4 0xA48A9058 DUP4 PUSH1 0x40 MLOAD DUP3 PUSH4 0xFFFFFFFF AND PUSH1 0xE0 SHL DUP2 MSTORE PUSH1 0x4 ADD PUSH2 0x501 SWAP2 SWAP1 PUSH2 0x1498 JUMP JUMPDEST PUSH1 0x20 PUSH1 0x40 MLOAD DUP1 DUP4 SUB DUP2 DUP7 GAS STATICCALL ISZERO DUP1 ISZERO PUSH2 0x51E JUMPI RETURNDATASIZE PUSH1 0x0 DUP1 RETURNDATACOPY RETURNDATASIZE PUSH1 0x0 REVERT JUMPDEST POP POP POP POP PUSH1 0x40 MLOAD RETURNDATASIZE PUSH1 0x1F NOT PUSH1 0x1F DUP3 ADD AND DUP3 ADD DUP1 PUSH1 0x40 MSTORE POP DUP2 ADD SWAP1 PUSH2 0x542 SWAP2 SWAP1 PUSH2 0x14DF JUMP JUMPDEST SWAP1 POP SWAP2 SWAP1 POP JUMP JUMPDEST PUSH32 0x0 DUP2 JUMP JUMPDEST PUSH2 0x575 PUSH2 0x6C4 JUMP JUMPDEST PUSH1 0x0 PUSH20 0xFFFFFFFFFFFFFFFFFFFFFFFFFFFFFFFFFFFFFFFF AND DUP2 PUSH20 0xFFFFFFFFFFFFFFFFFFFFFFFFFFFFFFFFFFFFFFFF AND SUB PUSH2 0x5E7 JUMPI PUSH1 0x0 PUSH1 0x40 MLOAD PUSH32 0x1E4FBDF700000000000000000000000000000000000000000000000000000000 DUP2 MSTORE PUSH1 0x4 ADD PUSH2 0x5DE SWAP2 SWAP1 PUSH2 0x12F8 JUMP JUMPDEST PUSH1 0x40 MLOAD DUP1 SWAP2 SUB SWAP1 REVERT JUMPDEST PUSH2 0x5F0 DUP2 PUSH2 0xA78 JUMP JUMPDEST POP JUMP JUMPDEST PUSH2 0x5FB PUSH2 0x6C4 JUMP JUMPDEST PUSH1 0x0 SELFBALANCE SWAP1 POP DUP1 DUP3 GT ISZERO PUSH2 0x60C JUMPI DUP1 SWAP2 POP JUMPDEST PUSH1 0x0 DUP4 PUSH20 0xFFFFFFFFFFFFFFFFFFFFFFFFFFFFFFFFFFFFFFFF AND DUP4 PUSH1 0x40 MLOAD PUSH2 0x632 SWAP1 PUSH2 0x153D JUMP JUMPDEST PUSH1 0x0 PUSH1 0x40 MLOAD DUP1 DUP4 SUB DUP2 DUP6 DUP8 GAS CALL SWAP3 POP POP POP RETURNDATASIZE DUP1 PUSH1 0x0 DUP2 EQ PUSH2 0x66F JUMPI PUSH1 0x40 MLOAD SWAP2 POP PUSH1 0x1F NOT PUSH1 0x3F RETURNDATASIZE ADD AND DUP3 ADD PUSH1 0x40 MSTORE RETURNDATASIZE DUP3 MSTORE RETURNDATASIZE PUSH1 0x0 PUSH1 0x20 DUP5 ADD RETURNDATACOPY PUSH2 0x674 JUMP JUMPDEST PUSH1 0x60 SWAP2 POP JUMPDEST POP POP SWAP1 POP DUP1 PUSH2 0x6BE JUMPI CALLER DUP5 DUP5 PUSH1 0x40 MLOAD PUSH32 0x9D11F56300000000000000000000000000000000000000000000000000000000 DUP2 MSTORE PUSH1 0x4 ADD PUSH2 0x6B5 SWAP4 SWAP3 SWAP2 SWAP1 PUSH2 0x1561 JUMP JUMPDEST PUSH1 0x40 MLOAD DUP1 SWAP2 SUB SWAP1 REVERT JUMPDEST POP POP POP POP JUMP JUMPDEST PUSH2 0x6CC PUSH2 0xB3C JUMP JUMPDEST PUSH20 0xFFFFFFFFFFFFFFFFFFFFFFFFFFFFFFFFFFFFFFFF AND PUSH2 0x6EA PUSH2 0x47D JUMP JUMPDEST PUSH20 0xFFFFFFFFFFFFFFFFFFFFFFFFFFFFFFFFFFFFFFFF AND EQ PUSH2 0x749 JUMPI PUSH2 0x70D PUSH2 0xB3C JUMP JUMPDEST PUSH1 0x40 MLOAD PUSH32 0x118CDAA700000000000000000000000000000000000000000000000000000000 DUP2 MSTORE PUSH1 0x4 ADD PUSH2 0x740 SWAP2 SWAP1 PUSH2 0x12F8 JUMP JUMPDEST PUSH1 0x40 MLOAD DUP1 SWAP2 SUB SWAP1 REVERT JUMPDEST JUMP JUMPDEST PUSH1 0x0 DUP2 PUSH1 0x14 MSTORE PUSH16 0x70A08231000000000000000000000000 PUSH1 0x0 MSTORE PUSH1 0x20 DUP1 PUSH1 0x24 PUSH1 0x10 DUP7 GAS STATICCALL PUSH1 0x1F RETURNDATASIZE GT AND PUSH1 0x20 MLOAD MUL SWAP1 POP SWAP3 SWAP2 POP POP JUMP JUMPDEST DUP2 PUSH1 0x14 MSTORE DUP1 PUSH1 0x34 MSTORE PUSH16 0xA9059CBB000000000000000000000000 PUSH1 0x0 MSTORE PUSH1 0x20 PUSH1 0x0 PUSH1 0x44 PUSH1 0x10 PUSH1 0x0 DUP8 GAS CALL RETURNDATASIZE ISZERO PUSH1 0x1 PUSH1 0x0 MLOAD EQ OR AND PUSH2 0x7C5 JUMPI PUSH4 0x90B8EC18 PUSH1 0x0 MSTORE PUSH1 0x4 PUSH1 0x1C REVERT JUMPDEST PUSH1 0x0 PUSH1 0x34 MSTORE POP POP POP JUMP JUMPDEST PUSH1 0x0 DUP1 PUSH32 0x0 PUSH20 0xFFFFFFFFFFFFFFFFFFFFFFFFFFFFFFFFFFFFFFFF AND PUSH4 0x20487DED DUP5 DUP7 PUSH1 0x40 MLOAD DUP4 PUSH4 0xFFFFFFFF AND PUSH1 0xE0 SHL DUP2 MSTORE PUSH1 0x4 ADD PUSH2 0x82D SWAP3 SWAP2 SWAP1 PUSH2 0x179E JUMP JUMPDEST PUSH1 0x20 PUSH1 0x40 MLOAD DUP1 DUP4 SUB DUP2 DUP7 GAS STATICCALL ISZERO DUP1 ISZERO PUSH2 0x84A JUMPI RETURNDATASIZE PUSH1 0x0 DUP1 RETURNDATACOPY RETURNDATASIZE PUSH1 0x0 REVERT JUMPDEST POP POP POP POP PUSH1 0x40 MLOAD RETURNDATASIZE PUSH1 0x1F NOT PUSH1 0x1F DUP3 ADD AND DUP3 ADD DUP1 PUSH1 0x40 MSTORE POP DUP2 ADD SWAP1 PUSH2 0x86E SWAP2 SWAP1 PUSH2 0x17E3 JUMP JUMPDEST SWAP1 POP PUSH1 0x0 DUP1 PUSH20 0xFFFFFFFFFFFFFFFFFFFFFFFFFFFFFFFFFFFFFFFF AND DUP6 PUSH1 0x60 ADD MLOAD PUSH20 0xFFFFFFFFFFFFFFFFFFFFFFFFFFFFFFFFFFFFFFFF AND SUB PUSH2 0x94F JUMPI PUSH32 0x0 PUSH20 0xFFFFFFFFFFFFFFFFFFFFFFFFFFFFFFFFFFFFFFFF AND PUSH4 0x96F4E9F9 DUP4 DUP7 DUP9 PUSH1 0x40 MLOAD DUP5 PUSH4 0xFFFFFFFF AND PUSH1 0xE0 SHL DUP2 MSTORE PUSH1 0x4 ADD PUSH2 0x905 SWAP3 SWAP2 SWAP1 PUSH2 0x179E JUMP JUMPDEST PUSH1 0x20 PUSH1 0x40 MLOAD DUP1 DUP4 SUB DUP2 DUP6 DUP9 GAS CALL ISZERO DUP1 ISZERO PUSH2 0x923 JUMPI RETURNDATASIZE PUSH1 0x0 DUP1 RETURNDATACOPY RETURNDATASIZE PUSH1 0x0 REVERT JUMPDEST POP POP POP POP POP PUSH1 0x40 MLOAD RETURNDATASIZE PUSH1 0x1F NOT PUSH1 0x1F DUP3 ADD AND DUP3 ADD DUP1 PUSH1 0x40 MSTORE POP DUP2 ADD SWAP1 PUSH2 0x948 SWAP2 SWAP1 PUSH2 0x183C JUMP JUMPDEST SWAP1 POP PUSH2 0x9F0 JUMP JUMPDEST PUSH32 0x0 PUSH20 0xFFFFFFFFFFFFFFFFFFFFFFFFFFFFFFFFFFFFFFFF AND PUSH4 0x96F4E9F9 DUP6 DUP8 PUSH1 0x40 MLOAD DUP4 PUSH4 0xFFFFFFFF AND PUSH1 0xE0 SHL DUP2 MSTORE PUSH1 0x4 ADD PUSH2 0x9AA SWAP3 SWAP2 SWAP1 PUSH2 0x179E JUMP JUMPDEST PUSH1 0x20 PUSH1 0x40 MLOAD DUP1 DUP4 SUB DUP2 PUSH1 0x0 DUP8 GAS CALL ISZERO DUP1 ISZERO PUSH2 0x9C9 JUMPI RETURNDATASIZE PUSH1 0x0 DUP1 RETURNDATACOPY RETURNDATASIZE PUSH1 0x0 REVERT JUMPDEST POP POP POP POP PUSH1 0x40 MLOAD RETURNDATASIZE PUSH1 0x1F NOT PUSH1 0x1F DUP3 ADD AND DUP3 ADD DUP1 PUSH1 0x40 MSTORE POP DUP2 ADD SWAP1 PUSH2 0x9ED SWAP2 SWAP1 PUSH2 0x183C JUMP JUMPDEST SWAP1 POP JUMPDEST PUSH1 0x0 DUP6 PUSH1 0x20 ADD MLOAD DUP1 PUSH1 0x20 ADD SWAP1 MLOAD DUP2 ADD SWAP1 PUSH2 0xA0A SWAP2 SWAP1 PUSH2 0x1950 JUMP JUMPDEST POP POP POP POP SWAP1 POP DUP1 PUSH20 0xFFFFFFFFFFFFFFFFFFFFFFFFFFFFFFFFFFFFFFFF AND DUP6 PUSH8 0xFFFFFFFFFFFFFFFF AND DUP4 PUSH32 0xBB84DF71A0E51D82FF2E818A77257C7A05D8EA1BBCF265B377FD30D8E9E79021 ADDRESS DUP8 PUSH1 0x40 MLOAD PUSH2 0xA64 SWAP3 SWAP2 SWAP1 PUSH2 0x19E7 JUMP JUMPDEST PUSH1 0x40 MLOAD DUP1 SWAP2 SUB SWAP1 LOG4 DUP2 SWAP4 POP POP POP POP SWAP3 SWAP2 POP POP JUMP JUMPDEST PUSH1 0x0 DUP1 PUSH1 0x0 SWAP1 SLOAD SWAP1 PUSH2 0x100 EXP SWAP1 DIV PUSH20 0xFFFFFFFFFFFFFFFFFFFFFFFFFFFFFFFFFFFFFFFF AND SWAP1 POP DUP2 PUSH1 0x0 DUP1 PUSH2 0x100 EXP DUP2 SLOAD DUP2 PUSH20 0xFFFFFFFFFFFFFFFFFFFFFFFFFFFFFFFFFFFFFFFF MUL NOT AND SWAP1 DUP4 PUSH20 0xFFFFFFFFFFFFFFFFFFFFFFFFFFFFFFFFFFFFFFFF AND MUL OR SWAP1 SSTORE POP DUP2 PUSH20 0xFFFFFFFFFFFFFFFFFFFFFFFFFFFFFFFFFFFFFFFF AND DUP2 PUSH20 0xFFFFFFFFFFFFFFFFFFFFFFFFFFFFFFFFFFFFFFFF AND PUSH32 0x8BE0079C531659141344CD1FD0A4F28419497F9722A3DAAFE3B4186F6B6457E0 PUSH1 0x40 MLOAD PUSH1 0x40 MLOAD DUP1 SWAP2 SUB SWAP1 LOG3 POP POP JUMP JUMPDEST PUSH1 0x0 CALLER SWAP1 POP SWAP1 JUMP JUMPDEST PUSH1 0x0 PUSH1 0x40 MLOAD SWAP1 POP SWAP1 JUMP JUMPDEST PUSH1 0x0 DUP1 REVERT JUMPDEST PUSH1 0x0 DUP1 REVERT JUMPDEST PUSH1 0x0 PUSH20 0xFFFFFFFFFFFFFFFFFFFFFFFFFFFFFFFFFFFFFFFF DUP3 AND SWAP1 POP SWAP2 SWAP1 POP JUMP JUMPDEST PUSH1 0x0 PUSH2 0xB83 DUP3 PUSH2 0xB58 JUMP JUMPDEST SWAP1 POP SWAP2 SWAP1 POP JUMP JUMPDEST PUSH2 0xB93 DUP2 PUSH2 0xB78 JUMP JUMPDEST DUP2 EQ PUSH2 0xB9E JUMPI PUSH1 0x0 DUP1 REVERT JUMPDEST POP JUMP JUMPDEST PUSH1 0x0 DUP2 CALLDATALOAD SWAP1 POP PUSH2 0xBB0 DUP2 PUSH2 0xB8A JUMP JUMPDEST SWAP3 SWAP2 POP POP JUMP JUMPDEST PUSH1 0x0 DUP2 SWAP1 POP SWAP2 SWAP1 POP JUMP JUMPDEST PUSH2 0xBC9 DUP2 PUSH2 0xBB6 JUMP JUMPDEST DUP2 EQ PUSH2 0xBD4 JUMPI PUSH1 0x0 DUP1 REVERT JUMPDEST POP JUMP JUMPDEST PUSH1 0x0 DUP2 CALLDATALOAD SWAP1 POP PUSH2 0xBE6 DUP2 PUSH2 0xBC0 JUMP JUMPDEST SWAP3 SWAP2 POP POP JUMP JUMPDEST PUSH1 0x0 DUP1 PUSH1 0x0 PUSH1 0x60 DUP5 DUP7 SUB SLT ISZERO PUSH2 0xC05 JUMPI PUSH2 0xC04 PUSH2 0xB4E JUMP JUMPDEST JUMPDEST PUSH1 0x0 PUSH2 0xC13 DUP7 DUP3 DUP8 ADD PUSH2 0xBA1 JUMP JUMPDEST SWAP4 POP POP PUSH1 0x20 PUSH2 0xC24 DUP7 DUP3 DUP8 ADD PUSH2 0xBA1 JUMP JUMPDEST SWAP3 POP POP PUSH1 0x40 PUSH2 0xC35 DUP7 DUP3 DUP8 ADD PUSH2 0xBD7 JUMP JUMPDEST SWAP2 POP POP SWAP3 POP SWAP3 POP SWAP3 JUMP JUMPDEST PUSH1 0x0 DUP1 REVERT JUMPDEST PUSH1 0x0 PUSH1 0x1F NOT PUSH1 0x1F DUP4 ADD AND SWAP1 POP SWAP2 SWAP1 POP JUMP JUMPDEST PUSH32 0x4E487B7100000000000000000000000000000000000000000000000000000000 PUSH1 0x0 MSTORE PUSH1 0x41 PUSH1 0x4 MSTORE PUSH1 0x24 PUSH1 0x0 REVERT JUMPDEST PUSH2 0xC8D DUP3 PUSH2 0xC44 JUMP JUMPDEST DUP2 ADD DUP2 DUP2 LT PUSH8 0xFFFFFFFFFFFFFFFF DUP3 GT OR ISZERO PUSH2 0xCAC JUMPI PUSH2 0xCAB PUSH2 0xC55 JUMP JUMPDEST JUMPDEST DUP1 PUSH1 0x40 MSTORE POP POP POP JUMP JUMPDEST PUSH1 0x0 PUSH2 0xCBF PUSH2 0xB44 JUMP JUMPDEST SWAP1 POP PUSH2 0xCCB DUP3 DUP3 PUSH2 0xC84 JUMP JUMPDEST SWAP2 SWAP1 POP JUMP JUMPDEST PUSH1 0x0 PUSH8 0xFFFFFFFFFFFFFFFF DUP3 GT ISZERO PUSH2 0xCEB JUMPI PUSH2 0xCEA PUSH2 0xC55 JUMP JUMPDEST JUMPDEST PUSH1 0x20 DUP3 MUL SWAP1 POP PUSH1 0x20 DUP2 ADD SWAP1 POP SWAP2 SWAP1 POP JUMP JUMPDEST PUSH1 0x0 DUP1 REVERT JUMPDEST PUSH1 0x0 DUP1 REVERT JUMPDEST PUSH1 0x0 DUP1 REVERT JUMPDEST PUSH1 0x0 DUP1 REVERT JUMPDEST PUSH1 0x0 PUSH8 0xFFFFFFFFFFFFFFFF DUP3 GT ISZERO PUSH2 0xD2B JUMPI PUSH2 0xD2A PUSH2 0xC55 JUMP JUMPDEST JUMPDEST PUSH2 0xD34 DUP3 PUSH2 0xC44 JUMP JUMPDEST SWAP1 POP PUSH1 0x20 DUP2 ADD SWAP1 POP SWAP2 SWAP1 POP JUMP JUMPDEST DUP3 DUP2 DUP4 CALLDATACOPY PUSH1 0x0 DUP4 DUP4 ADD MSTORE POP POP POP JUMP JUMPDEST PUSH1 0x0 PUSH2 0xD63 PUSH2 0xD5E DUP5 PUSH2 0xD10 JUMP JUMPDEST PUSH2 0xCB5 JUMP JUMPDEST SWAP1 POP DUP3 DUP2 MSTORE PUSH1 0x20 DUP2 ADD DUP5 DUP5 DUP5 ADD GT ISZERO PUSH2 0xD7F JUMPI PUSH2 0xD7E PUSH2 0xD0B JUMP JUMPDEST JUMPDEST PUSH2 0xD8A DUP5 DUP3 DUP6 PUSH2 0xD41 JUMP JUMPDEST POP SWAP4 SWAP3 POP POP POP JUMP JUMPDEST PUSH1 0x0 DUP3 PUSH1 0x1F DUP4 ADD SLT PUSH2 0xDA7 JUMPI PUSH2 0xDA6 PUSH2 0xC3F JUMP JUMPDEST JUMPDEST DUP2 CALLDATALOAD PUSH2 0xDB7 DUP5 DUP3 PUSH1 0x20 DUP7 ADD PUSH2 0xD50 JUMP JUMPDEST SWAP2 POP POP SWAP3 SWAP2 POP POP JUMP JUMPDEST PUSH1 0x0 PUSH8 0xFFFFFFFFFFFFFFFF DUP3 GT ISZERO PUSH2 0xDDB JUMPI PUSH2 0xDDA PUSH2 0xC55 JUMP JUMPDEST JUMPDEST PUSH1 0x20 DUP3 MUL SWAP1 POP PUSH1 0x20 DUP2 ADD SWAP1 POP SWAP2 SWAP1 POP JUMP JUMPDEST PUSH1 0x0 PUSH1 0x40 DUP3 DUP5 SUB SLT ISZERO PUSH2 0xE02 JUMPI PUSH2 0xE01 PUSH2 0xD01 JUMP JUMPDEST JUMPDEST PUSH2 0xE0C PUSH1 0x40 PUSH2 0xCB5 JUMP JUMPDEST SWAP1 POP PUSH1 0x0 PUSH2 0xE1C DUP5 DUP3 DUP6 ADD PUSH2 0xBA1 JUMP JUMPDEST PUSH1 0x0 DUP4 ADD MSTORE POP PUSH1 0x20 PUSH2 0xE30 DUP5 DUP3 DUP6 ADD PUSH2 0xBD7 JUMP JUMPDEST PUSH1 0x20 DUP4 ADD MSTORE POP SWAP3 SWAP2 POP POP JUMP JUMPDEST PUSH1 0x0 PUSH2 0xE4F PUSH2 0xE4A DUP5 PUSH2 0xDC0 JUMP JUMPDEST PUSH2 0xCB5 JUMP JUMPDEST SWAP1 POP DUP1 DUP4 DUP3 MSTORE PUSH1 0x20 DUP3 ADD SWAP1 POP PUSH1 0x40 DUP5 MUL DUP4 ADD DUP6 DUP2 GT ISZERO PUSH2 0xE72 JUMPI PUSH2 0xE71 PUSH2 0xCFC JUMP JUMPDEST JUMPDEST DUP4 JUMPDEST DUP2 DUP2 LT ISZERO PUSH2 0xE9B JUMPI DUP1 PUSH2 0xE87 DUP9 DUP3 PUSH2 0xDEC JUMP JUMPDEST DUP5 MSTORE PUSH1 0x20 DUP5 ADD SWAP4 POP POP PUSH1 0x40 DUP2 ADD SWAP1 POP PUSH2 0xE74 JUMP JUMPDEST POP POP POP SWAP4 SWAP3 POP POP POP JUMP JUMPDEST PUSH1 0x0 DUP3 PUSH1 0x1F DUP4 ADD SLT PUSH2 0xEBA JUMPI PUSH2 0xEB9 PUSH2 0xC3F JUMP JUMPDEST JUMPDEST DUP2 CALLDATALOAD PUSH2 0xECA DUP5 DUP3 PUSH1 0x20 DUP7 ADD PUSH2 0xE3C JUMP JUMPDEST SWAP2 POP POP SWAP3 SWAP2 POP POP JUMP JUMPDEST PUSH1 0x0 PUSH1 0xA0 DUP3 DUP5 SUB SLT ISZERO PUSH2 0xEE9 JUMPI PUSH2 0xEE8 PUSH2 0xD01 JUMP JUMPDEST JUMPDEST PUSH2 0xEF3 PUSH1 0xA0 PUSH2 0xCB5 JUMP JUMPDEST SWAP1 POP PUSH1 0x0 DUP3 ADD CALLDATALOAD PUSH8 0xFFFFFFFFFFFFFFFF DUP2 GT ISZERO PUSH2 0xF13 JUMPI PUSH2 0xF12 PUSH2 0xD06 JUMP JUMPDEST JUMPDEST PUSH2 0xF1F DUP5 DUP3 DUP6 ADD PUSH2 0xD92 JUMP JUMPDEST PUSH1 0x0 DUP4 ADD MSTORE POP PUSH1 0x20 DUP3 ADD CALLDATALOAD PUSH8 0xFFFFFFFFFFFFFFFF DUP2 GT ISZERO PUSH2 0xF43 JUMPI PUSH2 0xF42 PUSH2 0xD06 JUMP JUMPDEST JUMPDEST PUSH2 0xF4F DUP5 DUP3 DUP6 ADD PUSH2 0xD92 JUMP JUMPDEST PUSH1 0x20 DUP4 ADD MSTORE POP PUSH1 0x40 DUP3 ADD CALLDATALOAD PUSH8 0xFFFFFFFFFFFFFFFF DUP2 GT ISZERO PUSH2 0xF73 JUMPI PUSH2 0xF72 PUSH2 0xD06 JUMP JUMPDEST JUMPDEST PUSH2 0xF7F DUP5 DUP3 DUP6 ADD PUSH2 0xEA5 JUMP JUMPDEST PUSH1 0x40 DUP4 ADD MSTORE POP PUSH1 0x60 PUSH2 0xF93 DUP5 DUP3 DUP6 ADD PUSH2 0xBA1 JUMP JUMPDEST PUSH1 0x60 DUP4 ADD MSTORE POP PUSH1 0x80 DUP3 ADD CALLDATALOAD PUSH8 0xFFFFFFFFFFFFFFFF DUP2 GT ISZERO PUSH2 0xFB7 JUMPI PUSH2 0xFB6 PUSH2 0xD06 JUMP JUMPDEST JUMPDEST PUSH2 0xFC3 DUP5 DUP3 DUP6 ADD PUSH2 0xD92 JUMP JUMPDEST PUSH1 0x80 DUP4 ADD MSTORE POP SWAP3 SWAP2 POP POP JUMP JUMPDEST PUSH1 0x0 PUSH2 0xFE2 PUSH2 0xFDD DUP5 PUSH2 0xCD0 JUMP JUMPDEST PUSH2 0xCB5 JUMP JUMPDEST SWAP1 POP DUP1 DUP4 DUP3 MSTORE PUSH1 0x20 DUP3 ADD SWAP1 POP PUSH1 0x20 DUP5 MUL DUP4 ADD DUP6 DUP2 GT ISZERO PUSH2 0x1005 JUMPI PUSH2 0x1004 PUSH2 0xCFC JUMP JUMPDEST JUMPDEST DUP4 JUMPDEST DUP2 DUP2 LT ISZERO PUSH2 0x104C JUMPI DUP1 CALLDATALOAD PUSH8 0xFFFFFFFFFFFFFFFF DUP2 GT ISZERO PUSH2 0x102A JUMPI PUSH2 0x1029 PUSH2 0xC3F JUMP JUMPDEST JUMPDEST DUP1 DUP7 ADD PUSH2 0x1037 DUP10 DUP3 PUSH2 0xED3 JUMP JUMPDEST DUP6 MSTORE PUSH1 0x20 DUP6 ADD SWAP5 POP POP POP PUSH1 0x20 DUP2 ADD SWAP1 POP PUSH2 0x1007 JUMP JUMPDEST POP POP POP SWAP4 SWAP3 POP POP POP JUMP JUMPDEST PUSH1 0x0 DUP3 PUSH1 0x1F DUP4 ADD SLT PUSH2 0x106B JUMPI PUSH2 0x106A PUSH2 0xC3F JUMP JUMPDEST JUMPDEST DUP2 CALLDATALOAD PUSH2 0x107B DUP5 DUP3 PUSH1 0x20 DUP7 ADD PUSH2 0xFCF JUMP JUMPDEST SWAP2 POP POP SWAP3 SWAP2 POP POP JUMP JUMPDEST PUSH1 0x0 PUSH8 0xFFFFFFFFFFFFFFFF DUP3 GT ISZERO PUSH2 0x109F JUMPI PUSH2 0x109E PUSH2 0xC55 JUMP JUMPDEST JUMPDEST PUSH1 0x20 DUP3 MUL SWAP1 POP PUSH1 0x20 DUP2 ADD SWAP1 POP SWAP2 SWAP1 POP JUMP JUMPDEST PUSH1 0x0 PUSH8 0xFFFFFFFFFFFFFFFF DUP3 AND SWAP1 POP SWAP2 SWAP1 POP JUMP JUMPDEST PUSH2 0x10CD DUP2 PUSH2 0x10B0 JUMP JUMPDEST DUP2 EQ PUSH2 0x10D8 JUMPI PUSH1 0x0 DUP1 REVERT JUMPDEST POP JUMP JUMPDEST PUSH1 0x0 DUP2 CALLDATALOAD SWAP1 POP PUSH2 0x10EA DUP2 PUSH2 0x10C4 JUMP JUMPDEST SWAP3 SWAP2 POP POP JUMP JUMPDEST PUSH1 0x0 PUSH2 0x1103 PUSH2 0x10FE DUP5 PUSH2 0x1084 JUMP JUMPDEST PUSH2 0xCB5 JUMP JUMPDEST SWAP1 POP DUP1 DUP4 DUP3 MSTORE PUSH1 0x20 DUP3 ADD SWAP1 POP PUSH1 0x20 DUP5 MUL DUP4 ADD DUP6 DUP2 GT ISZERO PUSH2 0x1126 JUMPI PUSH2 0x1125 PUSH2 0xCFC JUMP JUMPDEST JUMPDEST DUP4 JUMPDEST DUP2 DUP2 LT ISZERO PUSH2 0x114F JUMPI DUP1 PUSH2 0x113B DUP9 DUP3 PUSH2 0x10DB JUMP JUMPDEST DUP5 MSTORE PUSH1 0x20 DUP5 ADD SWAP4 POP POP PUSH1 0x20 DUP2 ADD SWAP1 POP PUSH2 0x1128 JUMP JUMPDEST POP POP POP SWAP4 SWAP3 POP POP POP JUMP JUMPDEST PUSH1 0x0 DUP3 PUSH1 0x1F DUP4 ADD SLT PUSH2 0x116E JUMPI PUSH2 0x116D PUSH2 0xC3F JUMP JUMPDEST JUMPDEST DUP2 CALLDATALOAD PUSH2 0x117E DUP5 DUP3 PUSH1 0x20 DUP7 ADD PUSH2 0x10F0 JUMP JUMPDEST SWAP2 POP POP SWAP3 SWAP2 POP POP JUMP JUMPDEST PUSH1 0x0 DUP1 PUSH1 0x40 DUP4 DUP6 SUB SLT ISZERO PUSH2 0x119E JUMPI PUSH2 0x119D PUSH2 0xB4E JUMP JUMPDEST JUMPDEST PUSH1 0x0 DUP4 ADD CALLDATALOAD PUSH8 0xFFFFFFFFFFFFFFFF DUP2 GT ISZERO PUSH2 0x11BC JUMPI PUSH2 0x11BB PUSH2 0xB53 JUMP JUMPDEST JUMPDEST PUSH2 0x11C8 DUP6 DUP3 DUP7 ADD PUSH2 0x1056 JUMP JUMPDEST SWAP3 POP POP PUSH1 0x20 DUP4 ADD CALLDATALOAD PUSH8 0xFFFFFFFFFFFFFFFF DUP2 GT ISZERO PUSH2 0x11E9 JUMPI PUSH2 0x11E8 PUSH2 0xB53 JUMP JUMPDEST JUMPDEST PUSH2 0x11F5 DUP6 DUP3 DUP7 ADD PUSH2 0x1159 JUMP JUMPDEST SWAP2 POP POP SWAP3 POP SWAP3 SWAP1 POP JUMP JUMPDEST PUSH1 0x0 DUP2 MLOAD SWAP1 POP SWAP2 SWAP1 POP JUMP JUMPDEST PUSH1 0x0 DUP3 DUP3 MSTORE PUSH1 0x20 DUP3 ADD SWAP1 POP SWAP3 SWAP2 POP POP JUMP JUMPDEST PUSH1 0x0 DUP2 SWAP1 POP PUSH1 0x20 DUP3 ADD SWAP1 POP SWAP2 SWAP1 POP JUMP JUMPDEST PUSH1 0x0 DUP2 SWAP1 POP SWAP2 SWAP1 POP JUMP JUMPDEST PUSH2 0x123E DUP2 PUSH2 0x122B JUMP JUMPDEST DUP3 MSTORE POP POP JUMP JUMPDEST PUSH1 0x0 PUSH2 0x1250 DUP4 DUP4 PUSH2 0x1235 JUMP JUMPDEST PUSH1 0x20 DUP4 ADD SWAP1 POP SWAP3 SWAP2 POP POP JUMP JUMPDEST PUSH1 0x0 PUSH1 0x20 DUP3 ADD SWAP1 POP SWAP2 SWAP1 POP JUMP JUMPDEST PUSH1 0x0 PUSH2 0x1274 DUP3 PUSH2 0x11FF JUMP JUMPDEST PUSH2 0x127E DUP2 DUP6 PUSH2 0x120A JUMP JUMPDEST SWAP4 POP PUSH2 0x1289 DUP4 PUSH2 0x121B JUMP JUMPDEST DUP1 PUSH1 0x0 JUMPDEST DUP4 DUP2 LT ISZERO PUSH2 0x12BA JUMPI DUP2 MLOAD PUSH2 0x12A1 DUP9 DUP3 PUSH2 0x1244 JUMP JUMPDEST SWAP8 POP PUSH2 0x12AC DUP4 PUSH2 0x125C JUMP JUMPDEST SWAP3 POP POP PUSH1 0x1 DUP2 ADD SWAP1 POP PUSH2 0x128D JUMP JUMPDEST POP DUP6 SWAP4 POP POP POP POP SWAP3 SWAP2 POP POP JUMP JUMPDEST PUSH1 0x0 PUSH1 0x20 DUP3 ADD SWAP1 POP DUP2 DUP2 SUB PUSH1 0x0 DUP4 ADD MSTORE PUSH2 0x12E1 DUP2 DUP5 PUSH2 0x1269 JUMP JUMPDEST SWAP1 POP SWAP3 SWAP2 POP POP JUMP JUMPDEST PUSH2 0x12F2 DUP2 PUSH2 0xB78 JUMP JUMPDEST DUP3 MSTORE POP POP JUMP JUMPDEST PUSH1 0x0 PUSH1 0x20 DUP3 ADD SWAP1 POP PUSH2 0x130D PUSH1 0x0 DUP4 ADD DUP5 PUSH2 0x12E9 JUMP JUMPDEST SWAP3 SWAP2 POP POP JUMP JUMPDEST PUSH1 0x0 PUSH1 0x20 DUP3 DUP5 SUB SLT ISZERO PUSH2 0x1329 JUMPI PUSH2 0x1328 PUSH2 0xB4E JUMP JUMPDEST JUMPDEST PUSH1 0x0 PUSH2 0x1337 DUP5 DUP3 DUP6 ADD PUSH2 0x10DB JUMP JUMPDEST SWAP2 POP POP SWAP3 SWAP2 POP POP JUMP JUMPDEST PUSH1 0x0 DUP2 ISZERO ISZERO SWAP1 POP SWAP2 SWAP1 POP JUMP JUMPDEST PUSH2 0x1355 DUP2 PUSH2 0x1340 JUMP JUMPDEST DUP3 MSTORE POP POP JUMP JUMPDEST PUSH1 0x0 PUSH1 0x20 DUP3 ADD SWAP1 POP PUSH2 0x1370 PUSH1 0x0 DUP4 ADD DUP5 PUSH2 0x134C JUMP JUMPDEST SWAP3 SWAP2 POP POP JUMP JUMPDEST PUSH1 0x0 PUSH1 0x20 DUP3 DUP5 SUB SLT ISZERO PUSH2 0x138C JUMPI PUSH2 0x138B PUSH2 0xB4E JUMP JUMPDEST JUMPDEST PUSH1 0x0 PUSH2 0x139A DUP5 DUP3 DUP6 ADD PUSH2 0xBA1 JUMP JUMPDEST SWAP2 POP POP SWAP3 SWAP2 POP POP JUMP JUMPDEST PUSH1 0x0 DUP1 PUSH1 0x40 DUP4 DUP6 SUB SLT ISZERO PUSH2 0x13BA JUMPI PUSH2 0x13B9 PUSH2 0xB4E JUMP JUMPDEST JUMPDEST PUSH1 0x0 PUSH2 0x13C8 DUP6 DUP3 DUP7 ADD PUSH2 0xBA1 JUMP JUMPDEST SWAP3 POP POP PUSH1 0x20 PUSH2 0x13D9 DUP6 DUP3 DUP7 ADD PUSH2 0xBD7 JUMP JUMPDEST SWAP2 POP POP SWAP3 POP SWAP3 SWAP1 POP JUMP JUMPDEST PUSH32 0x4E487B7100000000000000000000000000000000000000000000000000000000 PUSH1 0x0 MSTORE PUSH1 0x32 PUSH1 0x4 MSTORE PUSH1 0x24 PUSH1 0x0 REVERT JUMPDEST PUSH32 0x4E487B7100000000000000000000000000000000000000000000000000000000 PUSH1 0x0 MSTORE PUSH1 0x11 PUSH1 0x4 MSTORE PUSH1 0x24 PUSH1 0x0 REVERT JUMPDEST PUSH1 0x0 PUSH2 0x144C DUP3 PUSH2 0xBB6 JUMP JUMPDEST SWAP2 POP PUSH32 0xFFFFFFFFFFFFFFFFFFFFFFFFFFFFFFFFFFFFFFFFFFFFFFFFFFFFFFFFFFFFFFFF DUP3 SUB PUSH2 0x147E JUMPI PUSH2 0x147D PUSH2 0x1412 JUMP JUMPDEST JUMPDEST PUSH1 0x1 DUP3 ADD SWAP1 POP SWAP2 SWAP1 POP JUMP JUMPDEST PUSH2 0x1492 DUP2 PUSH2 0x10B0 JUMP JUMPDEST DUP3 MSTORE POP POP JUMP JUMPDEST PUSH1 0x0 PUSH1 0x20 DUP3 ADD SWAP1 POP PUSH2 0x14AD PUSH1 0x0 DUP4 ADD DUP5 PUSH2 0x1489 JUMP JUMPDEST SWAP3 SWAP2 POP POP JUMP JUMPDEST PUSH2 0x14BC DUP2 PUSH2 0x1340 JUMP JUMPDEST DUP2 EQ PUSH2 0x14C7 JUMPI PUSH1 0x0 DUP1 REVERT JUMPDEST POP JUMP JUMPDEST PUSH1 0x0 DUP2 MLOAD SWAP1 POP PUSH2 0x14D9 DUP2 PUSH2 0x14B3 JUMP JUMPDEST SWAP3 SWAP2 POP POP JUMP JUMPDEST PUSH1 0x0 PUSH1 0x20 DUP3 DUP5 SUB SLT ISZERO PUSH2 0x14F5 JUMPI PUSH2 0x14F4 PUSH2 0xB4E JUMP JUMPDEST JUMPDEST PUSH1 0x0 PUSH2 0x1503 DUP5 DUP3 DUP6 ADD PUSH2 0x14CA JUMP JUMPDEST SWAP2 POP POP SWAP3 SWAP2 POP POP JUMP JUMPDEST PUSH1 0x0 DUP2 SWAP1 POP SWAP3 SWAP2 POP POP JUMP JUMPDEST POP JUMP JUMPDEST PUSH1 0x0 PUSH2 0x1527 PUSH1 0x0 DUP4 PUSH2 0x150C JUMP JUMPDEST SWAP2 POP PUSH2 0x1532 DUP3 PUSH2 0x1517 JUMP JUMPDEST PUSH1 0x0 DUP3 ADD SWAP1 POP SWAP2 SWAP1 POP JUMP JUMPDEST PUSH1 0x0 PUSH2 0x1548 DUP3 PUSH2 0x151A JUMP JUMPDEST SWAP2 POP DUP2 SWAP1 POP SWAP2 SWAP1 POP JUMP JUMPDEST PUSH2 0x155B DUP2 PUSH2 0xBB6 JUMP JUMPDEST DUP3 MSTORE POP POP JUMP JUMPDEST PUSH1 0x0 PUSH1 0x60 DUP3 ADD SWAP1 POP PUSH2 0x1576 PUSH1 0x0 DUP4 ADD DUP7 PUSH2 0x12E9 JUMP JUMPDEST PUSH2 0x1583 PUSH1 0x20 DUP4 ADD DUP6 PUSH2 0x12E9 JUMP JUMPDEST PUSH2 0x1590 PUSH1 0x40 DUP4 ADD DUP5 PUSH2 0x1552 JUMP JUMPDEST SWAP5 SWAP4 POP POP POP POP JUMP JUMPDEST PUSH1 0x0 DUP2 MLOAD SWAP1 POP SWAP2 SWAP1 POP JUMP JUMPDEST PUSH1 0x0 DUP3 DUP3 MSTORE PUSH1 0x20 DUP3 ADD SWAP1 POP SWAP3 SWAP2 POP POP JUMP JUMPDEST PUSH1 0x0 JUMPDEST DUP4 DUP2 LT ISZERO PUSH2 0x15D2 JUMPI DUP1 DUP3 ADD MLOAD DUP2 DUP5 ADD MSTORE PUSH1 0x20 DUP2 ADD SWAP1 POP PUSH2 0x15B7 JUMP JUMPDEST PUSH1 0x0 DUP5 DUP5 ADD MSTORE POP POP POP POP JUMP JUMPDEST PUSH1 0x0 PUSH2 0x15E9 DUP3 PUSH2 0x1598 JUMP JUMPDEST PUSH2 0x15F3 DUP2 DUP6 PUSH2 0x15A3 JUMP JUMPDEST SWAP4 POP PUSH2 0x1603 DUP2 DUP6 PUSH1 0x20 DUP7 ADD PUSH2 0x15B4 JUMP JUMPDEST PUSH2 0x160C DUP2 PUSH2 0xC44 JUMP JUMPDEST DUP5 ADD SWAP2 POP POP SWAP3 SWAP2 POP POP JUMP JUMPDEST PUSH1 0x0 DUP2 MLOAD SWAP1 POP SWAP2 SWAP1 POP JUMP JUMPDEST PUSH1 0x0 DUP3 DUP3 MSTORE PUSH1 0x20 DUP3 ADD SWAP1 POP SWAP3 SWAP2 POP POP JUMP JUMPDEST PUSH1 0x0 DUP2 SWAP1 POP PUSH1 0x20 DUP3 ADD SWAP1 POP SWAP2 SWAP1 POP JUMP JUMPDEST PUSH2 0x164C DUP2 PUSH2 0xB78 JUMP JUMPDEST DUP3 MSTORE POP POP JUMP JUMPDEST PUSH2 0x165B DUP2 PUSH2 0xBB6 JUMP JUMPDEST DUP3 MSTORE POP POP JUMP JUMPDEST PUSH1 0x40 DUP3 ADD PUSH1 0x0 DUP3 ADD MLOAD PUSH2 0x1677 PUSH1 0x0 DUP6 ADD DUP3 PUSH2 0x1643 JUMP JUMPDEST POP PUSH1 0x20 DUP3 ADD MLOAD PUSH2 0x168A PUSH1 0x20 DUP6 ADD DUP3 PUSH2 0x1652 JUMP JUMPDEST POP POP POP POP JUMP JUMPDEST PUSH1 0x0 PUSH2 0x169C DUP4 DUP4 PUSH2 0x1661 JUMP JUMPDEST PUSH1 0x40 DUP4 ADD SWAP1 POP SWAP3 SWAP2 POP POP JUMP JUMPDEST PUSH1 0x0 PUSH1 0x20 DUP3 ADD SWAP1 POP SWAP2 SWAP1 POP JUMP JUMPDEST PUSH1 0x0 PUSH2 0x16C0 DUP3 PUSH2 0x1617 JUMP JUMPDEST PUSH2 0x16CA DUP2 DUP6 PUSH2 0x1622 JUMP JUMPDEST SWAP4 POP PUSH2 0x16D5 DUP4 PUSH2 0x1633 JUMP JUMPDEST DUP1 PUSH1 0x0 JUMPDEST DUP4 DUP2 LT ISZERO PUSH2 0x1706 JUMPI DUP2 MLOAD PUSH2 0x16ED DUP9 DUP3 PUSH2 0x1690 JUMP JUMPDEST SWAP8 POP PUSH2 0x16F8 DUP4 PUSH2 0x16A8 JUMP JUMPDEST SWAP3 POP POP PUSH1 0x1 DUP2 ADD SWAP1 POP PUSH2 0x16D9 JUMP JUMPDEST POP DUP6 SWAP4 POP POP POP POP SWAP3 SWAP2 POP POP JUMP JUMPDEST PUSH1 0x0 PUSH1 0xA0 DUP4 ADD PUSH1 0x0 DUP4 ADD MLOAD DUP5 DUP3 SUB PUSH1 0x0 DUP7 ADD MSTORE PUSH2 0x1730 DUP3 DUP3 PUSH2 0x15DE JUMP JUMPDEST SWAP2 POP POP PUSH1 0x20 DUP4 ADD MLOAD DUP5 DUP3 SUB PUSH1 0x20 DUP7 ADD MSTORE PUSH2 0x174A DUP3 DUP3 PUSH2 0x15DE JUMP JUMPDEST SWAP2 POP POP PUSH1 0x40 DUP4 ADD MLOAD DUP5 DUP3 SUB PUSH1 0x40 DUP7 ADD MSTORE PUSH2 0x1764 DUP3 DUP3 PUSH2 0x16B5 JUMP JUMPDEST SWAP2 POP POP PUSH1 0x60 DUP4 ADD MLOAD PUSH2 0x1779 PUSH1 0x60 DUP7 ADD DUP3 PUSH2 0x1643 JUMP JUMPDEST POP PUSH1 0x80 DUP4 ADD MLOAD DUP5 DUP3 SUB PUSH1 0x80 DUP7 ADD MSTORE PUSH2 0x1791 DUP3 DUP3 PUSH2 0x15DE JUMP JUMPDEST SWAP2 POP POP DUP1 SWAP2 POP POP SWAP3 SWAP2 POP POP JUMP JUMPDEST PUSH1 0x0 PUSH1 0x40 DUP3 ADD SWAP1 POP PUSH2 0x17B3 PUSH1 0x0 DUP4 ADD DUP6 PUSH2 0x1489 JUMP JUMPDEST DUP2 DUP2 SUB PUSH1 0x20 DUP4 ADD MSTORE PUSH2 0x17C5 DUP2 DUP5 PUSH2 0x1713 JUMP JUMPDEST SWAP1 POP SWAP4 SWAP3 POP POP POP JUMP JUMPDEST PUSH1 0x0 DUP2 MLOAD SWAP1 POP PUSH2 0x17DD DUP2 PUSH2 0xBC0 JUMP JUMPDEST SWAP3 SWAP2 POP POP JUMP JUMPDEST PUSH1 0x0 PUSH1 0x20 DUP3 DUP5 SUB SLT ISZERO PUSH2 0x17F9 JUMPI PUSH2 0x17F8 PUSH2 0xB4E JUMP JUMPDEST JUMPDEST PUSH1 0x0 PUSH2 0x1807 DUP5 DUP3 DUP6 ADD PUSH2 0x17CE JUMP JUMPDEST SWAP2 POP POP SWAP3 SWAP2 POP POP JUMP JUMPDEST PUSH2 0x1819 DUP2 PUSH2 0x122B JUMP JUMPDEST DUP2 EQ PUSH2 0x1824 JUMPI PUSH1 0x0 DUP1 REVERT JUMPDEST POP JUMP JUMPDEST PUSH1 0x0 DUP2 MLOAD SWAP1 POP PUSH2 0x1836 DUP2 PUSH2 0x1810 JUMP JUMPDEST SWAP3 SWAP2 POP POP JUMP JUMPDEST PUSH1 0x0 PUSH1 0x20 DUP3 DUP5 SUB SLT ISZERO PUSH2 0x1852 JUMPI PUSH2 0x1851 PUSH2 0xB4E JUMP JUMPDEST JUMPDEST PUSH1 0x0 PUSH2 0x1860 DUP5 DUP3 DUP6 ADD PUSH2 0x1827 JUMP JUMPDEST SWAP2 POP POP SWAP3 SWAP2 POP POP JUMP JUMPDEST PUSH1 0x0 PUSH2 0x1874 DUP3 PUSH2 0xB58 JUMP JUMPDEST SWAP1 POP SWAP2 SWAP1 POP JUMP JUMPDEST PUSH2 0x1884 DUP2 PUSH2 0x1869 JUMP JUMPDEST DUP2 EQ PUSH2 0x188F JUMPI PUSH1 0x0 DUP1 REVERT JUMPDEST POP JUMP JUMPDEST PUSH1 0x0 DUP2 MLOAD SWAP1 POP PUSH2 0x18A1 DUP2 PUSH2 0x187B JUMP JUMPDEST SWAP3 SWAP2 POP POP JUMP JUMPDEST PUSH1 0x0 PUSH1 0xFF DUP3 AND SWAP1 POP SWAP2 SWAP1 POP JUMP JUMPDEST PUSH2 0x18BD DUP2 PUSH2 0x18A7 JUMP JUMPDEST DUP2 EQ PUSH2 0x18C8 JUMPI PUSH1 0x0 DUP1 REVERT JUMPDEST POP JUMP JUMPDEST PUSH1 0x0 DUP2 MLOAD SWAP1 POP PUSH2 0x18DA DUP2 PUSH2 0x18B4 JUMP JUMPDEST SWAP3 SWAP2 POP POP JUMP JUMPDEST PUSH1 0x0 PUSH2 0x18F3 PUSH2 0x18EE DUP5 PUSH2 0xD10 JUMP JUMPDEST PUSH2 0xCB5 JUMP JUMPDEST SWAP1 POP DUP3 DUP2 MSTORE PUSH1 0x20 DUP2 ADD DUP5 DUP5 DUP5 ADD GT ISZERO PUSH2 0x190F JUMPI PUSH2 0x190E PUSH2 0xD0B JUMP JUMPDEST JUMPDEST PUSH2 0x191A DUP5 DUP3 DUP6 PUSH2 0x15B4 JUMP JUMPDEST POP SWAP4 SWAP3 POP POP POP JUMP JUMPDEST PUSH1 0x0 DUP3 PUSH1 0x1F DUP4 ADD SLT PUSH2 0x1937 JUMPI PUSH2 0x1936 PUSH2 0xC3F JUMP JUMPDEST JUMPDEST DUP2 MLOAD PUSH2 0x1947 DUP5 DUP3 PUSH1 0x20 DUP7 ADD PUSH2 0x18E0 JUMP JUMPDEST SWAP2 POP POP SWAP3 SWAP2 POP POP JUMP JUMPDEST PUSH1 0x0 DUP1 PUSH1 0x0 DUP1 PUSH1 0x0 PUSH1 0xA0 DUP7 DUP9 SUB SLT ISZERO PUSH2 0x196C JUMPI PUSH2 0x196B PUSH2 0xB4E JUMP JUMPDEST JUMPDEST PUSH1 0x0 PUSH2 0x197A DUP9 DUP3 DUP10 ADD PUSH2 0x1892 JUMP JUMPDEST SWAP6 POP POP PUSH1 0x20 PUSH2 0x198B DUP9 DUP3 DUP10 ADD PUSH2 0x1892 JUMP JUMPDEST SWAP5 POP POP PUSH1 0x40 PUSH2 0x199C DUP9 DUP3 DUP10 ADD PUSH2 0x1892 JUMP JUMPDEST SWAP4 POP POP PUSH1 0x60 PUSH2 0x19AD DUP9 DUP3 DUP10 ADD PUSH2 0x18CB JUMP JUMPDEST SWAP3 POP POP PUSH1 0x80 DUP7 ADD MLOAD PUSH8 0xFFFFFFFFFFFFFFFF DUP2 GT ISZERO PUSH2 0x19CE JUMPI PUSH2 0x19CD PUSH2 0xB53 JUMP JUMPDEST JUMPDEST PUSH2 0x19DA DUP9 DUP3 DUP10 ADD PUSH2 0x1922 JUMP JUMPDEST SWAP2 POP POP SWAP3 SWAP6 POP SWAP3 SWAP6 SWAP1 SWAP4 POP JUMP JUMPDEST PUSH1 0x0 PUSH1 0x40 DUP3 ADD SWAP1 POP PUSH2 0x19FC PUSH1 0x0 DUP4 ADD DUP6 PUSH2 0x12E9 JUMP JUMPDEST PUSH2 0x1A09 PUSH1 0x20 DUP4 ADD DUP5 PUSH2 0x1552 JUMP JUMPDEST SWAP4 SWAP3 POP POP POP JUMP INVALID LOG2 PUSH5 0x6970667358 0x22 SLT KECCAK256 PUSH19 0x60749D28C6F63F821317490A82201992EBDD17 0xBC PUSH19 0xB5761627E9B20D1AE9B664736F6C6343000814 STOP CALLER "},"methodIdentifiers":{"WETH9()":"4aa4a4fc","borrow((address,address,uint256,uint8,bytes))":"95d992c3","ccipReceive((bytes32,uint64,bytes,bytes,(address,uint256)[]))":"85572ffb","close((address,address,uint256,uint8,bytes))":"5beeab33","executeOperation(address[],uint256[],uint256[],address,bytes)":"920f5c84","getRouter()":"b0f479a1","i_link()":"7d253aff","owner()":"8da5cb5b","propagator()":"79b29333","renounceOwnership()":"715018a6","supply((address,address,uint256,uint8,bytes))":"2e99f1e4","supportsInterface(bytes4)":"01ffc9a7","transferOwnership(address)":"f2fde38b","vault()":"fbfa77cf","withdraw((address,address,uint256,uint8,bytes))":"528e4e5f"}}}}}