{"contracts/Leverager.sol":{"Leverager":{"abi":[{"inputs":[],"name":"AlreadyInitialized","type":"error"},{"inputs":[],"name":"InvalidFlashloanCallbackSender","type":"error"},{"inputs":[{"internalType":"address","name":"initiator","type":"address"}],"name":"InvalidInitiator","type":"error"},{"inputs":[{"internalType":"address","name":"router","type":"address"}],"name":"InvalidRouter","type":"error"},{"inputs":[],"name":"LengthMismatch","type":"error"},{"inputs":[{"internalType":"uint256","name":"msgValue","type":"uint256"},{"internalType":"uint256","name":"amount","type":"uint256"}],"name":"MsgValueAmountDiff","type":"error"},{"inputs":[],"name":"ReentrancyLock","type":"error"},{"inputs":[{"internalType":"address","name":"sender","type":"address"}],"name":"SenderNotAllowlisted","type":"error"},{"anonymous":false,"inputs":[{"indexed":true,"internalType":"address","name":"user","type":"address"},{"indexed":false,"internalType":"uint256","name":"srcChainId","type":"uint256"},{"indexed":false,"internalType":"uint256","name":"dstChainId","type":"uint256"},{"indexed":false,"internalType":"uint256","name":"amount","type":"uint256"},{"indexed":false,"internalType":"uint256","name":"ltv","type":"uint256"}],"name":"Close","type":"event"},{"anonymous":false,"inputs":[{"indexed":true,"internalType":"address","name":"user","type":"address"},{"indexed":true,"internalType":"address","name":"token","type":"address"},{"indexed":false,"internalType":"uint256","name":"amount","type":"uint256"},{"indexed":false,"internalType":"uint256","name":"ltv","type":"uint256"}],"name":"Deleverage","type":"event"},{"anonymous":false,"inputs":[{"indexed":true,"internalType":"address","name":"user","type":"address"},{"indexed":true,"internalType":"address","name":"token","type":"address"},{"indexed":false,"internalType":"uint256","name":"amount","type":"uint256"},{"indexed":false,"internalType":"uint256","name":"ltv","type":"uint256"}],"name":"Leverage","type":"event"},{"anonymous":false,"inputs":[{"indexed":true,"internalType":"bytes32","name":"messageId","type":"bytes32"},{"indexed":true,"internalType":"uint64","name":"sourceChainSelector","type":"uint64"},{"indexed":false,"internalType":"address","name":"sender","type":"address"},{"indexed":false,"internalType":"string","name":"text","type":"string"}],"name":"MessageReceived","type":"event"},{"anonymous":false,"inputs":[{"indexed":true,"internalType":"address","name":"previousOwner","type":"address"},{"indexed":true,"internalType":"address","name":"newOwner","type":"address"}],"name":"OwnershipTransferred","type":"event"},{"anonymous":false,"inputs":[{"indexed":true,"internalType":"address","name":"user","type":"address"},{"indexed":true,"internalType":"address","name":"token","type":"address"},{"indexed":false,"internalType":"uint256","name":"amount","type":"uint256"}],"name":"Supply","type":"event"},{"anonymous":false,"inputs":[{"indexed":true,"internalType":"address","name":"user","type":"address"},{"indexed":true,"internalType":"address","name":"token","type":"address"},{"indexed":false,"internalType":"uint256","name":"amount","type":"uint256"}],"name":"Withdraw","type":"event"},{"inputs":[],"name":"WETH9","outputs":[{"internalType":"address","name":"","type":"address"}],"stateMutability":"view","type":"function"},{"inputs":[{"components":[{"internalType":"address","name":"asset","type":"address"},{"internalType":"address","name":"counterAsset","type":"address"},{"internalType":"uint256","name":"amount","type":"uint256"},{"internalType":"uint8","name":"flags","type":"uint8"},{"internalType":"bytes","name":"data","type":"bytes"}],"internalType":"struct ILeverager.InputParams","name":"inputParams","type":"tuple"}],"name":"borrow","outputs":[{"internalType":"uint256","name":"returnAmount","type":"uint256"}],"stateMutability":"nonpayable","type":"function"},{"inputs":[{"components":[{"internalType":"bytes32","name":"messageId","type":"bytes32"},{"internalType":"uint64","name":"sourceChainSelector","type":"uint64"},{"internalType":"bytes","name":"sender","type":"bytes"},{"internalType":"bytes","name":"data","type":"bytes"},{"components":[{"internalType":"address","name":"token","type":"address"},{"internalType":"uint256","name":"amount","type":"uint256"}],"internalType":"struct Client.EVMTokenAmount[]","name":"destTokenAmounts","type":"tuple[]"}],"internalType":"struct Client.Any2EVMMessage","name":"message","type":"tuple"}],"name":"ccipReceive","outputs":[],"stateMutability":"nonpayable","type":"function"},{"inputs":[{"components":[{"internalType":"address","name":"asset","type":"address"},{"internalType":"address","name":"counterAsset","type":"address"},{"internalType":"uint256","name":"amount","type":"uint256"},{"internalType":"uint8","name":"flags","type":"uint8"},{"internalType":"bytes","name":"data","type":"bytes"}],"internalType":"struct ILeverager.InputParams","name":"inputParams","type":"tuple"}],"name":"close","outputs":[{"internalType":"uint256","name":"","type":"uint256"}],"stateMutability":"payable","type":"function"},{"inputs":[{"internalType":"address[]","name":"assets","type":"address[]"},{"internalType":"uint256[]","name":"amounts","type":"uint256[]"},{"internalType":"uint256[]","name":"premiums","type":"uint256[]"},{"internalType":"address","name":"initiator","type":"address"},{"internalType":"bytes","name":"params","type":"bytes"}],"name":"executeOperation","outputs":[{"internalType":"bool","name":"","type":"bool"}],"stateMutability":"nonpayable","type":"function"},{"inputs":[],"name":"getRouter","outputs":[{"internalType":"address","name":"","type":"address"}],"stateMutability":"view","type":"function"},{"inputs":[],"name":"i_link","outputs":[{"internalType":"address","name":"","type":"address"}],"stateMutability":"view","type":"function"},{"inputs":[{"internalType":"address","name":"weth9","type":"address"},{"internalType":"address","name":"router","type":"address"},{"internalType":"address","name":"link","type":"address"},{"internalType":"address","name":"_vault","type":"address"}],"name":"initialize","outputs":[],"stateMutability":"nonpayable","type":"function"},{"inputs":[],"name":"isInitialized","outputs":[{"internalType":"bool","name":"","type":"bool"}],"stateMutability":"view","type":"function"},{"inputs":[],"name":"owner","outputs":[{"internalType":"address","name":"","type":"address"}],"stateMutability":"view","type":"function"},{"inputs":[],"name":"propagator","outputs":[{"internalType":"contract Propagator","name":"","type":"address"}],"stateMutability":"view","type":"function"},{"inputs":[],"name":"renounceOwnership","outputs":[],"stateMutability":"nonpayable","type":"function"},{"inputs":[{"components":[{"internalType":"address","name":"asset","type":"address"},{"internalType":"address","name":"counterAsset","type":"address"},{"internalType":"uint256","name":"amount","type":"uint256"},{"internalType":"uint8","name":"flags","type":"uint8"},{"internalType":"bytes","name":"data","type":"bytes"}],"internalType":"struct ILeverager.InputParams","name":"inputParams","type":"tuple"}],"name":"supply","outputs":[{"internalType":"uint256","name":"returnAmount","type":"uint256"}],"stateMutability":"payable","type":"function"},{"inputs":[{"internalType":"bytes4","name":"interfaceId","type":"bytes4"}],"name":"supportsInterface","outputs":[{"internalType":"bool","name":"","type":"bool"}],"stateMutability":"pure","type":"function"},{"inputs":[{"internalType":"address","name":"newOwner","type":"address"}],"name":"transferOwnership","outputs":[],"stateMutability":"nonpayable","type":"function"},{"inputs":[],"name":"vault","outputs":[{"internalType":"address","name":"","type":"address"}],"stateMutability":"view","type":"function"},{"inputs":[{"components":[{"internalType":"address","name":"asset","type":"address"},{"internalType":"address","name":"counterAsset","type":"address"},{"internalType":"uint256","name":"amount","type":"uint256"},{"internalType":"uint8","name":"flags","type":"uint8"},{"internalType":"bytes","name":"data","type":"bytes"}],"internalType":"struct ILeverager.InputParams","name":"inputParams","type":"tuple"}],"name":"withdraw","outputs":[{"internalType":"uint256","name":"returnAmount","type":"uint256"}],"stateMutability":"nonpayable","type":"function"},{"stateMutability":"payable","type":"receive"}],"evm":{"bytecode":{"linkReferences":{},"object":"60806040523480156200001157600080fd5b50600062000024620000c860201b60201c565b9050806000806101000a81548173ffffffffffffffffffffffffffffffffffffffff021916908373ffffffffffffffffffffffffffffffffffffffff1602179055508073ffffffffffffffffffffffffffffffffffffffff16600073ffffffffffffffffffffffffffffffffffffffff167f8be0079c531659141344cd1fd0a4f28419497f9722a3daafe3b4186f6b6457e060405160405180910390a350620000d0565b600033905090565b61843980620000e06000396000f3fe6080604052600436106200011b5760003560e01c80637d253aff11620000a357806395d992c3116200006d57806395d992c31462000398578063b0f479a114620003dc578063f2fde38b146200040c578063f8c8765e146200043a578063fbfa77cf14620004685762000123565b80637d253aff14620002c657806385572ffb14620002f65780638da5cb5b1462000324578063920f5c8414620003545762000123565b8063528e4e5f11620000e5578063528e4e5f14620002025780635beeab331462000246578063715018a6146200027c57806379b2933314620002965762000123565b806301ffc9a714620001285780632e99f1e4146200016c578063392e53cd14620001a25780634aa4a4fc14620001d25762000123565b366200012357005b600080fd5b3480156200013557600080fd5b506200015460048036038101906200014e919062004277565b62000498565b604051620001639190620042c6565b60405180910390f35b6200018a6004803603810190620001849190620045e7565b6200056b565b60405162000199919062004649565b60405180910390f35b348015620001af57600080fd5b50620001ba62000cb6565b604051620001c99190620042c6565b60405180910390f35b348015620001df57600080fd5b50620001ea62000cc9565b604051620001f9919062004677565b60405180910390f35b3480156200020f57600080fd5b506200022e6004803603810190620002289190620045e7565b62000cef565b6040516200023d919062004649565b60405180910390f35b6200026460048036038101906200025e9190620045e7565b62000d73565b60405162000273919062004649565b60405180910390f35b3480156200028957600080fd5b506200029462000ff6565b005b348015620002a357600080fd5b50620002ae62001137565b604051620002bd9190620046ff565b60405180910390f35b348015620002d357600080fd5b50620002de6200115d565b604051620002ed919062004677565b60405180910390f35b3480156200030357600080fd5b506200032260048036038101906200031c919062004743565b62001183565b005b3480156200033157600080fd5b506200033c62001231565b6040516200034b919062004677565b60405180910390f35b3480156200036157600080fd5b506200038060048036038101906200037a9190620048bb565b6200125a565b6040516200038f9190620042c6565b60405180910390f35b348015620003a557600080fd5b50620003c46004803603810190620003be9190620045e7565b62001694565b604051620003d3919062004649565b60405180910390f35b348015620003e957600080fd5b50620003f4620017c8565b60405162000403919062004677565b60405180910390f35b3480156200041957600080fd5b50620004386004803603810190620004329190620049d0565b620017f2565b005b3480156200044757600080fd5b5062000466600480360381019062000460919062004a02565b620019a4565b005b3480156200047557600080fd5b506200048062001bda565b6040516200048f919062004677565b60405180910390f35b60007f85572ffb000000000000000000000000000000000000000000000000000000007bffffffffffffffffffffffffffffffffffffffffffffffffffffffff1916827bffffffffffffffffffffffffffffffffffffffffffffffffffffffff191614806200056457507f01ffc9a7000000000000000000000000000000000000000000000000000000007bffffffffffffffffffffffffffffffffffffffffffffffffffffffff1916827bffffffffffffffffffffffffffffffffffffffffffffffffffffffff1916145b9050919050565b6000806200057862001c00565b90506000816000015414620005b9576040517f19239fc500000000000000000000000000000000000000000000000000000000815260040160405180910390fd5b60018160000181905550620005e8836000015173ffffffffffffffffffffffffffffffffffffffff1662001c30565b8015620005f9575034836040015114155b1562000644573483604001516040517fba38a9050000000000000000000000000000000000000000000000000000000081526004016200063b92919062004a74565b60405180910390fd5b6200067b33308560400151866000015173ffffffffffffffffffffffffffffffffffffffff1662001ced909392919063ffffffff16565b620006aa33846020015173ffffffffffffffffffffffffffffffffffffffff1662001d4d90919063ffffffff16565b915060008360800151510362000758576000600184606001511660ff160362000712576200070c620006f6846000015173ffffffffffffffffffffffffffffffffffffffff1662001c30565b8460000151856020015186604001513362001d82565b62000752565b620007516200073b846000015173ffffffffffffffffffffffffffffffffffffffff1662001c30565b8460000151856020015186604001513362001fe6565b5b62000c68565b62000762620040aa565b83608001518060200190518101906200077c919062004ba7565b846080018560a0018660c0018761010001849052848152508473ffffffffffffffffffffffffffffffffffffffff1673ffffffffffffffffffffffffffffffffffffffff168152508473ffffffffffffffffffffffffffffffffffffffff1673ffffffffffffffffffffffffffffffffffffffff1681525050505050600167ffffffffffffffff811115620008165762000815620042f9565b5b604051908082528060200260200182016040528015620008455781602001602082028036833780820191505090505b50816101200181905250600167ffffffffffffffff8111156200086d576200086c620042f9565b5b6040519080825280602002602001820160405280156200089c5781602001602082028036833780820191505090505b50816101400181905250600167ffffffffffffffff811115620008c457620008c3620042f9565b5b604051908082528060200260200182016040528015620008f35781602001602082028036833780820191505090505b508161016001819052506000600485606001511660ff16146200091b57836000015162000921565b80608001515b8161012001516000815181106200093d576200093c62004c38565b5b602002602001019073ffffffffffffffffffffffffffffffffffffffff16908173ffffffffffffffffffffffffffffffffffffffff1681525050620009bb81610120015160008151811062000997576200099662004c38565b5b602002602001015173ffffffffffffffffffffffffffffffffffffffff1662001c30565b1562000a3b57600360009054906101000a900473ffffffffffffffffffffffffffffffffffffffff1681610120015160008151811062000a0057620009ff62004c38565b5b602002602001019073ffffffffffffffffffffffffffffffffffffffff16908173ffffffffffffffffffffffffffffffffffffffff16815250505b8060c0015181610140015160008151811062000a5c5762000a5b62004c38565b5b602002602001018181525050600260009054906101000a900473ffffffffffffffffffffffffffffffffffffffff1673ffffffffffffffffffffffffffffffffffffffff1663ab9c4b5d30836101200151846101400151856101600151306040518061014001604052803373ffffffffffffffffffffffffffffffffffffffff1681526020018c6000015173ffffffffffffffffffffffffffffffffffffffff1681526020018c6020015173ffffffffffffffffffffffffffffffffffffffff168152602001896080015173ffffffffffffffffffffffffffffffffffffffff1681526020018960a0015173ffffffffffffffffffffffffffffffffffffffff16815260200189610120015160008151811062000b7e5762000b7d62004c38565b5b602002602001015173ffffffffffffffffffffffffffffffffffffffff1681526020018c6040015181526020018960c0015181526020018c6060015160ff16815260200189610100015181525060405160200162000bdd919062004de5565b60405160208183030381529060405260006040518863ffffffff1660e01b815260040162000c12979695949392919062005026565b600060405180830381600087803b15801562000c2d57600080fd5b505af115801562000c42573d6000803e3d6000fd5b5050505062000c55846000015162002197565b5062000c65816080015162002197565b50505b8162000c9833856020015173ffffffffffffffffffffffffffffffffffffffff1662001d4d90919063ffffffff16565b62000ca49190620050ee565b91506000816000018190555050919050565b600160149054906101000a900460ff1681565b600360009054906101000a900473ffffffffffffffffffffffffffffffffffffffff1681565b60008062000d17836000015173ffffffffffffffffffffffffffffffffffffffff1662001c30565b90506000600184606001511660ff160362000d4f5762000d47818460000151856020015186604001513362002402565b915062000d6d565b62000d6a81846000015185602001518660400151336200253a565b91505b50919050565b60008062000d8062001c00565b9050600081600001541462000dc1576040517f19239fc500000000000000000000000000000000000000000000000000000000815260040160405180910390fd5b60018160000181905550600062000df2846000015173ffffffffffffffffffffffffffffffffffffffff1662001c30565b905080801562000e06575034846040015114155b1562000e51573484604001516040517fba38a90500000000000000000000000000000000000000000000000000000000815260040162000e4892919062004a74565b60405180910390fd5b62000e8833308660400151876000015173ffffffffffffffffffffffffffffffffffffffff1662001ced909392919063ffffffff16565b60008460800151510362000eec576000600185606001511660ff160362000eca5762000ec48185600001518660200151876040015133620027bf565b62000ee6565b62000ee5818560000151866020015187604001513362002b1f565b5b62000fe5565b62000ef6620040aa565b846040015181600001818152505033816060019073ffffffffffffffffffffffffffffffffffffffff16908173ffffffffffffffffffffffffffffffffffffffff16815250508460000151816020019073ffffffffffffffffffffffffffffffffffffffff16908173ffffffffffffffffffffffffffffffffffffffff16815250508460200151816040019073ffffffffffffffffffffffffffffffffffffffff16908173ffffffffffffffffffffffffffffffffffffffff168152505084606001518160e0019060ff16908160ff1681525050846080015181610180018190525062000fe38162002cb8565b505b506000816000018190555050919050565b620010006200344b565b73ffffffffffffffffffffffffffffffffffffffff166200102062001231565b73ffffffffffffffffffffffffffffffffffffffff161462001079576040517f08c379a000000000000000000000000000000000000000000000000000000000815260040162001070906200518a565b60405180910390fd5b600073ffffffffffffffffffffffffffffffffffffffff1660008054906101000a900473ffffffffffffffffffffffffffffffffffffffff1673ffffffffffffffffffffffffffffffffffffffff167f8be0079c531659141344cd1fd0a4f28419497f9722a3daafe3b4186f6b6457e060405160405180910390a360008060006101000a81548173ffffffffffffffffffffffffffffffffffffffff021916908373ffffffffffffffffffffffffffffffffffffffff160217905550565b600560009054906101000a900473ffffffffffffffffffffffffffffffffffffffff1681565b600460009054906101000a900473ffffffffffffffffffffffffffffffffffffffff1681565b600160009054906101000a900473ffffffffffffffffffffffffffffffffffffffff1673ffffffffffffffffffffffffffffffffffffffff163373ffffffffffffffffffffffffffffffffffffffff16146200121857336040517fd7f733340000000000000000000000000000000000000000000000000000000081526004016200120f919062004677565b60405180910390fd5b6200122e81620012289062005453565b62003453565b50565b60008060009054906101000a900473ffffffffffffffffffffffffffffffffffffffff16905090565b60003373ffffffffffffffffffffffffffffffffffffffff16600260009054906101000a900473ffffffffffffffffffffffffffffffffffffffff1673ffffffffffffffffffffffffffffffffffffffff1614620012e4576040517fe973de0b00000000000000000000000000000000000000000000000000000000815260040160405180910390fd5b3073ffffffffffffffffffffffffffffffffffffffff168473ffffffffffffffffffffffffffffffffffffffff16146200135757336040517f2a868ed00000000000000000000000000000000000000000000000000000000081526004016200134e919062004677565b60405180910390fd5b6000838390501115620014e1576000838381019062001377919062005596565b905060003373ffffffffffffffffffffffffffffffffffffffff1663074b2e436040518163ffffffff1660e01b8152600401602060405180830381865afa158015620013c7573d6000803e3d6000fd5b505050506040513d601f19601f82011682018060405250810190620013ed919062005634565b6fffffffffffffffffffffffffffffffff169050600060018361010001511660ff16036200147c5762001476828989600081811062001431576200143062004c38565b5b90506020020135600262001446919062005666565b8c8c60008181106200145d576200145c62004c38565b5b90506020020135620014709190620056b1565b62003615565b620014de565b620014dd828989600081811062001498576200149762004c38565b5b905060200201356002620014ad919062005666565b8c8c6000818110620014c457620014c362004c38565b5b90506020020135620014d79190620056b1565b6200388e565b5b50505b60005b8a8a905081101562001682576200156e620014fe62001231565b88888481811062001514576200151362004c38565b5b905060200201358d8d8581811062001531576200153062004c38565b5b9050602002016020810190620015489190620049d0565b73ffffffffffffffffffffffffffffffffffffffff1662003b499092919063ffffffff16565b600087878381811062001586576200158562004c38565b5b905060200201358a8a84818110620015a357620015a262004c38565b5b90506020020135620015b69190620056b1565b9050620016123360008e8e86818110620015d557620015d462004c38565b5b9050602002016020810190620015ec9190620049d0565b73ffffffffffffffffffffffffffffffffffffffff1662003b999092919063ffffffff16565b6200166b33828e8e868181106200162e576200162d62004c38565b5b9050602002016020810190620016459190620049d0565b73ffffffffffffffffffffffffffffffffffffffff1662003b999092919063ffffffff16565b5080806200167990620056ec565b915050620014e4565b50600190509998505050505050505050565b600080620016a162001c00565b90506000816000015414620016e2576040517f19239fc500000000000000000000000000000000000000000000000000000000815260040160405180910390fd5b60018160000181905550600062001713846000015173ffffffffffffffffffffffffffffffffffffffff1662001c30565b90506000600185606001511660ff160362001785576200175f33308660400151876020015173ffffffffffffffffffffffffffffffffffffffff1662001ced909392919063ffffffff16565b6200177f8185600001518660200151876040015133896080015162003be9565b620017a6565b620017a58185600001518660200151876040015133896080015162003c73565b5b620017b5846000015162002197565b9250506000816000018190555050919050565b6000600160009054906101000a900473ffffffffffffffffffffffffffffffffffffffff16905090565b620017fc6200344b565b73ffffffffffffffffffffffffffffffffffffffff166200181c62001231565b73ffffffffffffffffffffffffffffffffffffffff161462001875576040517f08c379a00000000000000000000000000000000000000000000000000000000081526004016200186c906200518a565b60405180910390fd5b600073ffffffffffffffffffffffffffffffffffffffff168173ffffffffffffffffffffffffffffffffffffffff1603620018e7576040517f08c379a0000000000000000000000000000000000000000000000000000000008152600401620018de90620057af565b60405180910390fd5b8073ffffffffffffffffffffffffffffffffffffffff1660008054906101000a900473ffffffffffffffffffffffffffffffffffffffff1673ffffffffffffffffffffffffffffffffffffffff167f8be0079c531659141344cd1fd0a4f28419497f9722a3daafe3b4186f6b6457e060405160405180910390a3806000806101000a81548173ffffffffffffffffffffffffffffffffffffffff021916908373ffffffffffffffffffffffffffffffffffffffff16021790555050565b620019ae6200344b565b73ffffffffffffffffffffffffffffffffffffffff16620019ce62001231565b73ffffffffffffffffffffffffffffffffffffffff161462001a27576040517f08c379a000000000000000000000000000000000000000000000000000000000815260040162001a1e906200518a565b60405180910390fd5b600160149054906101000a900460ff161562001a6f576040517f0dc149f000000000000000000000000000000000000000000000000000000000815260040160405180910390fd5b60018060146101000a81548160ff02191690831515021790555062001a948362003ec8565b83600360006101000a81548173ffffffffffffffffffffffffffffffffffffffff021916908373ffffffffffffffffffffffffffffffffffffffff16021790555080600260006101000a81548173ffffffffffffffffffffffffffffffffffffffff021916908373ffffffffffffffffffffffffffffffffffffffff16021790555081600460006101000a81548173ffffffffffffffffffffffffffffffffffffffff021916908373ffffffffffffffffffffffffffffffffffffffff16021790555082823360405162001b689062004183565b62001b7693929190620057d1565b604051809103906000f08015801562001b93573d6000803e3d6000fd5b50600560006101000a81548173ffffffffffffffffffffffffffffffffffffffff021916908373ffffffffffffffffffffffffffffffffffffffff16021790555050505050565b600260009054906101000a900473ffffffffffffffffffffffffffffffffffffffff1681565b6000807f579d790592639b2d681736f3c42db3029bc25bdee19fb1af9a117b346237558560001b90508091505090565b600073eeeeeeeeeeeeeeeeeeeeeeeeeeeeeeeeeeeeeeee73ffffffffffffffffffffffffffffffffffffffff168273ffffffffffffffffffffffffffffffffffffffff16148062001cae575061101073ffffffffffffffffffffffffffffffffffffffff168273ffffffffffffffffffffffffffffffffffffffff16145b8062001ce65750600073ffffffffffffffffffffffffffffffffffffffff168273ffffffffffffffffffffffffffffffffffffffff16145b9050919050565b60405181606052826040528360601b602c526f23b872dd000000000000000000000000600c52602060006064601c6000895af13d15600160005114171662001d3d57637939f4246000526004601cfd5b6000606052806040525050505050565b6000816014526f70a0823100000000000000000000000060005260208060246010865afa601f3d111660205102905092915050565b8462001f7b57600360009054906101000a900473ffffffffffffffffffffffffffffffffffffffff1673ffffffffffffffffffffffffffffffffffffffff168473ffffffffffffffffffffffffffffffffffffffff161462001e805762001e0b83838673ffffffffffffffffffffffffffffffffffffffff1662003b999092919063ffffffff16565b8273ffffffffffffffffffffffffffffffffffffffff1663a0712d68836040518263ffffffff1660e01b815260040162001e46919062004649565b600060405180830381600087803b15801562001e6157600080fd5b505af115801562001e76573d6000803e3d6000fd5b5050505062001f75565b600360009054906101000a900473ffffffffffffffffffffffffffffffffffffffff1673ffffffffffffffffffffffffffffffffffffffff16632e1a7d4d836040518263ffffffff1660e01b815260040162001edd919062004649565b600060405180830381600087803b15801562001ef857600080fd5b505af115801562001f0d573d6000803e3d6000fd5b505050508273ffffffffffffffffffffffffffffffffffffffff16631249c58b836040518263ffffffff1660e01b81526004016000604051808303818588803b15801562001f5a57600080fd5b505af115801562001f6f573d6000803e3d6000fd5b50505050505b62001fdf565b8273ffffffffffffffffffffffffffffffffffffffff16631249c58b836040518263ffffffff1660e01b81526004016000604051808303818588803b15801562001fc457600080fd5b505af115801562001fd9573d6000803e3d6000fd5b50505050505b5050505050565b84156200207657600360009054906101000a900473ffffffffffffffffffffffffffffffffffffffff1693508373ffffffffffffffffffffffffffffffffffffffff1663d0e30db0836040518263ffffffff1660e01b81526004016000604051808303818588803b1580156200205b57600080fd5b505af115801562002070573d6000803e3d6000fd5b50505050505b60008373ffffffffffffffffffffffffffffffffffffffff16637535d2466040518163ffffffff1660e01b8152600401602060405180830381865afa158015620020c4573d6000803e3d6000fd5b505050506040513d601f19601f82011682018060405250810190620020ea919062005825565b90506200211981848773ffffffffffffffffffffffffffffffffffffffff1662003b999092919063ffffffff16565b8073ffffffffffffffffffffffffffffffffffffffff1663e8eda9df86858560006040518563ffffffff1660e01b81526004016200215b949392919062005857565b600060405180830381600087803b1580156200217657600080fd5b505af11580156200218b573d6000803e3d6000fd5b50505050505050505050565b6000620021ba8273ffffffffffffffffffffffffffffffffffffffff1662001c30565b156200239757600360009054906101000a900473ffffffffffffffffffffffffffffffffffffffff169150600360009054906101000a900473ffffffffffffffffffffffffffffffffffffffff1673ffffffffffffffffffffffffffffffffffffffff166370a08231306040518263ffffffff1660e01b815260040162002242919062004677565b602060405180830381865afa15801562002260573d6000803e3d6000fd5b505050506040513d601f19601f82011682018060405250810190620022869190620058a4565b905060008111156200239157600360009054906101000a900473ffffffffffffffffffffffffffffffffffffffff1673ffffffffffffffffffffffffffffffffffffffff16632e1a7d4d826040518263ffffffff1660e01b8152600401620022ef919062004649565b600060405180830381600087803b1580156200230a57600080fd5b505af11580156200231f573d6000803e3d6000fd5b505050503373ffffffffffffffffffffffffffffffffffffffff168160405162002349906200590b565b60006040518083038185875af1925050503d806000811462002388576040519150601f19603f3d011682016040523d82523d6000602084013e6200238d565b606091505b5050505b620023fd565b620023c2308373ffffffffffffffffffffffffffffffffffffffff1662001d4d90919063ffffffff16565b90506000811115620023fc57620023fb33828473ffffffffffffffffffffffffffffffffffffffff1662003b499092919063ffffffff16565b5b5b919050565b6000620024338230858773ffffffffffffffffffffffffffffffffffffffff1662001ced909392919063ffffffff16565b8373ffffffffffffffffffffffffffffffffffffffff1663db006a75846040518263ffffffff1660e01b81526004016200246e919062004649565b600060405180830381600087803b1580156200248957600080fd5b505af11580156200249e573d6000803e3d6000fd5b50505050620024cd308673ffffffffffffffffffffffffffffffffffffffff1662003f8190919063ffffffff16565b90503073ffffffffffffffffffffffffffffffffffffffff168273ffffffffffffffffffffffffffffffffffffffff161462002531576200253082828773ffffffffffffffffffffffffffffffffffffffff1662003fe89092919063ffffffff16565b5b95945050505050565b60006200256b8230858773ffffffffffffffffffffffffffffffffffffffff1662001ced909392919063ffffffff16565b60008473ffffffffffffffffffffffffffffffffffffffff16637535d2466040518163ffffffff1660e01b8152600401602060405180830381865afa158015620025b9573d6000803e3d6000fd5b505050506040513d601f19601f82011682018060405250810190620025df919062005825565b90508073ffffffffffffffffffffffffffffffffffffffff166369328dec6200261e8873ffffffffffffffffffffffffffffffffffffffff1662001c30565b6200262a57876200264e565b600360009054906101000a900473ffffffffffffffffffffffffffffffffffffffff165b86306040518463ffffffff1660e01b8152600401620026709392919062005922565b6020604051808303816000875af115801562002690573d6000803e3d6000fd5b505050506040513d601f19601f82011682018060405250810190620026b69190620058a4565b5086156200275057600360009054906101000a900473ffffffffffffffffffffffffffffffffffffffff1673ffffffffffffffffffffffffffffffffffffffff16632e1a7d4d856040518263ffffffff1660e01b81526004016200271b919062004649565b600060405180830381600087803b1580156200273657600080fd5b505af11580156200274b573d6000803e3d6000fd5b505050505b3073ffffffffffffffffffffffffffffffffffffffff168373ffffffffffffffffffffffffffffffffffffffff1614620027b257620027b183858873ffffffffffffffffffffffffffffffffffffffff1662003fe89092919063ffffffff16565b5b8391505095945050505050565b60008373ffffffffffffffffffffffffffffffffffffffff166317bfdfbc836040518263ffffffff1660e01b8152600401620027fc919062004677565b6020604051808303816000875af11580156200281c573d6000803e3d6000fd5b505050506040513d601f19601f82011682018060405250810190620028429190620058a4565b9050600081841162002855578362002857565b815b9050600081111562002b16578662002a9157600360009054906101000a900473ffffffffffffffffffffffffffffffffffffffff1673ffffffffffffffffffffffffffffffffffffffff168673ffffffffffffffffffffffffffffffffffffffff16146200297657620028ec85828873ffffffffffffffffffffffffffffffffffffffff1662003b999092919063ffffffff16565b8473ffffffffffffffffffffffffffffffffffffffff16632608f81884836040518363ffffffff1660e01b8152600401620029299291906200595f565b6020604051808303816000875af115801562002949573d6000803e3d6000fd5b505050506040513d601f19601f820116820180604052508101906200296f9190620058a4565b5062002a8b565b600360009054906101000a900473ffffffffffffffffffffffffffffffffffffffff1673ffffffffffffffffffffffffffffffffffffffff16632e1a7d4d856040518263ffffffff1660e01b8152600401620029d3919062004649565b600060405180830381600087803b158015620029ee57600080fd5b505af115801562002a03573d6000803e3d6000fd5b505050508473ffffffffffffffffffffffffffffffffffffffff1663e597461982856040518363ffffffff1660e01b815260040162002a43919062004677565b60206040518083038185885af115801562002a62573d6000803e3d6000fd5b50505050506040513d601f19601f8201168201806040525081019062002a899190620058a4565b505b62002b15565b8473ffffffffffffffffffffffffffffffffffffffff1663e597461982856040518363ffffffff1660e01b815260040162002acd919062004677565b60206040518083038185885af115801562002aec573d6000803e3d6000fd5b50505050506040513d601f19601f8201168201806040525081019062002b139190620058a4565b505b5b50505050505050565b60008373ffffffffffffffffffffffffffffffffffffffff16637535d2466040518163ffffffff1660e01b8152600401602060405180830381865afa15801562002b6d573d6000803e3d6000fd5b505050506040513d601f19601f8201168201806040525081019062002b93919062005825565b9050600062002bc2838673ffffffffffffffffffffffffffffffffffffffff1662003f8190919063ffffffff16565b9050600081851162002bd5578462002bd7565b815b9050600081111562002cae5762002c1083828973ffffffffffffffffffffffffffffffffffffffff1662003b999092919063ffffffff16565b8273ffffffffffffffffffffffffffffffffffffffff1663573ade81888360028081111562002c445762002c436200598c565b5b886040518563ffffffff1660e01b815260040162002c669493929190620059f4565b6020604051808303816000875af115801562002c86573d6000803e3d6000fd5b505050506040513d601f19601f8201168201806040525081019062002cac9190620058a4565b505b5050505050505050565b80610180015180602001905181019062002cd3919062004ba7565b846080018560a0018660c0018761018001849052848152508473ffffffffffffffffffffffffffffffffffffffff1673ffffffffffffffffffffffffffffffffffffffff168152508473ffffffffffffffffffffffffffffffffffffffff1673ffffffffffffffffffffffffffffffffffffffff1681525050505050600167ffffffffffffffff81111562002d6d5762002d6c620042f9565b5b60405190808252806020026020018201604052801562002d9c5781602001602082028036833780820191505090505b50816101200181905250600167ffffffffffffffff81111562002dc45762002dc3620042f9565b5b60405190808252806020026020018201604052801562002df35781602001602082028036833780820191505090505b508161014001819052506000600167ffffffffffffffff81111562002e1d5762002e1c620042f9565b5b60405190808252806020026020018201604052801562002e4c5781602001602082028036833780820191505090505b509050600060048360e001511660ff161462002e6d57816020015162002e73565b81608001515b82610120015160008151811062002e8f5762002e8e62004c38565b5b602002602001019073ffffffffffffffffffffffffffffffffffffffff16908173ffffffffffffffffffffffffffffffffffffffff168152505062002f0d82610120015160008151811062002ee95762002ee862004c38565b5b602002602001015173ffffffffffffffffffffffffffffffffffffffff1662001c30565b1562002f8d57600360009054906101000a900473ffffffffffffffffffffffffffffffffffffffff1682610120015160008151811062002f525762002f5162004c38565b5b602002602001019073ffffffffffffffffffffffffffffffffffffffff16908173ffffffffffffffffffffffffffffffffffffffff16815250505b8160c0015182610140015160008151811062002fae5762002fad62004c38565b5b602002602001018181525050600260009054906101000a900473ffffffffffffffffffffffffffffffffffffffff1673ffffffffffffffffffffffffffffffffffffffff1663ab9c4b5d3084610120015185610140015185306040518061014001604052808a6060015173ffffffffffffffffffffffffffffffffffffffff1681526020018a6020015173ffffffffffffffffffffffffffffffffffffffff1681526020018a6040015173ffffffffffffffffffffffffffffffffffffffff1681526020018a6080015173ffffffffffffffffffffffffffffffffffffffff1681526020018a60a0015173ffffffffffffffffffffffffffffffffffffffff1681526020018a6020015173ffffffffffffffffffffffffffffffffffffffff1681526020018a6000015181526020018a60c0015181526020018a60e0015160ff1681526020016040518060200160405280600081525081525060405160200162003119919062004de5565b60405160208183030381529060405260006040518863ffffffff1660e01b81526004016200314e979695949392919062005026565b600060405180830381600087803b1580156200316957600080fd5b505af11580156200317e573d6000803e3d6000fd5b50505050600082610180015151146200344757600080836101800151806020019051810190620031af919062005c25565b915091508151815114620031ef576040517fff633a3800000000000000000000000000000000000000000000000000000000815260040160405180910390fd5b6000825167ffffffffffffffff8111156200320f576200320e620042f9565b5b6040519080825280602002602001820160405280156200324c57816020015b6200323862004191565b8152602001906001900390816200322e5790505b50905060005b8351811015620033975760006040518060a00160405280306040516020016200327c919062004677565b60405160208183030381529060405281526020013389602001518a604001518b60e0015189604051602001620032b795949392919062005d8b565b6040516020818303038152906040528152602001600067ffffffffffffffff811115620032e957620032e8620042f9565b5b6040519080825280602002602001820160405280156200332657816020015b62003312620041d6565b815260200190600190039081620033085790505b508152602001600073ffffffffffffffffffffffffffffffffffffffff1681526020016040518060200160405280600081525081525090508083838151811062003375576200337462004c38565b5b60200260200101819052505080806200338e90620056ec565b91505062003252565b50600560009054906101000a900473ffffffffffffffffffffffffffffffffffffffff1673ffffffffffffffffffffffffffffffffffffffff16633626454d82856040518363ffffffff1660e01b8152600401620033f792919062006112565b6000604051808303816000875af115801562003417573d6000803e3d6000fd5b505050506040513d6000823e3d601f19601f820116820180604052508101906200344291906200623a565b505050505b5050565b600033905090565b600081604001518060200190518101906200346f91906200628b565b90508073ffffffffffffffffffffffffffffffffffffffff16600560009054906101000a900473ffffffffffffffffffffffffffffffffffffffff1673ffffffffffffffffffffffffffffffffffffffff16146200350657806040517f71811df2000000000000000000000000000000000000000000000000000000008152600401620034fd919062004677565b60405180910390fd5b60008060008060008660600151806020019051810190620035289190620062d4565b945094509450945094506200353c620040aa565b85816060019073ffffffffffffffffffffffffffffffffffffffff16908173ffffffffffffffffffffffffffffffffffffffff168152505084816020019073ffffffffffffffffffffffffffffffffffffffff16908173ffffffffffffffffffffffffffffffffffffffff168152505083816040019073ffffffffffffffffffffffffffffffffffffffff16908173ffffffffffffffffffffffffffffffffffffffff1681525050828160e0019060ff16908160ff1681525050818161018001819052506200360b8162002cb8565b5050505050505050565b60006200363c836020015173ffffffffffffffffffffffffffffffffffffffff1662001c30565b9050600062003665846060015173ffffffffffffffffffffffffffffffffffffffff1662001c30565b9050600060018561010001511660ff1603620038195780156200371857600360009054906101000a900473ffffffffffffffffffffffffffffffffffffffff1673ffffffffffffffffffffffffffffffffffffffff16632e1a7d4d8560e001516040518263ffffffff1660e01b8152600401620036e3919062004649565b600060405180830381600087803b158015620036fe57600080fd5b505af115801562003713573d6000803e3d6000fd5b505050505b6200374881856060015186608001518760e001518860c001516200373d9190620056b1565b8860000151620027bf565b62003763828560200151866040015186886000015162002402565b508115620037f157600360009054906101000a900473ffffffffffffffffffffffffffffffffffffffff1673ffffffffffffffffffffffffffffffffffffffff1663d0e30db0846040518263ffffffff1660e01b81526004016000604051808303818588803b158015620037d657600080fd5b505af1158015620037eb573d6000803e3d6000fd5b50505050505b836060015173ffffffffffffffffffffffffffffffffffffffff168460a00151505062003888565b6200384981856060015186608001518760e001518860c001516200383e9190620056b1565b886000015162002b1f565b6200386482856020015186604001518688600001516200253a565b50836060015173ffffffffffffffffffffffffffffffffffffffff168460a0015150505b50505050565b6000620038b5836020015173ffffffffffffffffffffffffffffffffffffffff1662001c30565b90506000620038de846060015173ffffffffffffffffffffffffffffffffffffffff1662001c30565b9050600060018561010001511660ff160362003acf57600060048561010001511660ff16146200390f578162003911565b805b15620039ad57600360009054906101000a900473ffffffffffffffffffffffffffffffffffffffff1673ffffffffffffffffffffffffffffffffffffffff16632e1a7d4d8560e001516040518263ffffffff1660e01b815260040162003978919062004649565b600060405180830381600087803b1580156200399357600080fd5b505af1158015620039a8573d6000803e3d6000fd5b505050505b620039dd82856020015186604001518760e001518860c00151620039d29190620056b1565b886000015162001d82565b620039fe818560600151866080015186886000015189610120015162003be9565b600060048561010001511660ff161462003a19578162003a1b565b805b1562003aa757600360009054906101000a900473ffffffffffffffffffffffffffffffffffffffff1673ffffffffffffffffffffffffffffffffffffffff1663d0e30db0846040518263ffffffff1660e01b81526004016000604051808303818588803b15801562003a8c57600080fd5b505af115801562003aa1573d6000803e3d6000fd5b50505050505b836060015173ffffffffffffffffffffffffffffffffffffffff168460a00151505062003b43565b62003aff82856020015186604001518760e001518860c0015162003af49190620056b1565b886000015162001fe6565b62003b20818560600151866080015186886000015189610120015162003c73565b836060015173ffffffffffffffffffffffffffffffffffffffff168460a0015150505b50505050565b81601452806034526fa9059cbb00000000000000000000000060005260206000604460106000875af13d15600160005114171662003b8f576390b8ec186000526004601cfd5b6000603452505050565b81601452806034526f095ea7b300000000000000000000000060005260206000604460106000875af13d15600160005114171662003bdf57633e3f8f736000526004601cfd5b6000603452505050565b8373ffffffffffffffffffffffffffffffffffffffff1663c5ebeaec846040518263ffffffff1660e01b815260040162003c24919062004649565b6020604051808303816000875af115801562003c44573d6000803e3d6000fd5b505050506040513d601f19601f8201168201806040525081019062003c6a9190620058a4565b50505050505050565b60008473ffffffffffffffffffffffffffffffffffffffff16637535d2466040518163ffffffff1660e01b8152600401602060405180830381865afa15801562003cc1573d6000803e3d6000fd5b505050506040513d601f19601f8201168201806040525081019062003ce7919062005825565b9050838573ffffffffffffffffffffffffffffffffffffffff16636bd76d2485306040518363ffffffff1660e01b815260040162003d279291906200637b565b602060405180830381865afa15801562003d45573d6000803e3d6000fd5b505050506040513d601f19601f8201168201806040525081019062003d6b9190620058a4565b101562003e325760008060008480602001905181019062003d8d9190620063a8565b9250925092508773ffffffffffffffffffffffffffffffffffffffff16630b52d55887307fffffffffffffffffffffffffffffffffffffffffffffffffffffffffffffffff808888886040518863ffffffff1660e01b815260040162003dfa979695949392919062006415565b600060405180830381600087803b15801562003e1557600080fd5b505af115801562003e2a573d6000803e3d6000fd5b505050505050505b8073ffffffffffffffffffffffffffffffffffffffff1663a415bcad878660028081111562003e665762003e656200598c565b5b6000886040518663ffffffff1660e01b815260040162003e8b95949392919062006492565b600060405180830381600087803b15801562003ea657600080fd5b505af115801562003ebb573d6000803e3d6000fd5b5050505050505050505050565b600073ffffffffffffffffffffffffffffffffffffffff168173ffffffffffffffffffffffffffffffffffffffff160362003f3d5760006040517fd7f7333400000000000000000000000000000000000000000000000000000000815260040162003f34919062004677565b60405180910390fd5b80600160006101000a81548173ffffffffffffffffffffffffffffffffffffffff021916908373ffffffffffffffffffffffffffffffffffffffff16021790555050565b600062003f8e8362001c30565b1562003fb4578173ffffffffffffffffffffffffffffffffffffffff1631905062003fe2565b62003fdf828473ffffffffffffffffffffffffffffffffffffffff1662001d4d90919063ffffffff16565b90505b92915050565b6000811115620040a55762003ffd8362001c30565b1562004076578173ffffffffffffffffffffffffffffffffffffffff168160405162004029906200590b565b60006040518083038185875af1925050503d806000811462004068576040519150601f19603f3d011682016040523d82523d6000602084013e6200406d565b606091505b505050620040a4565b620040a382828573ffffffffffffffffffffffffffffffffffffffff1662003b499092919063ffffffff16565b5b5b505050565b604051806101a0016040528060008152602001600073ffffffffffffffffffffffffffffffffffffffff168152602001600073ffffffffffffffffffffffffffffffffffffffff168152602001600073ffffffffffffffffffffffffffffffffffffffff168152602001600073ffffffffffffffffffffffffffffffffffffffff168152602001600073ffffffffffffffffffffffffffffffffffffffff16815260200160008152602001600060ff16815260200160608152602001606081526020016060815260200160608152602001606081525090565b611f1480620064f083390190565b6040518060a00160405280606081526020016060815260200160608152602001600073ffffffffffffffffffffffffffffffffffffffff168152602001606081525090565b6040518060400160405280600073ffffffffffffffffffffffffffffffffffffffff168152602001600081525090565b6000604051905090565b600080fd5b600080fd5b60007fffffffff0000000000000000000000000000000000000000000000000000000082169050919050565b62004251816200421a565b81146200425d57600080fd5b50565b600081359050620042718162004246565b92915050565b60006020828403121562004290576200428f62004210565b5b6000620042a08482850162004260565b91505092915050565b60008115159050919050565b620042c081620042a9565b82525050565b6000602082019050620042dd6000830184620042b5565b92915050565b600080fd5b6000601f19601f8301169050919050565b7f4e487b7100000000000000000000000000000000000000000000000000000000600052604160045260246000fd5b6200433382620042e8565b810181811067ffffffffffffffff82111715620043555762004354620042f9565b5b80604052505050565b60006200436a62004206565b905062004378828262004328565b919050565b600080fd5b600073ffffffffffffffffffffffffffffffffffffffff82169050919050565b6000620043af8262004382565b9050919050565b620043c181620043a2565b8114620043cd57600080fd5b50565b600081359050620043e181620043b6565b92915050565b6000819050919050565b620043fc81620043e7565b81146200440857600080fd5b50565b6000813590506200441c81620043f1565b92915050565b600060ff82169050919050565b6200443a8162004422565b81146200444657600080fd5b50565b6000813590506200445a816200442f565b92915050565b600080fd5b600080fd5b600067ffffffffffffffff821115620044885762004487620042f9565b5b6200449382620042e8565b9050602081019050919050565b82818337600083830152505050565b6000620044c6620044c0846200446a565b6200435e565b905082815260208101848484011115620044e557620044e462004465565b5b620044f2848285620044a0565b509392505050565b600082601f83011262004512576200451162004460565b5b813562004524848260208601620044af565b91505092915050565b600060a08284031215620045465762004545620042e3565b5b6200455260a06200435e565b905060006200456484828501620043d0565b60008301525060206200457a84828501620043d0565b602083015250604062004590848285016200440b565b6040830152506060620045a68482850162004449565b606083015250608082013567ffffffffffffffff811115620045cd57620045cc6200437d565b5b620045db84828501620044fa565b60808301525092915050565b6000602082840312156200460057620045ff62004210565b5b600082013567ffffffffffffffff81111562004621576200462062004215565b5b6200462f848285016200452d565b91505092915050565b6200464381620043e7565b82525050565b600060208201905062004660600083018462004638565b92915050565b6200467181620043a2565b82525050565b60006020820190506200468e600083018462004666565b92915050565b6000819050919050565b6000620046bf620046b9620046b38462004382565b62004694565b62004382565b9050919050565b6000620046d3826200469e565b9050919050565b6000620046e782620046c6565b9050919050565b620046f981620046da565b82525050565b6000602082019050620047166000830184620046ee565b92915050565b600080fd5b600060a082840312156200473a57620047396200471c565b5b81905092915050565b6000602082840312156200475c576200475b62004210565b5b600082013567ffffffffffffffff8111156200477d576200477c62004215565b5b6200478b8482850162004721565b91505092915050565b600080fd5b600080fd5b60008083601f840112620047b757620047b662004460565b5b8235905067ffffffffffffffff811115620047d757620047d662004794565b5b602083019150836020820283011115620047f657620047f562004799565b5b9250929050565b60008083601f84011262004816576200481562004460565b5b8235905067ffffffffffffffff81111562004836576200483562004794565b5b60208301915083602082028301111562004855576200485462004799565b5b9250929050565b60008083601f84011262004875576200487462004460565b5b8235905067ffffffffffffffff81111562004895576200489462004794565b5b602083019150836001820283011115620048b457620048b362004799565b5b9250929050565b600080600080600080600080600060a08a8c031215620048e057620048df62004210565b5b60008a013567ffffffffffffffff81111562004901576200490062004215565b5b6200490f8c828d016200479e565b995099505060208a013567ffffffffffffffff81111562004935576200493462004215565b5b620049438c828d01620047fd565b975097505060408a013567ffffffffffffffff81111562004969576200496862004215565b5b620049778c828d01620047fd565b955095505060606200498c8c828d01620043d0565b93505060808a013567ffffffffffffffff811115620049b057620049af62004215565b5b620049be8c828d016200485c565b92509250509295985092959850929598565b600060208284031215620049e957620049e862004210565b5b6000620049f984828501620043d0565b91505092915050565b6000806000806080858703121562004a1f5762004a1e62004210565b5b600062004a2f87828801620043d0565b945050602062004a4287828801620043d0565b935050604062004a5587828801620043d0565b925050606062004a6887828801620043d0565b91505092959194509250565b600060408201905062004a8b600083018562004638565b62004a9a602083018462004638565b9392505050565b600062004aae8262004382565b9050919050565b62004ac08162004aa1565b811462004acc57600080fd5b50565b60008151905062004ae08162004ab5565b92915050565b60008151905062004af781620043f1565b92915050565b60005b8381101562004b1d57808201518184015260208101905062004b00565b60008484015250505050565b600062004b4062004b3a846200446a565b6200435e565b90508281526020810184848401111562004b5f5762004b5e62004465565b5b62004b6c84828562004afd565b509392505050565b600082601f83011262004b8c5762004b8b62004460565b5b815162004b9e84826020860162004b29565b91505092915050565b6000806000806080858703121562004bc45762004bc362004210565b5b600062004bd48782880162004acf565b945050602062004be78782880162004acf565b935050604062004bfa8782880162004ae6565b925050606085015167ffffffffffffffff81111562004c1e5762004c1d62004215565b5b62004c2c8782880162004b74565b91505092959194509250565b7f4e487b7100000000000000000000000000000000000000000000000000000000600052603260045260246000fd5b62004c7281620043a2565b82525050565b62004c8381620043e7565b82525050565b62004c948162004422565b82525050565b600081519050919050565b600082825260208201905092915050565b600062004cc38262004c9a565b62004ccf818562004ca5565b935062004ce181856020860162004afd565b62004cec81620042e8565b840191505092915050565b60006101408301600083015162004d12600086018262004c67565b50602083015162004d27602086018262004c67565b50604083015162004d3c604086018262004c67565b50606083015162004d51606086018262004c67565b50608083015162004d66608086018262004c67565b5060a083015162004d7b60a086018262004c67565b5060c083015162004d9060c086018262004c78565b5060e083015162004da560e086018262004c78565b5061010083015162004dbc61010086018262004c89565b5061012083015184820361012086015262004dd8828262004cb6565b9150508091505092915050565b6000602082019050818103600083015262004e01818462004cf7565b905092915050565b600081519050919050565b600082825260208201905092915050565b6000819050602082019050919050565b600062004e43838362004c67565b60208301905092915050565b6000602082019050919050565b600062004e698262004e09565b62004e75818562004e14565b935062004e828362004e25565b8060005b8381101562004eb957815162004e9d888262004e35565b975062004eaa8362004e4f565b92505060018101905062004e86565b5085935050505092915050565b600081519050919050565b600082825260208201905092915050565b6000819050602082019050919050565b600062004f00838362004c78565b60208301905092915050565b6000602082019050919050565b600062004f268262004ec6565b62004f32818562004ed1565b935062004f3f8362004ee2565b8060005b8381101562004f7657815162004f5a888262004ef2565b975062004f678362004f0c565b92505060018101905062004f43565b5085935050505092915050565b600082825260208201905092915050565b600062004fa18262004c9a565b62004fad818562004f83565b935062004fbf81856020860162004afd565b62004fca81620042e8565b840191505092915050565b6000819050919050565b600061ffff82169050919050565b60006200500e62005008620050028462004fd5565b62004694565b62004fdf565b9050919050565b620050208162004fed565b82525050565b600060e0820190506200503d600083018a62004666565b818103602083015262005051818962004e5c565b9050818103604083015262005067818862004f19565b905081810360608301526200507d818762004f19565b90506200508e608083018662004666565b81810360a0830152620050a2818562004f94565b9050620050b360c083018462005015565b98975050505050505050565b7f4e487b7100000000000000000000000000000000000000000000000000000000600052601160045260246000fd5b6000620050fb82620043e7565b91506200510883620043e7565b9250828203905081811115620051235762005122620050bf565b5b92915050565b600082825260208201905092915050565b7f4f776e61626c653a2063616c6c6572206973206e6f7420746865206f776e6572600082015250565b60006200517260208362005129565b91506200517f826200513a565b602082019050919050565b60006020820190508181036000830152620051a58162005163565b9050919050565b6000819050919050565b620051c181620051ac565b8114620051cd57600080fd5b50565b600081359050620051e181620051b6565b92915050565b600067ffffffffffffffff82169050919050565b6200520681620051e7565b81146200521257600080fd5b50565b6000813590506200522681620051fb565b92915050565b600067ffffffffffffffff8211156200524a5762005249620042f9565b5b602082029050602081019050919050565b600060408284031215620052745762005273620042e3565b5b6200528060406200435e565b905060006200529284828501620043d0565b6000830152506020620052a8848285016200440b565b60208301525092915050565b6000620052cb620052c5846200522c565b6200435e565b90508083825260208201905060408402830185811115620052f157620052f062004799565b5b835b818110156200531e57806200530988826200525b565b845260208401935050604081019050620052f3565b5050509392505050565b600082601f83011262005340576200533f62004460565b5b813562005352848260208601620052b4565b91505092915050565b600060a08284031215620053745762005373620042e3565b5b6200538060a06200435e565b905060006200539284828501620051d0565b6000830152506020620053a88482850162005215565b602083015250604082013567ffffffffffffffff811115620053cf57620053ce6200437d565b5b620053dd84828501620044fa565b604083015250606082013567ffffffffffffffff8111156200540457620054036200437d565b5b6200541284828501620044fa565b606083015250608082013567ffffffffffffffff8111156200543957620054386200437d565b5b620054478482850162005328565b60808301525092915050565b60006200546136836200535b565b9050919050565b60006101408284031215620054825762005481620042e3565b5b6200548f6101406200435e565b90506000620054a184828501620043d0565b6000830152506020620054b784828501620043d0565b6020830152506040620054cd84828501620043d0565b6040830152506060620054e384828501620043d0565b6060830152506080620054f984828501620043d0565b60808301525060a06200550f84828501620043d0565b60a08301525060c062005525848285016200440b565b60c08301525060e06200553b848285016200440b565b60e083015250610100620055528482850162004449565b6101008301525061012082013567ffffffffffffffff8111156200557b576200557a6200437d565b5b6200558984828501620044fa565b6101208301525092915050565b600060208284031215620055af57620055ae62004210565b5b600082013567ffffffffffffffff811115620055d057620055cf62004215565b5b620055de8482850162005468565b91505092915050565b60006fffffffffffffffffffffffffffffffff82169050919050565b6200560e81620055e7565b81146200561a57600080fd5b50565b6000815190506200562e8162005603565b92915050565b6000602082840312156200564d576200564c62004210565b5b60006200565d848285016200561d565b91505092915050565b60006200567382620043e7565b91506200568083620043e7565b92508282026200569081620043e7565b91508282048414831517620056aa57620056a9620050bf565b5b5092915050565b6000620056be82620043e7565b9150620056cb83620043e7565b9250828201905080821115620056e657620056e5620050bf565b5b92915050565b6000620056f982620043e7565b91507fffffffffffffffffffffffffffffffffffffffffffffffffffffffffffffffff82036200572e576200572d620050bf565b5b600182019050919050565b7f4f776e61626c653a206e6577206f776e657220697320746865207a65726f206160008201527f6464726573730000000000000000000000000000000000000000000000000000602082015250565b60006200579760268362005129565b9150620057a48262005739565b604082019050919050565b60006020820190508181036000830152620057ca8162005788565b9050919050565b6000606082019050620057e8600083018662004666565b620057f7602083018562004666565b62005806604083018462004666565b949350505050565b6000815190506200581f81620043b6565b92915050565b6000602082840312156200583e576200583d62004210565b5b60006200584e848285016200580e565b91505092915050565b60006080820190506200586e600083018762004666565b6200587d602083018662004638565b6200588c604083018562004666565b6200589b606083018462005015565b95945050505050565b600060208284031215620058bd57620058bc62004210565b5b6000620058cd8482850162004ae6565b91505092915050565b600081905092915050565b50565b6000620058f3600083620058d6565b91506200590082620058e1565b600082019050919050565b60006200591882620058e4565b9150819050919050565b600060608201905062005939600083018662004666565b62005948602083018562004638565b62005957604083018462004666565b949350505050565b600060408201905062005976600083018562004666565b62005985602083018462004638565b9392505050565b7f4e487b7100000000000000000000000000000000000000000000000000000000600052602160045260246000fd5b6000620059dc620059d6620059d08462004422565b62004694565b620043e7565b9050919050565b620059ee81620059bb565b82525050565b600060808201905062005a0b600083018762004666565b62005a1a602083018662004638565b62005a296040830185620059e3565b62005a38606083018462004666565b95945050505050565b600067ffffffffffffffff82111562005a5f5762005a5e620042f9565b5b602082029050602081019050919050565b60008151905062005a8181620051fb565b92915050565b600062005a9e62005a988462005a41565b6200435e565b9050808382526020820190506020840283018581111562005ac45762005ac362004799565b5b835b8181101562005af1578062005adc888262005a70565b84526020840193505060208101905062005ac6565b5050509392505050565b600082601f83011262005b135762005b1262004460565b5b815162005b2584826020860162005a87565b91505092915050565b600067ffffffffffffffff82111562005b4c5762005b4b620042f9565b5b602082029050602081019050919050565b600062005b7462005b6e8462005b2e565b6200435e565b9050808382526020820190506020840283018581111562005b9a5762005b9962004799565b5b835b8181101562005be857805167ffffffffffffffff81111562005bc35762005bc262004460565b5b80860162005bd2898262004b74565b8552602085019450505060208101905062005b9c565b5050509392505050565b600082601f83011262005c0a5762005c0962004460565b5b815162005c1c84826020860162005b5d565b91505092915050565b6000806040838503121562005c3f5762005c3e62004210565b5b600083015167ffffffffffffffff81111562005c605762005c5f62004215565b5b62005c6e8582860162005afb565b925050602083015167ffffffffffffffff81111562005c925762005c9162004215565b5b62005ca08582860162005bf2565b9150509250929050565b62005cb58162004422565b82525050565b600081519050919050565b600082825260208201905092915050565b6000819050602082019050919050565b600062005cf5838362004cb6565b905092915050565b6000602082019050919050565b600062005d178262005cbb565b62005d23818562005cc6565b93508360208202850162005d378562005cd7565b8060005b8581101562005d79578484038952815162005d57858262005ce7565b945062005d648362005cfd565b925060208a0199505060018101905062005d3b565b50829750879550505050505092915050565b600060a08201905062005da2600083018862004666565b62005db1602083018762004666565b62005dc0604083018662004666565b62005dcf606083018562005caa565b818103608083015262005de3818462005d0a565b90509695505050505050565b600081519050919050565b600082825260208201905092915050565b6000819050602082019050919050565b600081519050919050565b600082825260208201905092915050565b6000819050602082019050919050565b60408201600082015162005e5f600085018262004c67565b50602082015162005e74602085018262004c78565b50505050565b600062005e88838362005e47565b60408301905092915050565b6000602082019050919050565b600062005eae8262005e1b565b62005eba818562005e26565b935062005ec78362005e37565b8060005b8381101562005efe57815162005ee2888262005e7a565b975062005eef8362005e94565b92505060018101905062005ecb565b5085935050505092915050565b600060a083016000830151848203600086015262005f2a828262004cb6565b9150506020830151848203602086015262005f46828262004cb6565b9150506040830151848203604086015262005f62828262005ea1565b915050606083015162005f79606086018262004c67565b506080830151848203608086015262005f93828262004cb6565b9150508091505092915050565b600062005fae838362005f0b565b905092915050565b6000602082019050919050565b600062005fd08262005def565b62005fdc818562005dfa565b93508360208202850162005ff08562005e0b565b8060005b8581101562006032578484038952815162006010858262005fa0565b94506200601d8362005fb6565b925060208a0199505060018101905062005ff4565b50829750879550505050505092915050565b600081519050919050565b600082825260208201905092915050565b6000819050602082019050919050565b6200607b81620051e7565b82525050565b60006200608f838362006070565b60208301905092915050565b6000602082019050919050565b6000620060b58262006044565b620060c181856200604f565b9350620060ce8362006060565b8060005b8381101562006105578151620060e9888262006081565b9750620060f6836200609b565b925050600181019050620060d2565b5085935050505092915050565b600060408201905081810360008301526200612e818562005fc3565b90508181036020830152620061448184620060a8565b90509392505050565b600067ffffffffffffffff8211156200616b576200616a620042f9565b5b602082029050602081019050919050565b6000815190506200618d81620051b6565b92915050565b6000620061aa620061a4846200614d565b6200435e565b90508083825260208201905060208402830185811115620061d057620061cf62004799565b5b835b81811015620061fd5780620061e888826200617c565b845260208401935050602081019050620061d2565b5050509392505050565b600082601f8301126200621f576200621e62004460565b5b81516200623184826020860162006193565b91505092915050565b60006020828403121562006253576200625262004210565b5b600082015167ffffffffffffffff81111562006274576200627362004215565b5b620062828482850162006207565b91505092915050565b600060208284031215620062a457620062a362004210565b5b6000620062b48482850162004acf565b91505092915050565b600081519050620062ce816200442f565b92915050565b600080600080600060a08688031215620062f357620062f262004210565b5b6000620063038882890162004acf565b9550506020620063168882890162004acf565b9450506040620063298882890162004acf565b93505060606200633c88828901620062bd565b925050608086015167ffffffffffffffff81111562006360576200635f62004215565b5b6200636e8882890162004b74565b9150509295509295909350565b600060408201905062006392600083018562004666565b620063a1602083018462004666565b9392505050565b600080600060608486031215620063c457620063c362004210565b5b6000620063d486828701620062bd565b9350506020620063e7868287016200617c565b9250506040620063fa868287016200617c565b9150509250925092565b6200640f81620051ac565b82525050565b600060e0820190506200642c600083018a62004666565b6200643b602083018962004666565b6200644a604083018862004638565b62006459606083018762004638565b62006468608083018662005caa565b6200647760a083018562006404565b6200648660c083018462006404565b98975050505050505050565b600060a082019050620064a9600083018862004666565b620064b8602083018762004638565b620064c76040830186620059e3565b620064d6606083018562005015565b620064e5608083018462004666565b969550505050505056fe60e06040523480156200001157600080fd5b5060405162001f1438038062001f1483398181016040528101906200003791906200033a565b80600073ffffffffffffffffffffffffffffffffffffffff168173ffffffffffffffffffffffffffffffffffffffff1603620000ad5760006040517f1e4fbdf7000000000000000000000000000000000000000000000000000000008152600401620000a49190620003a7565b60405180910390fd5b620000be816200020c60201b60201c565b503373ffffffffffffffffffffffffffffffffffffffff1660808173ffffffffffffffffffffffffffffffffffffffff16815250508273ffffffffffffffffffffffffffffffffffffffff1660a08173ffffffffffffffffffffffffffffffffffffffff16815250508173ffffffffffffffffffffffffffffffffffffffff1660c08173ffffffffffffffffffffffffffffffffffffffff168152505060c05173ffffffffffffffffffffffffffffffffffffffff1663095ea7b360a0517fffffffffffffffffffffffffffffffffffffffffffffffffffffffffffffffff6040518363ffffffff1660e01b8152600401620001bc929190620003df565b6020604051808303816000875af1158015620001dc573d6000803e3d6000fd5b505050506040513d601f19601f8201168201806040525081019062000202919062000449565b505050506200047b565b60008060009054906101000a900473ffffffffffffffffffffffffffffffffffffffff169050816000806101000a81548173ffffffffffffffffffffffffffffffffffffffff021916908373ffffffffffffffffffffffffffffffffffffffff1602179055508173ffffffffffffffffffffffffffffffffffffffff168173ffffffffffffffffffffffffffffffffffffffff167f8be0079c531659141344cd1fd0a4f28419497f9722a3daafe3b4186f6b6457e060405160405180910390a35050565b600080fd5b600073ffffffffffffffffffffffffffffffffffffffff82169050919050565b60006200030282620002d5565b9050919050565b6200031481620002f5565b81146200032057600080fd5b50565b600081519050620003348162000309565b92915050565b600080600060608486031215620003565762000355620002d0565b5b6000620003668682870162000323565b9350506020620003798682870162000323565b92505060406200038c8682870162000323565b9150509250925092565b620003a181620002f5565b82525050565b6000602082019050620003be600083018462000396565b92915050565b6000819050919050565b620003d981620003c4565b82525050565b6000604082019050620003f6600083018562000396565b620004056020830184620003ce565b9392505050565b60008115159050919050565b62000423816200040c565b81146200042f57600080fd5b50565b600081519050620004438162000418565b92915050565b600060208284031215620004625762000461620002d0565b5b6000620004728482850162000432565b91505092915050565b60805160a05160c051611a46620004ce600039600061045b015260008181610423015281816104aa015281816107d4015281816108ab01526109510152600081816102cf015261054b0152611a466000f3fe6080604052600436106100955760003560e01c80638da5cb5b116100595780638da5cb5b14610174578063a48a90581461019f578063db3e3461146101dc578063f2fde38b14610207578063f3fef3a3146102305761009c565b806301e33667146100a15780633626454d146100ca578063581bdd1614610107578063715018a6146101325780637d253aff146101495761009c565b3661009c57005b600080fd5b3480156100ad57600080fd5b506100c860048036038101906100c39190610bec565b610259565b005b3480156100d657600080fd5b506100f160048036038101906100ec9190611187565b6102cb565b6040516100fe91906112c7565b60405180910390f35b34801561011357600080fd5b5061011c610421565b60405161012991906112f8565b60405180910390f35b34801561013e57600080fd5b50610147610445565b005b34801561015557600080fd5b5061015e610459565b60405161016b91906112f8565b60405180910390f35b34801561018057600080fd5b5061018961047d565b60405161019691906112f8565b60405180910390f35b3480156101ab57600080fd5b506101c660048036038101906101c19190611313565b6104a6565b6040516101d3919061135b565b60405180910390f35b3480156101e857600080fd5b506101f1610549565b6040516101fe91906112f8565b60405180910390f35b34801561021357600080fd5b5061022e60048036038101906102299190611376565b61056d565b005b34801561023c57600080fd5b50610257600480360381019061025291906113a3565b6105f3565b005b6102616106c4565b600061028c308473ffffffffffffffffffffffffffffffffffffffff1661074b90919063ffffffff16565b90508082111561029a578091505b6102c584838573ffffffffffffffffffffffffffffffffffffffff166107809092919063ffffffff16565b50505050565b60607f000000000000000000000000000000000000000000000000000000000000000073ffffffffffffffffffffffffffffffffffffffff163373ffffffffffffffffffffffffffffffffffffffff1614610352576040517fb32d8c6600000000000000000000000000000000000000000000000000000000815260040160405180910390fd5b825167ffffffffffffffff81111561036d5761036c610c55565b5b60405190808252806020026020018201604052801561039b5781602001602082028036833780820191505090505b50905060005b835181101561041a576103e88482815181106103c0576103bf6113e3565b5b60200260200101518483815181106103db576103da6113e3565b5b60200260200101516107cf565b8282815181106103fb576103fa6113e3565b5b602002602001018181525050808061041290611441565b9150506103a1565b5092915050565b7f000000000000000000000000000000000000000000000000000000000000000081565b61044d6106c4565b6104576000610a78565b565b7f000000000000000000000000000000000000000000000000000000000000000081565b60008060009054906101000a900473ffffffffffffffffffffffffffffffffffffffff16905090565b60007f000000000000000000000000000000000000000000000000000000000000000073ffffffffffffffffffffffffffffffffffffffff1663a48a9058836040518263ffffffff1660e01b81526004016105019190611498565b602060405180830381865afa15801561051e573d6000803e3d6000fd5b505050506040513d601f19601f8201168201806040525081019061054291906114df565b9050919050565b7f000000000000000000000000000000000000000000000000000000000000000081565b6105756106c4565b600073ffffffffffffffffffffffffffffffffffffffff168173ffffffffffffffffffffffffffffffffffffffff16036105e75760006040517f1e4fbdf70000000000000000000000000000000000000000000000000000000081526004016105de91906112f8565b60405180910390fd5b6105f081610a78565b50565b6105fb6106c4565b60004790508082111561060c578091505b60008373ffffffffffffffffffffffffffffffffffffffff16836040516106329061153d565b60006040518083038185875af1925050503d806000811461066f576040519150601f19603f3d011682016040523d82523d6000602084013e610674565b606091505b50509050806106be573384846040517f9d11f5630000000000000000000000000000000000000000000000000000000081526004016106b593929190611561565b60405180910390fd5b50505050565b6106cc610b3c565b73ffffffffffffffffffffffffffffffffffffffff166106ea61047d565b73ffffffffffffffffffffffffffffffffffffffff16146107495761070d610b3c565b6040517f118cdaa700000000000000000000000000000000000000000000000000000000815260040161074091906112f8565b60405180910390fd5b565b6000816014526f70a0823100000000000000000000000060005260208060246010865afa601f3d111660205102905092915050565b81601452806034526fa9059cbb00000000000000000000000060005260206000604460106000875af13d1560016000511417166107c5576390b8ec186000526004601cfd5b6000603452505050565b6000807f000000000000000000000000000000000000000000000000000000000000000073ffffffffffffffffffffffffffffffffffffffff166320487ded84866040518363ffffffff1660e01b815260040161082d92919061179e565b602060405180830381865afa15801561084a573d6000803e3d6000fd5b505050506040513d601f19601f8201168201806040525081019061086e91906117e3565b905060008073ffffffffffffffffffffffffffffffffffffffff16856060015173ffffffffffffffffffffffffffffffffffffffff160361094f577f000000000000000000000000000000000000000000000000000000000000000073ffffffffffffffffffffffffffffffffffffffff166396f4e9f98386886040518463ffffffff1660e01b815260040161090592919061179e565b60206040518083038185885af1158015610923573d6000803e3d6000fd5b50505050506040513d601f19601f82011682018060405250810190610948919061183c565b90506109f0565b7f000000000000000000000000000000000000000000000000000000000000000073ffffffffffffffffffffffffffffffffffffffff166396f4e9f985876040518363ffffffff1660e01b81526004016109aa92919061179e565b6020604051808303816000875af11580156109c9573d6000803e3d6000fd5b505050506040513d601f19601f820116820180604052508101906109ed919061183c565b90505b60008560200151806020019051810190610a0a9190611950565b5050505090508073ffffffffffffffffffffffffffffffffffffffff168567ffffffffffffffff16837fbb84df71a0e51d82ff2e818a77257c7a05d8ea1bbcf265b377fd30d8e9e790213087604051610a649291906119e7565b60405180910390a481935050505092915050565b60008060009054906101000a900473ffffffffffffffffffffffffffffffffffffffff169050816000806101000a81548173ffffffffffffffffffffffffffffffffffffffff021916908373ffffffffffffffffffffffffffffffffffffffff1602179055508173ffffffffffffffffffffffffffffffffffffffff168173ffffffffffffffffffffffffffffffffffffffff167f8be0079c531659141344cd1fd0a4f28419497f9722a3daafe3b4186f6b6457e060405160405180910390a35050565b600033905090565b6000604051905090565b600080fd5b600080fd5b600073ffffffffffffffffffffffffffffffffffffffff82169050919050565b6000610b8382610b58565b9050919050565b610b9381610b78565b8114610b9e57600080fd5b50565b600081359050610bb081610b8a565b92915050565b6000819050919050565b610bc981610bb6565b8114610bd457600080fd5b50565b600081359050610be681610bc0565b92915050565b600080600060608486031215610c0557610c04610b4e565b5b6000610c1386828701610ba1565b9350506020610c2486828701610ba1565b9250506040610c3586828701610bd7565b9150509250925092565b600080fd5b6000601f19601f8301169050919050565b7f4e487b7100000000000000000000000000000000000000000000000000000000600052604160045260246000fd5b610c8d82610c44565b810181811067ffffffffffffffff82111715610cac57610cab610c55565b5b80604052505050565b6000610cbf610b44565b9050610ccb8282610c84565b919050565b600067ffffffffffffffff821115610ceb57610cea610c55565b5b602082029050602081019050919050565b600080fd5b600080fd5b600080fd5b600080fd5b600067ffffffffffffffff821115610d2b57610d2a610c55565b5b610d3482610c44565b9050602081019050919050565b82818337600083830152505050565b6000610d63610d5e84610d10565b610cb5565b905082815260208101848484011115610d7f57610d7e610d0b565b5b610d8a848285610d41565b509392505050565b600082601f830112610da757610da6610c3f565b5b8135610db7848260208601610d50565b91505092915050565b600067ffffffffffffffff821115610ddb57610dda610c55565b5b602082029050602081019050919050565b600060408284031215610e0257610e01610d01565b5b610e0c6040610cb5565b90506000610e1c84828501610ba1565b6000830152506020610e3084828501610bd7565b60208301525092915050565b6000610e4f610e4a84610dc0565b610cb5565b90508083825260208201905060408402830185811115610e7257610e71610cfc565b5b835b81811015610e9b5780610e878882610dec565b845260208401935050604081019050610e74565b5050509392505050565b600082601f830112610eba57610eb9610c3f565b5b8135610eca848260208601610e3c565b91505092915050565b600060a08284031215610ee957610ee8610d01565b5b610ef360a0610cb5565b9050600082013567ffffffffffffffff811115610f1357610f12610d06565b5b610f1f84828501610d92565b600083015250602082013567ffffffffffffffff811115610f4357610f42610d06565b5b610f4f84828501610d92565b602083015250604082013567ffffffffffffffff811115610f7357610f72610d06565b5b610f7f84828501610ea5565b6040830152506060610f9384828501610ba1565b606083015250608082013567ffffffffffffffff811115610fb757610fb6610d06565b5b610fc384828501610d92565b60808301525092915050565b6000610fe2610fdd84610cd0565b610cb5565b9050808382526020820190506020840283018581111561100557611004610cfc565b5b835b8181101561104c57803567ffffffffffffffff81111561102a57611029610c3f565b5b8086016110378982610ed3565b85526020850194505050602081019050611007565b5050509392505050565b600082601f83011261106b5761106a610c3f565b5b813561107b848260208601610fcf565b91505092915050565b600067ffffffffffffffff82111561109f5761109e610c55565b5b602082029050602081019050919050565b600067ffffffffffffffff82169050919050565b6110cd816110b0565b81146110d857600080fd5b50565b6000813590506110ea816110c4565b92915050565b60006111036110fe84611084565b610cb5565b9050808382526020820190506020840283018581111561112657611125610cfc565b5b835b8181101561114f578061113b88826110db565b845260208401935050602081019050611128565b5050509392505050565b600082601f83011261116e5761116d610c3f565b5b813561117e8482602086016110f0565b91505092915050565b6000806040838503121561119e5761119d610b4e565b5b600083013567ffffffffffffffff8111156111bc576111bb610b53565b5b6111c885828601611056565b925050602083013567ffffffffffffffff8111156111e9576111e8610b53565b5b6111f585828601611159565b9150509250929050565b600081519050919050565b600082825260208201905092915050565b6000819050602082019050919050565b6000819050919050565b61123e8161122b565b82525050565b60006112508383611235565b60208301905092915050565b6000602082019050919050565b6000611274826111ff565b61127e818561120a565b93506112898361121b565b8060005b838110156112ba5781516112a18882611244565b97506112ac8361125c565b92505060018101905061128d565b5085935050505092915050565b600060208201905081810360008301526112e18184611269565b905092915050565b6112f281610b78565b82525050565b600060208201905061130d60008301846112e9565b92915050565b60006020828403121561132957611328610b4e565b5b6000611337848285016110db565b91505092915050565b60008115159050919050565b61135581611340565b82525050565b6000602082019050611370600083018461134c565b92915050565b60006020828403121561138c5761138b610b4e565b5b600061139a84828501610ba1565b91505092915050565b600080604083850312156113ba576113b9610b4e565b5b60006113c885828601610ba1565b92505060206113d985828601610bd7565b9150509250929050565b7f4e487b7100000000000000000000000000000000000000000000000000000000600052603260045260246000fd5b7f4e487b7100000000000000000000000000000000000000000000000000000000600052601160045260246000fd5b600061144c82610bb6565b91507fffffffffffffffffffffffffffffffffffffffffffffffffffffffffffffffff820361147e5761147d611412565b5b600182019050919050565b611492816110b0565b82525050565b60006020820190506114ad6000830184611489565b92915050565b6114bc81611340565b81146114c757600080fd5b50565b6000815190506114d9816114b3565b92915050565b6000602082840312156114f5576114f4610b4e565b5b6000611503848285016114ca565b91505092915050565b600081905092915050565b50565b600061152760008361150c565b915061153282611517565b600082019050919050565b60006115488261151a565b9150819050919050565b61155b81610bb6565b82525050565b600060608201905061157660008301866112e9565b61158360208301856112e9565b6115906040830184611552565b949350505050565b600081519050919050565b600082825260208201905092915050565b60005b838110156115d25780820151818401526020810190506115b7565b60008484015250505050565b60006115e982611598565b6115f381856115a3565b93506116038185602086016115b4565b61160c81610c44565b840191505092915050565b600081519050919050565b600082825260208201905092915050565b6000819050602082019050919050565b61164c81610b78565b82525050565b61165b81610bb6565b82525050565b6040820160008201516116776000850182611643565b50602082015161168a6020850182611652565b50505050565b600061169c8383611661565b60408301905092915050565b6000602082019050919050565b60006116c082611617565b6116ca8185611622565b93506116d583611633565b8060005b838110156117065781516116ed8882611690565b97506116f8836116a8565b9250506001810190506116d9565b5085935050505092915050565b600060a083016000830151848203600086015261173082826115de565b9150506020830151848203602086015261174a82826115de565b9150506040830151848203604086015261176482826116b5565b91505060608301516117796060860182611643565b506080830151848203608086015261179182826115de565b9150508091505092915050565b60006040820190506117b36000830185611489565b81810360208301526117c58184611713565b90509392505050565b6000815190506117dd81610bc0565b92915050565b6000602082840312156117f9576117f8610b4e565b5b6000611807848285016117ce565b91505092915050565b6118198161122b565b811461182457600080fd5b50565b60008151905061183681611810565b92915050565b60006020828403121561185257611851610b4e565b5b600061186084828501611827565b91505092915050565b600061187482610b58565b9050919050565b61188481611869565b811461188f57600080fd5b50565b6000815190506118a18161187b565b92915050565b600060ff82169050919050565b6118bd816118a7565b81146118c857600080fd5b50565b6000815190506118da816118b4565b92915050565b60006118f36118ee84610d10565b610cb5565b90508281526020810184848401111561190f5761190e610d0b565b5b61191a8482856115b4565b509392505050565b600082601f83011261193757611936610c3f565b5b81516119478482602086016118e0565b91505092915050565b600080600080600060a0868803121561196c5761196b610b4e565b5b600061197a88828901611892565b955050602061198b88828901611892565b945050604061199c88828901611892565b93505060606119ad888289016118cb565b925050608086015167ffffffffffffffff8111156119ce576119cd610b53565b5b6119da88828901611922565b9150509295509295909350565b60006040820190506119fc60008301856112e9565b611a096020830184611552565b939250505056fea26469706673582212207260749d28c6f63f821317490a82201992ebdd17bc72b5761627e9b20d1ae9b664736f6c63430008140033a2646970667358221220e127a0c3089b86ff72f5fef8cf3a35dfbeb9aeb38cbbebdb4210790573a3ea8564736f6c63430008140033","opcodes":"PUSH1 0x80 PUSH1 0x40 MSTORE CALLVALUE DUP1 ISZERO PUSH3 0x11 JUMPI PUSH1 0x0 DUP1 REVERT JUMPDEST POP PUSH1 0x0 PUSH3 0x24 PUSH3 0xC8 PUSH1 0x20 SHL PUSH1 0x20 SHR JUMP JUMPDEST SWAP1 POP DUP1 PUSH1 0x0 DUP1 PUSH2 0x100 EXP DUP2 SLOAD DUP2 PUSH20 0xFFFFFFFFFFFFFFFFFFFFFFFFFFFFFFFFFFFFFFFF MUL NOT AND SWAP1 DUP4 PUSH20 0xFFFFFFFFFFFFFFFFFFFFFFFFFFFFFFFFFFFFFFFF AND MUL OR SWAP1 SSTORE POP DUP1 PUSH20 0xFFFFFFFFFFFFFFFFFFFFFFFFFFFFFFFFFFFFFFFF AND PUSH1 0x0 PUSH20 0xFFFFFFFFFFFFFFFFFFFFFFFFFFFFFFFFFFFFFFFF AND PUSH32 0x8BE0079C531659141344CD1FD0A4F28419497F9722A3DAAFE3B4186F6B6457E0 PUSH1 0x40 MLOAD PUSH1 0x40 MLOAD DUP1 SWAP2 SUB SWAP1 LOG3 POP PUSH3 0xD0 JUMP JUMPDEST PUSH1 0x0 CALLER SWAP1 POP SWAP1 JUMP JUMPDEST PUSH2 0x8439 DUP1 PUSH3 0xE0 PUSH1 0x0 CODECOPY PUSH1 0x0 RETURN INVALID PUSH1 0x80 PUSH1 0x40 MSTORE PUSH1 0x4 CALLDATASIZE LT PUSH3 0x11B JUMPI PUSH1 0x0 CALLDATALOAD PUSH1 0xE0 SHR DUP1 PUSH4 0x7D253AFF GT PUSH3 0xA3 JUMPI DUP1 PUSH4 0x95D992C3 GT PUSH3 0x6D JUMPI DUP1 PUSH4 0x95D992C3 EQ PUSH3 0x398 JUMPI DUP1 PUSH4 0xB0F479A1 EQ PUSH3 0x3DC JUMPI DUP1 PUSH4 0xF2FDE38B EQ PUSH3 0x40C JUMPI DUP1 PUSH4 0xF8C8765E EQ PUSH3 0x43A JUMPI DUP1 PUSH4 0xFBFA77CF EQ PUSH3 0x468 JUMPI PUSH3 0x123 JUMP JUMPDEST DUP1 PUSH4 0x7D253AFF EQ PUSH3 0x2C6 JUMPI DUP1 PUSH4 0x85572FFB EQ PUSH3 0x2F6 JUMPI DUP1 PUSH4 0x8DA5CB5B EQ PUSH3 0x324 JUMPI DUP1 PUSH4 0x920F5C84 EQ PUSH3 0x354 JUMPI PUSH3 0x123 JUMP JUMPDEST DUP1 PUSH4 0x528E4E5F GT PUSH3 0xE5 JUMPI DUP1 PUSH4 0x528E4E5F EQ PUSH3 0x202 JUMPI DUP1 PUSH4 0x5BEEAB33 EQ PUSH3 0x246 JUMPI DUP1 PUSH4 0x715018A6 EQ PUSH3 0x27C JUMPI DUP1 PUSH4 0x79B29333 EQ PUSH3 0x296 JUMPI PUSH3 0x123 JUMP JUMPDEST DUP1 PUSH4 0x1FFC9A7 EQ PUSH3 0x128 JUMPI DUP1 PUSH4 0x2E99F1E4 EQ PUSH3 0x16C JUMPI DUP1 PUSH4 0x392E53CD EQ PUSH3 0x1A2 JUMPI DUP1 PUSH4 0x4AA4A4FC EQ PUSH3 0x1D2 JUMPI PUSH3 0x123 JUMP JUMPDEST CALLDATASIZE PUSH3 0x123 JUMPI STOP JUMPDEST PUSH1 0x0 DUP1 REVERT JUMPDEST CALLVALUE DUP1 ISZERO PUSH3 0x135 JUMPI PUSH1 0x0 DUP1 REVERT JUMPDEST POP PUSH3 0x154 PUSH1 0x4 DUP1 CALLDATASIZE SUB DUP2 ADD SWAP1 PUSH3 0x14E SWAP2 SWAP1 PUSH3 0x4277 JUMP JUMPDEST PUSH3 0x498 JUMP JUMPDEST PUSH1 0x40 MLOAD PUSH3 0x163 SWAP2 SWAP1 PUSH3 0x42C6 JUMP JUMPDEST PUSH1 0x40 MLOAD DUP1 SWAP2 SUB SWAP1 RETURN JUMPDEST PUSH3 0x18A PUSH1 0x4 DUP1 CALLDATASIZE SUB DUP2 ADD SWAP1 PUSH3 0x184 SWAP2 SWAP1 PUSH3 0x45E7 JUMP JUMPDEST PUSH3 0x56B JUMP JUMPDEST PUSH1 0x40 MLOAD PUSH3 0x199 SWAP2 SWAP1 PUSH3 0x4649 JUMP JUMPDEST PUSH1 0x40 MLOAD DUP1 SWAP2 SUB SWAP1 RETURN JUMPDEST CALLVALUE DUP1 ISZERO PUSH3 0x1AF JUMPI PUSH1 0x0 DUP1 REVERT JUMPDEST POP PUSH3 0x1BA PUSH3 0xCB6 JUMP JUMPDEST PUSH1 0x40 MLOAD PUSH3 0x1C9 SWAP2 SWAP1 PUSH3 0x42C6 JUMP JUMPDEST PUSH1 0x40 MLOAD DUP1 SWAP2 SUB SWAP1 RETURN JUMPDEST CALLVALUE DUP1 ISZERO PUSH3 0x1DF JUMPI PUSH1 0x0 DUP1 REVERT JUMPDEST POP PUSH3 0x1EA PUSH3 0xCC9 JUMP JUMPDEST PUSH1 0x40 MLOAD PUSH3 0x1F9 SWAP2 SWAP1 PUSH3 0x4677 JUMP JUMPDEST PUSH1 0x40 MLOAD DUP1 SWAP2 SUB SWAP1 RETURN JUMPDEST CALLVALUE DUP1 ISZERO PUSH3 0x20F JUMPI PUSH1 0x0 DUP1 REVERT JUMPDEST POP PUSH3 0x22E PUSH1 0x4 DUP1 CALLDATASIZE SUB DUP2 ADD SWAP1 PUSH3 0x228 SWAP2 SWAP1 PUSH3 0x45E7 JUMP JUMPDEST PUSH3 0xCEF JUMP JUMPDEST PUSH1 0x40 MLOAD PUSH3 0x23D SWAP2 SWAP1 PUSH3 0x4649 JUMP JUMPDEST PUSH1 0x40 MLOAD DUP1 SWAP2 SUB SWAP1 RETURN JUMPDEST PUSH3 0x264 PUSH1 0x4 DUP1 CALLDATASIZE SUB DUP2 ADD SWAP1 PUSH3 0x25E SWAP2 SWAP1 PUSH3 0x45E7 JUMP JUMPDEST PUSH3 0xD73 JUMP JUMPDEST PUSH1 0x40 MLOAD PUSH3 0x273 SWAP2 SWAP1 PUSH3 0x4649 JUMP JUMPDEST PUSH1 0x40 MLOAD DUP1 SWAP2 SUB SWAP1 RETURN JUMPDEST CALLVALUE DUP1 ISZERO PUSH3 0x289 JUMPI PUSH1 0x0 DUP1 REVERT JUMPDEST POP PUSH3 0x294 PUSH3 0xFF6 JUMP JUMPDEST STOP JUMPDEST CALLVALUE DUP1 ISZERO PUSH3 0x2A3 JUMPI PUSH1 0x0 DUP1 REVERT JUMPDEST POP PUSH3 0x2AE PUSH3 0x1137 JUMP JUMPDEST PUSH1 0x40 MLOAD PUSH3 0x2BD SWAP2 SWAP1 PUSH3 0x46FF JUMP JUMPDEST PUSH1 0x40 MLOAD DUP1 SWAP2 SUB SWAP1 RETURN JUMPDEST CALLVALUE DUP1 ISZERO PUSH3 0x2D3 JUMPI PUSH1 0x0 DUP1 REVERT JUMPDEST POP PUSH3 0x2DE PUSH3 0x115D JUMP JUMPDEST PUSH1 0x40 MLOAD PUSH3 0x2ED SWAP2 SWAP1 PUSH3 0x4677 JUMP JUMPDEST PUSH1 0x40 MLOAD DUP1 SWAP2 SUB SWAP1 RETURN JUMPDEST CALLVALUE DUP1 ISZERO PUSH3 0x303 JUMPI PUSH1 0x0 DUP1 REVERT JUMPDEST POP PUSH3 0x322 PUSH1 0x4 DUP1 CALLDATASIZE SUB DUP2 ADD SWAP1 PUSH3 0x31C SWAP2 SWAP1 PUSH3 0x4743 JUMP JUMPDEST PUSH3 0x1183 JUMP JUMPDEST STOP JUMPDEST CALLVALUE DUP1 ISZERO PUSH3 0x331 JUMPI PUSH1 0x0 DUP1 REVERT JUMPDEST POP PUSH3 0x33C PUSH3 0x1231 JUMP JUMPDEST PUSH1 0x40 MLOAD PUSH3 0x34B SWAP2 SWAP1 PUSH3 0x4677 JUMP JUMPDEST PUSH1 0x40 MLOAD DUP1 SWAP2 SUB SWAP1 RETURN JUMPDEST CALLVALUE DUP1 ISZERO PUSH3 0x361 JUMPI PUSH1 0x0 DUP1 REVERT JUMPDEST POP PUSH3 0x380 PUSH1 0x4 DUP1 CALLDATASIZE SUB DUP2 ADD SWAP1 PUSH3 0x37A SWAP2 SWAP1 PUSH3 0x48BB JUMP JUMPDEST PUSH3 0x125A JUMP JUMPDEST PUSH1 0x40 MLOAD PUSH3 0x38F SWAP2 SWAP1 PUSH3 0x42C6 JUMP JUMPDEST PUSH1 0x40 MLOAD DUP1 SWAP2 SUB SWAP1 RETURN JUMPDEST CALLVALUE DUP1 ISZERO PUSH3 0x3A5 JUMPI PUSH1 0x0 DUP1 REVERT JUMPDEST POP PUSH3 0x3C4 PUSH1 0x4 DUP1 CALLDATASIZE SUB DUP2 ADD SWAP1 PUSH3 0x3BE SWAP2 SWAP1 PUSH3 0x45E7 JUMP JUMPDEST PUSH3 0x1694 JUMP JUMPDEST PUSH1 0x40 MLOAD PUSH3 0x3D3 SWAP2 SWAP1 PUSH3 0x4649 JUMP JUMPDEST PUSH1 0x40 MLOAD DUP1 SWAP2 SUB SWAP1 RETURN JUMPDEST CALLVALUE DUP1 ISZERO PUSH3 0x3E9 JUMPI PUSH1 0x0 DUP1 REVERT JUMPDEST POP PUSH3 0x3F4 PUSH3 0x17C8 JUMP JUMPDEST PUSH1 0x40 MLOAD PUSH3 0x403 SWAP2 SWAP1 PUSH3 0x4677 JUMP JUMPDEST PUSH1 0x40 MLOAD DUP1 SWAP2 SUB SWAP1 RETURN JUMPDEST CALLVALUE DUP1 ISZERO PUSH3 0x419 JUMPI PUSH1 0x0 DUP1 REVERT JUMPDEST POP PUSH3 0x438 PUSH1 0x4 DUP1 CALLDATASIZE SUB DUP2 ADD SWAP1 PUSH3 0x432 SWAP2 SWAP1 PUSH3 0x49D0 JUMP JUMPDEST PUSH3 0x17F2 JUMP JUMPDEST STOP JUMPDEST CALLVALUE DUP1 ISZERO PUSH3 0x447 JUMPI PUSH1 0x0 DUP1 REVERT JUMPDEST POP PUSH3 0x466 PUSH1 0x4 DUP1 CALLDATASIZE SUB DUP2 ADD SWAP1 PUSH3 0x460 SWAP2 SWAP1 PUSH3 0x4A02 JUMP JUMPDEST PUSH3 0x19A4 JUMP JUMPDEST STOP JUMPDEST CALLVALUE DUP1 ISZERO PUSH3 0x475 JUMPI PUSH1 0x0 DUP1 REVERT JUMPDEST POP PUSH3 0x480 PUSH3 0x1BDA JUMP JUMPDEST PUSH1 0x40 MLOAD PUSH3 0x48F SWAP2 SWAP1 PUSH3 0x4677 JUMP JUMPDEST PUSH1 0x40 MLOAD DUP1 SWAP2 SUB SWAP1 RETURN JUMPDEST PUSH1 0x0 PUSH32 0x85572FFB00000000000000000000000000000000000000000000000000000000 PUSH28 0xFFFFFFFFFFFFFFFFFFFFFFFFFFFFFFFFFFFFFFFFFFFFFFFFFFFFFFFF NOT AND DUP3 PUSH28 0xFFFFFFFFFFFFFFFFFFFFFFFFFFFFFFFFFFFFFFFFFFFFFFFFFFFFFFFF NOT AND EQ DUP1 PUSH3 0x564 JUMPI POP PUSH32 0x1FFC9A700000000000000000000000000000000000000000000000000000000 PUSH28 0xFFFFFFFFFFFFFFFFFFFFFFFFFFFFFFFFFFFFFFFFFFFFFFFFFFFFFFFF NOT AND DUP3 PUSH28 0xFFFFFFFFFFFFFFFFFFFFFFFFFFFFFFFFFFFFFFFFFFFFFFFFFFFFFFFF NOT AND EQ JUMPDEST SWAP1 POP SWAP2 SWAP1 POP JUMP JUMPDEST PUSH1 0x0 DUP1 PUSH3 0x578 PUSH3 0x1C00 JUMP JUMPDEST SWAP1 POP PUSH1 0x0 DUP2 PUSH1 0x0 ADD SLOAD EQ PUSH3 0x5B9 JUMPI PUSH1 0x40 MLOAD PUSH32 0x19239FC500000000000000000000000000000000000000000000000000000000 DUP2 MSTORE PUSH1 0x4 ADD PUSH1 0x40 MLOAD DUP1 SWAP2 SUB SWAP1 REVERT JUMPDEST PUSH1 0x1 DUP2 PUSH1 0x0 ADD DUP2 SWAP1 SSTORE POP PUSH3 0x5E8 DUP4 PUSH1 0x0 ADD MLOAD PUSH20 0xFFFFFFFFFFFFFFFFFFFFFFFFFFFFFFFFFFFFFFFF AND PUSH3 0x1C30 JUMP JUMPDEST DUP1 ISZERO PUSH3 0x5F9 JUMPI POP CALLVALUE DUP4 PUSH1 0x40 ADD MLOAD EQ ISZERO JUMPDEST ISZERO PUSH3 0x644 JUMPI CALLVALUE DUP4 PUSH1 0x40 ADD MLOAD PUSH1 0x40 MLOAD PUSH32 0xBA38A90500000000000000000000000000000000000000000000000000000000 DUP2 MSTORE PUSH1 0x4 ADD PUSH3 0x63B SWAP3 SWAP2 SWAP1 PUSH3 0x4A74 JUMP JUMPDEST PUSH1 0x40 MLOAD DUP1 SWAP2 SUB SWAP1 REVERT JUMPDEST PUSH3 0x67B CALLER ADDRESS DUP6 PUSH1 0x40 ADD MLOAD DUP7 PUSH1 0x0 ADD MLOAD PUSH20 0xFFFFFFFFFFFFFFFFFFFFFFFFFFFFFFFFFFFFFFFF AND PUSH3 0x1CED SWAP1 SWAP4 SWAP3 SWAP2 SWAP1 PUSH4 0xFFFFFFFF AND JUMP JUMPDEST PUSH3 0x6AA CALLER DUP5 PUSH1 0x20 ADD MLOAD PUSH20 0xFFFFFFFFFFFFFFFFFFFFFFFFFFFFFFFFFFFFFFFF AND PUSH3 0x1D4D SWAP1 SWAP2 SWAP1 PUSH4 0xFFFFFFFF AND JUMP JUMPDEST SWAP2 POP PUSH1 0x0 DUP4 PUSH1 0x80 ADD MLOAD MLOAD SUB PUSH3 0x758 JUMPI PUSH1 0x0 PUSH1 0x1 DUP5 PUSH1 0x60 ADD MLOAD AND PUSH1 0xFF AND SUB PUSH3 0x712 JUMPI PUSH3 0x70C PUSH3 0x6F6 DUP5 PUSH1 0x0 ADD MLOAD PUSH20 0xFFFFFFFFFFFFFFFFFFFFFFFFFFFFFFFFFFFFFFFF AND PUSH3 0x1C30 JUMP JUMPDEST DUP5 PUSH1 0x0 ADD MLOAD DUP6 PUSH1 0x20 ADD MLOAD DUP7 PUSH1 0x40 ADD MLOAD CALLER PUSH3 0x1D82 JUMP JUMPDEST PUSH3 0x752 JUMP JUMPDEST PUSH3 0x751 PUSH3 0x73B DUP5 PUSH1 0x0 ADD MLOAD PUSH20 0xFFFFFFFFFFFFFFFFFFFFFFFFFFFFFFFFFFFFFFFF AND PUSH3 0x1C30 JUMP JUMPDEST DUP5 PUSH1 0x0 ADD MLOAD DUP6 PUSH1 0x20 ADD MLOAD DUP7 PUSH1 0x40 ADD MLOAD CALLER PUSH3 0x1FE6 JUMP JUMPDEST JUMPDEST PUSH3 0xC68 JUMP JUMPDEST PUSH3 0x762 PUSH3 0x40AA JUMP JUMPDEST DUP4 PUSH1 0x80 ADD MLOAD DUP1 PUSH1 0x20 ADD SWAP1 MLOAD DUP2 ADD SWAP1 PUSH3 0x77C SWAP2 SWAP1 PUSH3 0x4BA7 JUMP JUMPDEST DUP5 PUSH1 0x80 ADD DUP6 PUSH1 0xA0 ADD DUP7 PUSH1 0xC0 ADD DUP8 PUSH2 0x100 ADD DUP5 SWAP1 MSTORE DUP5 DUP2 MSTORE POP DUP5 PUSH20 0xFFFFFFFFFFFFFFFFFFFFFFFFFFFFFFFFFFFFFFFF AND PUSH20 0xFFFFFFFFFFFFFFFFFFFFFFFFFFFFFFFFFFFFFFFF AND DUP2 MSTORE POP DUP5 PUSH20 0xFFFFFFFFFFFFFFFFFFFFFFFFFFFFFFFFFFFFFFFF AND PUSH20 0xFFFFFFFFFFFFFFFFFFFFFFFFFFFFFFFFFFFFFFFF AND DUP2 MSTORE POP POP POP POP POP PUSH1 0x1 PUSH8 0xFFFFFFFFFFFFFFFF DUP2 GT ISZERO PUSH3 0x816 JUMPI PUSH3 0x815 PUSH3 0x42F9 JUMP JUMPDEST JUMPDEST PUSH1 0x40 MLOAD SWAP1 DUP1 DUP3 MSTORE DUP1 PUSH1 0x20 MUL PUSH1 0x20 ADD DUP3 ADD PUSH1 0x40 MSTORE DUP1 ISZERO PUSH3 0x845 JUMPI DUP2 PUSH1 0x20 ADD PUSH1 0x20 DUP3 MUL DUP1 CALLDATASIZE DUP4 CALLDATACOPY DUP1 DUP3 ADD SWAP2 POP POP SWAP1 POP JUMPDEST POP DUP2 PUSH2 0x120 ADD DUP2 SWAP1 MSTORE POP PUSH1 0x1 PUSH8 0xFFFFFFFFFFFFFFFF DUP2 GT ISZERO PUSH3 0x86D JUMPI PUSH3 0x86C PUSH3 0x42F9 JUMP JUMPDEST JUMPDEST PUSH1 0x40 MLOAD SWAP1 DUP1 DUP3 MSTORE DUP1 PUSH1 0x20 MUL PUSH1 0x20 ADD DUP3 ADD PUSH1 0x40 MSTORE DUP1 ISZERO PUSH3 0x89C JUMPI DUP2 PUSH1 0x20 ADD PUSH1 0x20 DUP3 MUL DUP1 CALLDATASIZE DUP4 CALLDATACOPY DUP1 DUP3 ADD SWAP2 POP POP SWAP1 POP JUMPDEST POP DUP2 PUSH2 0x140 ADD DUP2 SWAP1 MSTORE POP PUSH1 0x1 PUSH8 0xFFFFFFFFFFFFFFFF DUP2 GT ISZERO PUSH3 0x8C4 JUMPI PUSH3 0x8C3 PUSH3 0x42F9 JUMP JUMPDEST JUMPDEST PUSH1 0x40 MLOAD SWAP1 DUP1 DUP3 MSTORE DUP1 PUSH1 0x20 MUL PUSH1 0x20 ADD DUP3 ADD PUSH1 0x40 MSTORE DUP1 ISZERO PUSH3 0x8F3 JUMPI DUP2 PUSH1 0x20 ADD PUSH1 0x20 DUP3 MUL DUP1 CALLDATASIZE DUP4 CALLDATACOPY DUP1 DUP3 ADD SWAP2 POP POP SWAP1 POP JUMPDEST POP DUP2 PUSH2 0x160 ADD DUP2 SWAP1 MSTORE POP PUSH1 0x0 PUSH1 0x4 DUP6 PUSH1 0x60 ADD MLOAD AND PUSH1 0xFF AND EQ PUSH3 0x91B JUMPI DUP4 PUSH1 0x0 ADD MLOAD PUSH3 0x921 JUMP JUMPDEST DUP1 PUSH1 0x80 ADD MLOAD JUMPDEST DUP2 PUSH2 0x120 ADD MLOAD PUSH1 0x0 DUP2 MLOAD DUP2 LT PUSH3 0x93D JUMPI PUSH3 0x93C PUSH3 0x4C38 JUMP JUMPDEST JUMPDEST PUSH1 0x20 MUL PUSH1 0x20 ADD ADD SWAP1 PUSH20 0xFFFFFFFFFFFFFFFFFFFFFFFFFFFFFFFFFFFFFFFF AND SWAP1 DUP2 PUSH20 0xFFFFFFFFFFFFFFFFFFFFFFFFFFFFFFFFFFFFFFFF AND DUP2 MSTORE POP POP PUSH3 0x9BB DUP2 PUSH2 0x120 ADD MLOAD PUSH1 0x0 DUP2 MLOAD DUP2 LT PUSH3 0x997 JUMPI PUSH3 0x996 PUSH3 0x4C38 JUMP JUMPDEST JUMPDEST PUSH1 0x20 MUL PUSH1 0x20 ADD ADD MLOAD PUSH20 0xFFFFFFFFFFFFFFFFFFFFFFFFFFFFFFFFFFFFFFFF AND PUSH3 0x1C30 JUMP JUMPDEST ISZERO PUSH3 0xA3B JUMPI PUSH1 0x3 PUSH1 0x0 SWAP1 SLOAD SWAP1 PUSH2 0x100 EXP SWAP1 DIV PUSH20 0xFFFFFFFFFFFFFFFFFFFFFFFFFFFFFFFFFFFFFFFF AND DUP2 PUSH2 0x120 ADD MLOAD PUSH1 0x0 DUP2 MLOAD DUP2 LT PUSH3 0xA00 JUMPI PUSH3 0x9FF PUSH3 0x4C38 JUMP JUMPDEST JUMPDEST PUSH1 0x20 MUL PUSH1 0x20 ADD ADD SWAP1 PUSH20 0xFFFFFFFFFFFFFFFFFFFFFFFFFFFFFFFFFFFFFFFF AND SWAP1 DUP2 PUSH20 0xFFFFFFFFFFFFFFFFFFFFFFFFFFFFFFFFFFFFFFFF AND DUP2 MSTORE POP POP JUMPDEST DUP1 PUSH1 0xC0 ADD MLOAD DUP2 PUSH2 0x140 ADD MLOAD PUSH1 0x0 DUP2 MLOAD DUP2 LT PUSH3 0xA5C JUMPI PUSH3 0xA5B PUSH3 0x4C38 JUMP JUMPDEST JUMPDEST PUSH1 0x20 MUL PUSH1 0x20 ADD ADD DUP2 DUP2 MSTORE POP POP PUSH1 0x2 PUSH1 0x0 SWAP1 SLOAD SWAP1 PUSH2 0x100 EXP SWAP1 DIV PUSH20 0xFFFFFFFFFFFFFFFFFFFFFFFFFFFFFFFFFFFFFFFF AND PUSH20 0xFFFFFFFFFFFFFFFFFFFFFFFFFFFFFFFFFFFFFFFF AND PUSH4 0xAB9C4B5D ADDRESS DUP4 PUSH2 0x120 ADD MLOAD DUP5 PUSH2 0x140 ADD MLOAD DUP6 PUSH2 0x160 ADD MLOAD ADDRESS PUSH1 0x40 MLOAD DUP1 PUSH2 0x140 ADD PUSH1 0x40 MSTORE DUP1 CALLER PUSH20 0xFFFFFFFFFFFFFFFFFFFFFFFFFFFFFFFFFFFFFFFF AND DUP2 MSTORE PUSH1 0x20 ADD DUP13 PUSH1 0x0 ADD MLOAD PUSH20 0xFFFFFFFFFFFFFFFFFFFFFFFFFFFFFFFFFFFFFFFF AND DUP2 MSTORE PUSH1 0x20 ADD DUP13 PUSH1 0x20 ADD MLOAD PUSH20 0xFFFFFFFFFFFFFFFFFFFFFFFFFFFFFFFFFFFFFFFF AND DUP2 MSTORE PUSH1 0x20 ADD DUP10 PUSH1 0x80 ADD MLOAD PUSH20 0xFFFFFFFFFFFFFFFFFFFFFFFFFFFFFFFFFFFFFFFF AND DUP2 MSTORE PUSH1 0x20 ADD DUP10 PUSH1 0xA0 ADD MLOAD PUSH20 0xFFFFFFFFFFFFFFFFFFFFFFFFFFFFFFFFFFFFFFFF AND DUP2 MSTORE PUSH1 0x20 ADD DUP10 PUSH2 0x120 ADD MLOAD PUSH1 0x0 DUP2 MLOAD DUP2 LT PUSH3 0xB7E JUMPI PUSH3 0xB7D PUSH3 0x4C38 JUMP JUMPDEST JUMPDEST PUSH1 0x20 MUL PUSH1 0x20 ADD ADD MLOAD PUSH20 0xFFFFFFFFFFFFFFFFFFFFFFFFFFFFFFFFFFFFFFFF AND DUP2 MSTORE PUSH1 0x20 ADD DUP13 PUSH1 0x40 ADD MLOAD DUP2 MSTORE PUSH1 0x20 ADD DUP10 PUSH1 0xC0 ADD MLOAD DUP2 MSTORE PUSH1 0x20 ADD DUP13 PUSH1 0x60 ADD MLOAD PUSH1 0xFF AND DUP2 MSTORE PUSH1 0x20 ADD DUP10 PUSH2 0x100 ADD MLOAD DUP2 MSTORE POP PUSH1 0x40 MLOAD PUSH1 0x20 ADD PUSH3 0xBDD SWAP2 SWAP1 PUSH3 0x4DE5 JUMP JUMPDEST PUSH1 0x40 MLOAD PUSH1 0x20 DUP2 DUP4 SUB SUB DUP2 MSTORE SWAP1 PUSH1 0x40 MSTORE PUSH1 0x0 PUSH1 0x40 MLOAD DUP9 PUSH4 0xFFFFFFFF AND PUSH1 0xE0 SHL DUP2 MSTORE PUSH1 0x4 ADD PUSH3 0xC12 SWAP8 SWAP7 SWAP6 SWAP5 SWAP4 SWAP3 SWAP2 SWAP1 PUSH3 0x5026 JUMP JUMPDEST PUSH1 0x0 PUSH1 0x40 MLOAD DUP1 DUP4 SUB DUP2 PUSH1 0x0 DUP8 DUP1 EXTCODESIZE ISZERO DUP1 ISZERO PUSH3 0xC2D JUMPI PUSH1 0x0 DUP1 REVERT JUMPDEST POP GAS CALL ISZERO DUP1 ISZERO PUSH3 0xC42 JUMPI RETURNDATASIZE PUSH1 0x0 DUP1 RETURNDATACOPY RETURNDATASIZE PUSH1 0x0 REVERT JUMPDEST POP POP POP POP PUSH3 0xC55 DUP5 PUSH1 0x0 ADD MLOAD PUSH3 0x2197 JUMP JUMPDEST POP PUSH3 0xC65 DUP2 PUSH1 0x80 ADD MLOAD PUSH3 0x2197 JUMP JUMPDEST POP POP JUMPDEST DUP2 PUSH3 0xC98 CALLER DUP6 PUSH1 0x20 ADD MLOAD PUSH20 0xFFFFFFFFFFFFFFFFFFFFFFFFFFFFFFFFFFFFFFFF AND PUSH3 0x1D4D SWAP1 SWAP2 SWAP1 PUSH4 0xFFFFFFFF AND JUMP JUMPDEST PUSH3 0xCA4 SWAP2 SWAP1 PUSH3 0x50EE JUMP JUMPDEST SWAP2 POP PUSH1 0x0 DUP2 PUSH1 0x0 ADD DUP2 SWAP1 SSTORE POP POP SWAP2 SWAP1 POP JUMP JUMPDEST PUSH1 0x1 PUSH1 0x14 SWAP1 SLOAD SWAP1 PUSH2 0x100 EXP SWAP1 DIV PUSH1 0xFF AND DUP2 JUMP JUMPDEST PUSH1 0x3 PUSH1 0x0 SWAP1 SLOAD SWAP1 PUSH2 0x100 EXP SWAP1 DIV PUSH20 0xFFFFFFFFFFFFFFFFFFFFFFFFFFFFFFFFFFFFFFFF AND DUP2 JUMP JUMPDEST PUSH1 0x0 DUP1 PUSH3 0xD17 DUP4 PUSH1 0x0 ADD MLOAD PUSH20 0xFFFFFFFFFFFFFFFFFFFFFFFFFFFFFFFFFFFFFFFF AND PUSH3 0x1C30 JUMP JUMPDEST SWAP1 POP PUSH1 0x0 PUSH1 0x1 DUP5 PUSH1 0x60 ADD MLOAD AND PUSH1 0xFF AND SUB PUSH3 0xD4F JUMPI PUSH3 0xD47 DUP2 DUP5 PUSH1 0x0 ADD MLOAD DUP6 PUSH1 0x20 ADD MLOAD DUP7 PUSH1 0x40 ADD MLOAD CALLER PUSH3 0x2402 JUMP JUMPDEST SWAP2 POP PUSH3 0xD6D JUMP JUMPDEST PUSH3 0xD6A DUP2 DUP5 PUSH1 0x0 ADD MLOAD DUP6 PUSH1 0x20 ADD MLOAD DUP7 PUSH1 0x40 ADD MLOAD CALLER PUSH3 0x253A JUMP JUMPDEST SWAP2 POP JUMPDEST POP SWAP2 SWAP1 POP JUMP JUMPDEST PUSH1 0x0 DUP1 PUSH3 0xD80 PUSH3 0x1C00 JUMP JUMPDEST SWAP1 POP PUSH1 0x0 DUP2 PUSH1 0x0 ADD SLOAD EQ PUSH3 0xDC1 JUMPI PUSH1 0x40 MLOAD PUSH32 0x19239FC500000000000000000000000000000000000000000000000000000000 DUP2 MSTORE PUSH1 0x4 ADD PUSH1 0x40 MLOAD DUP1 SWAP2 SUB SWAP1 REVERT JUMPDEST PUSH1 0x1 DUP2 PUSH1 0x0 ADD DUP2 SWAP1 SSTORE POP PUSH1 0x0 PUSH3 0xDF2 DUP5 PUSH1 0x0 ADD MLOAD PUSH20 0xFFFFFFFFFFFFFFFFFFFFFFFFFFFFFFFFFFFFFFFF AND PUSH3 0x1C30 JUMP JUMPDEST SWAP1 POP DUP1 DUP1 ISZERO PUSH3 0xE06 JUMPI POP CALLVALUE DUP5 PUSH1 0x40 ADD MLOAD EQ ISZERO JUMPDEST ISZERO PUSH3 0xE51 JUMPI CALLVALUE DUP5 PUSH1 0x40 ADD MLOAD PUSH1 0x40 MLOAD PUSH32 0xBA38A90500000000000000000000000000000000000000000000000000000000 DUP2 MSTORE PUSH1 0x4 ADD PUSH3 0xE48 SWAP3 SWAP2 SWAP1 PUSH3 0x4A74 JUMP JUMPDEST PUSH1 0x40 MLOAD DUP1 SWAP2 SUB SWAP1 REVERT JUMPDEST PUSH3 0xE88 CALLER ADDRESS DUP7 PUSH1 0x40 ADD MLOAD DUP8 PUSH1 0x0 ADD MLOAD PUSH20 0xFFFFFFFFFFFFFFFFFFFFFFFFFFFFFFFFFFFFFFFF AND PUSH3 0x1CED SWAP1 SWAP4 SWAP3 SWAP2 SWAP1 PUSH4 0xFFFFFFFF AND JUMP JUMPDEST PUSH1 0x0 DUP5 PUSH1 0x80 ADD MLOAD MLOAD SUB PUSH3 0xEEC JUMPI PUSH1 0x0 PUSH1 0x1 DUP6 PUSH1 0x60 ADD MLOAD AND PUSH1 0xFF AND SUB PUSH3 0xECA JUMPI PUSH3 0xEC4 DUP2 DUP6 PUSH1 0x0 ADD MLOAD DUP7 PUSH1 0x20 ADD MLOAD DUP8 PUSH1 0x40 ADD MLOAD CALLER PUSH3 0x27BF JUMP JUMPDEST PUSH3 0xEE6 JUMP JUMPDEST PUSH3 0xEE5 DUP2 DUP6 PUSH1 0x0 ADD MLOAD DUP7 PUSH1 0x20 ADD MLOAD DUP8 PUSH1 0x40 ADD MLOAD CALLER PUSH3 0x2B1F JUMP JUMPDEST JUMPDEST PUSH3 0xFE5 JUMP JUMPDEST PUSH3 0xEF6 PUSH3 0x40AA JUMP JUMPDEST DUP5 PUSH1 0x40 ADD MLOAD DUP2 PUSH1 0x0 ADD DUP2 DUP2 MSTORE POP POP CALLER DUP2 PUSH1 0x60 ADD SWAP1 PUSH20 0xFFFFFFFFFFFFFFFFFFFFFFFFFFFFFFFFFFFFFFFF AND SWAP1 DUP2 PUSH20 0xFFFFFFFFFFFFFFFFFFFFFFFFFFFFFFFFFFFFFFFF AND DUP2 MSTORE POP POP DUP5 PUSH1 0x0 ADD MLOAD DUP2 PUSH1 0x20 ADD SWAP1 PUSH20 0xFFFFFFFFFFFFFFFFFFFFFFFFFFFFFFFFFFFFFFFF AND SWAP1 DUP2 PUSH20 0xFFFFFFFFFFFFFFFFFFFFFFFFFFFFFFFFFFFFFFFF AND DUP2 MSTORE POP POP DUP5 PUSH1 0x20 ADD MLOAD DUP2 PUSH1 0x40 ADD SWAP1 PUSH20 0xFFFFFFFFFFFFFFFFFFFFFFFFFFFFFFFFFFFFFFFF AND SWAP1 DUP2 PUSH20 0xFFFFFFFFFFFFFFFFFFFFFFFFFFFFFFFFFFFFFFFF AND DUP2 MSTORE POP POP DUP5 PUSH1 0x60 ADD MLOAD DUP2 PUSH1 0xE0 ADD SWAP1 PUSH1 0xFF AND SWAP1 DUP2 PUSH1 0xFF AND DUP2 MSTORE POP POP DUP5 PUSH1 0x80 ADD MLOAD DUP2 PUSH2 0x180 ADD DUP2 SWAP1 MSTORE POP PUSH3 0xFE3 DUP2 PUSH3 0x2CB8 JUMP JUMPDEST POP JUMPDEST POP PUSH1 0x0 DUP2 PUSH1 0x0 ADD DUP2 SWAP1 SSTORE POP POP SWAP2 SWAP1 POP JUMP JUMPDEST PUSH3 0x1000 PUSH3 0x344B JUMP JUMPDEST PUSH20 0xFFFFFFFFFFFFFFFFFFFFFFFFFFFFFFFFFFFFFFFF AND PUSH3 0x1020 PUSH3 0x1231 JUMP JUMPDEST PUSH20 0xFFFFFFFFFFFFFFFFFFFFFFFFFFFFFFFFFFFFFFFF AND EQ PUSH3 0x1079 JUMPI PUSH1 0x40 MLOAD PUSH32 0x8C379A000000000000000000000000000000000000000000000000000000000 DUP2 MSTORE PUSH1 0x4 ADD PUSH3 0x1070 SWAP1 PUSH3 0x518A JUMP JUMPDEST PUSH1 0x40 MLOAD DUP1 SWAP2 SUB SWAP1 REVERT JUMPDEST PUSH1 0x0 PUSH20 0xFFFFFFFFFFFFFFFFFFFFFFFFFFFFFFFFFFFFFFFF AND PUSH1 0x0 DUP1 SLOAD SWAP1 PUSH2 0x100 EXP SWAP1 DIV PUSH20 0xFFFFFFFFFFFFFFFFFFFFFFFFFFFFFFFFFFFFFFFF AND PUSH20 0xFFFFFFFFFFFFFFFFFFFFFFFFFFFFFFFFFFFFFFFF AND PUSH32 0x8BE0079C531659141344CD1FD0A4F28419497F9722A3DAAFE3B4186F6B6457E0 PUSH1 0x40 MLOAD PUSH1 0x40 MLOAD DUP1 SWAP2 SUB SWAP1 LOG3 PUSH1 0x0 DUP1 PUSH1 0x0 PUSH2 0x100 EXP DUP2 SLOAD DUP2 PUSH20 0xFFFFFFFFFFFFFFFFFFFFFFFFFFFFFFFFFFFFFFFF MUL NOT AND SWAP1 DUP4 PUSH20 0xFFFFFFFFFFFFFFFFFFFFFFFFFFFFFFFFFFFFFFFF AND MUL OR SWAP1 SSTORE POP JUMP JUMPDEST PUSH1 0x5 PUSH1 0x0 SWAP1 SLOAD SWAP1 PUSH2 0x100 EXP SWAP1 DIV PUSH20 0xFFFFFFFFFFFFFFFFFFFFFFFFFFFFFFFFFFFFFFFF AND DUP2 JUMP JUMPDEST PUSH1 0x4 PUSH1 0x0 SWAP1 SLOAD SWAP1 PUSH2 0x100 EXP SWAP1 DIV PUSH20 0xFFFFFFFFFFFFFFFFFFFFFFFFFFFFFFFFFFFFFFFF AND DUP2 JUMP JUMPDEST PUSH1 0x1 PUSH1 0x0 SWAP1 SLOAD SWAP1 PUSH2 0x100 EXP SWAP1 DIV PUSH20 0xFFFFFFFFFFFFFFFFFFFFFFFFFFFFFFFFFFFFFFFF AND PUSH20 0xFFFFFFFFFFFFFFFFFFFFFFFFFFFFFFFFFFFFFFFF AND CALLER PUSH20 0xFFFFFFFFFFFFFFFFFFFFFFFFFFFFFFFFFFFFFFFF AND EQ PUSH3 0x1218 JUMPI CALLER PUSH1 0x40 MLOAD PUSH32 0xD7F7333400000000000000000000000000000000000000000000000000000000 DUP2 MSTORE PUSH1 0x4 ADD PUSH3 0x120F SWAP2 SWAP1 PUSH3 0x4677 JUMP JUMPDEST PUSH1 0x40 MLOAD DUP1 SWAP2 SUB SWAP1 REVERT JUMPDEST PUSH3 0x122E DUP2 PUSH3 0x1228 SWAP1 PUSH3 0x5453 JUMP JUMPDEST PUSH3 0x3453 JUMP JUMPDEST POP JUMP JUMPDEST PUSH1 0x0 DUP1 PUSH1 0x0 SWAP1 SLOAD SWAP1 PUSH2 0x100 EXP SWAP1 DIV PUSH20 0xFFFFFFFFFFFFFFFFFFFFFFFFFFFFFFFFFFFFFFFF AND SWAP1 POP SWAP1 JUMP JUMPDEST PUSH1 0x0 CALLER PUSH20 0xFFFFFFFFFFFFFFFFFFFFFFFFFFFFFFFFFFFFFFFF AND PUSH1 0x2 PUSH1 0x0 SWAP1 SLOAD SWAP1 PUSH2 0x100 EXP SWAP1 DIV PUSH20 0xFFFFFFFFFFFFFFFFFFFFFFFFFFFFFFFFFFFFFFFF AND PUSH20 0xFFFFFFFFFFFFFFFFFFFFFFFFFFFFFFFFFFFFFFFF AND EQ PUSH3 0x12E4 JUMPI PUSH1 0x40 MLOAD PUSH32 0xE973DE0B00000000000000000000000000000000000000000000000000000000 DUP2 MSTORE PUSH1 0x4 ADD PUSH1 0x40 MLOAD DUP1 SWAP2 SUB SWAP1 REVERT JUMPDEST ADDRESS PUSH20 0xFFFFFFFFFFFFFFFFFFFFFFFFFFFFFFFFFFFFFFFF AND DUP5 PUSH20 0xFFFFFFFFFFFFFFFFFFFFFFFFFFFFFFFFFFFFFFFF AND EQ PUSH3 0x1357 JUMPI CALLER PUSH1 0x40 MLOAD PUSH32 0x2A868ED000000000000000000000000000000000000000000000000000000000 DUP2 MSTORE PUSH1 0x4 ADD PUSH3 0x134E SWAP2 SWAP1 PUSH3 0x4677 JUMP JUMPDEST PUSH1 0x40 MLOAD DUP1 SWAP2 SUB SWAP1 REVERT JUMPDEST PUSH1 0x0 DUP4 DUP4 SWAP1 POP GT ISZERO PUSH3 0x14E1 JUMPI PUSH1 0x0 DUP4 DUP4 DUP2 ADD SWAP1 PUSH3 0x1377 SWAP2 SWAP1 PUSH3 0x5596 JUMP JUMPDEST SWAP1 POP PUSH1 0x0 CALLER PUSH20 0xFFFFFFFFFFFFFFFFFFFFFFFFFFFFFFFFFFFFFFFF AND PUSH4 0x74B2E43 PUSH1 0x40 MLOAD DUP2 PUSH4 0xFFFFFFFF AND PUSH1 0xE0 SHL DUP2 MSTORE PUSH1 0x4 ADD PUSH1 0x20 PUSH1 0x40 MLOAD DUP1 DUP4 SUB DUP2 DUP7 GAS STATICCALL ISZERO DUP1 ISZERO PUSH3 0x13C7 JUMPI RETURNDATASIZE PUSH1 0x0 DUP1 RETURNDATACOPY RETURNDATASIZE PUSH1 0x0 REVERT JUMPDEST POP POP POP POP PUSH1 0x40 MLOAD RETURNDATASIZE PUSH1 0x1F NOT PUSH1 0x1F DUP3 ADD AND DUP3 ADD DUP1 PUSH1 0x40 MSTORE POP DUP2 ADD SWAP1 PUSH3 0x13ED SWAP2 SWAP1 PUSH3 0x5634 JUMP JUMPDEST PUSH16 0xFFFFFFFFFFFFFFFFFFFFFFFFFFFFFFFF AND SWAP1 POP PUSH1 0x0 PUSH1 0x1 DUP4 PUSH2 0x100 ADD MLOAD AND PUSH1 0xFF AND SUB PUSH3 0x147C JUMPI PUSH3 0x1476 DUP3 DUP10 DUP10 PUSH1 0x0 DUP2 DUP2 LT PUSH3 0x1431 JUMPI PUSH3 0x1430 PUSH3 0x4C38 JUMP JUMPDEST JUMPDEST SWAP1 POP PUSH1 0x20 MUL ADD CALLDATALOAD PUSH1 0x2 PUSH3 0x1446 SWAP2 SWAP1 PUSH3 0x5666 JUMP JUMPDEST DUP13 DUP13 PUSH1 0x0 DUP2 DUP2 LT PUSH3 0x145D JUMPI PUSH3 0x145C PUSH3 0x4C38 JUMP JUMPDEST JUMPDEST SWAP1 POP PUSH1 0x20 MUL ADD CALLDATALOAD PUSH3 0x1470 SWAP2 SWAP1 PUSH3 0x56B1 JUMP JUMPDEST PUSH3 0x3615 JUMP JUMPDEST PUSH3 0x14DE JUMP JUMPDEST PUSH3 0x14DD DUP3 DUP10 DUP10 PUSH1 0x0 DUP2 DUP2 LT PUSH3 0x1498 JUMPI PUSH3 0x1497 PUSH3 0x4C38 JUMP JUMPDEST JUMPDEST SWAP1 POP PUSH1 0x20 MUL ADD CALLDATALOAD PUSH1 0x2 PUSH3 0x14AD SWAP2 SWAP1 PUSH3 0x5666 JUMP JUMPDEST DUP13 DUP13 PUSH1 0x0 DUP2 DUP2 LT PUSH3 0x14C4 JUMPI PUSH3 0x14C3 PUSH3 0x4C38 JUMP JUMPDEST JUMPDEST SWAP1 POP PUSH1 0x20 MUL ADD CALLDATALOAD PUSH3 0x14D7 SWAP2 SWAP1 PUSH3 0x56B1 JUMP JUMPDEST PUSH3 0x388E JUMP JUMPDEST JUMPDEST POP POP JUMPDEST PUSH1 0x0 JUMPDEST DUP11 DUP11 SWAP1 POP DUP2 LT ISZERO PUSH3 0x1682 JUMPI PUSH3 0x156E PUSH3 0x14FE PUSH3 0x1231 JUMP JUMPDEST DUP9 DUP9 DUP5 DUP2 DUP2 LT PUSH3 0x1514 JUMPI PUSH3 0x1513 PUSH3 0x4C38 JUMP JUMPDEST JUMPDEST SWAP1 POP PUSH1 0x20 MUL ADD CALLDATALOAD DUP14 DUP14 DUP6 DUP2 DUP2 LT PUSH3 0x1531 JUMPI PUSH3 0x1530 PUSH3 0x4C38 JUMP JUMPDEST JUMPDEST SWAP1 POP PUSH1 0x20 MUL ADD PUSH1 0x20 DUP2 ADD SWAP1 PUSH3 0x1548 SWAP2 SWAP1 PUSH3 0x49D0 JUMP JUMPDEST PUSH20 0xFFFFFFFFFFFFFFFFFFFFFFFFFFFFFFFFFFFFFFFF AND PUSH3 0x3B49 SWAP1 SWAP3 SWAP2 SWAP1 PUSH4 0xFFFFFFFF AND JUMP JUMPDEST PUSH1 0x0 DUP8 DUP8 DUP4 DUP2 DUP2 LT PUSH3 0x1586 JUMPI PUSH3 0x1585 PUSH3 0x4C38 JUMP JUMPDEST JUMPDEST SWAP1 POP PUSH1 0x20 MUL ADD CALLDATALOAD DUP11 DUP11 DUP5 DUP2 DUP2 LT PUSH3 0x15A3 JUMPI PUSH3 0x15A2 PUSH3 0x4C38 JUMP JUMPDEST JUMPDEST SWAP1 POP PUSH1 0x20 MUL ADD CALLDATALOAD PUSH3 0x15B6 SWAP2 SWAP1 PUSH3 0x56B1 JUMP JUMPDEST SWAP1 POP PUSH3 0x1612 CALLER PUSH1 0x0 DUP15 DUP15 DUP7 DUP2 DUP2 LT PUSH3 0x15D5 JUMPI PUSH3 0x15D4 PUSH3 0x4C38 JUMP JUMPDEST JUMPDEST SWAP1 POP PUSH1 0x20 MUL ADD PUSH1 0x20 DUP2 ADD SWAP1 PUSH3 0x15EC SWAP2 SWAP1 PUSH3 0x49D0 JUMP JUMPDEST PUSH20 0xFFFFFFFFFFFFFFFFFFFFFFFFFFFFFFFFFFFFFFFF AND PUSH3 0x3B99 SWAP1 SWAP3 SWAP2 SWAP1 PUSH4 0xFFFFFFFF AND JUMP JUMPDEST PUSH3 0x166B CALLER DUP3 DUP15 DUP15 DUP7 DUP2 DUP2 LT PUSH3 0x162E JUMPI PUSH3 0x162D PUSH3 0x4C38 JUMP JUMPDEST JUMPDEST SWAP1 POP PUSH1 0x20 MUL ADD PUSH1 0x20 DUP2 ADD SWAP1 PUSH3 0x1645 SWAP2 SWAP1 PUSH3 0x49D0 JUMP JUMPDEST PUSH20 0xFFFFFFFFFFFFFFFFFFFFFFFFFFFFFFFFFFFFFFFF AND PUSH3 0x3B99 SWAP1 SWAP3 SWAP2 SWAP1 PUSH4 0xFFFFFFFF AND JUMP JUMPDEST POP DUP1 DUP1 PUSH3 0x1679 SWAP1 PUSH3 0x56EC JUMP JUMPDEST SWAP2 POP POP PUSH3 0x14E4 JUMP JUMPDEST POP PUSH1 0x1 SWAP1 POP SWAP10 SWAP9 POP POP POP POP POP POP POP POP POP JUMP JUMPDEST PUSH1 0x0 DUP1 PUSH3 0x16A1 PUSH3 0x1C00 JUMP JUMPDEST SWAP1 POP PUSH1 0x0 DUP2 PUSH1 0x0 ADD SLOAD EQ PUSH3 0x16E2 JUMPI PUSH1 0x40 MLOAD PUSH32 0x19239FC500000000000000000000000000000000000000000000000000000000 DUP2 MSTORE PUSH1 0x4 ADD PUSH1 0x40 MLOAD DUP1 SWAP2 SUB SWAP1 REVERT JUMPDEST PUSH1 0x1 DUP2 PUSH1 0x0 ADD DUP2 SWAP1 SSTORE POP PUSH1 0x0 PUSH3 0x1713 DUP5 PUSH1 0x0 ADD MLOAD PUSH20 0xFFFFFFFFFFFFFFFFFFFFFFFFFFFFFFFFFFFFFFFF AND PUSH3 0x1C30 JUMP JUMPDEST SWAP1 POP PUSH1 0x0 PUSH1 0x1 DUP6 PUSH1 0x60 ADD MLOAD AND PUSH1 0xFF AND SUB PUSH3 0x1785 JUMPI PUSH3 0x175F CALLER ADDRESS DUP7 PUSH1 0x40 ADD MLOAD DUP8 PUSH1 0x20 ADD MLOAD PUSH20 0xFFFFFFFFFFFFFFFFFFFFFFFFFFFFFFFFFFFFFFFF AND PUSH3 0x1CED SWAP1 SWAP4 SWAP3 SWAP2 SWAP1 PUSH4 0xFFFFFFFF AND JUMP JUMPDEST PUSH3 0x177F DUP2 DUP6 PUSH1 0x0 ADD MLOAD DUP7 PUSH1 0x20 ADD MLOAD DUP8 PUSH1 0x40 ADD MLOAD CALLER DUP10 PUSH1 0x80 ADD MLOAD PUSH3 0x3BE9 JUMP JUMPDEST PUSH3 0x17A6 JUMP JUMPDEST PUSH3 0x17A5 DUP2 DUP6 PUSH1 0x0 ADD MLOAD DUP7 PUSH1 0x20 ADD MLOAD DUP8 PUSH1 0x40 ADD MLOAD CALLER DUP10 PUSH1 0x80 ADD MLOAD PUSH3 0x3C73 JUMP JUMPDEST JUMPDEST PUSH3 0x17B5 DUP5 PUSH1 0x0 ADD MLOAD PUSH3 0x2197 JUMP JUMPDEST SWAP3 POP POP PUSH1 0x0 DUP2 PUSH1 0x0 ADD DUP2 SWAP1 SSTORE POP POP SWAP2 SWAP1 POP JUMP JUMPDEST PUSH1 0x0 PUSH1 0x1 PUSH1 0x0 SWAP1 SLOAD SWAP1 PUSH2 0x100 EXP SWAP1 DIV PUSH20 0xFFFFFFFFFFFFFFFFFFFFFFFFFFFFFFFFFFFFFFFF AND SWAP1 POP SWAP1 JUMP JUMPDEST PUSH3 0x17FC PUSH3 0x344B JUMP JUMPDEST PUSH20 0xFFFFFFFFFFFFFFFFFFFFFFFFFFFFFFFFFFFFFFFF AND PUSH3 0x181C PUSH3 0x1231 JUMP JUMPDEST PUSH20 0xFFFFFFFFFFFFFFFFFFFFFFFFFFFFFFFFFFFFFFFF AND EQ PUSH3 0x1875 JUMPI PUSH1 0x40 MLOAD PUSH32 0x8C379A000000000000000000000000000000000000000000000000000000000 DUP2 MSTORE PUSH1 0x4 ADD PUSH3 0x186C SWAP1 PUSH3 0x518A JUMP JUMPDEST PUSH1 0x40 MLOAD DUP1 SWAP2 SUB SWAP1 REVERT JUMPDEST PUSH1 0x0 PUSH20 0xFFFFFFFFFFFFFFFFFFFFFFFFFFFFFFFFFFFFFFFF AND DUP2 PUSH20 0xFFFFFFFFFFFFFFFFFFFFFFFFFFFFFFFFFFFFFFFF AND SUB PUSH3 0x18E7 JUMPI PUSH1 0x40 MLOAD PUSH32 0x8C379A000000000000000000000000000000000000000000000000000000000 DUP2 MSTORE PUSH1 0x4 ADD PUSH3 0x18DE SWAP1 PUSH3 0x57AF JUMP JUMPDEST PUSH1 0x40 MLOAD DUP1 SWAP2 SUB SWAP1 REVERT JUMPDEST DUP1 PUSH20 0xFFFFFFFFFFFFFFFFFFFFFFFFFFFFFFFFFFFFFFFF AND PUSH1 0x0 DUP1 SLOAD SWAP1 PUSH2 0x100 EXP SWAP1 DIV PUSH20 0xFFFFFFFFFFFFFFFFFFFFFFFFFFFFFFFFFFFFFFFF AND PUSH20 0xFFFFFFFFFFFFFFFFFFFFFFFFFFFFFFFFFFFFFFFF AND PUSH32 0x8BE0079C531659141344CD1FD0A4F28419497F9722A3DAAFE3B4186F6B6457E0 PUSH1 0x40 MLOAD PUSH1 0x40 MLOAD DUP1 SWAP2 SUB SWAP1 LOG3 DUP1 PUSH1 0x0 DUP1 PUSH2 0x100 EXP DUP2 SLOAD DUP2 PUSH20 0xFFFFFFFFFFFFFFFFFFFFFFFFFFFFFFFFFFFFFFFF MUL NOT AND SWAP1 DUP4 PUSH20 0xFFFFFFFFFFFFFFFFFFFFFFFFFFFFFFFFFFFFFFFF AND MUL OR SWAP1 SSTORE POP POP JUMP JUMPDEST PUSH3 0x19AE PUSH3 0x344B JUMP JUMPDEST PUSH20 0xFFFFFFFFFFFFFFFFFFFFFFFFFFFFFFFFFFFFFFFF AND PUSH3 0x19CE PUSH3 0x1231 JUMP JUMPDEST PUSH20 0xFFFFFFFFFFFFFFFFFFFFFFFFFFFFFFFFFFFFFFFF AND EQ PUSH3 0x1A27 JUMPI PUSH1 0x40 MLOAD PUSH32 0x8C379A000000000000000000000000000000000000000000000000000000000 DUP2 MSTORE PUSH1 0x4 ADD PUSH3 0x1A1E SWAP1 PUSH3 0x518A JUMP JUMPDEST PUSH1 0x40 MLOAD DUP1 SWAP2 SUB SWAP1 REVERT JUMPDEST PUSH1 0x1 PUSH1 0x14 SWAP1 SLOAD SWAP1 PUSH2 0x100 EXP SWAP1 DIV PUSH1 0xFF AND ISZERO PUSH3 0x1A6F JUMPI PUSH1 0x40 MLOAD PUSH32 0xDC149F000000000000000000000000000000000000000000000000000000000 DUP2 MSTORE PUSH1 0x4 ADD PUSH1 0x40 MLOAD DUP1 SWAP2 SUB SWAP1 REVERT JUMPDEST PUSH1 0x1 DUP1 PUSH1 0x14 PUSH2 0x100 EXP DUP2 SLOAD DUP2 PUSH1 0xFF MUL NOT AND SWAP1 DUP4 ISZERO ISZERO MUL OR SWAP1 SSTORE POP PUSH3 0x1A94 DUP4 PUSH3 0x3EC8 JUMP JUMPDEST DUP4 PUSH1 0x3 PUSH1 0x0 PUSH2 0x100 EXP DUP2 SLOAD DUP2 PUSH20 0xFFFFFFFFFFFFFFFFFFFFFFFFFFFFFFFFFFFFFFFF MUL NOT AND SWAP1 DUP4 PUSH20 0xFFFFFFFFFFFFFFFFFFFFFFFFFFFFFFFFFFFFFFFF AND MUL OR SWAP1 SSTORE POP DUP1 PUSH1 0x2 PUSH1 0x0 PUSH2 0x100 EXP DUP2 SLOAD DUP2 PUSH20 0xFFFFFFFFFFFFFFFFFFFFFFFFFFFFFFFFFFFFFFFF MUL NOT AND SWAP1 DUP4 PUSH20 0xFFFFFFFFFFFFFFFFFFFFFFFFFFFFFFFFFFFFFFFF AND MUL OR SWAP1 SSTORE POP DUP2 PUSH1 0x4 PUSH1 0x0 PUSH2 0x100 EXP DUP2 SLOAD DUP2 PUSH20 0xFFFFFFFFFFFFFFFFFFFFFFFFFFFFFFFFFFFFFFFF MUL NOT AND SWAP1 DUP4 PUSH20 0xFFFFFFFFFFFFFFFFFFFFFFFFFFFFFFFFFFFFFFFF AND MUL OR SWAP1 SSTORE POP DUP3 DUP3 CALLER PUSH1 0x40 MLOAD PUSH3 0x1B68 SWAP1 PUSH3 0x4183 JUMP JUMPDEST PUSH3 0x1B76 SWAP4 SWAP3 SWAP2 SWAP1 PUSH3 0x57D1 JUMP JUMPDEST PUSH1 0x40 MLOAD DUP1 SWAP2 SUB SWAP1 PUSH1 0x0 CREATE DUP1 ISZERO DUP1 ISZERO PUSH3 0x1B93 JUMPI RETURNDATASIZE PUSH1 0x0 DUP1 RETURNDATACOPY RETURNDATASIZE PUSH1 0x0 REVERT JUMPDEST POP PUSH1 0x5 PUSH1 0x0 PUSH2 0x100 EXP DUP2 SLOAD DUP2 PUSH20 0xFFFFFFFFFFFFFFFFFFFFFFFFFFFFFFFFFFFFFFFF MUL NOT AND SWAP1 DUP4 PUSH20 0xFFFFFFFFFFFFFFFFFFFFFFFFFFFFFFFFFFFFFFFF AND MUL OR SWAP1 SSTORE POP POP POP POP POP JUMP JUMPDEST PUSH1 0x2 PUSH1 0x0 SWAP1 SLOAD SWAP1 PUSH2 0x100 EXP SWAP1 DIV PUSH20 0xFFFFFFFFFFFFFFFFFFFFFFFFFFFFFFFFFFFFFFFF AND DUP2 JUMP JUMPDEST PUSH1 0x0 DUP1 PUSH32 0x579D790592639B2D681736F3C42DB3029BC25BDEE19FB1AF9A117B3462375585 PUSH1 0x0 SHL SWAP1 POP DUP1 SWAP2 POP POP SWAP1 JUMP JUMPDEST PUSH1 0x0 PUSH20 0xEEEEEEEEEEEEEEEEEEEEEEEEEEEEEEEEEEEEEEEE PUSH20 0xFFFFFFFFFFFFFFFFFFFFFFFFFFFFFFFFFFFFFFFF AND DUP3 PUSH20 0xFFFFFFFFFFFFFFFFFFFFFFFFFFFFFFFFFFFFFFFF AND EQ DUP1 PUSH3 0x1CAE JUMPI POP PUSH2 0x1010 PUSH20 0xFFFFFFFFFFFFFFFFFFFFFFFFFFFFFFFFFFFFFFFF AND DUP3 PUSH20 0xFFFFFFFFFFFFFFFFFFFFFFFFFFFFFFFFFFFFFFFF AND EQ JUMPDEST DUP1 PUSH3 0x1CE6 JUMPI POP PUSH1 0x0 PUSH20 0xFFFFFFFFFFFFFFFFFFFFFFFFFFFFFFFFFFFFFFFF AND DUP3 PUSH20 0xFFFFFFFFFFFFFFFFFFFFFFFFFFFFFFFFFFFFFFFF AND EQ JUMPDEST SWAP1 POP SWAP2 SWAP1 POP JUMP JUMPDEST PUSH1 0x40 MLOAD DUP2 PUSH1 0x60 MSTORE DUP3 PUSH1 0x40 MSTORE DUP4 PUSH1 0x60 SHL PUSH1 0x2C MSTORE PUSH16 0x23B872DD000000000000000000000000 PUSH1 0xC MSTORE PUSH1 0x20 PUSH1 0x0 PUSH1 0x64 PUSH1 0x1C PUSH1 0x0 DUP10 GAS CALL RETURNDATASIZE ISZERO PUSH1 0x1 PUSH1 0x0 MLOAD EQ OR AND PUSH3 0x1D3D JUMPI PUSH4 0x7939F424 PUSH1 0x0 MSTORE PUSH1 0x4 PUSH1 0x1C REVERT JUMPDEST PUSH1 0x0 PUSH1 0x60 MSTORE DUP1 PUSH1 0x40 MSTORE POP POP POP POP POP JUMP JUMPDEST PUSH1 0x0 DUP2 PUSH1 0x14 MSTORE PUSH16 0x70A08231000000000000000000000000 PUSH1 0x0 MSTORE PUSH1 0x20 DUP1 PUSH1 0x24 PUSH1 0x10 DUP7 GAS STATICCALL PUSH1 0x1F RETURNDATASIZE GT AND PUSH1 0x20 MLOAD MUL SWAP1 POP SWAP3 SWAP2 POP POP JUMP JUMPDEST DUP5 PUSH3 0x1F7B JUMPI PUSH1 0x3 PUSH1 0x0 SWAP1 SLOAD SWAP1 PUSH2 0x100 EXP SWAP1 DIV PUSH20 0xFFFFFFFFFFFFFFFFFFFFFFFFFFFFFFFFFFFFFFFF AND PUSH20 0xFFFFFFFFFFFFFFFFFFFFFFFFFFFFFFFFFFFFFFFF AND DUP5 PUSH20 0xFFFFFFFFFFFFFFFFFFFFFFFFFFFFFFFFFFFFFFFF AND EQ PUSH3 0x1E80 JUMPI PUSH3 0x1E0B DUP4 DUP4 DUP7 PUSH20 0xFFFFFFFFFFFFFFFFFFFFFFFFFFFFFFFFFFFFFFFF AND PUSH3 0x3B99 SWAP1 SWAP3 SWAP2 SWAP1 PUSH4 0xFFFFFFFF AND JUMP JUMPDEST DUP3 PUSH20 0xFFFFFFFFFFFFFFFFFFFFFFFFFFFFFFFFFFFFFFFF AND PUSH4 0xA0712D68 DUP4 PUSH1 0x40 MLOAD DUP3 PUSH4 0xFFFFFFFF AND PUSH1 0xE0 SHL DUP2 MSTORE PUSH1 0x4 ADD PUSH3 0x1E46 SWAP2 SWAP1 PUSH3 0x4649 JUMP JUMPDEST PUSH1 0x0 PUSH1 0x40 MLOAD DUP1 DUP4 SUB DUP2 PUSH1 0x0 DUP8 DUP1 EXTCODESIZE ISZERO DUP1 ISZERO PUSH3 0x1E61 JUMPI PUSH1 0x0 DUP1 REVERT JUMPDEST POP GAS CALL ISZERO DUP1 ISZERO PUSH3 0x1E76 JUMPI RETURNDATASIZE PUSH1 0x0 DUP1 RETURNDATACOPY RETURNDATASIZE PUSH1 0x0 REVERT JUMPDEST POP POP POP POP PUSH3 0x1F75 JUMP JUMPDEST PUSH1 0x3 PUSH1 0x0 SWAP1 SLOAD SWAP1 PUSH2 0x100 EXP SWAP1 DIV PUSH20 0xFFFFFFFFFFFFFFFFFFFFFFFFFFFFFFFFFFFFFFFF AND PUSH20 0xFFFFFFFFFFFFFFFFFFFFFFFFFFFFFFFFFFFFFFFF AND PUSH4 0x2E1A7D4D DUP4 PUSH1 0x40 MLOAD DUP3 PUSH4 0xFFFFFFFF AND PUSH1 0xE0 SHL DUP2 MSTORE PUSH1 0x4 ADD PUSH3 0x1EDD SWAP2 SWAP1 PUSH3 0x4649 JUMP JUMPDEST PUSH1 0x0 PUSH1 0x40 MLOAD DUP1 DUP4 SUB DUP2 PUSH1 0x0 DUP8 DUP1 EXTCODESIZE ISZERO DUP1 ISZERO PUSH3 0x1EF8 JUMPI PUSH1 0x0 DUP1 REVERT JUMPDEST POP GAS CALL ISZERO DUP1 ISZERO PUSH3 0x1F0D JUMPI RETURNDATASIZE PUSH1 0x0 DUP1 RETURNDATACOPY RETURNDATASIZE PUSH1 0x0 REVERT JUMPDEST POP POP POP POP DUP3 PUSH20 0xFFFFFFFFFFFFFFFFFFFFFFFFFFFFFFFFFFFFFFFF AND PUSH4 0x1249C58B DUP4 PUSH1 0x40 MLOAD DUP3 PUSH4 0xFFFFFFFF AND PUSH1 0xE0 SHL DUP2 MSTORE PUSH1 0x4 ADD PUSH1 0x0 PUSH1 0x40 MLOAD DUP1 DUP4 SUB DUP2 DUP6 DUP9 DUP1 EXTCODESIZE ISZERO DUP1 ISZERO PUSH3 0x1F5A JUMPI PUSH1 0x0 DUP1 REVERT JUMPDEST POP GAS CALL ISZERO DUP1 ISZERO PUSH3 0x1F6F JUMPI RETURNDATASIZE PUSH1 0x0 DUP1 RETURNDATACOPY RETURNDATASIZE PUSH1 0x0 REVERT JUMPDEST POP POP POP POP POP JUMPDEST PUSH3 0x1FDF JUMP JUMPDEST DUP3 PUSH20 0xFFFFFFFFFFFFFFFFFFFFFFFFFFFFFFFFFFFFFFFF AND PUSH4 0x1249C58B DUP4 PUSH1 0x40 MLOAD DUP3 PUSH4 0xFFFFFFFF AND PUSH1 0xE0 SHL DUP2 MSTORE PUSH1 0x4 ADD PUSH1 0x0 PUSH1 0x40 MLOAD DUP1 DUP4 SUB DUP2 DUP6 DUP9 DUP1 EXTCODESIZE ISZERO DUP1 ISZERO PUSH3 0x1FC4 JUMPI PUSH1 0x0 DUP1 REVERT JUMPDEST POP GAS CALL ISZERO DUP1 ISZERO PUSH3 0x1FD9 JUMPI RETURNDATASIZE PUSH1 0x0 DUP1 RETURNDATACOPY RETURNDATASIZE PUSH1 0x0 REVERT JUMPDEST POP POP POP POP POP JUMPDEST POP POP POP POP POP JUMP JUMPDEST DUP5 ISZERO PUSH3 0x2076 JUMPI PUSH1 0x3 PUSH1 0x0 SWAP1 SLOAD SWAP1 PUSH2 0x100 EXP SWAP1 DIV PUSH20 0xFFFFFFFFFFFFFFFFFFFFFFFFFFFFFFFFFFFFFFFF AND SWAP4 POP DUP4 PUSH20 0xFFFFFFFFFFFFFFFFFFFFFFFFFFFFFFFFFFFFFFFF AND PUSH4 0xD0E30DB0 DUP4 PUSH1 0x40 MLOAD DUP3 PUSH4 0xFFFFFFFF AND PUSH1 0xE0 SHL DUP2 MSTORE PUSH1 0x4 ADD PUSH1 0x0 PUSH1 0x40 MLOAD DUP1 DUP4 SUB DUP2 DUP6 DUP9 DUP1 EXTCODESIZE ISZERO DUP1 ISZERO PUSH3 0x205B JUMPI PUSH1 0x0 DUP1 REVERT JUMPDEST POP GAS CALL ISZERO DUP1 ISZERO PUSH3 0x2070 JUMPI RETURNDATASIZE PUSH1 0x0 DUP1 RETURNDATACOPY RETURNDATASIZE PUSH1 0x0 REVERT JUMPDEST POP POP POP POP POP JUMPDEST PUSH1 0x0 DUP4 PUSH20 0xFFFFFFFFFFFFFFFFFFFFFFFFFFFFFFFFFFFFFFFF AND PUSH4 0x7535D246 PUSH1 0x40 MLOAD DUP2 PUSH4 0xFFFFFFFF AND PUSH1 0xE0 SHL DUP2 MSTORE PUSH1 0x4 ADD PUSH1 0x20 PUSH1 0x40 MLOAD DUP1 DUP4 SUB DUP2 DUP7 GAS STATICCALL ISZERO DUP1 ISZERO PUSH3 0x20C4 JUMPI RETURNDATASIZE PUSH1 0x0 DUP1 RETURNDATACOPY RETURNDATASIZE PUSH1 0x0 REVERT JUMPDEST POP POP POP POP PUSH1 0x40 MLOAD RETURNDATASIZE PUSH1 0x1F NOT PUSH1 0x1F DUP3 ADD AND DUP3 ADD DUP1 PUSH1 0x40 MSTORE POP DUP2 ADD SWAP1 PUSH3 0x20EA SWAP2 SWAP1 PUSH3 0x5825 JUMP JUMPDEST SWAP1 POP PUSH3 0x2119 DUP2 DUP5 DUP8 PUSH20 0xFFFFFFFFFFFFFFFFFFFFFFFFFFFFFFFFFFFFFFFF AND PUSH3 0x3B99 SWAP1 SWAP3 SWAP2 SWAP1 PUSH4 0xFFFFFFFF AND JUMP JUMPDEST DUP1 PUSH20 0xFFFFFFFFFFFFFFFFFFFFFFFFFFFFFFFFFFFFFFFF AND PUSH4 0xE8EDA9DF DUP7 DUP6 DUP6 PUSH1 0x0 PUSH1 0x40 MLOAD DUP6 PUSH4 0xFFFFFFFF AND PUSH1 0xE0 SHL DUP2 MSTORE PUSH1 0x4 ADD PUSH3 0x215B SWAP5 SWAP4 SWAP3 SWAP2 SWAP1 PUSH3 0x5857 JUMP JUMPDEST PUSH1 0x0 PUSH1 0x40 MLOAD DUP1 DUP4 SUB DUP2 PUSH1 0x0 DUP8 DUP1 EXTCODESIZE ISZERO DUP1 ISZERO PUSH3 0x2176 JUMPI PUSH1 0x0 DUP1 REVERT JUMPDEST POP GAS CALL ISZERO DUP1 ISZERO PUSH3 0x218B JUMPI RETURNDATASIZE PUSH1 0x0 DUP1 RETURNDATACOPY RETURNDATASIZE PUSH1 0x0 REVERT JUMPDEST POP POP POP POP POP POP POP POP POP POP JUMP JUMPDEST PUSH1 0x0 PUSH3 0x21BA DUP3 PUSH20 0xFFFFFFFFFFFFFFFFFFFFFFFFFFFFFFFFFFFFFFFF AND PUSH3 0x1C30 JUMP JUMPDEST ISZERO PUSH3 0x2397 JUMPI PUSH1 0x3 PUSH1 0x0 SWAP1 SLOAD SWAP1 PUSH2 0x100 EXP SWAP1 DIV PUSH20 0xFFFFFFFFFFFFFFFFFFFFFFFFFFFFFFFFFFFFFFFF AND SWAP2 POP PUSH1 0x3 PUSH1 0x0 SWAP1 SLOAD SWAP1 PUSH2 0x100 EXP SWAP1 DIV PUSH20 0xFFFFFFFFFFFFFFFFFFFFFFFFFFFFFFFFFFFFFFFF AND PUSH20 0xFFFFFFFFFFFFFFFFFFFFFFFFFFFFFFFFFFFFFFFF AND PUSH4 0x70A08231 ADDRESS PUSH1 0x40 MLOAD DUP3 PUSH4 0xFFFFFFFF AND PUSH1 0xE0 SHL DUP2 MSTORE PUSH1 0x4 ADD PUSH3 0x2242 SWAP2 SWAP1 PUSH3 0x4677 JUMP JUMPDEST PUSH1 0x20 PUSH1 0x40 MLOAD DUP1 DUP4 SUB DUP2 DUP7 GAS STATICCALL ISZERO DUP1 ISZERO PUSH3 0x2260 JUMPI RETURNDATASIZE PUSH1 0x0 DUP1 RETURNDATACOPY RETURNDATASIZE PUSH1 0x0 REVERT JUMPDEST POP POP POP POP PUSH1 0x40 MLOAD RETURNDATASIZE PUSH1 0x1F NOT PUSH1 0x1F DUP3 ADD AND DUP3 ADD DUP1 PUSH1 0x40 MSTORE POP DUP2 ADD SWAP1 PUSH3 0x2286 SWAP2 SWAP1 PUSH3 0x58A4 JUMP JUMPDEST SWAP1 POP PUSH1 0x0 DUP2 GT ISZERO PUSH3 0x2391 JUMPI PUSH1 0x3 PUSH1 0x0 SWAP1 SLOAD SWAP1 PUSH2 0x100 EXP SWAP1 DIV PUSH20 0xFFFFFFFFFFFFFFFFFFFFFFFFFFFFFFFFFFFFFFFF AND PUSH20 0xFFFFFFFFFFFFFFFFFFFFFFFFFFFFFFFFFFFFFFFF AND PUSH4 0x2E1A7D4D DUP3 PUSH1 0x40 MLOAD DUP3 PUSH4 0xFFFFFFFF AND PUSH1 0xE0 SHL DUP2 MSTORE PUSH1 0x4 ADD PUSH3 0x22EF SWAP2 SWAP1 PUSH3 0x4649 JUMP JUMPDEST PUSH1 0x0 PUSH1 0x40 MLOAD DUP1 DUP4 SUB DUP2 PUSH1 0x0 DUP8 DUP1 EXTCODESIZE ISZERO DUP1 ISZERO PUSH3 0x230A JUMPI PUSH1 0x0 DUP1 REVERT JUMPDEST POP GAS CALL ISZERO DUP1 ISZERO PUSH3 0x231F JUMPI RETURNDATASIZE PUSH1 0x0 DUP1 RETURNDATACOPY RETURNDATASIZE PUSH1 0x0 REVERT JUMPDEST POP POP POP POP CALLER PUSH20 0xFFFFFFFFFFFFFFFFFFFFFFFFFFFFFFFFFFFFFFFF AND DUP2 PUSH1 0x40 MLOAD PUSH3 0x2349 SWAP1 PUSH3 0x590B JUMP JUMPDEST PUSH1 0x0 PUSH1 0x40 MLOAD DUP1 DUP4 SUB DUP2 DUP6 DUP8 GAS CALL SWAP3 POP POP POP RETURNDATASIZE DUP1 PUSH1 0x0 DUP2 EQ PUSH3 0x2388 JUMPI PUSH1 0x40 MLOAD SWAP2 POP PUSH1 0x1F NOT PUSH1 0x3F RETURNDATASIZE ADD AND DUP3 ADD PUSH1 0x40 MSTORE RETURNDATASIZE DUP3 MSTORE RETURNDATASIZE PUSH1 0x0 PUSH1 0x20 DUP5 ADD RETURNDATACOPY PUSH3 0x238D JUMP JUMPDEST PUSH1 0x60 SWAP2 POP JUMPDEST POP POP POP JUMPDEST PUSH3 0x23FD JUMP JUMPDEST PUSH3 0x23C2 ADDRESS DUP4 PUSH20 0xFFFFFFFFFFFFFFFFFFFFFFFFFFFFFFFFFFFFFFFF AND PUSH3 0x1D4D SWAP1 SWAP2 SWAP1 PUSH4 0xFFFFFFFF AND JUMP JUMPDEST SWAP1 POP PUSH1 0x0 DUP2 GT ISZERO PUSH3 0x23FC JUMPI PUSH3 0x23FB CALLER DUP3 DUP5 PUSH20 0xFFFFFFFFFFFFFFFFFFFFFFFFFFFFFFFFFFFFFFFF AND PUSH3 0x3B49 SWAP1 SWAP3 SWAP2 SWAP1 PUSH4 0xFFFFFFFF AND JUMP JUMPDEST JUMPDEST JUMPDEST SWAP2 SWAP1 POP JUMP JUMPDEST PUSH1 0x0 PUSH3 0x2433 DUP3 ADDRESS DUP6 DUP8 PUSH20 0xFFFFFFFFFFFFFFFFFFFFFFFFFFFFFFFFFFFFFFFF AND PUSH3 0x1CED SWAP1 SWAP4 SWAP3 SWAP2 SWAP1 PUSH4 0xFFFFFFFF AND JUMP JUMPDEST DUP4 PUSH20 0xFFFFFFFFFFFFFFFFFFFFFFFFFFFFFFFFFFFFFFFF AND PUSH4 0xDB006A75 DUP5 PUSH1 0x40 MLOAD DUP3 PUSH4 0xFFFFFFFF AND PUSH1 0xE0 SHL DUP2 MSTORE PUSH1 0x4 ADD PUSH3 0x246E SWAP2 SWAP1 PUSH3 0x4649 JUMP JUMPDEST PUSH1 0x0 PUSH1 0x40 MLOAD DUP1 DUP4 SUB DUP2 PUSH1 0x0 DUP8 DUP1 EXTCODESIZE ISZERO DUP1 ISZERO PUSH3 0x2489 JUMPI PUSH1 0x0 DUP1 REVERT JUMPDEST POP GAS CALL ISZERO DUP1 ISZERO PUSH3 0x249E JUMPI RETURNDATASIZE PUSH1 0x0 DUP1 RETURNDATACOPY RETURNDATASIZE PUSH1 0x0 REVERT JUMPDEST POP POP POP POP PUSH3 0x24CD ADDRESS DUP7 PUSH20 0xFFFFFFFFFFFFFFFFFFFFFFFFFFFFFFFFFFFFFFFF AND PUSH3 0x3F81 SWAP1 SWAP2 SWAP1 PUSH4 0xFFFFFFFF AND JUMP JUMPDEST SWAP1 POP ADDRESS PUSH20 0xFFFFFFFFFFFFFFFFFFFFFFFFFFFFFFFFFFFFFFFF AND DUP3 PUSH20 0xFFFFFFFFFFFFFFFFFFFFFFFFFFFFFFFFFFFFFFFF AND EQ PUSH3 0x2531 JUMPI PUSH3 0x2530 DUP3 DUP3 DUP8 PUSH20 0xFFFFFFFFFFFFFFFFFFFFFFFFFFFFFFFFFFFFFFFF AND PUSH3 0x3FE8 SWAP1 SWAP3 SWAP2 SWAP1 PUSH4 0xFFFFFFFF AND JUMP JUMPDEST JUMPDEST SWAP6 SWAP5 POP POP POP POP POP JUMP JUMPDEST PUSH1 0x0 PUSH3 0x256B DUP3 ADDRESS DUP6 DUP8 PUSH20 0xFFFFFFFFFFFFFFFFFFFFFFFFFFFFFFFFFFFFFFFF AND PUSH3 0x1CED SWAP1 SWAP4 SWAP3 SWAP2 SWAP1 PUSH4 0xFFFFFFFF AND JUMP JUMPDEST PUSH1 0x0 DUP5 PUSH20 0xFFFFFFFFFFFFFFFFFFFFFFFFFFFFFFFFFFFFFFFF AND PUSH4 0x7535D246 PUSH1 0x40 MLOAD DUP2 PUSH4 0xFFFFFFFF AND PUSH1 0xE0 SHL DUP2 MSTORE PUSH1 0x4 ADD PUSH1 0x20 PUSH1 0x40 MLOAD DUP1 DUP4 SUB DUP2 DUP7 GAS STATICCALL ISZERO DUP1 ISZERO PUSH3 0x25B9 JUMPI RETURNDATASIZE PUSH1 0x0 DUP1 RETURNDATACOPY RETURNDATASIZE PUSH1 0x0 REVERT JUMPDEST POP POP POP POP PUSH1 0x40 MLOAD RETURNDATASIZE PUSH1 0x1F NOT PUSH1 0x1F DUP3 ADD AND DUP3 ADD DUP1 PUSH1 0x40 MSTORE POP DUP2 ADD SWAP1 PUSH3 0x25DF SWAP2 SWAP1 PUSH3 0x5825 JUMP JUMPDEST SWAP1 POP DUP1 PUSH20 0xFFFFFFFFFFFFFFFFFFFFFFFFFFFFFFFFFFFFFFFF AND PUSH4 0x69328DEC PUSH3 0x261E DUP9 PUSH20 0xFFFFFFFFFFFFFFFFFFFFFFFFFFFFFFFFFFFFFFFF AND PUSH3 0x1C30 JUMP JUMPDEST PUSH3 0x262A JUMPI DUP8 PUSH3 0x264E JUMP JUMPDEST PUSH1 0x3 PUSH1 0x0 SWAP1 SLOAD SWAP1 PUSH2 0x100 EXP SWAP1 DIV PUSH20 0xFFFFFFFFFFFFFFFFFFFFFFFFFFFFFFFFFFFFFFFF AND JUMPDEST DUP7 ADDRESS PUSH1 0x40 MLOAD DUP5 PUSH4 0xFFFFFFFF AND PUSH1 0xE0 SHL DUP2 MSTORE PUSH1 0x4 ADD PUSH3 0x2670 SWAP4 SWAP3 SWAP2 SWAP1 PUSH3 0x5922 JUMP JUMPDEST PUSH1 0x20 PUSH1 0x40 MLOAD DUP1 DUP4 SUB DUP2 PUSH1 0x0 DUP8 GAS CALL ISZERO DUP1 ISZERO PUSH3 0x2690 JUMPI RETURNDATASIZE PUSH1 0x0 DUP1 RETURNDATACOPY RETURNDATASIZE PUSH1 0x0 REVERT JUMPDEST POP POP POP POP PUSH1 0x40 MLOAD RETURNDATASIZE PUSH1 0x1F NOT PUSH1 0x1F DUP3 ADD AND DUP3 ADD DUP1 PUSH1 0x40 MSTORE POP DUP2 ADD SWAP1 PUSH3 0x26B6 SWAP2 SWAP1 PUSH3 0x58A4 JUMP JUMPDEST POP DUP7 ISZERO PUSH3 0x2750 JUMPI PUSH1 0x3 PUSH1 0x0 SWAP1 SLOAD SWAP1 PUSH2 0x100 EXP SWAP1 DIV PUSH20 0xFFFFFFFFFFFFFFFFFFFFFFFFFFFFFFFFFFFFFFFF AND PUSH20 0xFFFFFFFFFFFFFFFFFFFFFFFFFFFFFFFFFFFFFFFF AND PUSH4 0x2E1A7D4D DUP6 PUSH1 0x40 MLOAD DUP3 PUSH4 0xFFFFFFFF AND PUSH1 0xE0 SHL DUP2 MSTORE PUSH1 0x4 ADD PUSH3 0x271B SWAP2 SWAP1 PUSH3 0x4649 JUMP JUMPDEST PUSH1 0x0 PUSH1 0x40 MLOAD DUP1 DUP4 SUB DUP2 PUSH1 0x0 DUP8 DUP1 EXTCODESIZE ISZERO DUP1 ISZERO PUSH3 0x2736 JUMPI PUSH1 0x0 DUP1 REVERT JUMPDEST POP GAS CALL ISZERO DUP1 ISZERO PUSH3 0x274B JUMPI RETURNDATASIZE PUSH1 0x0 DUP1 RETURNDATACOPY RETURNDATASIZE PUSH1 0x0 REVERT JUMPDEST POP POP POP POP JUMPDEST ADDRESS PUSH20 0xFFFFFFFFFFFFFFFFFFFFFFFFFFFFFFFFFFFFFFFF AND DUP4 PUSH20 0xFFFFFFFFFFFFFFFFFFFFFFFFFFFFFFFFFFFFFFFF AND EQ PUSH3 0x27B2 JUMPI PUSH3 0x27B1 DUP4 DUP6 DUP9 PUSH20 0xFFFFFFFFFFFFFFFFFFFFFFFFFFFFFFFFFFFFFFFF AND PUSH3 0x3FE8 SWAP1 SWAP3 SWAP2 SWAP1 PUSH4 0xFFFFFFFF AND JUMP JUMPDEST JUMPDEST DUP4 SWAP2 POP POP SWAP6 SWAP5 POP POP POP POP POP JUMP JUMPDEST PUSH1 0x0 DUP4 PUSH20 0xFFFFFFFFFFFFFFFFFFFFFFFFFFFFFFFFFFFFFFFF AND PUSH4 0x17BFDFBC DUP4 PUSH1 0x40 MLOAD DUP3 PUSH4 0xFFFFFFFF AND PUSH1 0xE0 SHL DUP2 MSTORE PUSH1 0x4 ADD PUSH3 0x27FC SWAP2 SWAP1 PUSH3 0x4677 JUMP JUMPDEST PUSH1 0x20 PUSH1 0x40 MLOAD DUP1 DUP4 SUB DUP2 PUSH1 0x0 DUP8 GAS CALL ISZERO DUP1 ISZERO PUSH3 0x281C JUMPI RETURNDATASIZE PUSH1 0x0 DUP1 RETURNDATACOPY RETURNDATASIZE PUSH1 0x0 REVERT JUMPDEST POP POP POP POP PUSH1 0x40 MLOAD RETURNDATASIZE PUSH1 0x1F NOT PUSH1 0x1F DUP3 ADD AND DUP3 ADD DUP1 PUSH1 0x40 MSTORE POP DUP2 ADD SWAP1 PUSH3 0x2842 SWAP2 SWAP1 PUSH3 0x58A4 JUMP JUMPDEST SWAP1 POP PUSH1 0x0 DUP2 DUP5 GT PUSH3 0x2855 JUMPI DUP4 PUSH3 0x2857 JUMP JUMPDEST DUP2 JUMPDEST SWAP1 POP PUSH1 0x0 DUP2 GT ISZERO PUSH3 0x2B16 JUMPI DUP7 PUSH3 0x2A91 JUMPI PUSH1 0x3 PUSH1 0x0 SWAP1 SLOAD SWAP1 PUSH2 0x100 EXP SWAP1 DIV PUSH20 0xFFFFFFFFFFFFFFFFFFFFFFFFFFFFFFFFFFFFFFFF AND PUSH20 0xFFFFFFFFFFFFFFFFFFFFFFFFFFFFFFFFFFFFFFFF AND DUP7 PUSH20 0xFFFFFFFFFFFFFFFFFFFFFFFFFFFFFFFFFFFFFFFF AND EQ PUSH3 0x2976 JUMPI PUSH3 0x28EC DUP6 DUP3 DUP9 PUSH20 0xFFFFFFFFFFFFFFFFFFFFFFFFFFFFFFFFFFFFFFFF AND PUSH3 0x3B99 SWAP1 SWAP3 SWAP2 SWAP1 PUSH4 0xFFFFFFFF AND JUMP JUMPDEST DUP5 PUSH20 0xFFFFFFFFFFFFFFFFFFFFFFFFFFFFFFFFFFFFFFFF AND PUSH4 0x2608F818 DUP5 DUP4 PUSH1 0x40 MLOAD DUP4 PUSH4 0xFFFFFFFF AND PUSH1 0xE0 SHL DUP2 MSTORE PUSH1 0x4 ADD PUSH3 0x2929 SWAP3 SWAP2 SWAP1 PUSH3 0x595F JUMP JUMPDEST PUSH1 0x20 PUSH1 0x40 MLOAD DUP1 DUP4 SUB DUP2 PUSH1 0x0 DUP8 GAS CALL ISZERO DUP1 ISZERO PUSH3 0x2949 JUMPI RETURNDATASIZE PUSH1 0x0 DUP1 RETURNDATACOPY RETURNDATASIZE PUSH1 0x0 REVERT JUMPDEST POP POP POP POP PUSH1 0x40 MLOAD RETURNDATASIZE PUSH1 0x1F NOT PUSH1 0x1F DUP3 ADD AND DUP3 ADD DUP1 PUSH1 0x40 MSTORE POP DUP2 ADD SWAP1 PUSH3 0x296F SWAP2 SWAP1 PUSH3 0x58A4 JUMP JUMPDEST POP PUSH3 0x2A8B JUMP JUMPDEST PUSH1 0x3 PUSH1 0x0 SWAP1 SLOAD SWAP1 PUSH2 0x100 EXP SWAP1 DIV PUSH20 0xFFFFFFFFFFFFFFFFFFFFFFFFFFFFFFFFFFFFFFFF AND PUSH20 0xFFFFFFFFFFFFFFFFFFFFFFFFFFFFFFFFFFFFFFFF AND PUSH4 0x2E1A7D4D DUP6 PUSH1 0x40 MLOAD DUP3 PUSH4 0xFFFFFFFF AND PUSH1 0xE0 SHL DUP2 MSTORE PUSH1 0x4 ADD PUSH3 0x29D3 SWAP2 SWAP1 PUSH3 0x4649 JUMP JUMPDEST PUSH1 0x0 PUSH1 0x40 MLOAD DUP1 DUP4 SUB DUP2 PUSH1 0x0 DUP8 DUP1 EXTCODESIZE ISZERO DUP1 ISZERO PUSH3 0x29EE JUMPI PUSH1 0x0 DUP1 REVERT JUMPDEST POP GAS CALL ISZERO DUP1 ISZERO PUSH3 0x2A03 JUMPI RETURNDATASIZE PUSH1 0x0 DUP1 RETURNDATACOPY RETURNDATASIZE PUSH1 0x0 REVERT JUMPDEST POP POP POP POP DUP5 PUSH20 0xFFFFFFFFFFFFFFFFFFFFFFFFFFFFFFFFFFFFFFFF AND PUSH4 0xE5974619 DUP3 DUP6 PUSH1 0x40 MLOAD DUP4 PUSH4 0xFFFFFFFF AND PUSH1 0xE0 SHL DUP2 MSTORE PUSH1 0x4 ADD PUSH3 0x2A43 SWAP2 SWAP1 PUSH3 0x4677 JUMP JUMPDEST PUSH1 0x20 PUSH1 0x40 MLOAD DUP1 DUP4 SUB DUP2 DUP6 DUP9 GAS CALL ISZERO DUP1 ISZERO PUSH3 0x2A62 JUMPI RETURNDATASIZE PUSH1 0x0 DUP1 RETURNDATACOPY RETURNDATASIZE PUSH1 0x0 REVERT JUMPDEST POP POP POP POP POP PUSH1 0x40 MLOAD RETURNDATASIZE PUSH1 0x1F NOT PUSH1 0x1F DUP3 ADD AND DUP3 ADD DUP1 PUSH1 0x40 MSTORE POP DUP2 ADD SWAP1 PUSH3 0x2A89 SWAP2 SWAP1 PUSH3 0x58A4 JUMP JUMPDEST POP JUMPDEST PUSH3 0x2B15 JUMP JUMPDEST DUP5 PUSH20 0xFFFFFFFFFFFFFFFFFFFFFFFFFFFFFFFFFFFFFFFF AND PUSH4 0xE5974619 DUP3 DUP6 PUSH1 0x40 MLOAD DUP4 PUSH4 0xFFFFFFFF AND PUSH1 0xE0 SHL DUP2 MSTORE PUSH1 0x4 ADD PUSH3 0x2ACD SWAP2 SWAP1 PUSH3 0x4677 JUMP JUMPDEST PUSH1 0x20 PUSH1 0x40 MLOAD DUP1 DUP4 SUB DUP2 DUP6 DUP9 GAS CALL ISZERO DUP1 ISZERO PUSH3 0x2AEC JUMPI RETURNDATASIZE PUSH1 0x0 DUP1 RETURNDATACOPY RETURNDATASIZE PUSH1 0x0 REVERT JUMPDEST POP POP POP POP POP PUSH1 0x40 MLOAD RETURNDATASIZE PUSH1 0x1F NOT PUSH1 0x1F DUP3 ADD AND DUP3 ADD DUP1 PUSH1 0x40 MSTORE POP DUP2 ADD SWAP1 PUSH3 0x2B13 SWAP2 SWAP1 PUSH3 0x58A4 JUMP JUMPDEST POP JUMPDEST JUMPDEST POP POP POP POP POP POP POP JUMP JUMPDEST PUSH1 0x0 DUP4 PUSH20 0xFFFFFFFFFFFFFFFFFFFFFFFFFFFFFFFFFFFFFFFF AND PUSH4 0x7535D246 PUSH1 0x40 MLOAD DUP2 PUSH4 0xFFFFFFFF AND PUSH1 0xE0 SHL DUP2 MSTORE PUSH1 0x4 ADD PUSH1 0x20 PUSH1 0x40 MLOAD DUP1 DUP4 SUB DUP2 DUP7 GAS STATICCALL ISZERO DUP1 ISZERO PUSH3 0x2B6D JUMPI RETURNDATASIZE PUSH1 0x0 DUP1 RETURNDATACOPY RETURNDATASIZE PUSH1 0x0 REVERT JUMPDEST POP POP POP POP PUSH1 0x40 MLOAD RETURNDATASIZE PUSH1 0x1F NOT PUSH1 0x1F DUP3 ADD AND DUP3 ADD DUP1 PUSH1 0x40 MSTORE POP DUP2 ADD SWAP1 PUSH3 0x2B93 SWAP2 SWAP1 PUSH3 0x5825 JUMP JUMPDEST SWAP1 POP PUSH1 0x0 PUSH3 0x2BC2 DUP4 DUP7 PUSH20 0xFFFFFFFFFFFFFFFFFFFFFFFFFFFFFFFFFFFFFFFF AND PUSH3 0x3F81 SWAP1 SWAP2 SWAP1 PUSH4 0xFFFFFFFF AND JUMP JUMPDEST SWAP1 POP PUSH1 0x0 DUP2 DUP6 GT PUSH3 0x2BD5 JUMPI DUP5 PUSH3 0x2BD7 JUMP JUMPDEST DUP2 JUMPDEST SWAP1 POP PUSH1 0x0 DUP2 GT ISZERO PUSH3 0x2CAE JUMPI PUSH3 0x2C10 DUP4 DUP3 DUP10 PUSH20 0xFFFFFFFFFFFFFFFFFFFFFFFFFFFFFFFFFFFFFFFF AND PUSH3 0x3B99 SWAP1 SWAP3 SWAP2 SWAP1 PUSH4 0xFFFFFFFF AND JUMP JUMPDEST DUP3 PUSH20 0xFFFFFFFFFFFFFFFFFFFFFFFFFFFFFFFFFFFFFFFF AND PUSH4 0x573ADE81 DUP9 DUP4 PUSH1 0x2 DUP1 DUP2 GT ISZERO PUSH3 0x2C44 JUMPI PUSH3 0x2C43 PUSH3 0x598C JUMP JUMPDEST JUMPDEST DUP9 PUSH1 0x40 MLOAD DUP6 PUSH4 0xFFFFFFFF AND PUSH1 0xE0 SHL DUP2 MSTORE PUSH1 0x4 ADD PUSH3 0x2C66 SWAP5 SWAP4 SWAP3 SWAP2 SWAP1 PUSH3 0x59F4 JUMP JUMPDEST PUSH1 0x20 PUSH1 0x40 MLOAD DUP1 DUP4 SUB DUP2 PUSH1 0x0 DUP8 GAS CALL ISZERO DUP1 ISZERO PUSH3 0x2C86 JUMPI RETURNDATASIZE PUSH1 0x0 DUP1 RETURNDATACOPY RETURNDATASIZE PUSH1 0x0 REVERT JUMPDEST POP POP POP POP PUSH1 0x40 MLOAD RETURNDATASIZE PUSH1 0x1F NOT PUSH1 0x1F DUP3 ADD AND DUP3 ADD DUP1 PUSH1 0x40 MSTORE POP DUP2 ADD SWAP1 PUSH3 0x2CAC SWAP2 SWAP1 PUSH3 0x58A4 JUMP JUMPDEST POP JUMPDEST POP POP POP POP POP POP POP POP JUMP JUMPDEST DUP1 PUSH2 0x180 ADD MLOAD DUP1 PUSH1 0x20 ADD SWAP1 MLOAD DUP2 ADD SWAP1 PUSH3 0x2CD3 SWAP2 SWAP1 PUSH3 0x4BA7 JUMP JUMPDEST DUP5 PUSH1 0x80 ADD DUP6 PUSH1 0xA0 ADD DUP7 PUSH1 0xC0 ADD DUP8 PUSH2 0x180 ADD DUP5 SWAP1 MSTORE DUP5 DUP2 MSTORE POP DUP5 PUSH20 0xFFFFFFFFFFFFFFFFFFFFFFFFFFFFFFFFFFFFFFFF AND PUSH20 0xFFFFFFFFFFFFFFFFFFFFFFFFFFFFFFFFFFFFFFFF AND DUP2 MSTORE POP DUP5 PUSH20 0xFFFFFFFFFFFFFFFFFFFFFFFFFFFFFFFFFFFFFFFF AND PUSH20 0xFFFFFFFFFFFFFFFFFFFFFFFFFFFFFFFFFFFFFFFF AND DUP2 MSTORE POP POP POP POP POP PUSH1 0x1 PUSH8 0xFFFFFFFFFFFFFFFF DUP2 GT ISZERO PUSH3 0x2D6D JUMPI PUSH3 0x2D6C PUSH3 0x42F9 JUMP JUMPDEST JUMPDEST PUSH1 0x40 MLOAD SWAP1 DUP1 DUP3 MSTORE DUP1 PUSH1 0x20 MUL PUSH1 0x20 ADD DUP3 ADD PUSH1 0x40 MSTORE DUP1 ISZERO PUSH3 0x2D9C JUMPI DUP2 PUSH1 0x20 ADD PUSH1 0x20 DUP3 MUL DUP1 CALLDATASIZE DUP4 CALLDATACOPY DUP1 DUP3 ADD SWAP2 POP POP SWAP1 POP JUMPDEST POP DUP2 PUSH2 0x120 ADD DUP2 SWAP1 MSTORE POP PUSH1 0x1 PUSH8 0xFFFFFFFFFFFFFFFF DUP2 GT ISZERO PUSH3 0x2DC4 JUMPI PUSH3 0x2DC3 PUSH3 0x42F9 JUMP JUMPDEST JUMPDEST PUSH1 0x40 MLOAD SWAP1 DUP1 DUP3 MSTORE DUP1 PUSH1 0x20 MUL PUSH1 0x20 ADD DUP3 ADD PUSH1 0x40 MSTORE DUP1 ISZERO PUSH3 0x2DF3 JUMPI DUP2 PUSH1 0x20 ADD PUSH1 0x20 DUP3 MUL DUP1 CALLDATASIZE DUP4 CALLDATACOPY DUP1 DUP3 ADD SWAP2 POP POP SWAP1 POP JUMPDEST POP DUP2 PUSH2 0x140 ADD DUP2 SWAP1 MSTORE POP PUSH1 0x0 PUSH1 0x1 PUSH8 0xFFFFFFFFFFFFFFFF DUP2 GT ISZERO PUSH3 0x2E1D JUMPI PUSH3 0x2E1C PUSH3 0x42F9 JUMP JUMPDEST JUMPDEST PUSH1 0x40 MLOAD SWAP1 DUP1 DUP3 MSTORE DUP1 PUSH1 0x20 MUL PUSH1 0x20 ADD DUP3 ADD PUSH1 0x40 MSTORE DUP1 ISZERO PUSH3 0x2E4C JUMPI DUP2 PUSH1 0x20 ADD PUSH1 0x20 DUP3 MUL DUP1 CALLDATASIZE DUP4 CALLDATACOPY DUP1 DUP3 ADD SWAP2 POP POP SWAP1 POP JUMPDEST POP SWAP1 POP PUSH1 0x0 PUSH1 0x4 DUP4 PUSH1 0xE0 ADD MLOAD AND PUSH1 0xFF AND EQ PUSH3 0x2E6D JUMPI DUP2 PUSH1 0x20 ADD MLOAD PUSH3 0x2E73 JUMP JUMPDEST DUP2 PUSH1 0x80 ADD MLOAD JUMPDEST DUP3 PUSH2 0x120 ADD MLOAD PUSH1 0x0 DUP2 MLOAD DUP2 LT PUSH3 0x2E8F JUMPI PUSH3 0x2E8E PUSH3 0x4C38 JUMP JUMPDEST JUMPDEST PUSH1 0x20 MUL PUSH1 0x20 ADD ADD SWAP1 PUSH20 0xFFFFFFFFFFFFFFFFFFFFFFFFFFFFFFFFFFFFFFFF AND SWAP1 DUP2 PUSH20 0xFFFFFFFFFFFFFFFFFFFFFFFFFFFFFFFFFFFFFFFF AND DUP2 MSTORE POP POP PUSH3 0x2F0D DUP3 PUSH2 0x120 ADD MLOAD PUSH1 0x0 DUP2 MLOAD DUP2 LT PUSH3 0x2EE9 JUMPI PUSH3 0x2EE8 PUSH3 0x4C38 JUMP JUMPDEST JUMPDEST PUSH1 0x20 MUL PUSH1 0x20 ADD ADD MLOAD PUSH20 0xFFFFFFFFFFFFFFFFFFFFFFFFFFFFFFFFFFFFFFFF AND PUSH3 0x1C30 JUMP JUMPDEST ISZERO PUSH3 0x2F8D JUMPI PUSH1 0x3 PUSH1 0x0 SWAP1 SLOAD SWAP1 PUSH2 0x100 EXP SWAP1 DIV PUSH20 0xFFFFFFFFFFFFFFFFFFFFFFFFFFFFFFFFFFFFFFFF AND DUP3 PUSH2 0x120 ADD MLOAD PUSH1 0x0 DUP2 MLOAD DUP2 LT PUSH3 0x2F52 JUMPI PUSH3 0x2F51 PUSH3 0x4C38 JUMP JUMPDEST JUMPDEST PUSH1 0x20 MUL PUSH1 0x20 ADD ADD SWAP1 PUSH20 0xFFFFFFFFFFFFFFFFFFFFFFFFFFFFFFFFFFFFFFFF AND SWAP1 DUP2 PUSH20 0xFFFFFFFFFFFFFFFFFFFFFFFFFFFFFFFFFFFFFFFF AND DUP2 MSTORE POP POP JUMPDEST DUP2 PUSH1 0xC0 ADD MLOAD DUP3 PUSH2 0x140 ADD MLOAD PUSH1 0x0 DUP2 MLOAD DUP2 LT PUSH3 0x2FAE JUMPI PUSH3 0x2FAD PUSH3 0x4C38 JUMP JUMPDEST JUMPDEST PUSH1 0x20 MUL PUSH1 0x20 ADD ADD DUP2 DUP2 MSTORE POP POP PUSH1 0x2 PUSH1 0x0 SWAP1 SLOAD SWAP1 PUSH2 0x100 EXP SWAP1 DIV PUSH20 0xFFFFFFFFFFFFFFFFFFFFFFFFFFFFFFFFFFFFFFFF AND PUSH20 0xFFFFFFFFFFFFFFFFFFFFFFFFFFFFFFFFFFFFFFFF AND PUSH4 0xAB9C4B5D ADDRESS DUP5 PUSH2 0x120 ADD MLOAD DUP6 PUSH2 0x140 ADD MLOAD DUP6 ADDRESS PUSH1 0x40 MLOAD DUP1 PUSH2 0x140 ADD PUSH1 0x40 MSTORE DUP1 DUP11 PUSH1 0x60 ADD MLOAD PUSH20 0xFFFFFFFFFFFFFFFFFFFFFFFFFFFFFFFFFFFFFFFF AND DUP2 MSTORE PUSH1 0x20 ADD DUP11 PUSH1 0x20 ADD MLOAD PUSH20 0xFFFFFFFFFFFFFFFFFFFFFFFFFFFFFFFFFFFFFFFF AND DUP2 MSTORE PUSH1 0x20 ADD DUP11 PUSH1 0x40 ADD MLOAD PUSH20 0xFFFFFFFFFFFFFFFFFFFFFFFFFFFFFFFFFFFFFFFF AND DUP2 MSTORE PUSH1 0x20 ADD DUP11 PUSH1 0x80 ADD MLOAD PUSH20 0xFFFFFFFFFFFFFFFFFFFFFFFFFFFFFFFFFFFFFFFF AND DUP2 MSTORE PUSH1 0x20 ADD DUP11 PUSH1 0xA0 ADD MLOAD PUSH20 0xFFFFFFFFFFFFFFFFFFFFFFFFFFFFFFFFFFFFFFFF AND DUP2 MSTORE PUSH1 0x20 ADD DUP11 PUSH1 0x20 ADD MLOAD PUSH20 0xFFFFFFFFFFFFFFFFFFFFFFFFFFFFFFFFFFFFFFFF AND DUP2 MSTORE PUSH1 0x20 ADD DUP11 PUSH1 0x0 ADD MLOAD DUP2 MSTORE PUSH1 0x20 ADD DUP11 PUSH1 0xC0 ADD MLOAD DUP2 MSTORE PUSH1 0x20 ADD DUP11 PUSH1 0xE0 ADD MLOAD PUSH1 0xFF AND DUP2 MSTORE PUSH1 0x20 ADD PUSH1 0x40 MLOAD DUP1 PUSH1 0x20 ADD PUSH1 0x40 MSTORE DUP1 PUSH1 0x0 DUP2 MSTORE POP DUP2 MSTORE POP PUSH1 0x40 MLOAD PUSH1 0x20 ADD PUSH3 0x3119 SWAP2 SWAP1 PUSH3 0x4DE5 JUMP JUMPDEST PUSH1 0x40 MLOAD PUSH1 0x20 DUP2 DUP4 SUB SUB DUP2 MSTORE SWAP1 PUSH1 0x40 MSTORE PUSH1 0x0 PUSH1 0x40 MLOAD DUP9 PUSH4 0xFFFFFFFF AND PUSH1 0xE0 SHL DUP2 MSTORE PUSH1 0x4 ADD PUSH3 0x314E SWAP8 SWAP7 SWAP6 SWAP5 SWAP4 SWAP3 SWAP2 SWAP1 PUSH3 0x5026 JUMP JUMPDEST PUSH1 0x0 PUSH1 0x40 MLOAD DUP1 DUP4 SUB DUP2 PUSH1 0x0 DUP8 DUP1 EXTCODESIZE ISZERO DUP1 ISZERO PUSH3 0x3169 JUMPI PUSH1 0x0 DUP1 REVERT JUMPDEST POP GAS CALL ISZERO DUP1 ISZERO PUSH3 0x317E JUMPI RETURNDATASIZE PUSH1 0x0 DUP1 RETURNDATACOPY RETURNDATASIZE PUSH1 0x0 REVERT JUMPDEST POP POP POP POP PUSH1 0x0 DUP3 PUSH2 0x180 ADD MLOAD MLOAD EQ PUSH3 0x3447 JUMPI PUSH1 0x0 DUP1 DUP4 PUSH2 0x180 ADD MLOAD DUP1 PUSH1 0x20 ADD SWAP1 MLOAD DUP2 ADD SWAP1 PUSH3 0x31AF SWAP2 SWAP1 PUSH3 0x5C25 JUMP JUMPDEST SWAP2 POP SWAP2 POP DUP2 MLOAD DUP2 MLOAD EQ PUSH3 0x31EF JUMPI PUSH1 0x40 MLOAD PUSH32 0xFF633A3800000000000000000000000000000000000000000000000000000000 DUP2 MSTORE PUSH1 0x4 ADD PUSH1 0x40 MLOAD DUP1 SWAP2 SUB SWAP1 REVERT JUMPDEST PUSH1 0x0 DUP3 MLOAD PUSH8 0xFFFFFFFFFFFFFFFF DUP2 GT ISZERO PUSH3 0x320F JUMPI PUSH3 0x320E PUSH3 0x42F9 JUMP JUMPDEST JUMPDEST PUSH1 0x40 MLOAD SWAP1 DUP1 DUP3 MSTORE DUP1 PUSH1 0x20 MUL PUSH1 0x20 ADD DUP3 ADD PUSH1 0x40 MSTORE DUP1 ISZERO PUSH3 0x324C JUMPI DUP2 PUSH1 0x20 ADD JUMPDEST PUSH3 0x3238 PUSH3 0x4191 JUMP JUMPDEST DUP2 MSTORE PUSH1 0x20 ADD SWAP1 PUSH1 0x1 SWAP1 SUB SWAP1 DUP2 PUSH3 0x322E JUMPI SWAP1 POP JUMPDEST POP SWAP1 POP PUSH1 0x0 JUMPDEST DUP4 MLOAD DUP2 LT ISZERO PUSH3 0x3397 JUMPI PUSH1 0x0 PUSH1 0x40 MLOAD DUP1 PUSH1 0xA0 ADD PUSH1 0x40 MSTORE DUP1 ADDRESS PUSH1 0x40 MLOAD PUSH1 0x20 ADD PUSH3 0x327C SWAP2 SWAP1 PUSH3 0x4677 JUMP JUMPDEST PUSH1 0x40 MLOAD PUSH1 0x20 DUP2 DUP4 SUB SUB DUP2 MSTORE SWAP1 PUSH1 0x40 MSTORE DUP2 MSTORE PUSH1 0x20 ADD CALLER DUP10 PUSH1 0x20 ADD MLOAD DUP11 PUSH1 0x40 ADD MLOAD DUP12 PUSH1 0xE0 ADD MLOAD DUP10 PUSH1 0x40 MLOAD PUSH1 0x20 ADD PUSH3 0x32B7 SWAP6 SWAP5 SWAP4 SWAP3 SWAP2 SWAP1 PUSH3 0x5D8B JUMP JUMPDEST PUSH1 0x40 MLOAD PUSH1 0x20 DUP2 DUP4 SUB SUB DUP2 MSTORE SWAP1 PUSH1 0x40 MSTORE DUP2 MSTORE PUSH1 0x20 ADD PUSH1 0x0 PUSH8 0xFFFFFFFFFFFFFFFF DUP2 GT ISZERO PUSH3 0x32E9 JUMPI PUSH3 0x32E8 PUSH3 0x42F9 JUMP JUMPDEST JUMPDEST PUSH1 0x40 MLOAD SWAP1 DUP1 DUP3 MSTORE DUP1 PUSH1 0x20 MUL PUSH1 0x20 ADD DUP3 ADD PUSH1 0x40 MSTORE DUP1 ISZERO PUSH3 0x3326 JUMPI DUP2 PUSH1 0x20 ADD JUMPDEST PUSH3 0x3312 PUSH3 0x41D6 JUMP JUMPDEST DUP2 MSTORE PUSH1 0x20 ADD SWAP1 PUSH1 0x1 SWAP1 SUB SWAP1 DUP2 PUSH3 0x3308 JUMPI SWAP1 POP JUMPDEST POP DUP2 MSTORE PUSH1 0x20 ADD PUSH1 0x0 PUSH20 0xFFFFFFFFFFFFFFFFFFFFFFFFFFFFFFFFFFFFFFFF AND DUP2 MSTORE PUSH1 0x20 ADD PUSH1 0x40 MLOAD DUP1 PUSH1 0x20 ADD PUSH1 0x40 MSTORE DUP1 PUSH1 0x0 DUP2 MSTORE POP DUP2 MSTORE POP SWAP1 POP DUP1 DUP4 DUP4 DUP2 MLOAD DUP2 LT PUSH3 0x3375 JUMPI PUSH3 0x3374 PUSH3 0x4C38 JUMP JUMPDEST JUMPDEST PUSH1 0x20 MUL PUSH1 0x20 ADD ADD DUP2 SWAP1 MSTORE POP POP DUP1 DUP1 PUSH3 0x338E SWAP1 PUSH3 0x56EC JUMP JUMPDEST SWAP2 POP POP PUSH3 0x3252 JUMP JUMPDEST POP PUSH1 0x5 PUSH1 0x0 SWAP1 SLOAD SWAP1 PUSH2 0x100 EXP SWAP1 DIV PUSH20 0xFFFFFFFFFFFFFFFFFFFFFFFFFFFFFFFFFFFFFFFF AND PUSH20 0xFFFFFFFFFFFFFFFFFFFFFFFFFFFFFFFFFFFFFFFF AND PUSH4 0x3626454D DUP3 DUP6 PUSH1 0x40 MLOAD DUP4 PUSH4 0xFFFFFFFF AND PUSH1 0xE0 SHL DUP2 MSTORE PUSH1 0x4 ADD PUSH3 0x33F7 SWAP3 SWAP2 SWAP1 PUSH3 0x6112 JUMP JUMPDEST PUSH1 0x0 PUSH1 0x40 MLOAD DUP1 DUP4 SUB DUP2 PUSH1 0x0 DUP8 GAS CALL ISZERO DUP1 ISZERO PUSH3 0x3417 JUMPI RETURNDATASIZE PUSH1 0x0 DUP1 RETURNDATACOPY RETURNDATASIZE PUSH1 0x0 REVERT JUMPDEST POP POP POP POP PUSH1 0x40 MLOAD RETURNDATASIZE PUSH1 0x0 DUP3 RETURNDATACOPY RETURNDATASIZE PUSH1 0x1F NOT PUSH1 0x1F DUP3 ADD AND DUP3 ADD DUP1 PUSH1 0x40 MSTORE POP DUP2 ADD SWAP1 PUSH3 0x3442 SWAP2 SWAP1 PUSH3 0x623A JUMP JUMPDEST POP POP POP POP JUMPDEST POP POP JUMP JUMPDEST PUSH1 0x0 CALLER SWAP1 POP SWAP1 JUMP JUMPDEST PUSH1 0x0 DUP2 PUSH1 0x40 ADD MLOAD DUP1 PUSH1 0x20 ADD SWAP1 MLOAD DUP2 ADD SWAP1 PUSH3 0x346F SWAP2 SWAP1 PUSH3 0x628B JUMP JUMPDEST SWAP1 POP DUP1 PUSH20 0xFFFFFFFFFFFFFFFFFFFFFFFFFFFFFFFFFFFFFFFF AND PUSH1 0x5 PUSH1 0x0 SWAP1 SLOAD SWAP1 PUSH2 0x100 EXP SWAP1 DIV PUSH20 0xFFFFFFFFFFFFFFFFFFFFFFFFFFFFFFFFFFFFFFFF AND PUSH20 0xFFFFFFFFFFFFFFFFFFFFFFFFFFFFFFFFFFFFFFFF AND EQ PUSH3 0x3506 JUMPI DUP1 PUSH1 0x40 MLOAD PUSH32 0x71811DF200000000000000000000000000000000000000000000000000000000 DUP2 MSTORE PUSH1 0x4 ADD PUSH3 0x34FD SWAP2 SWAP1 PUSH3 0x4677 JUMP JUMPDEST PUSH1 0x40 MLOAD DUP1 SWAP2 SUB SWAP1 REVERT JUMPDEST PUSH1 0x0 DUP1 PUSH1 0x0 DUP1 PUSH1 0x0 DUP7 PUSH1 0x60 ADD MLOAD DUP1 PUSH1 0x20 ADD SWAP1 MLOAD DUP2 ADD SWAP1 PUSH3 0x3528 SWAP2 SWAP1 PUSH3 0x62D4 JUMP JUMPDEST SWAP5 POP SWAP5 POP SWAP5 POP SWAP5 POP SWAP5 POP PUSH3 0x353C PUSH3 0x40AA JUMP JUMPDEST DUP6 DUP2 PUSH1 0x60 ADD SWAP1 PUSH20 0xFFFFFFFFFFFFFFFFFFFFFFFFFFFFFFFFFFFFFFFF AND SWAP1 DUP2 PUSH20 0xFFFFFFFFFFFFFFFFFFFFFFFFFFFFFFFFFFFFFFFF AND DUP2 MSTORE POP POP DUP5 DUP2 PUSH1 0x20 ADD SWAP1 PUSH20 0xFFFFFFFFFFFFFFFFFFFFFFFFFFFFFFFFFFFFFFFF AND SWAP1 DUP2 PUSH20 0xFFFFFFFFFFFFFFFFFFFFFFFFFFFFFFFFFFFFFFFF AND DUP2 MSTORE POP POP DUP4 DUP2 PUSH1 0x40 ADD SWAP1 PUSH20 0xFFFFFFFFFFFFFFFFFFFFFFFFFFFFFFFFFFFFFFFF AND SWAP1 DUP2 PUSH20 0xFFFFFFFFFFFFFFFFFFFFFFFFFFFFFFFFFFFFFFFF AND DUP2 MSTORE POP POP DUP3 DUP2 PUSH1 0xE0 ADD SWAP1 PUSH1 0xFF AND SWAP1 DUP2 PUSH1 0xFF AND DUP2 MSTORE POP POP DUP2 DUP2 PUSH2 0x180 ADD DUP2 SWAP1 MSTORE POP PUSH3 0x360B DUP2 PUSH3 0x2CB8 JUMP JUMPDEST POP POP POP POP POP POP POP POP JUMP JUMPDEST PUSH1 0x0 PUSH3 0x363C DUP4 PUSH1 0x20 ADD MLOAD PUSH20 0xFFFFFFFFFFFFFFFFFFFFFFFFFFFFFFFFFFFFFFFF AND PUSH3 0x1C30 JUMP JUMPDEST SWAP1 POP PUSH1 0x0 PUSH3 0x3665 DUP5 PUSH1 0x60 ADD MLOAD PUSH20 0xFFFFFFFFFFFFFFFFFFFFFFFFFFFFFFFFFFFFFFFF AND PUSH3 0x1C30 JUMP JUMPDEST SWAP1 POP PUSH1 0x0 PUSH1 0x1 DUP6 PUSH2 0x100 ADD MLOAD AND PUSH1 0xFF AND SUB PUSH3 0x3819 JUMPI DUP1 ISZERO PUSH3 0x3718 JUMPI PUSH1 0x3 PUSH1 0x0 SWAP1 SLOAD SWAP1 PUSH2 0x100 EXP SWAP1 DIV PUSH20 0xFFFFFFFFFFFFFFFFFFFFFFFFFFFFFFFFFFFFFFFF AND PUSH20 0xFFFFFFFFFFFFFFFFFFFFFFFFFFFFFFFFFFFFFFFF AND PUSH4 0x2E1A7D4D DUP6 PUSH1 0xE0 ADD MLOAD PUSH1 0x40 MLOAD DUP3 PUSH4 0xFFFFFFFF AND PUSH1 0xE0 SHL DUP2 MSTORE PUSH1 0x4 ADD PUSH3 0x36E3 SWAP2 SWAP1 PUSH3 0x4649 JUMP JUMPDEST PUSH1 0x0 PUSH1 0x40 MLOAD DUP1 DUP4 SUB DUP2 PUSH1 0x0 DUP8 DUP1 EXTCODESIZE ISZERO DUP1 ISZERO PUSH3 0x36FE JUMPI PUSH1 0x0 DUP1 REVERT JUMPDEST POP GAS CALL ISZERO DUP1 ISZERO PUSH3 0x3713 JUMPI RETURNDATASIZE PUSH1 0x0 DUP1 RETURNDATACOPY RETURNDATASIZE PUSH1 0x0 REVERT JUMPDEST POP POP POP POP JUMPDEST PUSH3 0x3748 DUP2 DUP6 PUSH1 0x60 ADD MLOAD DUP7 PUSH1 0x80 ADD MLOAD DUP8 PUSH1 0xE0 ADD MLOAD DUP9 PUSH1 0xC0 ADD MLOAD PUSH3 0x373D SWAP2 SWAP1 PUSH3 0x56B1 JUMP JUMPDEST DUP9 PUSH1 0x0 ADD MLOAD PUSH3 0x27BF JUMP JUMPDEST PUSH3 0x3763 DUP3 DUP6 PUSH1 0x20 ADD MLOAD DUP7 PUSH1 0x40 ADD MLOAD DUP7 DUP9 PUSH1 0x0 ADD MLOAD PUSH3 0x2402 JUMP JUMPDEST POP DUP2 ISZERO PUSH3 0x37F1 JUMPI PUSH1 0x3 PUSH1 0x0 SWAP1 SLOAD SWAP1 PUSH2 0x100 EXP SWAP1 DIV PUSH20 0xFFFFFFFFFFFFFFFFFFFFFFFFFFFFFFFFFFFFFFFF AND PUSH20 0xFFFFFFFFFFFFFFFFFFFFFFFFFFFFFFFFFFFFFFFF AND PUSH4 0xD0E30DB0 DUP5 PUSH1 0x40 MLOAD DUP3 PUSH4 0xFFFFFFFF AND PUSH1 0xE0 SHL DUP2 MSTORE PUSH1 0x4 ADD PUSH1 0x0 PUSH1 0x40 MLOAD DUP1 DUP4 SUB DUP2 DUP6 DUP9 DUP1 EXTCODESIZE ISZERO DUP1 ISZERO PUSH3 0x37D6 JUMPI PUSH1 0x0 DUP1 REVERT JUMPDEST POP GAS CALL ISZERO DUP1 ISZERO PUSH3 0x37EB JUMPI RETURNDATASIZE PUSH1 0x0 DUP1 RETURNDATACOPY RETURNDATASIZE PUSH1 0x0 REVERT JUMPDEST POP POP POP POP POP JUMPDEST DUP4 PUSH1 0x60 ADD MLOAD PUSH20 0xFFFFFFFFFFFFFFFFFFFFFFFFFFFFFFFFFFFFFFFF AND DUP5 PUSH1 0xA0 ADD MLOAD POP POP PUSH3 0x3888 JUMP JUMPDEST PUSH3 0x3849 DUP2 DUP6 PUSH1 0x60 ADD MLOAD DUP7 PUSH1 0x80 ADD MLOAD DUP8 PUSH1 0xE0 ADD MLOAD DUP9 PUSH1 0xC0 ADD MLOAD PUSH3 0x383E SWAP2 SWAP1 PUSH3 0x56B1 JUMP JUMPDEST DUP9 PUSH1 0x0 ADD MLOAD PUSH3 0x2B1F JUMP JUMPDEST PUSH3 0x3864 DUP3 DUP6 PUSH1 0x20 ADD MLOAD DUP7 PUSH1 0x40 ADD MLOAD DUP7 DUP9 PUSH1 0x0 ADD MLOAD PUSH3 0x253A JUMP JUMPDEST POP DUP4 PUSH1 0x60 ADD MLOAD PUSH20 0xFFFFFFFFFFFFFFFFFFFFFFFFFFFFFFFFFFFFFFFF AND DUP5 PUSH1 0xA0 ADD MLOAD POP POP JUMPDEST POP POP POP POP JUMP JUMPDEST PUSH1 0x0 PUSH3 0x38B5 DUP4 PUSH1 0x20 ADD MLOAD PUSH20 0xFFFFFFFFFFFFFFFFFFFFFFFFFFFFFFFFFFFFFFFF AND PUSH3 0x1C30 JUMP JUMPDEST SWAP1 POP PUSH1 0x0 PUSH3 0x38DE DUP5 PUSH1 0x60 ADD MLOAD PUSH20 0xFFFFFFFFFFFFFFFFFFFFFFFFFFFFFFFFFFFFFFFF AND PUSH3 0x1C30 JUMP JUMPDEST SWAP1 POP PUSH1 0x0 PUSH1 0x1 DUP6 PUSH2 0x100 ADD MLOAD AND PUSH1 0xFF AND SUB PUSH3 0x3ACF JUMPI PUSH1 0x0 PUSH1 0x4 DUP6 PUSH2 0x100 ADD MLOAD AND PUSH1 0xFF AND EQ PUSH3 0x390F JUMPI DUP2 PUSH3 0x3911 JUMP JUMPDEST DUP1 JUMPDEST ISZERO PUSH3 0x39AD JUMPI PUSH1 0x3 PUSH1 0x0 SWAP1 SLOAD SWAP1 PUSH2 0x100 EXP SWAP1 DIV PUSH20 0xFFFFFFFFFFFFFFFFFFFFFFFFFFFFFFFFFFFFFFFF AND PUSH20 0xFFFFFFFFFFFFFFFFFFFFFFFFFFFFFFFFFFFFFFFF AND PUSH4 0x2E1A7D4D DUP6 PUSH1 0xE0 ADD MLOAD PUSH1 0x40 MLOAD DUP3 PUSH4 0xFFFFFFFF AND PUSH1 0xE0 SHL DUP2 MSTORE PUSH1 0x4 ADD PUSH3 0x3978 SWAP2 SWAP1 PUSH3 0x4649 JUMP JUMPDEST PUSH1 0x0 PUSH1 0x40 MLOAD DUP1 DUP4 SUB DUP2 PUSH1 0x0 DUP8 DUP1 EXTCODESIZE ISZERO DUP1 ISZERO PUSH3 0x3993 JUMPI PUSH1 0x0 DUP1 REVERT JUMPDEST POP GAS CALL ISZERO DUP1 ISZERO PUSH3 0x39A8 JUMPI RETURNDATASIZE PUSH1 0x0 DUP1 RETURNDATACOPY RETURNDATASIZE PUSH1 0x0 REVERT JUMPDEST POP POP POP POP JUMPDEST PUSH3 0x39DD DUP3 DUP6 PUSH1 0x20 ADD MLOAD DUP7 PUSH1 0x40 ADD MLOAD DUP8 PUSH1 0xE0 ADD MLOAD DUP9 PUSH1 0xC0 ADD MLOAD PUSH3 0x39D2 SWAP2 SWAP1 PUSH3 0x56B1 JUMP JUMPDEST DUP9 PUSH1 0x0 ADD MLOAD PUSH3 0x1D82 JUMP JUMPDEST PUSH3 0x39FE DUP2 DUP6 PUSH1 0x60 ADD MLOAD DUP7 PUSH1 0x80 ADD MLOAD DUP7 DUP9 PUSH1 0x0 ADD MLOAD DUP10 PUSH2 0x120 ADD MLOAD PUSH3 0x3BE9 JUMP JUMPDEST PUSH1 0x0 PUSH1 0x4 DUP6 PUSH2 0x100 ADD MLOAD AND PUSH1 0xFF AND EQ PUSH3 0x3A19 JUMPI DUP2 PUSH3 0x3A1B JUMP JUMPDEST DUP1 JUMPDEST ISZERO PUSH3 0x3AA7 JUMPI PUSH1 0x3 PUSH1 0x0 SWAP1 SLOAD SWAP1 PUSH2 0x100 EXP SWAP1 DIV PUSH20 0xFFFFFFFFFFFFFFFFFFFFFFFFFFFFFFFFFFFFFFFF AND PUSH20 0xFFFFFFFFFFFFFFFFFFFFFFFFFFFFFFFFFFFFFFFF AND PUSH4 0xD0E30DB0 DUP5 PUSH1 0x40 MLOAD DUP3 PUSH4 0xFFFFFFFF AND PUSH1 0xE0 SHL DUP2 MSTORE PUSH1 0x4 ADD PUSH1 0x0 PUSH1 0x40 MLOAD DUP1 DUP4 SUB DUP2 DUP6 DUP9 DUP1 EXTCODESIZE ISZERO DUP1 ISZERO PUSH3 0x3A8C JUMPI PUSH1 0x0 DUP1 REVERT JUMPDEST POP GAS CALL ISZERO DUP1 ISZERO PUSH3 0x3AA1 JUMPI RETURNDATASIZE PUSH1 0x0 DUP1 RETURNDATACOPY RETURNDATASIZE PUSH1 0x0 REVERT JUMPDEST POP POP POP POP POP JUMPDEST DUP4 PUSH1 0x60 ADD MLOAD PUSH20 0xFFFFFFFFFFFFFFFFFFFFFFFFFFFFFFFFFFFFFFFF AND DUP5 PUSH1 0xA0 ADD MLOAD POP POP PUSH3 0x3B43 JUMP JUMPDEST PUSH3 0x3AFF DUP3 DUP6 PUSH1 0x20 ADD MLOAD DUP7 PUSH1 0x40 ADD MLOAD DUP8 PUSH1 0xE0 ADD MLOAD DUP9 PUSH1 0xC0 ADD MLOAD PUSH3 0x3AF4 SWAP2 SWAP1 PUSH3 0x56B1 JUMP JUMPDEST DUP9 PUSH1 0x0 ADD MLOAD PUSH3 0x1FE6 JUMP JUMPDEST PUSH3 0x3B20 DUP2 DUP6 PUSH1 0x60 ADD MLOAD DUP7 PUSH1 0x80 ADD MLOAD DUP7 DUP9 PUSH1 0x0 ADD MLOAD DUP10 PUSH2 0x120 ADD MLOAD PUSH3 0x3C73 JUMP JUMPDEST DUP4 PUSH1 0x60 ADD MLOAD PUSH20 0xFFFFFFFFFFFFFFFFFFFFFFFFFFFFFFFFFFFFFFFF AND DUP5 PUSH1 0xA0 ADD MLOAD POP POP JUMPDEST POP POP POP POP JUMP JUMPDEST DUP2 PUSH1 0x14 MSTORE DUP1 PUSH1 0x34 MSTORE PUSH16 0xA9059CBB000000000000000000000000 PUSH1 0x0 MSTORE PUSH1 0x20 PUSH1 0x0 PUSH1 0x44 PUSH1 0x10 PUSH1 0x0 DUP8 GAS CALL RETURNDATASIZE ISZERO PUSH1 0x1 PUSH1 0x0 MLOAD EQ OR AND PUSH3 0x3B8F JUMPI PUSH4 0x90B8EC18 PUSH1 0x0 MSTORE PUSH1 0x4 PUSH1 0x1C REVERT JUMPDEST PUSH1 0x0 PUSH1 0x34 MSTORE POP POP POP JUMP JUMPDEST DUP2 PUSH1 0x14 MSTORE DUP1 PUSH1 0x34 MSTORE PUSH16 0x95EA7B3000000000000000000000000 PUSH1 0x0 MSTORE PUSH1 0x20 PUSH1 0x0 PUSH1 0x44 PUSH1 0x10 PUSH1 0x0 DUP8 GAS CALL RETURNDATASIZE ISZERO PUSH1 0x1 PUSH1 0x0 MLOAD EQ OR AND PUSH3 0x3BDF JUMPI PUSH4 0x3E3F8F73 PUSH1 0x0 MSTORE PUSH1 0x4 PUSH1 0x1C REVERT JUMPDEST PUSH1 0x0 PUSH1 0x34 MSTORE POP POP POP JUMP JUMPDEST DUP4 PUSH20 0xFFFFFFFFFFFFFFFFFFFFFFFFFFFFFFFFFFFFFFFF AND PUSH4 0xC5EBEAEC DUP5 PUSH1 0x40 MLOAD DUP3 PUSH4 0xFFFFFFFF AND PUSH1 0xE0 SHL DUP2 MSTORE PUSH1 0x4 ADD PUSH3 0x3C24 SWAP2 SWAP1 PUSH3 0x4649 JUMP JUMPDEST PUSH1 0x20 PUSH1 0x40 MLOAD DUP1 DUP4 SUB DUP2 PUSH1 0x0 DUP8 GAS CALL ISZERO DUP1 ISZERO PUSH3 0x3C44 JUMPI RETURNDATASIZE PUSH1 0x0 DUP1 RETURNDATACOPY RETURNDATASIZE PUSH1 0x0 REVERT JUMPDEST POP POP POP POP PUSH1 0x40 MLOAD RETURNDATASIZE PUSH1 0x1F NOT PUSH1 0x1F DUP3 ADD AND DUP3 ADD DUP1 PUSH1 0x40 MSTORE POP DUP2 ADD SWAP1 PUSH3 0x3C6A SWAP2 SWAP1 PUSH3 0x58A4 JUMP JUMPDEST POP POP POP POP POP POP POP JUMP JUMPDEST PUSH1 0x0 DUP5 PUSH20 0xFFFFFFFFFFFFFFFFFFFFFFFFFFFFFFFFFFFFFFFF AND PUSH4 0x7535D246 PUSH1 0x40 MLOAD DUP2 PUSH4 0xFFFFFFFF AND PUSH1 0xE0 SHL DUP2 MSTORE PUSH1 0x4 ADD PUSH1 0x20 PUSH1 0x40 MLOAD DUP1 DUP4 SUB DUP2 DUP7 GAS STATICCALL ISZERO DUP1 ISZERO PUSH3 0x3CC1 JUMPI RETURNDATASIZE PUSH1 0x0 DUP1 RETURNDATACOPY RETURNDATASIZE PUSH1 0x0 REVERT JUMPDEST POP POP POP POP PUSH1 0x40 MLOAD RETURNDATASIZE PUSH1 0x1F NOT PUSH1 0x1F DUP3 ADD AND DUP3 ADD DUP1 PUSH1 0x40 MSTORE POP DUP2 ADD SWAP1 PUSH3 0x3CE7 SWAP2 SWAP1 PUSH3 0x5825 JUMP JUMPDEST SWAP1 POP DUP4 DUP6 PUSH20 0xFFFFFFFFFFFFFFFFFFFFFFFFFFFFFFFFFFFFFFFF AND PUSH4 0x6BD76D24 DUP6 ADDRESS PUSH1 0x40 MLOAD DUP4 PUSH4 0xFFFFFFFF AND PUSH1 0xE0 SHL DUP2 MSTORE PUSH1 0x4 ADD PUSH3 0x3D27 SWAP3 SWAP2 SWAP1 PUSH3 0x637B JUMP JUMPDEST PUSH1 0x20 PUSH1 0x40 MLOAD DUP1 DUP4 SUB DUP2 DUP7 GAS STATICCALL ISZERO DUP1 ISZERO PUSH3 0x3D45 JUMPI RETURNDATASIZE PUSH1 0x0 DUP1 RETURNDATACOPY RETURNDATASIZE PUSH1 0x0 REVERT JUMPDEST POP POP POP POP PUSH1 0x40 MLOAD RETURNDATASIZE PUSH1 0x1F NOT PUSH1 0x1F DUP3 ADD AND DUP3 ADD DUP1 PUSH1 0x40 MSTORE POP DUP2 ADD SWAP1 PUSH3 0x3D6B SWAP2 SWAP1 PUSH3 0x58A4 JUMP JUMPDEST LT ISZERO PUSH3 0x3E32 JUMPI PUSH1 0x0 DUP1 PUSH1 0x0 DUP5 DUP1 PUSH1 0x20 ADD SWAP1 MLOAD DUP2 ADD SWAP1 PUSH3 0x3D8D SWAP2 SWAP1 PUSH3 0x63A8 JUMP JUMPDEST SWAP3 POP SWAP3 POP SWAP3 POP DUP8 PUSH20 0xFFFFFFFFFFFFFFFFFFFFFFFFFFFFFFFFFFFFFFFF AND PUSH4 0xB52D558 DUP8 ADDRESS PUSH32 0xFFFFFFFFFFFFFFFFFFFFFFFFFFFFFFFFFFFFFFFFFFFFFFFFFFFFFFFFFFFFFFFF DUP1 DUP9 DUP9 DUP9 PUSH1 0x40 MLOAD DUP9 PUSH4 0xFFFFFFFF AND PUSH1 0xE0 SHL DUP2 MSTORE PUSH1 0x4 ADD PUSH3 0x3DFA SWAP8 SWAP7 SWAP6 SWAP5 SWAP4 SWAP3 SWAP2 SWAP1 PUSH3 0x6415 JUMP JUMPDEST PUSH1 0x0 PUSH1 0x40 MLOAD DUP1 DUP4 SUB DUP2 PUSH1 0x0 DUP8 DUP1 EXTCODESIZE ISZERO DUP1 ISZERO PUSH3 0x3E15 JUMPI PUSH1 0x0 DUP1 REVERT JUMPDEST POP GAS CALL ISZERO DUP1 ISZERO PUSH3 0x3E2A JUMPI RETURNDATASIZE PUSH1 0x0 DUP1 RETURNDATACOPY RETURNDATASIZE PUSH1 0x0 REVERT JUMPDEST POP POP POP POP POP POP POP JUMPDEST DUP1 PUSH20 0xFFFFFFFFFFFFFFFFFFFFFFFFFFFFFFFFFFFFFFFF AND PUSH4 0xA415BCAD DUP8 DUP7 PUSH1 0x2 DUP1 DUP2 GT ISZERO PUSH3 0x3E66 JUMPI PUSH3 0x3E65 PUSH3 0x598C JUMP JUMPDEST JUMPDEST PUSH1 0x0 DUP9 PUSH1 0x40 MLOAD DUP7 PUSH4 0xFFFFFFFF AND PUSH1 0xE0 SHL DUP2 MSTORE PUSH1 0x4 ADD PUSH3 0x3E8B SWAP6 SWAP5 SWAP4 SWAP3 SWAP2 SWAP1 PUSH3 0x6492 JUMP JUMPDEST PUSH1 0x0 PUSH1 0x40 MLOAD DUP1 DUP4 SUB DUP2 PUSH1 0x0 DUP8 DUP1 EXTCODESIZE ISZERO DUP1 ISZERO PUSH3 0x3EA6 JUMPI PUSH1 0x0 DUP1 REVERT JUMPDEST POP GAS CALL ISZERO DUP1 ISZERO PUSH3 0x3EBB JUMPI RETURNDATASIZE PUSH1 0x0 DUP1 RETURNDATACOPY RETURNDATASIZE PUSH1 0x0 REVERT JUMPDEST POP POP POP POP POP POP POP POP POP POP POP JUMP JUMPDEST PUSH1 0x0 PUSH20 0xFFFFFFFFFFFFFFFFFFFFFFFFFFFFFFFFFFFFFFFF AND DUP2 PUSH20 0xFFFFFFFFFFFFFFFFFFFFFFFFFFFFFFFFFFFFFFFF AND SUB PUSH3 0x3F3D JUMPI PUSH1 0x0 PUSH1 0x40 MLOAD PUSH32 0xD7F7333400000000000000000000000000000000000000000000000000000000 DUP2 MSTORE PUSH1 0x4 ADD PUSH3 0x3F34 SWAP2 SWAP1 PUSH3 0x4677 JUMP JUMPDEST PUSH1 0x40 MLOAD DUP1 SWAP2 SUB SWAP1 REVERT JUMPDEST DUP1 PUSH1 0x1 PUSH1 0x0 PUSH2 0x100 EXP DUP2 SLOAD DUP2 PUSH20 0xFFFFFFFFFFFFFFFFFFFFFFFFFFFFFFFFFFFFFFFF MUL NOT AND SWAP1 DUP4 PUSH20 0xFFFFFFFFFFFFFFFFFFFFFFFFFFFFFFFFFFFFFFFF AND MUL OR SWAP1 SSTORE POP POP JUMP JUMPDEST PUSH1 0x0 PUSH3 0x3F8E DUP4 PUSH3 0x1C30 JUMP JUMPDEST ISZERO PUSH3 0x3FB4 JUMPI DUP2 PUSH20 0xFFFFFFFFFFFFFFFFFFFFFFFFFFFFFFFFFFFFFFFF AND BALANCE SWAP1 POP PUSH3 0x3FE2 JUMP JUMPDEST PUSH3 0x3FDF DUP3 DUP5 PUSH20 0xFFFFFFFFFFFFFFFFFFFFFFFFFFFFFFFFFFFFFFFF AND PUSH3 0x1D4D SWAP1 SWAP2 SWAP1 PUSH4 0xFFFFFFFF AND JUMP JUMPDEST SWAP1 POP JUMPDEST SWAP3 SWAP2 POP POP JUMP JUMPDEST PUSH1 0x0 DUP2 GT ISZERO PUSH3 0x40A5 JUMPI PUSH3 0x3FFD DUP4 PUSH3 0x1C30 JUMP JUMPDEST ISZERO PUSH3 0x4076 JUMPI DUP2 PUSH20 0xFFFFFFFFFFFFFFFFFFFFFFFFFFFFFFFFFFFFFFFF AND DUP2 PUSH1 0x40 MLOAD PUSH3 0x4029 SWAP1 PUSH3 0x590B JUMP JUMPDEST PUSH1 0x0 PUSH1 0x40 MLOAD DUP1 DUP4 SUB DUP2 DUP6 DUP8 GAS CALL SWAP3 POP POP POP RETURNDATASIZE DUP1 PUSH1 0x0 DUP2 EQ PUSH3 0x4068 JUMPI PUSH1 0x40 MLOAD SWAP2 POP PUSH1 0x1F NOT PUSH1 0x3F RETURNDATASIZE ADD AND DUP3 ADD PUSH1 0x40 MSTORE RETURNDATASIZE DUP3 MSTORE RETURNDATASIZE PUSH1 0x0 PUSH1 0x20 DUP5 ADD RETURNDATACOPY PUSH3 0x406D JUMP JUMPDEST PUSH1 0x60 SWAP2 POP JUMPDEST POP POP POP PUSH3 0x40A4 JUMP JUMPDEST PUSH3 0x40A3 DUP3 DUP3 DUP6 PUSH20 0xFFFFFFFFFFFFFFFFFFFFFFFFFFFFFFFFFFFFFFFF AND PUSH3 0x3B49 SWAP1 SWAP3 SWAP2 SWAP1 PUSH4 0xFFFFFFFF AND JUMP JUMPDEST JUMPDEST JUMPDEST POP POP POP JUMP JUMPDEST PUSH1 0x40 MLOAD DUP1 PUSH2 0x1A0 ADD PUSH1 0x40 MSTORE DUP1 PUSH1 0x0 DUP2 MSTORE PUSH1 0x20 ADD PUSH1 0x0 PUSH20 0xFFFFFFFFFFFFFFFFFFFFFFFFFFFFFFFFFFFFFFFF AND DUP2 MSTORE PUSH1 0x20 ADD PUSH1 0x0 PUSH20 0xFFFFFFFFFFFFFFFFFFFFFFFFFFFFFFFFFFFFFFFF AND DUP2 MSTORE PUSH1 0x20 ADD PUSH1 0x0 PUSH20 0xFFFFFFFFFFFFFFFFFFFFFFFFFFFFFFFFFFFFFFFF AND DUP2 MSTORE PUSH1 0x20 ADD PUSH1 0x0 PUSH20 0xFFFFFFFFFFFFFFFFFFFFFFFFFFFFFFFFFFFFFFFF AND DUP2 MSTORE PUSH1 0x20 ADD PUSH1 0x0 PUSH20 0xFFFFFFFFFFFFFFFFFFFFFFFFFFFFFFFFFFFFFFFF AND DUP2 MSTORE PUSH1 0x20 ADD PUSH1 0x0 DUP2 MSTORE PUSH1 0x20 ADD PUSH1 0x0 PUSH1 0xFF AND DUP2 MSTORE PUSH1 0x20 ADD PUSH1 0x60 DUP2 MSTORE PUSH1 0x20 ADD PUSH1 0x60 DUP2 MSTORE PUSH1 0x20 ADD PUSH1 0x60 DUP2 MSTORE PUSH1 0x20 ADD PUSH1 0x60 DUP2 MSTORE PUSH1 0x20 ADD PUSH1 0x60 DUP2 MSTORE POP SWAP1 JUMP JUMPDEST PUSH2 0x1F14 DUP1 PUSH3 0x64F0 DUP4 CODECOPY ADD SWAP1 JUMP JUMPDEST PUSH1 0x40 MLOAD DUP1 PUSH1 0xA0 ADD PUSH1 0x40 MSTORE DUP1 PUSH1 0x60 DUP2 MSTORE PUSH1 0x20 ADD PUSH1 0x60 DUP2 MSTORE PUSH1 0x20 ADD PUSH1 0x60 DUP2 MSTORE PUSH1 0x20 ADD PUSH1 0x0 PUSH20 0xFFFFFFFFFFFFFFFFFFFFFFFFFFFFFFFFFFFFFFFF AND DUP2 MSTORE PUSH1 0x20 ADD PUSH1 0x60 DUP2 MSTORE POP SWAP1 JUMP JUMPDEST PUSH1 0x40 MLOAD DUP1 PUSH1 0x40 ADD PUSH1 0x40 MSTORE DUP1 PUSH1 0x0 PUSH20 0xFFFFFFFFFFFFFFFFFFFFFFFFFFFFFFFFFFFFFFFF AND DUP2 MSTORE PUSH1 0x20 ADD PUSH1 0x0 DUP2 MSTORE POP SWAP1 JUMP JUMPDEST PUSH1 0x0 PUSH1 0x40 MLOAD SWAP1 POP SWAP1 JUMP JUMPDEST PUSH1 0x0 DUP1 REVERT JUMPDEST PUSH1 0x0 DUP1 REVERT JUMPDEST PUSH1 0x0 PUSH32 0xFFFFFFFF00000000000000000000000000000000000000000000000000000000 DUP3 AND SWAP1 POP SWAP2 SWAP1 POP JUMP JUMPDEST PUSH3 0x4251 DUP2 PUSH3 0x421A JUMP JUMPDEST DUP2 EQ PUSH3 0x425D JUMPI PUSH1 0x0 DUP1 REVERT JUMPDEST POP JUMP JUMPDEST PUSH1 0x0 DUP2 CALLDATALOAD SWAP1 POP PUSH3 0x4271 DUP2 PUSH3 0x4246 JUMP JUMPDEST SWAP3 SWAP2 POP POP JUMP JUMPDEST PUSH1 0x0 PUSH1 0x20 DUP3 DUP5 SUB SLT ISZERO PUSH3 0x4290 JUMPI PUSH3 0x428F PUSH3 0x4210 JUMP JUMPDEST JUMPDEST PUSH1 0x0 PUSH3 0x42A0 DUP5 DUP3 DUP6 ADD PUSH3 0x4260 JUMP JUMPDEST SWAP2 POP POP SWAP3 SWAP2 POP POP JUMP JUMPDEST PUSH1 0x0 DUP2 ISZERO ISZERO SWAP1 POP SWAP2 SWAP1 POP JUMP JUMPDEST PUSH3 0x42C0 DUP2 PUSH3 0x42A9 JUMP JUMPDEST DUP3 MSTORE POP POP JUMP JUMPDEST PUSH1 0x0 PUSH1 0x20 DUP3 ADD SWAP1 POP PUSH3 0x42DD PUSH1 0x0 DUP4 ADD DUP5 PUSH3 0x42B5 JUMP JUMPDEST SWAP3 SWAP2 POP POP JUMP JUMPDEST PUSH1 0x0 DUP1 REVERT JUMPDEST PUSH1 0x0 PUSH1 0x1F NOT PUSH1 0x1F DUP4 ADD AND SWAP1 POP SWAP2 SWAP1 POP JUMP JUMPDEST PUSH32 0x4E487B7100000000000000000000000000000000000000000000000000000000 PUSH1 0x0 MSTORE PUSH1 0x41 PUSH1 0x4 MSTORE PUSH1 0x24 PUSH1 0x0 REVERT JUMPDEST PUSH3 0x4333 DUP3 PUSH3 0x42E8 JUMP JUMPDEST DUP2 ADD DUP2 DUP2 LT PUSH8 0xFFFFFFFFFFFFFFFF DUP3 GT OR ISZERO PUSH3 0x4355 JUMPI PUSH3 0x4354 PUSH3 0x42F9 JUMP JUMPDEST JUMPDEST DUP1 PUSH1 0x40 MSTORE POP POP POP JUMP JUMPDEST PUSH1 0x0 PUSH3 0x436A PUSH3 0x4206 JUMP JUMPDEST SWAP1 POP PUSH3 0x4378 DUP3 DUP3 PUSH3 0x4328 JUMP JUMPDEST SWAP2 SWAP1 POP JUMP JUMPDEST PUSH1 0x0 DUP1 REVERT JUMPDEST PUSH1 0x0 PUSH20 0xFFFFFFFFFFFFFFFFFFFFFFFFFFFFFFFFFFFFFFFF DUP3 AND SWAP1 POP SWAP2 SWAP1 POP JUMP JUMPDEST PUSH1 0x0 PUSH3 0x43AF DUP3 PUSH3 0x4382 JUMP JUMPDEST SWAP1 POP SWAP2 SWAP1 POP JUMP JUMPDEST PUSH3 0x43C1 DUP2 PUSH3 0x43A2 JUMP JUMPDEST DUP2 EQ PUSH3 0x43CD JUMPI PUSH1 0x0 DUP1 REVERT JUMPDEST POP JUMP JUMPDEST PUSH1 0x0 DUP2 CALLDATALOAD SWAP1 POP PUSH3 0x43E1 DUP2 PUSH3 0x43B6 JUMP JUMPDEST SWAP3 SWAP2 POP POP JUMP JUMPDEST PUSH1 0x0 DUP2 SWAP1 POP SWAP2 SWAP1 POP JUMP JUMPDEST PUSH3 0x43FC DUP2 PUSH3 0x43E7 JUMP JUMPDEST DUP2 EQ PUSH3 0x4408 JUMPI PUSH1 0x0 DUP1 REVERT JUMPDEST POP JUMP JUMPDEST PUSH1 0x0 DUP2 CALLDATALOAD SWAP1 POP PUSH3 0x441C DUP2 PUSH3 0x43F1 JUMP JUMPDEST SWAP3 SWAP2 POP POP JUMP JUMPDEST PUSH1 0x0 PUSH1 0xFF DUP3 AND SWAP1 POP SWAP2 SWAP1 POP JUMP JUMPDEST PUSH3 0x443A DUP2 PUSH3 0x4422 JUMP JUMPDEST DUP2 EQ PUSH3 0x4446 JUMPI PUSH1 0x0 DUP1 REVERT JUMPDEST POP JUMP JUMPDEST PUSH1 0x0 DUP2 CALLDATALOAD SWAP1 POP PUSH3 0x445A DUP2 PUSH3 0x442F JUMP JUMPDEST SWAP3 SWAP2 POP POP JUMP JUMPDEST PUSH1 0x0 DUP1 REVERT JUMPDEST PUSH1 0x0 DUP1 REVERT JUMPDEST PUSH1 0x0 PUSH8 0xFFFFFFFFFFFFFFFF DUP3 GT ISZERO PUSH3 0x4488 JUMPI PUSH3 0x4487 PUSH3 0x42F9 JUMP JUMPDEST JUMPDEST PUSH3 0x4493 DUP3 PUSH3 0x42E8 JUMP JUMPDEST SWAP1 POP PUSH1 0x20 DUP2 ADD SWAP1 POP SWAP2 SWAP1 POP JUMP JUMPDEST DUP3 DUP2 DUP4 CALLDATACOPY PUSH1 0x0 DUP4 DUP4 ADD MSTORE POP POP POP JUMP JUMPDEST PUSH1 0x0 PUSH3 0x44C6 PUSH3 0x44C0 DUP5 PUSH3 0x446A JUMP JUMPDEST PUSH3 0x435E JUMP JUMPDEST SWAP1 POP DUP3 DUP2 MSTORE PUSH1 0x20 DUP2 ADD DUP5 DUP5 DUP5 ADD GT ISZERO PUSH3 0x44E5 JUMPI PUSH3 0x44E4 PUSH3 0x4465 JUMP JUMPDEST JUMPDEST PUSH3 0x44F2 DUP5 DUP3 DUP6 PUSH3 0x44A0 JUMP JUMPDEST POP SWAP4 SWAP3 POP POP POP JUMP JUMPDEST PUSH1 0x0 DUP3 PUSH1 0x1F DUP4 ADD SLT PUSH3 0x4512 JUMPI PUSH3 0x4511 PUSH3 0x4460 JUMP JUMPDEST JUMPDEST DUP2 CALLDATALOAD PUSH3 0x4524 DUP5 DUP3 PUSH1 0x20 DUP7 ADD PUSH3 0x44AF JUMP JUMPDEST SWAP2 POP POP SWAP3 SWAP2 POP POP JUMP JUMPDEST PUSH1 0x0 PUSH1 0xA0 DUP3 DUP5 SUB SLT ISZERO PUSH3 0x4546 JUMPI PUSH3 0x4545 PUSH3 0x42E3 JUMP JUMPDEST JUMPDEST PUSH3 0x4552 PUSH1 0xA0 PUSH3 0x435E JUMP JUMPDEST SWAP1 POP PUSH1 0x0 PUSH3 0x4564 DUP5 DUP3 DUP6 ADD PUSH3 0x43D0 JUMP JUMPDEST PUSH1 0x0 DUP4 ADD MSTORE POP PUSH1 0x20 PUSH3 0x457A DUP5 DUP3 DUP6 ADD PUSH3 0x43D0 JUMP JUMPDEST PUSH1 0x20 DUP4 ADD MSTORE POP PUSH1 0x40 PUSH3 0x4590 DUP5 DUP3 DUP6 ADD PUSH3 0x440B JUMP JUMPDEST PUSH1 0x40 DUP4 ADD MSTORE POP PUSH1 0x60 PUSH3 0x45A6 DUP5 DUP3 DUP6 ADD PUSH3 0x4449 JUMP JUMPDEST PUSH1 0x60 DUP4 ADD MSTORE POP PUSH1 0x80 DUP3 ADD CALLDATALOAD PUSH8 0xFFFFFFFFFFFFFFFF DUP2 GT ISZERO PUSH3 0x45CD JUMPI PUSH3 0x45CC PUSH3 0x437D JUMP JUMPDEST JUMPDEST PUSH3 0x45DB DUP5 DUP3 DUP6 ADD PUSH3 0x44FA JUMP JUMPDEST PUSH1 0x80 DUP4 ADD MSTORE POP SWAP3 SWAP2 POP POP JUMP JUMPDEST PUSH1 0x0 PUSH1 0x20 DUP3 DUP5 SUB SLT ISZERO PUSH3 0x4600 JUMPI PUSH3 0x45FF PUSH3 0x4210 JUMP JUMPDEST JUMPDEST PUSH1 0x0 DUP3 ADD CALLDATALOAD PUSH8 0xFFFFFFFFFFFFFFFF DUP2 GT ISZERO PUSH3 0x4621 JUMPI PUSH3 0x4620 PUSH3 0x4215 JUMP JUMPDEST JUMPDEST PUSH3 0x462F DUP5 DUP3 DUP6 ADD PUSH3 0x452D JUMP JUMPDEST SWAP2 POP POP SWAP3 SWAP2 POP POP JUMP JUMPDEST PUSH3 0x4643 DUP2 PUSH3 0x43E7 JUMP JUMPDEST DUP3 MSTORE POP POP JUMP JUMPDEST PUSH1 0x0 PUSH1 0x20 DUP3 ADD SWAP1 POP PUSH3 0x4660 PUSH1 0x0 DUP4 ADD DUP5 PUSH3 0x4638 JUMP JUMPDEST SWAP3 SWAP2 POP POP JUMP JUMPDEST PUSH3 0x4671 DUP2 PUSH3 0x43A2 JUMP JUMPDEST DUP3 MSTORE POP POP JUMP JUMPDEST PUSH1 0x0 PUSH1 0x20 DUP3 ADD SWAP1 POP PUSH3 0x468E PUSH1 0x0 DUP4 ADD DUP5 PUSH3 0x4666 JUMP JUMPDEST SWAP3 SWAP2 POP POP JUMP JUMPDEST PUSH1 0x0 DUP2 SWAP1 POP SWAP2 SWAP1 POP JUMP JUMPDEST PUSH1 0x0 PUSH3 0x46BF PUSH3 0x46B9 PUSH3 0x46B3 DUP5 PUSH3 0x4382 JUMP JUMPDEST PUSH3 0x4694 JUMP JUMPDEST PUSH3 0x4382 JUMP JUMPDEST SWAP1 POP SWAP2 SWAP1 POP JUMP JUMPDEST PUSH1 0x0 PUSH3 0x46D3 DUP3 PUSH3 0x469E JUMP JUMPDEST SWAP1 POP SWAP2 SWAP1 POP JUMP JUMPDEST PUSH1 0x0 PUSH3 0x46E7 DUP3 PUSH3 0x46C6 JUMP JUMPDEST SWAP1 POP SWAP2 SWAP1 POP JUMP JUMPDEST PUSH3 0x46F9 DUP2 PUSH3 0x46DA JUMP JUMPDEST DUP3 MSTORE POP POP JUMP JUMPDEST PUSH1 0x0 PUSH1 0x20 DUP3 ADD SWAP1 POP PUSH3 0x4716 PUSH1 0x0 DUP4 ADD DUP5 PUSH3 0x46EE JUMP JUMPDEST SWAP3 SWAP2 POP POP JUMP JUMPDEST PUSH1 0x0 DUP1 REVERT JUMPDEST PUSH1 0x0 PUSH1 0xA0 DUP3 DUP5 SUB SLT ISZERO PUSH3 0x473A JUMPI PUSH3 0x4739 PUSH3 0x471C JUMP JUMPDEST JUMPDEST DUP2 SWAP1 POP SWAP3 SWAP2 POP POP JUMP JUMPDEST PUSH1 0x0 PUSH1 0x20 DUP3 DUP5 SUB SLT ISZERO PUSH3 0x475C JUMPI PUSH3 0x475B PUSH3 0x4210 JUMP JUMPDEST JUMPDEST PUSH1 0x0 DUP3 ADD CALLDATALOAD PUSH8 0xFFFFFFFFFFFFFFFF DUP2 GT ISZERO PUSH3 0x477D JUMPI PUSH3 0x477C PUSH3 0x4215 JUMP JUMPDEST JUMPDEST PUSH3 0x478B DUP5 DUP3 DUP6 ADD PUSH3 0x4721 JUMP JUMPDEST SWAP2 POP POP SWAP3 SWAP2 POP POP JUMP JUMPDEST PUSH1 0x0 DUP1 REVERT JUMPDEST PUSH1 0x0 DUP1 REVERT JUMPDEST PUSH1 0x0 DUP1 DUP4 PUSH1 0x1F DUP5 ADD SLT PUSH3 0x47B7 JUMPI PUSH3 0x47B6 PUSH3 0x4460 JUMP JUMPDEST JUMPDEST DUP3 CALLDATALOAD SWAP1 POP PUSH8 0xFFFFFFFFFFFFFFFF DUP2 GT ISZERO PUSH3 0x47D7 JUMPI PUSH3 0x47D6 PUSH3 0x4794 JUMP JUMPDEST JUMPDEST PUSH1 0x20 DUP4 ADD SWAP2 POP DUP4 PUSH1 0x20 DUP3 MUL DUP4 ADD GT ISZERO PUSH3 0x47F6 JUMPI PUSH3 0x47F5 PUSH3 0x4799 JUMP JUMPDEST JUMPDEST SWAP3 POP SWAP3 SWAP1 POP JUMP JUMPDEST PUSH1 0x0 DUP1 DUP4 PUSH1 0x1F DUP5 ADD SLT PUSH3 0x4816 JUMPI PUSH3 0x4815 PUSH3 0x4460 JUMP JUMPDEST JUMPDEST DUP3 CALLDATALOAD SWAP1 POP PUSH8 0xFFFFFFFFFFFFFFFF DUP2 GT ISZERO PUSH3 0x4836 JUMPI PUSH3 0x4835 PUSH3 0x4794 JUMP JUMPDEST JUMPDEST PUSH1 0x20 DUP4 ADD SWAP2 POP DUP4 PUSH1 0x20 DUP3 MUL DUP4 ADD GT ISZERO PUSH3 0x4855 JUMPI PUSH3 0x4854 PUSH3 0x4799 JUMP JUMPDEST JUMPDEST SWAP3 POP SWAP3 SWAP1 POP JUMP JUMPDEST PUSH1 0x0 DUP1 DUP4 PUSH1 0x1F DUP5 ADD SLT PUSH3 0x4875 JUMPI PUSH3 0x4874 PUSH3 0x4460 JUMP JUMPDEST JUMPDEST DUP3 CALLDATALOAD SWAP1 POP PUSH8 0xFFFFFFFFFFFFFFFF DUP2 GT ISZERO PUSH3 0x4895 JUMPI PUSH3 0x4894 PUSH3 0x4794 JUMP JUMPDEST JUMPDEST PUSH1 0x20 DUP4 ADD SWAP2 POP DUP4 PUSH1 0x1 DUP3 MUL DUP4 ADD GT ISZERO PUSH3 0x48B4 JUMPI PUSH3 0x48B3 PUSH3 0x4799 JUMP JUMPDEST JUMPDEST SWAP3 POP SWAP3 SWAP1 POP JUMP JUMPDEST PUSH1 0x0 DUP1 PUSH1 0x0 DUP1 PUSH1 0x0 DUP1 PUSH1 0x0 DUP1 PUSH1 0x0 PUSH1 0xA0 DUP11 DUP13 SUB SLT ISZERO PUSH3 0x48E0 JUMPI PUSH3 0x48DF PUSH3 0x4210 JUMP JUMPDEST JUMPDEST PUSH1 0x0 DUP11 ADD CALLDATALOAD PUSH8 0xFFFFFFFFFFFFFFFF DUP2 GT ISZERO PUSH3 0x4901 JUMPI PUSH3 0x4900 PUSH3 0x4215 JUMP JUMPDEST JUMPDEST PUSH3 0x490F DUP13 DUP3 DUP14 ADD PUSH3 0x479E JUMP JUMPDEST SWAP10 POP SWAP10 POP POP PUSH1 0x20 DUP11 ADD CALLDATALOAD PUSH8 0xFFFFFFFFFFFFFFFF DUP2 GT ISZERO PUSH3 0x4935 JUMPI PUSH3 0x4934 PUSH3 0x4215 JUMP JUMPDEST JUMPDEST PUSH3 0x4943 DUP13 DUP3 DUP14 ADD PUSH3 0x47FD JUMP JUMPDEST SWAP8 POP SWAP8 POP POP PUSH1 0x40 DUP11 ADD CALLDATALOAD PUSH8 0xFFFFFFFFFFFFFFFF DUP2 GT ISZERO PUSH3 0x4969 JUMPI PUSH3 0x4968 PUSH3 0x4215 JUMP JUMPDEST JUMPDEST PUSH3 0x4977 DUP13 DUP3 DUP14 ADD PUSH3 0x47FD JUMP JUMPDEST SWAP6 POP SWAP6 POP POP PUSH1 0x60 PUSH3 0x498C DUP13 DUP3 DUP14 ADD PUSH3 0x43D0 JUMP JUMPDEST SWAP4 POP POP PUSH1 0x80 DUP11 ADD CALLDATALOAD PUSH8 0xFFFFFFFFFFFFFFFF DUP2 GT ISZERO PUSH3 0x49B0 JUMPI PUSH3 0x49AF PUSH3 0x4215 JUMP JUMPDEST JUMPDEST PUSH3 0x49BE DUP13 DUP3 DUP14 ADD PUSH3 0x485C JUMP JUMPDEST SWAP3 POP SWAP3 POP POP SWAP3 SWAP6 SWAP9 POP SWAP3 SWAP6 SWAP9 POP SWAP3 SWAP6 SWAP9 JUMP JUMPDEST PUSH1 0x0 PUSH1 0x20 DUP3 DUP5 SUB SLT ISZERO PUSH3 0x49E9 JUMPI PUSH3 0x49E8 PUSH3 0x4210 JUMP JUMPDEST JUMPDEST PUSH1 0x0 PUSH3 0x49F9 DUP5 DUP3 DUP6 ADD PUSH3 0x43D0 JUMP JUMPDEST SWAP2 POP POP SWAP3 SWAP2 POP POP JUMP JUMPDEST PUSH1 0x0 DUP1 PUSH1 0x0 DUP1 PUSH1 0x80 DUP6 DUP8 SUB SLT ISZERO PUSH3 0x4A1F JUMPI PUSH3 0x4A1E PUSH3 0x4210 JUMP JUMPDEST JUMPDEST PUSH1 0x0 PUSH3 0x4A2F DUP8 DUP3 DUP9 ADD PUSH3 0x43D0 JUMP JUMPDEST SWAP5 POP POP PUSH1 0x20 PUSH3 0x4A42 DUP8 DUP3 DUP9 ADD PUSH3 0x43D0 JUMP JUMPDEST SWAP4 POP POP PUSH1 0x40 PUSH3 0x4A55 DUP8 DUP3 DUP9 ADD PUSH3 0x43D0 JUMP JUMPDEST SWAP3 POP POP PUSH1 0x60 PUSH3 0x4A68 DUP8 DUP3 DUP9 ADD PUSH3 0x43D0 JUMP JUMPDEST SWAP2 POP POP SWAP3 SWAP6 SWAP2 SWAP5 POP SWAP3 POP JUMP JUMPDEST PUSH1 0x0 PUSH1 0x40 DUP3 ADD SWAP1 POP PUSH3 0x4A8B PUSH1 0x0 DUP4 ADD DUP6 PUSH3 0x4638 JUMP JUMPDEST PUSH3 0x4A9A PUSH1 0x20 DUP4 ADD DUP5 PUSH3 0x4638 JUMP JUMPDEST SWAP4 SWAP3 POP POP POP JUMP JUMPDEST PUSH1 0x0 PUSH3 0x4AAE DUP3 PUSH3 0x4382 JUMP JUMPDEST SWAP1 POP SWAP2 SWAP1 POP JUMP JUMPDEST PUSH3 0x4AC0 DUP2 PUSH3 0x4AA1 JUMP JUMPDEST DUP2 EQ PUSH3 0x4ACC JUMPI PUSH1 0x0 DUP1 REVERT JUMPDEST POP JUMP JUMPDEST PUSH1 0x0 DUP2 MLOAD SWAP1 POP PUSH3 0x4AE0 DUP2 PUSH3 0x4AB5 JUMP JUMPDEST SWAP3 SWAP2 POP POP JUMP JUMPDEST PUSH1 0x0 DUP2 MLOAD SWAP1 POP PUSH3 0x4AF7 DUP2 PUSH3 0x43F1 JUMP JUMPDEST SWAP3 SWAP2 POP POP JUMP JUMPDEST PUSH1 0x0 JUMPDEST DUP4 DUP2 LT ISZERO PUSH3 0x4B1D JUMPI DUP1 DUP3 ADD MLOAD DUP2 DUP5 ADD MSTORE PUSH1 0x20 DUP2 ADD SWAP1 POP PUSH3 0x4B00 JUMP JUMPDEST PUSH1 0x0 DUP5 DUP5 ADD MSTORE POP POP POP POP JUMP JUMPDEST PUSH1 0x0 PUSH3 0x4B40 PUSH3 0x4B3A DUP5 PUSH3 0x446A JUMP JUMPDEST PUSH3 0x435E JUMP JUMPDEST SWAP1 POP DUP3 DUP2 MSTORE PUSH1 0x20 DUP2 ADD DUP5 DUP5 DUP5 ADD GT ISZERO PUSH3 0x4B5F JUMPI PUSH3 0x4B5E PUSH3 0x4465 JUMP JUMPDEST JUMPDEST PUSH3 0x4B6C DUP5 DUP3 DUP6 PUSH3 0x4AFD JUMP JUMPDEST POP SWAP4 SWAP3 POP POP POP JUMP JUMPDEST PUSH1 0x0 DUP3 PUSH1 0x1F DUP4 ADD SLT PUSH3 0x4B8C JUMPI PUSH3 0x4B8B PUSH3 0x4460 JUMP JUMPDEST JUMPDEST DUP2 MLOAD PUSH3 0x4B9E DUP5 DUP3 PUSH1 0x20 DUP7 ADD PUSH3 0x4B29 JUMP JUMPDEST SWAP2 POP POP SWAP3 SWAP2 POP POP JUMP JUMPDEST PUSH1 0x0 DUP1 PUSH1 0x0 DUP1 PUSH1 0x80 DUP6 DUP8 SUB SLT ISZERO PUSH3 0x4BC4 JUMPI PUSH3 0x4BC3 PUSH3 0x4210 JUMP JUMPDEST JUMPDEST PUSH1 0x0 PUSH3 0x4BD4 DUP8 DUP3 DUP9 ADD PUSH3 0x4ACF JUMP JUMPDEST SWAP5 POP POP PUSH1 0x20 PUSH3 0x4BE7 DUP8 DUP3 DUP9 ADD PUSH3 0x4ACF JUMP JUMPDEST SWAP4 POP POP PUSH1 0x40 PUSH3 0x4BFA DUP8 DUP3 DUP9 ADD PUSH3 0x4AE6 JUMP JUMPDEST SWAP3 POP POP PUSH1 0x60 DUP6 ADD MLOAD PUSH8 0xFFFFFFFFFFFFFFFF DUP2 GT ISZERO PUSH3 0x4C1E JUMPI PUSH3 0x4C1D PUSH3 0x4215 JUMP JUMPDEST JUMPDEST PUSH3 0x4C2C DUP8 DUP3 DUP9 ADD PUSH3 0x4B74 JUMP JUMPDEST SWAP2 POP POP SWAP3 SWAP6 SWAP2 SWAP5 POP SWAP3 POP JUMP JUMPDEST PUSH32 0x4E487B7100000000000000000000000000000000000000000000000000000000 PUSH1 0x0 MSTORE PUSH1 0x32 PUSH1 0x4 MSTORE PUSH1 0x24 PUSH1 0x0 REVERT JUMPDEST PUSH3 0x4C72 DUP2 PUSH3 0x43A2 JUMP JUMPDEST DUP3 MSTORE POP POP JUMP JUMPDEST PUSH3 0x4C83 DUP2 PUSH3 0x43E7 JUMP JUMPDEST DUP3 MSTORE POP POP JUMP JUMPDEST PUSH3 0x4C94 DUP2 PUSH3 0x4422 JUMP JUMPDEST DUP3 MSTORE POP POP JUMP JUMPDEST PUSH1 0x0 DUP2 MLOAD SWAP1 POP SWAP2 SWAP1 POP JUMP JUMPDEST PUSH1 0x0 DUP3 DUP3 MSTORE PUSH1 0x20 DUP3 ADD SWAP1 POP SWAP3 SWAP2 POP POP JUMP JUMPDEST PUSH1 0x0 PUSH3 0x4CC3 DUP3 PUSH3 0x4C9A JUMP JUMPDEST PUSH3 0x4CCF DUP2 DUP6 PUSH3 0x4CA5 JUMP JUMPDEST SWAP4 POP PUSH3 0x4CE1 DUP2 DUP6 PUSH1 0x20 DUP7 ADD PUSH3 0x4AFD JUMP JUMPDEST PUSH3 0x4CEC DUP2 PUSH3 0x42E8 JUMP JUMPDEST DUP5 ADD SWAP2 POP POP SWAP3 SWAP2 POP POP JUMP JUMPDEST PUSH1 0x0 PUSH2 0x140 DUP4 ADD PUSH1 0x0 DUP4 ADD MLOAD PUSH3 0x4D12 PUSH1 0x0 DUP7 ADD DUP3 PUSH3 0x4C67 JUMP JUMPDEST POP PUSH1 0x20 DUP4 ADD MLOAD PUSH3 0x4D27 PUSH1 0x20 DUP7 ADD DUP3 PUSH3 0x4C67 JUMP JUMPDEST POP PUSH1 0x40 DUP4 ADD MLOAD PUSH3 0x4D3C PUSH1 0x40 DUP7 ADD DUP3 PUSH3 0x4C67 JUMP JUMPDEST POP PUSH1 0x60 DUP4 ADD MLOAD PUSH3 0x4D51 PUSH1 0x60 DUP7 ADD DUP3 PUSH3 0x4C67 JUMP JUMPDEST POP PUSH1 0x80 DUP4 ADD MLOAD PUSH3 0x4D66 PUSH1 0x80 DUP7 ADD DUP3 PUSH3 0x4C67 JUMP JUMPDEST POP PUSH1 0xA0 DUP4 ADD MLOAD PUSH3 0x4D7B PUSH1 0xA0 DUP7 ADD DUP3 PUSH3 0x4C67 JUMP JUMPDEST POP PUSH1 0xC0 DUP4 ADD MLOAD PUSH3 0x4D90 PUSH1 0xC0 DUP7 ADD DUP3 PUSH3 0x4C78 JUMP JUMPDEST POP PUSH1 0xE0 DUP4 ADD MLOAD PUSH3 0x4DA5 PUSH1 0xE0 DUP7 ADD DUP3 PUSH3 0x4C78 JUMP JUMPDEST POP PUSH2 0x100 DUP4 ADD MLOAD PUSH3 0x4DBC PUSH2 0x100 DUP7 ADD DUP3 PUSH3 0x4C89 JUMP JUMPDEST POP PUSH2 0x120 DUP4 ADD MLOAD DUP5 DUP3 SUB PUSH2 0x120 DUP7 ADD MSTORE PUSH3 0x4DD8 DUP3 DUP3 PUSH3 0x4CB6 JUMP JUMPDEST SWAP2 POP POP DUP1 SWAP2 POP POP SWAP3 SWAP2 POP POP JUMP JUMPDEST PUSH1 0x0 PUSH1 0x20 DUP3 ADD SWAP1 POP DUP2 DUP2 SUB PUSH1 0x0 DUP4 ADD MSTORE PUSH3 0x4E01 DUP2 DUP5 PUSH3 0x4CF7 JUMP JUMPDEST SWAP1 POP SWAP3 SWAP2 POP POP JUMP JUMPDEST PUSH1 0x0 DUP2 MLOAD SWAP1 POP SWAP2 SWAP1 POP JUMP JUMPDEST PUSH1 0x0 DUP3 DUP3 MSTORE PUSH1 0x20 DUP3 ADD SWAP1 POP SWAP3 SWAP2 POP POP JUMP JUMPDEST PUSH1 0x0 DUP2 SWAP1 POP PUSH1 0x20 DUP3 ADD SWAP1 POP SWAP2 SWAP1 POP JUMP JUMPDEST PUSH1 0x0 PUSH3 0x4E43 DUP4 DUP4 PUSH3 0x4C67 JUMP JUMPDEST PUSH1 0x20 DUP4 ADD SWAP1 POP SWAP3 SWAP2 POP POP JUMP JUMPDEST PUSH1 0x0 PUSH1 0x20 DUP3 ADD SWAP1 POP SWAP2 SWAP1 POP JUMP JUMPDEST PUSH1 0x0 PUSH3 0x4E69 DUP3 PUSH3 0x4E09 JUMP JUMPDEST PUSH3 0x4E75 DUP2 DUP6 PUSH3 0x4E14 JUMP JUMPDEST SWAP4 POP PUSH3 0x4E82 DUP4 PUSH3 0x4E25 JUMP JUMPDEST DUP1 PUSH1 0x0 JUMPDEST DUP4 DUP2 LT ISZERO PUSH3 0x4EB9 JUMPI DUP2 MLOAD PUSH3 0x4E9D DUP9 DUP3 PUSH3 0x4E35 JUMP JUMPDEST SWAP8 POP PUSH3 0x4EAA DUP4 PUSH3 0x4E4F JUMP JUMPDEST SWAP3 POP POP PUSH1 0x1 DUP2 ADD SWAP1 POP PUSH3 0x4E86 JUMP JUMPDEST POP DUP6 SWAP4 POP POP POP POP SWAP3 SWAP2 POP POP JUMP JUMPDEST PUSH1 0x0 DUP2 MLOAD SWAP1 POP SWAP2 SWAP1 POP JUMP JUMPDEST PUSH1 0x0 DUP3 DUP3 MSTORE PUSH1 0x20 DUP3 ADD SWAP1 POP SWAP3 SWAP2 POP POP JUMP JUMPDEST PUSH1 0x0 DUP2 SWAP1 POP PUSH1 0x20 DUP3 ADD SWAP1 POP SWAP2 SWAP1 POP JUMP JUMPDEST PUSH1 0x0 PUSH3 0x4F00 DUP4 DUP4 PUSH3 0x4C78 JUMP JUMPDEST PUSH1 0x20 DUP4 ADD SWAP1 POP SWAP3 SWAP2 POP POP JUMP JUMPDEST PUSH1 0x0 PUSH1 0x20 DUP3 ADD SWAP1 POP SWAP2 SWAP1 POP JUMP JUMPDEST PUSH1 0x0 PUSH3 0x4F26 DUP3 PUSH3 0x4EC6 JUMP JUMPDEST PUSH3 0x4F32 DUP2 DUP6 PUSH3 0x4ED1 JUMP JUMPDEST SWAP4 POP PUSH3 0x4F3F DUP4 PUSH3 0x4EE2 JUMP JUMPDEST DUP1 PUSH1 0x0 JUMPDEST DUP4 DUP2 LT ISZERO PUSH3 0x4F76 JUMPI DUP2 MLOAD PUSH3 0x4F5A DUP9 DUP3 PUSH3 0x4EF2 JUMP JUMPDEST SWAP8 POP PUSH3 0x4F67 DUP4 PUSH3 0x4F0C JUMP JUMPDEST SWAP3 POP POP PUSH1 0x1 DUP2 ADD SWAP1 POP PUSH3 0x4F43 JUMP JUMPDEST POP DUP6 SWAP4 POP POP POP POP SWAP3 SWAP2 POP POP JUMP JUMPDEST PUSH1 0x0 DUP3 DUP3 MSTORE PUSH1 0x20 DUP3 ADD SWAP1 POP SWAP3 SWAP2 POP POP JUMP JUMPDEST PUSH1 0x0 PUSH3 0x4FA1 DUP3 PUSH3 0x4C9A JUMP JUMPDEST PUSH3 0x4FAD DUP2 DUP6 PUSH3 0x4F83 JUMP JUMPDEST SWAP4 POP PUSH3 0x4FBF DUP2 DUP6 PUSH1 0x20 DUP7 ADD PUSH3 0x4AFD JUMP JUMPDEST PUSH3 0x4FCA DUP2 PUSH3 0x42E8 JUMP JUMPDEST DUP5 ADD SWAP2 POP POP SWAP3 SWAP2 POP POP JUMP JUMPDEST PUSH1 0x0 DUP2 SWAP1 POP SWAP2 SWAP1 POP JUMP JUMPDEST PUSH1 0x0 PUSH2 0xFFFF DUP3 AND SWAP1 POP SWAP2 SWAP1 POP JUMP JUMPDEST PUSH1 0x0 PUSH3 0x500E PUSH3 0x5008 PUSH3 0x5002 DUP5 PUSH3 0x4FD5 JUMP JUMPDEST PUSH3 0x4694 JUMP JUMPDEST PUSH3 0x4FDF JUMP JUMPDEST SWAP1 POP SWAP2 SWAP1 POP JUMP JUMPDEST PUSH3 0x5020 DUP2 PUSH3 0x4FED JUMP JUMPDEST DUP3 MSTORE POP POP JUMP JUMPDEST PUSH1 0x0 PUSH1 0xE0 DUP3 ADD SWAP1 POP PUSH3 0x503D PUSH1 0x0 DUP4 ADD DUP11 PUSH3 0x4666 JUMP JUMPDEST DUP2 DUP2 SUB PUSH1 0x20 DUP4 ADD MSTORE PUSH3 0x5051 DUP2 DUP10 PUSH3 0x4E5C JUMP JUMPDEST SWAP1 POP DUP2 DUP2 SUB PUSH1 0x40 DUP4 ADD MSTORE PUSH3 0x5067 DUP2 DUP9 PUSH3 0x4F19 JUMP JUMPDEST SWAP1 POP DUP2 DUP2 SUB PUSH1 0x60 DUP4 ADD MSTORE PUSH3 0x507D DUP2 DUP8 PUSH3 0x4F19 JUMP JUMPDEST SWAP1 POP PUSH3 0x508E PUSH1 0x80 DUP4 ADD DUP7 PUSH3 0x4666 JUMP JUMPDEST DUP2 DUP2 SUB PUSH1 0xA0 DUP4 ADD MSTORE PUSH3 0x50A2 DUP2 DUP6 PUSH3 0x4F94 JUMP JUMPDEST SWAP1 POP PUSH3 0x50B3 PUSH1 0xC0 DUP4 ADD DUP5 PUSH3 0x5015 JUMP JUMPDEST SWAP9 SWAP8 POP POP POP POP POP POP POP POP JUMP JUMPDEST PUSH32 0x4E487B7100000000000000000000000000000000000000000000000000000000 PUSH1 0x0 MSTORE PUSH1 0x11 PUSH1 0x4 MSTORE PUSH1 0x24 PUSH1 0x0 REVERT JUMPDEST PUSH1 0x0 PUSH3 0x50FB DUP3 PUSH3 0x43E7 JUMP JUMPDEST SWAP2 POP PUSH3 0x5108 DUP4 PUSH3 0x43E7 JUMP JUMPDEST SWAP3 POP DUP3 DUP3 SUB SWAP1 POP DUP2 DUP2 GT ISZERO PUSH3 0x5123 JUMPI PUSH3 0x5122 PUSH3 0x50BF JUMP JUMPDEST JUMPDEST SWAP3 SWAP2 POP POP JUMP JUMPDEST PUSH1 0x0 DUP3 DUP3 MSTORE PUSH1 0x20 DUP3 ADD SWAP1 POP SWAP3 SWAP2 POP POP JUMP JUMPDEST PUSH32 0x4F776E61626C653A2063616C6C6572206973206E6F7420746865206F776E6572 PUSH1 0x0 DUP3 ADD MSTORE POP JUMP JUMPDEST PUSH1 0x0 PUSH3 0x5172 PUSH1 0x20 DUP4 PUSH3 0x5129 JUMP JUMPDEST SWAP2 POP PUSH3 0x517F DUP3 PUSH3 0x513A JUMP JUMPDEST PUSH1 0x20 DUP3 ADD SWAP1 POP SWAP2 SWAP1 POP JUMP JUMPDEST PUSH1 0x0 PUSH1 0x20 DUP3 ADD SWAP1 POP DUP2 DUP2 SUB PUSH1 0x0 DUP4 ADD MSTORE PUSH3 0x51A5 DUP2 PUSH3 0x5163 JUMP JUMPDEST SWAP1 POP SWAP2 SWAP1 POP JUMP JUMPDEST PUSH1 0x0 DUP2 SWAP1 POP SWAP2 SWAP1 POP JUMP JUMPDEST PUSH3 0x51C1 DUP2 PUSH3 0x51AC JUMP JUMPDEST DUP2 EQ PUSH3 0x51CD JUMPI PUSH1 0x0 DUP1 REVERT JUMPDEST POP JUMP JUMPDEST PUSH1 0x0 DUP2 CALLDATALOAD SWAP1 POP PUSH3 0x51E1 DUP2 PUSH3 0x51B6 JUMP JUMPDEST SWAP3 SWAP2 POP POP JUMP JUMPDEST PUSH1 0x0 PUSH8 0xFFFFFFFFFFFFFFFF DUP3 AND SWAP1 POP SWAP2 SWAP1 POP JUMP JUMPDEST PUSH3 0x5206 DUP2 PUSH3 0x51E7 JUMP JUMPDEST DUP2 EQ PUSH3 0x5212 JUMPI PUSH1 0x0 DUP1 REVERT JUMPDEST POP JUMP JUMPDEST PUSH1 0x0 DUP2 CALLDATALOAD SWAP1 POP PUSH3 0x5226 DUP2 PUSH3 0x51FB JUMP JUMPDEST SWAP3 SWAP2 POP POP JUMP JUMPDEST PUSH1 0x0 PUSH8 0xFFFFFFFFFFFFFFFF DUP3 GT ISZERO PUSH3 0x524A JUMPI PUSH3 0x5249 PUSH3 0x42F9 JUMP JUMPDEST JUMPDEST PUSH1 0x20 DUP3 MUL SWAP1 POP PUSH1 0x20 DUP2 ADD SWAP1 POP SWAP2 SWAP1 POP JUMP JUMPDEST PUSH1 0x0 PUSH1 0x40 DUP3 DUP5 SUB SLT ISZERO PUSH3 0x5274 JUMPI PUSH3 0x5273 PUSH3 0x42E3 JUMP JUMPDEST JUMPDEST PUSH3 0x5280 PUSH1 0x40 PUSH3 0x435E JUMP JUMPDEST SWAP1 POP PUSH1 0x0 PUSH3 0x5292 DUP5 DUP3 DUP6 ADD PUSH3 0x43D0 JUMP JUMPDEST PUSH1 0x0 DUP4 ADD MSTORE POP PUSH1 0x20 PUSH3 0x52A8 DUP5 DUP3 DUP6 ADD PUSH3 0x440B JUMP JUMPDEST PUSH1 0x20 DUP4 ADD MSTORE POP SWAP3 SWAP2 POP POP JUMP JUMPDEST PUSH1 0x0 PUSH3 0x52CB PUSH3 0x52C5 DUP5 PUSH3 0x522C JUMP JUMPDEST PUSH3 0x435E JUMP JUMPDEST SWAP1 POP DUP1 DUP4 DUP3 MSTORE PUSH1 0x20 DUP3 ADD SWAP1 POP PUSH1 0x40 DUP5 MUL DUP4 ADD DUP6 DUP2 GT ISZERO PUSH3 0x52F1 JUMPI PUSH3 0x52F0 PUSH3 0x4799 JUMP JUMPDEST JUMPDEST DUP4 JUMPDEST DUP2 DUP2 LT ISZERO PUSH3 0x531E JUMPI DUP1 PUSH3 0x5309 DUP9 DUP3 PUSH3 0x525B JUMP JUMPDEST DUP5 MSTORE PUSH1 0x20 DUP5 ADD SWAP4 POP POP PUSH1 0x40 DUP2 ADD SWAP1 POP PUSH3 0x52F3 JUMP JUMPDEST POP POP POP SWAP4 SWAP3 POP POP POP JUMP JUMPDEST PUSH1 0x0 DUP3 PUSH1 0x1F DUP4 ADD SLT PUSH3 0x5340 JUMPI PUSH3 0x533F PUSH3 0x4460 JUMP JUMPDEST JUMPDEST DUP2 CALLDATALOAD PUSH3 0x5352 DUP5 DUP3 PUSH1 0x20 DUP7 ADD PUSH3 0x52B4 JUMP JUMPDEST SWAP2 POP POP SWAP3 SWAP2 POP POP JUMP JUMPDEST PUSH1 0x0 PUSH1 0xA0 DUP3 DUP5 SUB SLT ISZERO PUSH3 0x5374 JUMPI PUSH3 0x5373 PUSH3 0x42E3 JUMP JUMPDEST JUMPDEST PUSH3 0x5380 PUSH1 0xA0 PUSH3 0x435E JUMP JUMPDEST SWAP1 POP PUSH1 0x0 PUSH3 0x5392 DUP5 DUP3 DUP6 ADD PUSH3 0x51D0 JUMP JUMPDEST PUSH1 0x0 DUP4 ADD MSTORE POP PUSH1 0x20 PUSH3 0x53A8 DUP5 DUP3 DUP6 ADD PUSH3 0x5215 JUMP JUMPDEST PUSH1 0x20 DUP4 ADD MSTORE POP PUSH1 0x40 DUP3 ADD CALLDATALOAD PUSH8 0xFFFFFFFFFFFFFFFF DUP2 GT ISZERO PUSH3 0x53CF JUMPI PUSH3 0x53CE PUSH3 0x437D JUMP JUMPDEST JUMPDEST PUSH3 0x53DD DUP5 DUP3 DUP6 ADD PUSH3 0x44FA JUMP JUMPDEST PUSH1 0x40 DUP4 ADD MSTORE POP PUSH1 0x60 DUP3 ADD CALLDATALOAD PUSH8 0xFFFFFFFFFFFFFFFF DUP2 GT ISZERO PUSH3 0x5404 JUMPI PUSH3 0x5403 PUSH3 0x437D JUMP JUMPDEST JUMPDEST PUSH3 0x5412 DUP5 DUP3 DUP6 ADD PUSH3 0x44FA JUMP JUMPDEST PUSH1 0x60 DUP4 ADD MSTORE POP PUSH1 0x80 DUP3 ADD CALLDATALOAD PUSH8 0xFFFFFFFFFFFFFFFF DUP2 GT ISZERO PUSH3 0x5439 JUMPI PUSH3 0x5438 PUSH3 0x437D JUMP JUMPDEST JUMPDEST PUSH3 0x5447 DUP5 DUP3 DUP6 ADD PUSH3 0x5328 JUMP JUMPDEST PUSH1 0x80 DUP4 ADD MSTORE POP SWAP3 SWAP2 POP POP JUMP JUMPDEST PUSH1 0x0 PUSH3 0x5461 CALLDATASIZE DUP4 PUSH3 0x535B JUMP JUMPDEST SWAP1 POP SWAP2 SWAP1 POP JUMP JUMPDEST PUSH1 0x0 PUSH2 0x140 DUP3 DUP5 SUB SLT ISZERO PUSH3 0x5482 JUMPI PUSH3 0x5481 PUSH3 0x42E3 JUMP JUMPDEST JUMPDEST PUSH3 0x548F PUSH2 0x140 PUSH3 0x435E JUMP JUMPDEST SWAP1 POP PUSH1 0x0 PUSH3 0x54A1 DUP5 DUP3 DUP6 ADD PUSH3 0x43D0 JUMP JUMPDEST PUSH1 0x0 DUP4 ADD MSTORE POP PUSH1 0x20 PUSH3 0x54B7 DUP5 DUP3 DUP6 ADD PUSH3 0x43D0 JUMP JUMPDEST PUSH1 0x20 DUP4 ADD MSTORE POP PUSH1 0x40 PUSH3 0x54CD DUP5 DUP3 DUP6 ADD PUSH3 0x43D0 JUMP JUMPDEST PUSH1 0x40 DUP4 ADD MSTORE POP PUSH1 0x60 PUSH3 0x54E3 DUP5 DUP3 DUP6 ADD PUSH3 0x43D0 JUMP JUMPDEST PUSH1 0x60 DUP4 ADD MSTORE POP PUSH1 0x80 PUSH3 0x54F9 DUP5 DUP3 DUP6 ADD PUSH3 0x43D0 JUMP JUMPDEST PUSH1 0x80 DUP4 ADD MSTORE POP PUSH1 0xA0 PUSH3 0x550F DUP5 DUP3 DUP6 ADD PUSH3 0x43D0 JUMP JUMPDEST PUSH1 0xA0 DUP4 ADD MSTORE POP PUSH1 0xC0 PUSH3 0x5525 DUP5 DUP3 DUP6 ADD PUSH3 0x440B JUMP JUMPDEST PUSH1 0xC0 DUP4 ADD MSTORE POP PUSH1 0xE0 PUSH3 0x553B DUP5 DUP3 DUP6 ADD PUSH3 0x440B JUMP JUMPDEST PUSH1 0xE0 DUP4 ADD MSTORE POP PUSH2 0x100 PUSH3 0x5552 DUP5 DUP3 DUP6 ADD PUSH3 0x4449 JUMP JUMPDEST PUSH2 0x100 DUP4 ADD MSTORE POP PUSH2 0x120 DUP3 ADD CALLDATALOAD PUSH8 0xFFFFFFFFFFFFFFFF DUP2 GT ISZERO PUSH3 0x557B JUMPI PUSH3 0x557A PUSH3 0x437D JUMP JUMPDEST JUMPDEST PUSH3 0x5589 DUP5 DUP3 DUP6 ADD PUSH3 0x44FA JUMP JUMPDEST PUSH2 0x120 DUP4 ADD MSTORE POP SWAP3 SWAP2 POP POP JUMP JUMPDEST PUSH1 0x0 PUSH1 0x20 DUP3 DUP5 SUB SLT ISZERO PUSH3 0x55AF JUMPI PUSH3 0x55AE PUSH3 0x4210 JUMP JUMPDEST JUMPDEST PUSH1 0x0 DUP3 ADD CALLDATALOAD PUSH8 0xFFFFFFFFFFFFFFFF DUP2 GT ISZERO PUSH3 0x55D0 JUMPI PUSH3 0x55CF PUSH3 0x4215 JUMP JUMPDEST JUMPDEST PUSH3 0x55DE DUP5 DUP3 DUP6 ADD PUSH3 0x5468 JUMP JUMPDEST SWAP2 POP POP SWAP3 SWAP2 POP POP JUMP JUMPDEST PUSH1 0x0 PUSH16 0xFFFFFFFFFFFFFFFFFFFFFFFFFFFFFFFF DUP3 AND SWAP1 POP SWAP2 SWAP1 POP JUMP JUMPDEST PUSH3 0x560E DUP2 PUSH3 0x55E7 JUMP JUMPDEST DUP2 EQ PUSH3 0x561A JUMPI PUSH1 0x0 DUP1 REVERT JUMPDEST POP JUMP JUMPDEST PUSH1 0x0 DUP2 MLOAD SWAP1 POP PUSH3 0x562E DUP2 PUSH3 0x5603 JUMP JUMPDEST SWAP3 SWAP2 POP POP JUMP JUMPDEST PUSH1 0x0 PUSH1 0x20 DUP3 DUP5 SUB SLT ISZERO PUSH3 0x564D JUMPI PUSH3 0x564C PUSH3 0x4210 JUMP JUMPDEST JUMPDEST PUSH1 0x0 PUSH3 0x565D DUP5 DUP3 DUP6 ADD PUSH3 0x561D JUMP JUMPDEST SWAP2 POP POP SWAP3 SWAP2 POP POP JUMP JUMPDEST PUSH1 0x0 PUSH3 0x5673 DUP3 PUSH3 0x43E7 JUMP JUMPDEST SWAP2 POP PUSH3 0x5680 DUP4 PUSH3 0x43E7 JUMP JUMPDEST SWAP3 POP DUP3 DUP3 MUL PUSH3 0x5690 DUP2 PUSH3 0x43E7 JUMP JUMPDEST SWAP2 POP DUP3 DUP3 DIV DUP5 EQ DUP4 ISZERO OR PUSH3 0x56AA JUMPI PUSH3 0x56A9 PUSH3 0x50BF JUMP JUMPDEST JUMPDEST POP SWAP3 SWAP2 POP POP JUMP JUMPDEST PUSH1 0x0 PUSH3 0x56BE DUP3 PUSH3 0x43E7 JUMP JUMPDEST SWAP2 POP PUSH3 0x56CB DUP4 PUSH3 0x43E7 JUMP JUMPDEST SWAP3 POP DUP3 DUP3 ADD SWAP1 POP DUP1 DUP3 GT ISZERO PUSH3 0x56E6 JUMPI PUSH3 0x56E5 PUSH3 0x50BF JUMP JUMPDEST JUMPDEST SWAP3 SWAP2 POP POP JUMP JUMPDEST PUSH1 0x0 PUSH3 0x56F9 DUP3 PUSH3 0x43E7 JUMP JUMPDEST SWAP2 POP PUSH32 0xFFFFFFFFFFFFFFFFFFFFFFFFFFFFFFFFFFFFFFFFFFFFFFFFFFFFFFFFFFFFFFFF DUP3 SUB PUSH3 0x572E JUMPI PUSH3 0x572D PUSH3 0x50BF JUMP JUMPDEST JUMPDEST PUSH1 0x1 DUP3 ADD SWAP1 POP SWAP2 SWAP1 POP JUMP JUMPDEST PUSH32 0x4F776E61626C653A206E6577206F776E657220697320746865207A65726F2061 PUSH1 0x0 DUP3 ADD MSTORE PUSH32 0x6464726573730000000000000000000000000000000000000000000000000000 PUSH1 0x20 DUP3 ADD MSTORE POP JUMP JUMPDEST PUSH1 0x0 PUSH3 0x5797 PUSH1 0x26 DUP4 PUSH3 0x5129 JUMP JUMPDEST SWAP2 POP PUSH3 0x57A4 DUP3 PUSH3 0x5739 JUMP JUMPDEST PUSH1 0x40 DUP3 ADD SWAP1 POP SWAP2 SWAP1 POP JUMP JUMPDEST PUSH1 0x0 PUSH1 0x20 DUP3 ADD SWAP1 POP DUP2 DUP2 SUB PUSH1 0x0 DUP4 ADD MSTORE PUSH3 0x57CA DUP2 PUSH3 0x5788 JUMP JUMPDEST SWAP1 POP SWAP2 SWAP1 POP JUMP JUMPDEST PUSH1 0x0 PUSH1 0x60 DUP3 ADD SWAP1 POP PUSH3 0x57E8 PUSH1 0x0 DUP4 ADD DUP7 PUSH3 0x4666 JUMP JUMPDEST PUSH3 0x57F7 PUSH1 0x20 DUP4 ADD DUP6 PUSH3 0x4666 JUMP JUMPDEST PUSH3 0x5806 PUSH1 0x40 DUP4 ADD DUP5 PUSH3 0x4666 JUMP JUMPDEST SWAP5 SWAP4 POP POP POP POP JUMP JUMPDEST PUSH1 0x0 DUP2 MLOAD SWAP1 POP PUSH3 0x581F DUP2 PUSH3 0x43B6 JUMP JUMPDEST SWAP3 SWAP2 POP POP JUMP JUMPDEST PUSH1 0x0 PUSH1 0x20 DUP3 DUP5 SUB SLT ISZERO PUSH3 0x583E JUMPI PUSH3 0x583D PUSH3 0x4210 JUMP JUMPDEST JUMPDEST PUSH1 0x0 PUSH3 0x584E DUP5 DUP3 DUP6 ADD PUSH3 0x580E JUMP JUMPDEST SWAP2 POP POP SWAP3 SWAP2 POP POP JUMP JUMPDEST PUSH1 0x0 PUSH1 0x80 DUP3 ADD SWAP1 POP PUSH3 0x586E PUSH1 0x0 DUP4 ADD DUP8 PUSH3 0x4666 JUMP JUMPDEST PUSH3 0x587D PUSH1 0x20 DUP4 ADD DUP7 PUSH3 0x4638 JUMP JUMPDEST PUSH3 0x588C PUSH1 0x40 DUP4 ADD DUP6 PUSH3 0x4666 JUMP JUMPDEST PUSH3 0x589B PUSH1 0x60 DUP4 ADD DUP5 PUSH3 0x5015 JUMP JUMPDEST SWAP6 SWAP5 POP POP POP POP POP JUMP JUMPDEST PUSH1 0x0 PUSH1 0x20 DUP3 DUP5 SUB SLT ISZERO PUSH3 0x58BD JUMPI PUSH3 0x58BC PUSH3 0x4210 JUMP JUMPDEST JUMPDEST PUSH1 0x0 PUSH3 0x58CD DUP5 DUP3 DUP6 ADD PUSH3 0x4AE6 JUMP JUMPDEST SWAP2 POP POP SWAP3 SWAP2 POP POP JUMP JUMPDEST PUSH1 0x0 DUP2 SWAP1 POP SWAP3 SWAP2 POP POP JUMP JUMPDEST POP JUMP JUMPDEST PUSH1 0x0 PUSH3 0x58F3 PUSH1 0x0 DUP4 PUSH3 0x58D6 JUMP JUMPDEST SWAP2 POP PUSH3 0x5900 DUP3 PUSH3 0x58E1 JUMP JUMPDEST PUSH1 0x0 DUP3 ADD SWAP1 POP SWAP2 SWAP1 POP JUMP JUMPDEST PUSH1 0x0 PUSH3 0x5918 DUP3 PUSH3 0x58E4 JUMP JUMPDEST SWAP2 POP DUP2 SWAP1 POP SWAP2 SWAP1 POP JUMP JUMPDEST PUSH1 0x0 PUSH1 0x60 DUP3 ADD SWAP1 POP PUSH3 0x5939 PUSH1 0x0 DUP4 ADD DUP7 PUSH3 0x4666 JUMP JUMPDEST PUSH3 0x5948 PUSH1 0x20 DUP4 ADD DUP6 PUSH3 0x4638 JUMP JUMPDEST PUSH3 0x5957 PUSH1 0x40 DUP4 ADD DUP5 PUSH3 0x4666 JUMP JUMPDEST SWAP5 SWAP4 POP POP POP POP JUMP JUMPDEST PUSH1 0x0 PUSH1 0x40 DUP3 ADD SWAP1 POP PUSH3 0x5976 PUSH1 0x0 DUP4 ADD DUP6 PUSH3 0x4666 JUMP JUMPDEST PUSH3 0x5985 PUSH1 0x20 DUP4 ADD DUP5 PUSH3 0x4638 JUMP JUMPDEST SWAP4 SWAP3 POP POP POP JUMP JUMPDEST PUSH32 0x4E487B7100000000000000000000000000000000000000000000000000000000 PUSH1 0x0 MSTORE PUSH1 0x21 PUSH1 0x4 MSTORE PUSH1 0x24 PUSH1 0x0 REVERT JUMPDEST PUSH1 0x0 PUSH3 0x59DC PUSH3 0x59D6 PUSH3 0x59D0 DUP5 PUSH3 0x4422 JUMP JUMPDEST PUSH3 0x4694 JUMP JUMPDEST PUSH3 0x43E7 JUMP JUMPDEST SWAP1 POP SWAP2 SWAP1 POP JUMP JUMPDEST PUSH3 0x59EE DUP2 PUSH3 0x59BB JUMP JUMPDEST DUP3 MSTORE POP POP JUMP JUMPDEST PUSH1 0x0 PUSH1 0x80 DUP3 ADD SWAP1 POP PUSH3 0x5A0B PUSH1 0x0 DUP4 ADD DUP8 PUSH3 0x4666 JUMP JUMPDEST PUSH3 0x5A1A PUSH1 0x20 DUP4 ADD DUP7 PUSH3 0x4638 JUMP JUMPDEST PUSH3 0x5A29 PUSH1 0x40 DUP4 ADD DUP6 PUSH3 0x59E3 JUMP JUMPDEST PUSH3 0x5A38 PUSH1 0x60 DUP4 ADD DUP5 PUSH3 0x4666 JUMP JUMPDEST SWAP6 SWAP5 POP POP POP POP POP JUMP JUMPDEST PUSH1 0x0 PUSH8 0xFFFFFFFFFFFFFFFF DUP3 GT ISZERO PUSH3 0x5A5F JUMPI PUSH3 0x5A5E PUSH3 0x42F9 JUMP JUMPDEST JUMPDEST PUSH1 0x20 DUP3 MUL SWAP1 POP PUSH1 0x20 DUP2 ADD SWAP1 POP SWAP2 SWAP1 POP JUMP JUMPDEST PUSH1 0x0 DUP2 MLOAD SWAP1 POP PUSH3 0x5A81 DUP2 PUSH3 0x51FB JUMP JUMPDEST SWAP3 SWAP2 POP POP JUMP JUMPDEST PUSH1 0x0 PUSH3 0x5A9E PUSH3 0x5A98 DUP5 PUSH3 0x5A41 JUMP JUMPDEST PUSH3 0x435E JUMP JUMPDEST SWAP1 POP DUP1 DUP4 DUP3 MSTORE PUSH1 0x20 DUP3 ADD SWAP1 POP PUSH1 0x20 DUP5 MUL DUP4 ADD DUP6 DUP2 GT ISZERO PUSH3 0x5AC4 JUMPI PUSH3 0x5AC3 PUSH3 0x4799 JUMP JUMPDEST JUMPDEST DUP4 JUMPDEST DUP2 DUP2 LT ISZERO PUSH3 0x5AF1 JUMPI DUP1 PUSH3 0x5ADC DUP9 DUP3 PUSH3 0x5A70 JUMP JUMPDEST DUP5 MSTORE PUSH1 0x20 DUP5 ADD SWAP4 POP POP PUSH1 0x20 DUP2 ADD SWAP1 POP PUSH3 0x5AC6 JUMP JUMPDEST POP POP POP SWAP4 SWAP3 POP POP POP JUMP JUMPDEST PUSH1 0x0 DUP3 PUSH1 0x1F DUP4 ADD SLT PUSH3 0x5B13 JUMPI PUSH3 0x5B12 PUSH3 0x4460 JUMP JUMPDEST JUMPDEST DUP2 MLOAD PUSH3 0x5B25 DUP5 DUP3 PUSH1 0x20 DUP7 ADD PUSH3 0x5A87 JUMP JUMPDEST SWAP2 POP POP SWAP3 SWAP2 POP POP JUMP JUMPDEST PUSH1 0x0 PUSH8 0xFFFFFFFFFFFFFFFF DUP3 GT ISZERO PUSH3 0x5B4C JUMPI PUSH3 0x5B4B PUSH3 0x42F9 JUMP JUMPDEST JUMPDEST PUSH1 0x20 DUP3 MUL SWAP1 POP PUSH1 0x20 DUP2 ADD SWAP1 POP SWAP2 SWAP1 POP JUMP JUMPDEST PUSH1 0x0 PUSH3 0x5B74 PUSH3 0x5B6E DUP5 PUSH3 0x5B2E JUMP JUMPDEST PUSH3 0x435E JUMP JUMPDEST SWAP1 POP DUP1 DUP4 DUP3 MSTORE PUSH1 0x20 DUP3 ADD SWAP1 POP PUSH1 0x20 DUP5 MUL DUP4 ADD DUP6 DUP2 GT ISZERO PUSH3 0x5B9A JUMPI PUSH3 0x5B99 PUSH3 0x4799 JUMP JUMPDEST JUMPDEST DUP4 JUMPDEST DUP2 DUP2 LT ISZERO PUSH3 0x5BE8 JUMPI DUP1 MLOAD PUSH8 0xFFFFFFFFFFFFFFFF DUP2 GT ISZERO PUSH3 0x5BC3 JUMPI PUSH3 0x5BC2 PUSH3 0x4460 JUMP JUMPDEST JUMPDEST DUP1 DUP7 ADD PUSH3 0x5BD2 DUP10 DUP3 PUSH3 0x4B74 JUMP JUMPDEST DUP6 MSTORE PUSH1 0x20 DUP6 ADD SWAP5 POP POP POP PUSH1 0x20 DUP2 ADD SWAP1 POP PUSH3 0x5B9C JUMP JUMPDEST POP POP POP SWAP4 SWAP3 POP POP POP JUMP JUMPDEST PUSH1 0x0 DUP3 PUSH1 0x1F DUP4 ADD SLT PUSH3 0x5C0A JUMPI PUSH3 0x5C09 PUSH3 0x4460 JUMP JUMPDEST JUMPDEST DUP2 MLOAD PUSH3 0x5C1C DUP5 DUP3 PUSH1 0x20 DUP7 ADD PUSH3 0x5B5D JUMP JUMPDEST SWAP2 POP POP SWAP3 SWAP2 POP POP JUMP JUMPDEST PUSH1 0x0 DUP1 PUSH1 0x40 DUP4 DUP6 SUB SLT ISZERO PUSH3 0x5C3F JUMPI PUSH3 0x5C3E PUSH3 0x4210 JUMP JUMPDEST JUMPDEST PUSH1 0x0 DUP4 ADD MLOAD PUSH8 0xFFFFFFFFFFFFFFFF DUP2 GT ISZERO PUSH3 0x5C60 JUMPI PUSH3 0x5C5F PUSH3 0x4215 JUMP JUMPDEST JUMPDEST PUSH3 0x5C6E DUP6 DUP3 DUP7 ADD PUSH3 0x5AFB JUMP JUMPDEST SWAP3 POP POP PUSH1 0x20 DUP4 ADD MLOAD PUSH8 0xFFFFFFFFFFFFFFFF DUP2 GT ISZERO PUSH3 0x5C92 JUMPI PUSH3 0x5C91 PUSH3 0x4215 JUMP JUMPDEST JUMPDEST PUSH3 0x5CA0 DUP6 DUP3 DUP7 ADD PUSH3 0x5BF2 JUMP JUMPDEST SWAP2 POP POP SWAP3 POP SWAP3 SWAP1 POP JUMP JUMPDEST PUSH3 0x5CB5 DUP2 PUSH3 0x4422 JUMP JUMPDEST DUP3 MSTORE POP POP JUMP JUMPDEST PUSH1 0x0 DUP2 MLOAD SWAP1 POP SWAP2 SWAP1 POP JUMP JUMPDEST PUSH1 0x0 DUP3 DUP3 MSTORE PUSH1 0x20 DUP3 ADD SWAP1 POP SWAP3 SWAP2 POP POP JUMP JUMPDEST PUSH1 0x0 DUP2 SWAP1 POP PUSH1 0x20 DUP3 ADD SWAP1 POP SWAP2 SWAP1 POP JUMP JUMPDEST PUSH1 0x0 PUSH3 0x5CF5 DUP4 DUP4 PUSH3 0x4CB6 JUMP JUMPDEST SWAP1 POP SWAP3 SWAP2 POP POP JUMP JUMPDEST PUSH1 0x0 PUSH1 0x20 DUP3 ADD SWAP1 POP SWAP2 SWAP1 POP JUMP JUMPDEST PUSH1 0x0 PUSH3 0x5D17 DUP3 PUSH3 0x5CBB JUMP JUMPDEST PUSH3 0x5D23 DUP2 DUP6 PUSH3 0x5CC6 JUMP JUMPDEST SWAP4 POP DUP4 PUSH1 0x20 DUP3 MUL DUP6 ADD PUSH3 0x5D37 DUP6 PUSH3 0x5CD7 JUMP JUMPDEST DUP1 PUSH1 0x0 JUMPDEST DUP6 DUP2 LT ISZERO PUSH3 0x5D79 JUMPI DUP5 DUP5 SUB DUP10 MSTORE DUP2 MLOAD PUSH3 0x5D57 DUP6 DUP3 PUSH3 0x5CE7 JUMP JUMPDEST SWAP5 POP PUSH3 0x5D64 DUP4 PUSH3 0x5CFD JUMP JUMPDEST SWAP3 POP PUSH1 0x20 DUP11 ADD SWAP10 POP POP PUSH1 0x1 DUP2 ADD SWAP1 POP PUSH3 0x5D3B JUMP JUMPDEST POP DUP3 SWAP8 POP DUP8 SWAP6 POP POP POP POP POP POP SWAP3 SWAP2 POP POP JUMP JUMPDEST PUSH1 0x0 PUSH1 0xA0 DUP3 ADD SWAP1 POP PUSH3 0x5DA2 PUSH1 0x0 DUP4 ADD DUP9 PUSH3 0x4666 JUMP JUMPDEST PUSH3 0x5DB1 PUSH1 0x20 DUP4 ADD DUP8 PUSH3 0x4666 JUMP JUMPDEST PUSH3 0x5DC0 PUSH1 0x40 DUP4 ADD DUP7 PUSH3 0x4666 JUMP JUMPDEST PUSH3 0x5DCF PUSH1 0x60 DUP4 ADD DUP6 PUSH3 0x5CAA JUMP JUMPDEST DUP2 DUP2 SUB PUSH1 0x80 DUP4 ADD MSTORE PUSH3 0x5DE3 DUP2 DUP5 PUSH3 0x5D0A JUMP JUMPDEST SWAP1 POP SWAP7 SWAP6 POP POP POP POP POP POP JUMP JUMPDEST PUSH1 0x0 DUP2 MLOAD SWAP1 POP SWAP2 SWAP1 POP JUMP JUMPDEST PUSH1 0x0 DUP3 DUP3 MSTORE PUSH1 0x20 DUP3 ADD SWAP1 POP SWAP3 SWAP2 POP POP JUMP JUMPDEST PUSH1 0x0 DUP2 SWAP1 POP PUSH1 0x20 DUP3 ADD SWAP1 POP SWAP2 SWAP1 POP JUMP JUMPDEST PUSH1 0x0 DUP2 MLOAD SWAP1 POP SWAP2 SWAP1 POP JUMP JUMPDEST PUSH1 0x0 DUP3 DUP3 MSTORE PUSH1 0x20 DUP3 ADD SWAP1 POP SWAP3 SWAP2 POP POP JUMP JUMPDEST PUSH1 0x0 DUP2 SWAP1 POP PUSH1 0x20 DUP3 ADD SWAP1 POP SWAP2 SWAP1 POP JUMP JUMPDEST PUSH1 0x40 DUP3 ADD PUSH1 0x0 DUP3 ADD MLOAD PUSH3 0x5E5F PUSH1 0x0 DUP6 ADD DUP3 PUSH3 0x4C67 JUMP JUMPDEST POP PUSH1 0x20 DUP3 ADD MLOAD PUSH3 0x5E74 PUSH1 0x20 DUP6 ADD DUP3 PUSH3 0x4C78 JUMP JUMPDEST POP POP POP POP JUMP JUMPDEST PUSH1 0x0 PUSH3 0x5E88 DUP4 DUP4 PUSH3 0x5E47 JUMP JUMPDEST PUSH1 0x40 DUP4 ADD SWAP1 POP SWAP3 SWAP2 POP POP JUMP JUMPDEST PUSH1 0x0 PUSH1 0x20 DUP3 ADD SWAP1 POP SWAP2 SWAP1 POP JUMP JUMPDEST PUSH1 0x0 PUSH3 0x5EAE DUP3 PUSH3 0x5E1B JUMP JUMPDEST PUSH3 0x5EBA DUP2 DUP6 PUSH3 0x5E26 JUMP JUMPDEST SWAP4 POP PUSH3 0x5EC7 DUP4 PUSH3 0x5E37 JUMP JUMPDEST DUP1 PUSH1 0x0 JUMPDEST DUP4 DUP2 LT ISZERO PUSH3 0x5EFE JUMPI DUP2 MLOAD PUSH3 0x5EE2 DUP9 DUP3 PUSH3 0x5E7A JUMP JUMPDEST SWAP8 POP PUSH3 0x5EEF DUP4 PUSH3 0x5E94 JUMP JUMPDEST SWAP3 POP POP PUSH1 0x1 DUP2 ADD SWAP1 POP PUSH3 0x5ECB JUMP JUMPDEST POP DUP6 SWAP4 POP POP POP POP SWAP3 SWAP2 POP POP JUMP JUMPDEST PUSH1 0x0 PUSH1 0xA0 DUP4 ADD PUSH1 0x0 DUP4 ADD MLOAD DUP5 DUP3 SUB PUSH1 0x0 DUP7 ADD MSTORE PUSH3 0x5F2A DUP3 DUP3 PUSH3 0x4CB6 JUMP JUMPDEST SWAP2 POP POP PUSH1 0x20 DUP4 ADD MLOAD DUP5 DUP3 SUB PUSH1 0x20 DUP7 ADD MSTORE PUSH3 0x5F46 DUP3 DUP3 PUSH3 0x4CB6 JUMP JUMPDEST SWAP2 POP POP PUSH1 0x40 DUP4 ADD MLOAD DUP5 DUP3 SUB PUSH1 0x40 DUP7 ADD MSTORE PUSH3 0x5F62 DUP3 DUP3 PUSH3 0x5EA1 JUMP JUMPDEST SWAP2 POP POP PUSH1 0x60 DUP4 ADD MLOAD PUSH3 0x5F79 PUSH1 0x60 DUP7 ADD DUP3 PUSH3 0x4C67 JUMP JUMPDEST POP PUSH1 0x80 DUP4 ADD MLOAD DUP5 DUP3 SUB PUSH1 0x80 DUP7 ADD MSTORE PUSH3 0x5F93 DUP3 DUP3 PUSH3 0x4CB6 JUMP JUMPDEST SWAP2 POP POP DUP1 SWAP2 POP POP SWAP3 SWAP2 POP POP JUMP JUMPDEST PUSH1 0x0 PUSH3 0x5FAE DUP4 DUP4 PUSH3 0x5F0B JUMP JUMPDEST SWAP1 POP SWAP3 SWAP2 POP POP JUMP JUMPDEST PUSH1 0x0 PUSH1 0x20 DUP3 ADD SWAP1 POP SWAP2 SWAP1 POP JUMP JUMPDEST PUSH1 0x0 PUSH3 0x5FD0 DUP3 PUSH3 0x5DEF JUMP JUMPDEST PUSH3 0x5FDC DUP2 DUP6 PUSH3 0x5DFA JUMP JUMPDEST SWAP4 POP DUP4 PUSH1 0x20 DUP3 MUL DUP6 ADD PUSH3 0x5FF0 DUP6 PUSH3 0x5E0B JUMP JUMPDEST DUP1 PUSH1 0x0 JUMPDEST DUP6 DUP2 LT ISZERO PUSH3 0x6032 JUMPI DUP5 DUP5 SUB DUP10 MSTORE DUP2 MLOAD PUSH3 0x6010 DUP6 DUP3 PUSH3 0x5FA0 JUMP JUMPDEST SWAP5 POP PUSH3 0x601D DUP4 PUSH3 0x5FB6 JUMP JUMPDEST SWAP3 POP PUSH1 0x20 DUP11 ADD SWAP10 POP POP PUSH1 0x1 DUP2 ADD SWAP1 POP PUSH3 0x5FF4 JUMP JUMPDEST POP DUP3 SWAP8 POP DUP8 SWAP6 POP POP POP POP POP POP SWAP3 SWAP2 POP POP JUMP JUMPDEST PUSH1 0x0 DUP2 MLOAD SWAP1 POP SWAP2 SWAP1 POP JUMP JUMPDEST PUSH1 0x0 DUP3 DUP3 MSTORE PUSH1 0x20 DUP3 ADD SWAP1 POP SWAP3 SWAP2 POP POP JUMP JUMPDEST PUSH1 0x0 DUP2 SWAP1 POP PUSH1 0x20 DUP3 ADD SWAP1 POP SWAP2 SWAP1 POP JUMP JUMPDEST PUSH3 0x607B DUP2 PUSH3 0x51E7 JUMP JUMPDEST DUP3 MSTORE POP POP JUMP JUMPDEST PUSH1 0x0 PUSH3 0x608F DUP4 DUP4 PUSH3 0x6070 JUMP JUMPDEST PUSH1 0x20 DUP4 ADD SWAP1 POP SWAP3 SWAP2 POP POP JUMP JUMPDEST PUSH1 0x0 PUSH1 0x20 DUP3 ADD SWAP1 POP SWAP2 SWAP1 POP JUMP JUMPDEST PUSH1 0x0 PUSH3 0x60B5 DUP3 PUSH3 0x6044 JUMP JUMPDEST PUSH3 0x60C1 DUP2 DUP6 PUSH3 0x604F JUMP JUMPDEST SWAP4 POP PUSH3 0x60CE DUP4 PUSH3 0x6060 JUMP JUMPDEST DUP1 PUSH1 0x0 JUMPDEST DUP4 DUP2 LT ISZERO PUSH3 0x6105 JUMPI DUP2 MLOAD PUSH3 0x60E9 DUP9 DUP3 PUSH3 0x6081 JUMP JUMPDEST SWAP8 POP PUSH3 0x60F6 DUP4 PUSH3 0x609B JUMP JUMPDEST SWAP3 POP POP PUSH1 0x1 DUP2 ADD SWAP1 POP PUSH3 0x60D2 JUMP JUMPDEST POP DUP6 SWAP4 POP POP POP POP SWAP3 SWAP2 POP POP JUMP JUMPDEST PUSH1 0x0 PUSH1 0x40 DUP3 ADD SWAP1 POP DUP2 DUP2 SUB PUSH1 0x0 DUP4 ADD MSTORE PUSH3 0x612E DUP2 DUP6 PUSH3 0x5FC3 JUMP JUMPDEST SWAP1 POP DUP2 DUP2 SUB PUSH1 0x20 DUP4 ADD MSTORE PUSH3 0x6144 DUP2 DUP5 PUSH3 0x60A8 JUMP JUMPDEST SWAP1 POP SWAP4 SWAP3 POP POP POP JUMP JUMPDEST PUSH1 0x0 PUSH8 0xFFFFFFFFFFFFFFFF DUP3 GT ISZERO PUSH3 0x616B JUMPI PUSH3 0x616A PUSH3 0x42F9 JUMP JUMPDEST JUMPDEST PUSH1 0x20 DUP3 MUL SWAP1 POP PUSH1 0x20 DUP2 ADD SWAP1 POP SWAP2 SWAP1 POP JUMP JUMPDEST PUSH1 0x0 DUP2 MLOAD SWAP1 POP PUSH3 0x618D DUP2 PUSH3 0x51B6 JUMP JUMPDEST SWAP3 SWAP2 POP POP JUMP JUMPDEST PUSH1 0x0 PUSH3 0x61AA PUSH3 0x61A4 DUP5 PUSH3 0x614D JUMP JUMPDEST PUSH3 0x435E JUMP JUMPDEST SWAP1 POP DUP1 DUP4 DUP3 MSTORE PUSH1 0x20 DUP3 ADD SWAP1 POP PUSH1 0x20 DUP5 MUL DUP4 ADD DUP6 DUP2 GT ISZERO PUSH3 0x61D0 JUMPI PUSH3 0x61CF PUSH3 0x4799 JUMP JUMPDEST JUMPDEST DUP4 JUMPDEST DUP2 DUP2 LT ISZERO PUSH3 0x61FD JUMPI DUP1 PUSH3 0x61E8 DUP9 DUP3 PUSH3 0x617C JUMP JUMPDEST DUP5 MSTORE PUSH1 0x20 DUP5 ADD SWAP4 POP POP PUSH1 0x20 DUP2 ADD SWAP1 POP PUSH3 0x61D2 JUMP JUMPDEST POP POP POP SWAP4 SWAP3 POP POP POP JUMP JUMPDEST PUSH1 0x0 DUP3 PUSH1 0x1F DUP4 ADD SLT PUSH3 0x621F JUMPI PUSH3 0x621E PUSH3 0x4460 JUMP JUMPDEST JUMPDEST DUP2 MLOAD PUSH3 0x6231 DUP5 DUP3 PUSH1 0x20 DUP7 ADD PUSH3 0x6193 JUMP JUMPDEST SWAP2 POP POP SWAP3 SWAP2 POP POP JUMP JUMPDEST PUSH1 0x0 PUSH1 0x20 DUP3 DUP5 SUB SLT ISZERO PUSH3 0x6253 JUMPI PUSH3 0x6252 PUSH3 0x4210 JUMP JUMPDEST JUMPDEST PUSH1 0x0 DUP3 ADD MLOAD PUSH8 0xFFFFFFFFFFFFFFFF DUP2 GT ISZERO PUSH3 0x6274 JUMPI PUSH3 0x6273 PUSH3 0x4215 JUMP JUMPDEST JUMPDEST PUSH3 0x6282 DUP5 DUP3 DUP6 ADD PUSH3 0x6207 JUMP JUMPDEST SWAP2 POP POP SWAP3 SWAP2 POP POP JUMP JUMPDEST PUSH1 0x0 PUSH1 0x20 DUP3 DUP5 SUB SLT ISZERO PUSH3 0x62A4 JUMPI PUSH3 0x62A3 PUSH3 0x4210 JUMP JUMPDEST JUMPDEST PUSH1 0x0 PUSH3 0x62B4 DUP5 DUP3 DUP6 ADD PUSH3 0x4ACF JUMP JUMPDEST SWAP2 POP POP SWAP3 SWAP2 POP POP JUMP JUMPDEST PUSH1 0x0 DUP2 MLOAD SWAP1 POP PUSH3 0x62CE DUP2 PUSH3 0x442F JUMP JUMPDEST SWAP3 SWAP2 POP POP JUMP JUMPDEST PUSH1 0x0 DUP1 PUSH1 0x0 DUP1 PUSH1 0x0 PUSH1 0xA0 DUP7 DUP9 SUB SLT ISZERO PUSH3 0x62F3 JUMPI PUSH3 0x62F2 PUSH3 0x4210 JUMP JUMPDEST JUMPDEST PUSH1 0x0 PUSH3 0x6303 DUP9 DUP3 DUP10 ADD PUSH3 0x4ACF JUMP JUMPDEST SWAP6 POP POP PUSH1 0x20 PUSH3 0x6316 DUP9 DUP3 DUP10 ADD PUSH3 0x4ACF JUMP JUMPDEST SWAP5 POP POP PUSH1 0x40 PUSH3 0x6329 DUP9 DUP3 DUP10 ADD PUSH3 0x4ACF JUMP JUMPDEST SWAP4 POP POP PUSH1 0x60 PUSH3 0x633C DUP9 DUP3 DUP10 ADD PUSH3 0x62BD JUMP JUMPDEST SWAP3 POP POP PUSH1 0x80 DUP7 ADD MLOAD PUSH8 0xFFFFFFFFFFFFFFFF DUP2 GT ISZERO PUSH3 0x6360 JUMPI PUSH3 0x635F PUSH3 0x4215 JUMP JUMPDEST JUMPDEST PUSH3 0x636E DUP9 DUP3 DUP10 ADD PUSH3 0x4B74 JUMP JUMPDEST SWAP2 POP POP SWAP3 SWAP6 POP SWAP3 SWAP6 SWAP1 SWAP4 POP JUMP JUMPDEST PUSH1 0x0 PUSH1 0x40 DUP3 ADD SWAP1 POP PUSH3 0x6392 PUSH1 0x0 DUP4 ADD DUP6 PUSH3 0x4666 JUMP JUMPDEST PUSH3 0x63A1 PUSH1 0x20 DUP4 ADD DUP5 PUSH3 0x4666 JUMP JUMPDEST SWAP4 SWAP3 POP POP POP JUMP JUMPDEST PUSH1 0x0 DUP1 PUSH1 0x0 PUSH1 0x60 DUP5 DUP7 SUB SLT ISZERO PUSH3 0x63C4 JUMPI PUSH3 0x63C3 PUSH3 0x4210 JUMP JUMPDEST JUMPDEST PUSH1 0x0 PUSH3 0x63D4 DUP7 DUP3 DUP8 ADD PUSH3 0x62BD JUMP JUMPDEST SWAP4 POP POP PUSH1 0x20 PUSH3 0x63E7 DUP7 DUP3 DUP8 ADD PUSH3 0x617C JUMP JUMPDEST SWAP3 POP POP PUSH1 0x40 PUSH3 0x63FA DUP7 DUP3 DUP8 ADD PUSH3 0x617C JUMP JUMPDEST SWAP2 POP POP SWAP3 POP SWAP3 POP SWAP3 JUMP JUMPDEST PUSH3 0x640F DUP2 PUSH3 0x51AC JUMP JUMPDEST DUP3 MSTORE POP POP JUMP JUMPDEST PUSH1 0x0 PUSH1 0xE0 DUP3 ADD SWAP1 POP PUSH3 0x642C PUSH1 0x0 DUP4 ADD DUP11 PUSH3 0x4666 JUMP JUMPDEST PUSH3 0x643B PUSH1 0x20 DUP4 ADD DUP10 PUSH3 0x4666 JUMP JUMPDEST PUSH3 0x644A PUSH1 0x40 DUP4 ADD DUP9 PUSH3 0x4638 JUMP JUMPDEST PUSH3 0x6459 PUSH1 0x60 DUP4 ADD DUP8 PUSH3 0x4638 JUMP JUMPDEST PUSH3 0x6468 PUSH1 0x80 DUP4 ADD DUP7 PUSH3 0x5CAA JUMP JUMPDEST PUSH3 0x6477 PUSH1 0xA0 DUP4 ADD DUP6 PUSH3 0x6404 JUMP JUMPDEST PUSH3 0x6486 PUSH1 0xC0 DUP4 ADD DUP5 PUSH3 0x6404 JUMP JUMPDEST SWAP9 SWAP8 POP POP POP POP POP POP POP POP JUMP JUMPDEST PUSH1 0x0 PUSH1 0xA0 DUP3 ADD SWAP1 POP PUSH3 0x64A9 PUSH1 0x0 DUP4 ADD DUP9 PUSH3 0x4666 JUMP JUMPDEST PUSH3 0x64B8 PUSH1 0x20 DUP4 ADD DUP8 PUSH3 0x4638 JUMP JUMPDEST PUSH3 0x64C7 PUSH1 0x40 DUP4 ADD DUP7 PUSH3 0x59E3 JUMP JUMPDEST PUSH3 0x64D6 PUSH1 0x60 DUP4 ADD DUP6 PUSH3 0x5015 JUMP JUMPDEST PUSH3 0x64E5 PUSH1 0x80 DUP4 ADD DUP5 PUSH3 0x4666 JUMP JUMPDEST SWAP7 SWAP6 POP POP POP POP POP POP JUMP INVALID PUSH1 0xE0 PUSH1 0x40 MSTORE CALLVALUE DUP1 ISZERO PUSH3 0x11 JUMPI PUSH1 0x0 DUP1 REVERT JUMPDEST POP PUSH1 0x40 MLOAD PUSH3 0x1F14 CODESIZE SUB DUP1 PUSH3 0x1F14 DUP4 CODECOPY DUP2 DUP2 ADD PUSH1 0x40 MSTORE DUP2 ADD SWAP1 PUSH3 0x37 SWAP2 SWAP1 PUSH3 0x33A JUMP JUMPDEST DUP1 PUSH1 0x0 PUSH20 0xFFFFFFFFFFFFFFFFFFFFFFFFFFFFFFFFFFFFFFFF AND DUP2 PUSH20 0xFFFFFFFFFFFFFFFFFFFFFFFFFFFFFFFFFFFFFFFF AND SUB PUSH3 0xAD JUMPI PUSH1 0x0 PUSH1 0x40 MLOAD PUSH32 0x1E4FBDF700000000000000000000000000000000000000000000000000000000 DUP2 MSTORE PUSH1 0x4 ADD PUSH3 0xA4 SWAP2 SWAP1 PUSH3 0x3A7 JUMP JUMPDEST PUSH1 0x40 MLOAD DUP1 SWAP2 SUB SWAP1 REVERT JUMPDEST PUSH3 0xBE DUP2 PUSH3 0x20C PUSH1 0x20 SHL PUSH1 0x20 SHR JUMP JUMPDEST POP CALLER PUSH20 0xFFFFFFFFFFFFFFFFFFFFFFFFFFFFFFFFFFFFFFFF AND PUSH1 0x80 DUP2 PUSH20 0xFFFFFFFFFFFFFFFFFFFFFFFFFFFFFFFFFFFFFFFF AND DUP2 MSTORE POP POP DUP3 PUSH20 0xFFFFFFFFFFFFFFFFFFFFFFFFFFFFFFFFFFFFFFFF AND PUSH1 0xA0 DUP2 PUSH20 0xFFFFFFFFFFFFFFFFFFFFFFFFFFFFFFFFFFFFFFFF AND DUP2 MSTORE POP POP DUP2 PUSH20 0xFFFFFFFFFFFFFFFFFFFFFFFFFFFFFFFFFFFFFFFF AND PUSH1 0xC0 DUP2 PUSH20 0xFFFFFFFFFFFFFFFFFFFFFFFFFFFFFFFFFFFFFFFF AND DUP2 MSTORE POP POP PUSH1 0xC0 MLOAD PUSH20 0xFFFFFFFFFFFFFFFFFFFFFFFFFFFFFFFFFFFFFFFF AND PUSH4 0x95EA7B3 PUSH1 0xA0 MLOAD PUSH32 0xFFFFFFFFFFFFFFFFFFFFFFFFFFFFFFFFFFFFFFFFFFFFFFFFFFFFFFFFFFFFFFFF PUSH1 0x40 MLOAD DUP4 PUSH4 0xFFFFFFFF AND PUSH1 0xE0 SHL DUP2 MSTORE PUSH1 0x4 ADD PUSH3 0x1BC SWAP3 SWAP2 SWAP1 PUSH3 0x3DF JUMP JUMPDEST PUSH1 0x20 PUSH1 0x40 MLOAD DUP1 DUP4 SUB DUP2 PUSH1 0x0 DUP8 GAS CALL ISZERO DUP1 ISZERO PUSH3 0x1DC JUMPI RETURNDATASIZE PUSH1 0x0 DUP1 RETURNDATACOPY RETURNDATASIZE PUSH1 0x0 REVERT JUMPDEST POP POP POP POP PUSH1 0x40 MLOAD RETURNDATASIZE PUSH1 0x1F NOT PUSH1 0x1F DUP3 ADD AND DUP3 ADD DUP1 PUSH1 0x40 MSTORE POP DUP2 ADD SWAP1 PUSH3 0x202 SWAP2 SWAP1 PUSH3 0x449 JUMP JUMPDEST POP POP POP POP PUSH3 0x47B JUMP JUMPDEST PUSH1 0x0 DUP1 PUSH1 0x0 SWAP1 SLOAD SWAP1 PUSH2 0x100 EXP SWAP1 DIV PUSH20 0xFFFFFFFFFFFFFFFFFFFFFFFFFFFFFFFFFFFFFFFF AND SWAP1 POP DUP2 PUSH1 0x0 DUP1 PUSH2 0x100 EXP DUP2 SLOAD DUP2 PUSH20 0xFFFFFFFFFFFFFFFFFFFFFFFFFFFFFFFFFFFFFFFF MUL NOT AND SWAP1 DUP4 PUSH20 0xFFFFFFFFFFFFFFFFFFFFFFFFFFFFFFFFFFFFFFFF AND MUL OR SWAP1 SSTORE POP DUP2 PUSH20 0xFFFFFFFFFFFFFFFFFFFFFFFFFFFFFFFFFFFFFFFF AND DUP2 PUSH20 0xFFFFFFFFFFFFFFFFFFFFFFFFFFFFFFFFFFFFFFFF AND PUSH32 0x8BE0079C531659141344CD1FD0A4F28419497F9722A3DAAFE3B4186F6B6457E0 PUSH1 0x40 MLOAD PUSH1 0x40 MLOAD DUP1 SWAP2 SUB SWAP1 LOG3 POP POP JUMP JUMPDEST PUSH1 0x0 DUP1 REVERT JUMPDEST PUSH1 0x0 PUSH20 0xFFFFFFFFFFFFFFFFFFFFFFFFFFFFFFFFFFFFFFFF DUP3 AND SWAP1 POP SWAP2 SWAP1 POP JUMP JUMPDEST PUSH1 0x0 PUSH3 0x302 DUP3 PUSH3 0x2D5 JUMP JUMPDEST SWAP1 POP SWAP2 SWAP1 POP JUMP JUMPDEST PUSH3 0x314 DUP2 PUSH3 0x2F5 JUMP JUMPDEST DUP2 EQ PUSH3 0x320 JUMPI PUSH1 0x0 DUP1 REVERT JUMPDEST POP JUMP JUMPDEST PUSH1 0x0 DUP2 MLOAD SWAP1 POP PUSH3 0x334 DUP2 PUSH3 0x309 JUMP JUMPDEST SWAP3 SWAP2 POP POP JUMP JUMPDEST PUSH1 0x0 DUP1 PUSH1 0x0 PUSH1 0x60 DUP5 DUP7 SUB SLT ISZERO PUSH3 0x356 JUMPI PUSH3 0x355 PUSH3 0x2D0 JUMP JUMPDEST JUMPDEST PUSH1 0x0 PUSH3 0x366 DUP7 DUP3 DUP8 ADD PUSH3 0x323 JUMP JUMPDEST SWAP4 POP POP PUSH1 0x20 PUSH3 0x379 DUP7 DUP3 DUP8 ADD PUSH3 0x323 JUMP JUMPDEST SWAP3 POP POP PUSH1 0x40 PUSH3 0x38C DUP7 DUP3 DUP8 ADD PUSH3 0x323 JUMP JUMPDEST SWAP2 POP POP SWAP3 POP SWAP3 POP SWAP3 JUMP JUMPDEST PUSH3 0x3A1 DUP2 PUSH3 0x2F5 JUMP JUMPDEST DUP3 MSTORE POP POP JUMP JUMPDEST PUSH1 0x0 PUSH1 0x20 DUP3 ADD SWAP1 POP PUSH3 0x3BE PUSH1 0x0 DUP4 ADD DUP5 PUSH3 0x396 JUMP JUMPDEST SWAP3 SWAP2 POP POP JUMP JUMPDEST PUSH1 0x0 DUP2 SWAP1 POP SWAP2 SWAP1 POP JUMP JUMPDEST PUSH3 0x3D9 DUP2 PUSH3 0x3C4 JUMP JUMPDEST DUP3 MSTORE POP POP JUMP JUMPDEST PUSH1 0x0 PUSH1 0x40 DUP3 ADD SWAP1 POP PUSH3 0x3F6 PUSH1 0x0 DUP4 ADD DUP6 PUSH3 0x396 JUMP JUMPDEST PUSH3 0x405 PUSH1 0x20 DUP4 ADD DUP5 PUSH3 0x3CE JUMP JUMPDEST SWAP4 SWAP3 POP POP POP JUMP JUMPDEST PUSH1 0x0 DUP2 ISZERO ISZERO SWAP1 POP SWAP2 SWAP1 POP JUMP JUMPDEST PUSH3 0x423 DUP2 PUSH3 0x40C JUMP JUMPDEST DUP2 EQ PUSH3 0x42F JUMPI PUSH1 0x0 DUP1 REVERT JUMPDEST POP JUMP JUMPDEST PUSH1 0x0 DUP2 MLOAD SWAP1 POP PUSH3 0x443 DUP2 PUSH3 0x418 JUMP JUMPDEST SWAP3 SWAP2 POP POP JUMP JUMPDEST PUSH1 0x0 PUSH1 0x20 DUP3 DUP5 SUB SLT ISZERO PUSH3 0x462 JUMPI PUSH3 0x461 PUSH3 0x2D0 JUMP JUMPDEST JUMPDEST PUSH1 0x0 PUSH3 0x472 DUP5 DUP3 DUP6 ADD PUSH3 0x432 JUMP JUMPDEST SWAP2 POP POP SWAP3 SWAP2 POP POP JUMP JUMPDEST PUSH1 0x80 MLOAD PUSH1 0xA0 MLOAD PUSH1 0xC0 MLOAD PUSH2 0x1A46 PUSH3 0x4CE PUSH1 0x0 CODECOPY PUSH1 0x0 PUSH2 0x45B ADD MSTORE PUSH1 0x0 DUP2 DUP2 PUSH2 0x423 ADD MSTORE DUP2 DUP2 PUSH2 0x4AA ADD MSTORE DUP2 DUP2 PUSH2 0x7D4 ADD MSTORE DUP2 DUP2 PUSH2 0x8AB ADD MSTORE PUSH2 0x951 ADD MSTORE PUSH1 0x0 DUP2 DUP2 PUSH2 0x2CF ADD MSTORE PUSH2 0x54B ADD MSTORE PUSH2 0x1A46 PUSH1 0x0 RETURN INVALID PUSH1 0x80 PUSH1 0x40 MSTORE PUSH1 0x4 CALLDATASIZE LT PUSH2 0x95 JUMPI PUSH1 0x0 CALLDATALOAD PUSH1 0xE0 SHR DUP1 PUSH4 0x8DA5CB5B GT PUSH2 0x59 JUMPI DUP1 PUSH4 0x8DA5CB5B EQ PUSH2 0x174 JUMPI DUP1 PUSH4 0xA48A9058 EQ PUSH2 0x19F JUMPI DUP1 PUSH4 0xDB3E3461 EQ PUSH2 0x1DC JUMPI DUP1 PUSH4 0xF2FDE38B EQ PUSH2 0x207 JUMPI DUP1 PUSH4 0xF3FEF3A3 EQ PUSH2 0x230 JUMPI PUSH2 0x9C JUMP JUMPDEST DUP1 PUSH4 0x1E33667 EQ PUSH2 0xA1 JUMPI DUP1 PUSH4 0x3626454D EQ PUSH2 0xCA JUMPI DUP1 PUSH4 0x581BDD16 EQ PUSH2 0x107 JUMPI DUP1 PUSH4 0x715018A6 EQ PUSH2 0x132 JUMPI DUP1 PUSH4 0x7D253AFF EQ PUSH2 0x149 JUMPI PUSH2 0x9C JUMP JUMPDEST CALLDATASIZE PUSH2 0x9C JUMPI STOP JUMPDEST PUSH1 0x0 DUP1 REVERT JUMPDEST CALLVALUE DUP1 ISZERO PUSH2 0xAD JUMPI PUSH1 0x0 DUP1 REVERT JUMPDEST POP PUSH2 0xC8 PUSH1 0x4 DUP1 CALLDATASIZE SUB DUP2 ADD SWAP1 PUSH2 0xC3 SWAP2 SWAP1 PUSH2 0xBEC JUMP JUMPDEST PUSH2 0x259 JUMP JUMPDEST STOP JUMPDEST CALLVALUE DUP1 ISZERO PUSH2 0xD6 JUMPI PUSH1 0x0 DUP1 REVERT JUMPDEST POP PUSH2 0xF1 PUSH1 0x4 DUP1 CALLDATASIZE SUB DUP2 ADD SWAP1 PUSH2 0xEC SWAP2 SWAP1 PUSH2 0x1187 JUMP JUMPDEST PUSH2 0x2CB JUMP JUMPDEST PUSH1 0x40 MLOAD PUSH2 0xFE SWAP2 SWAP1 PUSH2 0x12C7 JUMP JUMPDEST PUSH1 0x40 MLOAD DUP1 SWAP2 SUB SWAP1 RETURN JUMPDEST CALLVALUE DUP1 ISZERO PUSH2 0x113 JUMPI PUSH1 0x0 DUP1 REVERT JUMPDEST POP PUSH2 0x11C PUSH2 0x421 JUMP JUMPDEST PUSH1 0x40 MLOAD PUSH2 0x129 SWAP2 SWAP1 PUSH2 0x12F8 JUMP JUMPDEST PUSH1 0x40 MLOAD DUP1 SWAP2 SUB SWAP1 RETURN JUMPDEST CALLVALUE DUP1 ISZERO PUSH2 0x13E JUMPI PUSH1 0x0 DUP1 REVERT JUMPDEST POP PUSH2 0x147 PUSH2 0x445 JUMP JUMPDEST STOP JUMPDEST CALLVALUE DUP1 ISZERO PUSH2 0x155 JUMPI PUSH1 0x0 DUP1 REVERT JUMPDEST POP PUSH2 0x15E PUSH2 0x459 JUMP JUMPDEST PUSH1 0x40 MLOAD PUSH2 0x16B SWAP2 SWAP1 PUSH2 0x12F8 JUMP JUMPDEST PUSH1 0x40 MLOAD DUP1 SWAP2 SUB SWAP1 RETURN JUMPDEST CALLVALUE DUP1 ISZERO PUSH2 0x180 JUMPI PUSH1 0x0 DUP1 REVERT JUMPDEST POP PUSH2 0x189 PUSH2 0x47D JUMP JUMPDEST PUSH1 0x40 MLOAD PUSH2 0x196 SWAP2 SWAP1 PUSH2 0x12F8 JUMP JUMPDEST PUSH1 0x40 MLOAD DUP1 SWAP2 SUB SWAP1 RETURN JUMPDEST CALLVALUE DUP1 ISZERO PUSH2 0x1AB JUMPI PUSH1 0x0 DUP1 REVERT JUMPDEST POP PUSH2 0x1C6 PUSH1 0x4 DUP1 CALLDATASIZE SUB DUP2 ADD SWAP1 PUSH2 0x1C1 SWAP2 SWAP1 PUSH2 0x1313 JUMP JUMPDEST PUSH2 0x4A6 JUMP JUMPDEST PUSH1 0x40 MLOAD PUSH2 0x1D3 SWAP2 SWAP1 PUSH2 0x135B JUMP JUMPDEST PUSH1 0x40 MLOAD DUP1 SWAP2 SUB SWAP1 RETURN JUMPDEST CALLVALUE DUP1 ISZERO PUSH2 0x1E8 JUMPI PUSH1 0x0 DUP1 REVERT JUMPDEST POP PUSH2 0x1F1 PUSH2 0x549 JUMP JUMPDEST PUSH1 0x40 MLOAD PUSH2 0x1FE SWAP2 SWAP1 PUSH2 0x12F8 JUMP JUMPDEST PUSH1 0x40 MLOAD DUP1 SWAP2 SUB SWAP1 RETURN JUMPDEST CALLVALUE DUP1 ISZERO PUSH2 0x213 JUMPI PUSH1 0x0 DUP1 REVERT JUMPDEST POP PUSH2 0x22E PUSH1 0x4 DUP1 CALLDATASIZE SUB DUP2 ADD SWAP1 PUSH2 0x229 SWAP2 SWAP1 PUSH2 0x1376 JUMP JUMPDEST PUSH2 0x56D JUMP JUMPDEST STOP JUMPDEST CALLVALUE DUP1 ISZERO PUSH2 0x23C JUMPI PUSH1 0x0 DUP1 REVERT JUMPDEST POP PUSH2 0x257 PUSH1 0x4 DUP1 CALLDATASIZE SUB DUP2 ADD SWAP1 PUSH2 0x252 SWAP2 SWAP1 PUSH2 0x13A3 JUMP JUMPDEST PUSH2 0x5F3 JUMP JUMPDEST STOP JUMPDEST PUSH2 0x261 PUSH2 0x6C4 JUMP JUMPDEST PUSH1 0x0 PUSH2 0x28C ADDRESS DUP5 PUSH20 0xFFFFFFFFFFFFFFFFFFFFFFFFFFFFFFFFFFFFFFFF AND PUSH2 0x74B SWAP1 SWAP2 SWAP1 PUSH4 0xFFFFFFFF AND JUMP JUMPDEST SWAP1 POP DUP1 DUP3 GT ISZERO PUSH2 0x29A JUMPI DUP1 SWAP2 POP JUMPDEST PUSH2 0x2C5 DUP5 DUP4 DUP6 PUSH20 0xFFFFFFFFFFFFFFFFFFFFFFFFFFFFFFFFFFFFFFFF AND PUSH2 0x780 SWAP1 SWAP3 SWAP2 SWAP1 PUSH4 0xFFFFFFFF AND JUMP JUMPDEST POP POP POP POP JUMP JUMPDEST PUSH1 0x60 PUSH32 0x0 PUSH20 0xFFFFFFFFFFFFFFFFFFFFFFFFFFFFFFFFFFFFFFFF AND CALLER PUSH20 0xFFFFFFFFFFFFFFFFFFFFFFFFFFFFFFFFFFFFFFFF AND EQ PUSH2 0x352 JUMPI PUSH1 0x40 MLOAD PUSH32 0xB32D8C6600000000000000000000000000000000000000000000000000000000 DUP2 MSTORE PUSH1 0x4 ADD PUSH1 0x40 MLOAD DUP1 SWAP2 SUB SWAP1 REVERT JUMPDEST DUP3 MLOAD PUSH8 0xFFFFFFFFFFFFFFFF DUP2 GT ISZERO PUSH2 0x36D JUMPI PUSH2 0x36C PUSH2 0xC55 JUMP JUMPDEST JUMPDEST PUSH1 0x40 MLOAD SWAP1 DUP1 DUP3 MSTORE DUP1 PUSH1 0x20 MUL PUSH1 0x20 ADD DUP3 ADD PUSH1 0x40 MSTORE DUP1 ISZERO PUSH2 0x39B JUMPI DUP2 PUSH1 0x20 ADD PUSH1 0x20 DUP3 MUL DUP1 CALLDATASIZE DUP4 CALLDATACOPY DUP1 DUP3 ADD SWAP2 POP POP SWAP1 POP JUMPDEST POP SWAP1 POP PUSH1 0x0 JUMPDEST DUP4 MLOAD DUP2 LT ISZERO PUSH2 0x41A JUMPI PUSH2 0x3E8 DUP5 DUP3 DUP2 MLOAD DUP2 LT PUSH2 0x3C0 JUMPI PUSH2 0x3BF PUSH2 0x13E3 JUMP JUMPDEST JUMPDEST PUSH1 0x20 MUL PUSH1 0x20 ADD ADD MLOAD DUP5 DUP4 DUP2 MLOAD DUP2 LT PUSH2 0x3DB JUMPI PUSH2 0x3DA PUSH2 0x13E3 JUMP JUMPDEST JUMPDEST PUSH1 0x20 MUL PUSH1 0x20 ADD ADD MLOAD PUSH2 0x7CF JUMP JUMPDEST DUP3 DUP3 DUP2 MLOAD DUP2 LT PUSH2 0x3FB JUMPI PUSH2 0x3FA PUSH2 0x13E3 JUMP JUMPDEST JUMPDEST PUSH1 0x20 MUL PUSH1 0x20 ADD ADD DUP2 DUP2 MSTORE POP POP DUP1 DUP1 PUSH2 0x412 SWAP1 PUSH2 0x1441 JUMP JUMPDEST SWAP2 POP POP PUSH2 0x3A1 JUMP JUMPDEST POP SWAP3 SWAP2 POP POP JUMP JUMPDEST PUSH32 0x0 DUP2 JUMP JUMPDEST PUSH2 0x44D PUSH2 0x6C4 JUMP JUMPDEST PUSH2 0x457 PUSH1 0x0 PUSH2 0xA78 JUMP JUMPDEST JUMP JUMPDEST PUSH32 0x0 DUP2 JUMP JUMPDEST PUSH1 0x0 DUP1 PUSH1 0x0 SWAP1 SLOAD SWAP1 PUSH2 0x100 EXP SWAP1 DIV PUSH20 0xFFFFFFFFFFFFFFFFFFFFFFFFFFFFFFFFFFFFFFFF AND SWAP1 POP SWAP1 JUMP JUMPDEST PUSH1 0x0 PUSH32 0x0 PUSH20 0xFFFFFFFFFFFFFFFFFFFFFFFFFFFFFFFFFFFFFFFF AND PUSH4 0xA48A9058 DUP4 PUSH1 0x40 MLOAD DUP3 PUSH4 0xFFFFFFFF AND PUSH1 0xE0 SHL DUP2 MSTORE PUSH1 0x4 ADD PUSH2 0x501 SWAP2 SWAP1 PUSH2 0x1498 JUMP JUMPDEST PUSH1 0x20 PUSH1 0x40 MLOAD DUP1 DUP4 SUB DUP2 DUP7 GAS STATICCALL ISZERO DUP1 ISZERO PUSH2 0x51E JUMPI RETURNDATASIZE PUSH1 0x0 DUP1 RETURNDATACOPY RETURNDATASIZE PUSH1 0x0 REVERT JUMPDEST POP POP POP POP PUSH1 0x40 MLOAD RETURNDATASIZE PUSH1 0x1F NOT PUSH1 0x1F DUP3 ADD AND DUP3 ADD DUP1 PUSH1 0x40 MSTORE POP DUP2 ADD SWAP1 PUSH2 0x542 SWAP2 SWAP1 PUSH2 0x14DF JUMP JUMPDEST SWAP1 POP SWAP2 SWAP1 POP JUMP JUMPDEST PUSH32 0x0 DUP2 JUMP JUMPDEST PUSH2 0x575 PUSH2 0x6C4 JUMP JUMPDEST PUSH1 0x0 PUSH20 0xFFFFFFFFFFFFFFFFFFFFFFFFFFFFFFFFFFFFFFFF AND DUP2 PUSH20 0xFFFFFFFFFFFFFFFFFFFFFFFFFFFFFFFFFFFFFFFF AND SUB PUSH2 0x5E7 JUMPI PUSH1 0x0 PUSH1 0x40 MLOAD PUSH32 0x1E4FBDF700000000000000000000000000000000000000000000000000000000 DUP2 MSTORE PUSH1 0x4 ADD PUSH2 0x5DE SWAP2 SWAP1 PUSH2 0x12F8 JUMP JUMPDEST PUSH1 0x40 MLOAD DUP1 SWAP2 SUB SWAP1 REVERT JUMPDEST PUSH2 0x5F0 DUP2 PUSH2 0xA78 JUMP JUMPDEST POP JUMP JUMPDEST PUSH2 0x5FB PUSH2 0x6C4 JUMP JUMPDEST PUSH1 0x0 SELFBALANCE SWAP1 POP DUP1 DUP3 GT ISZERO PUSH2 0x60C JUMPI DUP1 SWAP2 POP JUMPDEST PUSH1 0x0 DUP4 PUSH20 0xFFFFFFFFFFFFFFFFFFFFFFFFFFFFFFFFFFFFFFFF AND DUP4 PUSH1 0x40 MLOAD PUSH2 0x632 SWAP1 PUSH2 0x153D JUMP JUMPDEST PUSH1 0x0 PUSH1 0x40 MLOAD DUP1 DUP4 SUB DUP2 DUP6 DUP8 GAS CALL SWAP3 POP POP POP RETURNDATASIZE DUP1 PUSH1 0x0 DUP2 EQ PUSH2 0x66F JUMPI PUSH1 0x40 MLOAD SWAP2 POP PUSH1 0x1F NOT PUSH1 0x3F RETURNDATASIZE ADD AND DUP3 ADD PUSH1 0x40 MSTORE RETURNDATASIZE DUP3 MSTORE RETURNDATASIZE PUSH1 0x0 PUSH1 0x20 DUP5 ADD RETURNDATACOPY PUSH2 0x674 JUMP JUMPDEST PUSH1 0x60 SWAP2 POP JUMPDEST POP POP SWAP1 POP DUP1 PUSH2 0x6BE JUMPI CALLER DUP5 DUP5 PUSH1 0x40 MLOAD PUSH32 0x9D11F56300000000000000000000000000000000000000000000000000000000 DUP2 MSTORE PUSH1 0x4 ADD PUSH2 0x6B5 SWAP4 SWAP3 SWAP2 SWAP1 PUSH2 0x1561 JUMP JUMPDEST PUSH1 0x40 MLOAD DUP1 SWAP2 SUB SWAP1 REVERT JUMPDEST POP POP POP POP JUMP JUMPDEST PUSH2 0x6CC PUSH2 0xB3C JUMP JUMPDEST PUSH20 0xFFFFFFFFFFFFFFFFFFFFFFFFFFFFFFFFFFFFFFFF AND PUSH2 0x6EA PUSH2 0x47D JUMP JUMPDEST PUSH20 0xFFFFFFFFFFFFFFFFFFFFFFFFFFFFFFFFFFFFFFFF AND EQ PUSH2 0x749 JUMPI PUSH2 0x70D PUSH2 0xB3C JUMP JUMPDEST PUSH1 0x40 MLOAD PUSH32 0x118CDAA700000000000000000000000000000000000000000000000000000000 DUP2 MSTORE PUSH1 0x4 ADD PUSH2 0x740 SWAP2 SWAP1 PUSH2 0x12F8 JUMP JUMPDEST PUSH1 0x40 MLOAD DUP1 SWAP2 SUB SWAP1 REVERT JUMPDEST JUMP JUMPDEST PUSH1 0x0 DUP2 PUSH1 0x14 MSTORE PUSH16 0x70A08231000000000000000000000000 PUSH1 0x0 MSTORE PUSH1 0x20 DUP1 PUSH1 0x24 PUSH1 0x10 DUP7 GAS STATICCALL PUSH1 0x1F RETURNDATASIZE GT AND PUSH1 0x20 MLOAD MUL SWAP1 POP SWAP3 SWAP2 POP POP JUMP JUMPDEST DUP2 PUSH1 0x14 MSTORE DUP1 PUSH1 0x34 MSTORE PUSH16 0xA9059CBB000000000000000000000000 PUSH1 0x0 MSTORE PUSH1 0x20 PUSH1 0x0 PUSH1 0x44 PUSH1 0x10 PUSH1 0x0 DUP8 GAS CALL RETURNDATASIZE ISZERO PUSH1 0x1 PUSH1 0x0 MLOAD EQ OR AND PUSH2 0x7C5 JUMPI PUSH4 0x90B8EC18 PUSH1 0x0 MSTORE PUSH1 0x4 PUSH1 0x1C REVERT JUMPDEST PUSH1 0x0 PUSH1 0x34 MSTORE POP POP POP JUMP JUMPDEST PUSH1 0x0 DUP1 PUSH32 0x0 PUSH20 0xFFFFFFFFFFFFFFFFFFFFFFFFFFFFFFFFFFFFFFFF AND PUSH4 0x20487DED DUP5 DUP7 PUSH1 0x40 MLOAD DUP4 PUSH4 0xFFFFFFFF AND PUSH1 0xE0 SHL DUP2 MSTORE PUSH1 0x4 ADD PUSH2 0x82D SWAP3 SWAP2 SWAP1 PUSH2 0x179E JUMP JUMPDEST PUSH1 0x20 PUSH1 0x40 MLOAD DUP1 DUP4 SUB DUP2 DUP7 GAS STATICCALL ISZERO DUP1 ISZERO PUSH2 0x84A JUMPI RETURNDATASIZE PUSH1 0x0 DUP1 RETURNDATACOPY RETURNDATASIZE PUSH1 0x0 REVERT JUMPDEST POP POP POP POP PUSH1 0x40 MLOAD RETURNDATASIZE PUSH1 0x1F NOT PUSH1 0x1F DUP3 ADD AND DUP3 ADD DUP1 PUSH1 0x40 MSTORE POP DUP2 ADD SWAP1 PUSH2 0x86E SWAP2 SWAP1 PUSH2 0x17E3 JUMP JUMPDEST SWAP1 POP PUSH1 0x0 DUP1 PUSH20 0xFFFFFFFFFFFFFFFFFFFFFFFFFFFFFFFFFFFFFFFF AND DUP6 PUSH1 0x60 ADD MLOAD PUSH20 0xFFFFFFFFFFFFFFFFFFFFFFFFFFFFFFFFFFFFFFFF AND SUB PUSH2 0x94F JUMPI PUSH32 0x0 PUSH20 0xFFFFFFFFFFFFFFFFFFFFFFFFFFFFFFFFFFFFFFFF AND PUSH4 0x96F4E9F9 DUP4 DUP7 DUP9 PUSH1 0x40 MLOAD DUP5 PUSH4 0xFFFFFFFF AND PUSH1 0xE0 SHL DUP2 MSTORE PUSH1 0x4 ADD PUSH2 0x905 SWAP3 SWAP2 SWAP1 PUSH2 0x179E JUMP JUMPDEST PUSH1 0x20 PUSH1 0x40 MLOAD DUP1 DUP4 SUB DUP2 DUP6 DUP9 GAS CALL ISZERO DUP1 ISZERO PUSH2 0x923 JUMPI RETURNDATASIZE PUSH1 0x0 DUP1 RETURNDATACOPY RETURNDATASIZE PUSH1 0x0 REVERT JUMPDEST POP POP POP POP POP PUSH1 0x40 MLOAD RETURNDATASIZE PUSH1 0x1F NOT PUSH1 0x1F DUP3 ADD AND DUP3 ADD DUP1 PUSH1 0x40 MSTORE POP DUP2 ADD SWAP1 PUSH2 0x948 SWAP2 SWAP1 PUSH2 0x183C JUMP JUMPDEST SWAP1 POP PUSH2 0x9F0 JUMP JUMPDEST PUSH32 0x0 PUSH20 0xFFFFFFFFFFFFFFFFFFFFFFFFFFFFFFFFFFFFFFFF AND PUSH4 0x96F4E9F9 DUP6 DUP8 PUSH1 0x40 MLOAD DUP4 PUSH4 0xFFFFFFFF AND PUSH1 0xE0 SHL DUP2 MSTORE PUSH1 0x4 ADD PUSH2 0x9AA SWAP3 SWAP2 SWAP1 PUSH2 0x179E JUMP JUMPDEST PUSH1 0x20 PUSH1 0x40 MLOAD DUP1 DUP4 SUB DUP2 PUSH1 0x0 DUP8 GAS CALL ISZERO DUP1 ISZERO PUSH2 0x9C9 JUMPI RETURNDATASIZE PUSH1 0x0 DUP1 RETURNDATACOPY RETURNDATASIZE PUSH1 0x0 REVERT JUMPDEST POP POP POP POP PUSH1 0x40 MLOAD RETURNDATASIZE PUSH1 0x1F NOT PUSH1 0x1F DUP3 ADD AND DUP3 ADD DUP1 PUSH1 0x40 MSTORE POP DUP2 ADD SWAP1 PUSH2 0x9ED SWAP2 SWAP1 PUSH2 0x183C JUMP JUMPDEST SWAP1 POP JUMPDEST PUSH1 0x0 DUP6 PUSH1 0x20 ADD MLOAD DUP1 PUSH1 0x20 ADD SWAP1 MLOAD DUP2 ADD SWAP1 PUSH2 0xA0A SWAP2 SWAP1 PUSH2 0x1950 JUMP JUMPDEST POP POP POP POP SWAP1 POP DUP1 PUSH20 0xFFFFFFFFFFFFFFFFFFFFFFFFFFFFFFFFFFFFFFFF AND DUP6 PUSH8 0xFFFFFFFFFFFFFFFF AND DUP4 PUSH32 0xBB84DF71A0E51D82FF2E818A77257C7A05D8EA1BBCF265B377FD30D8E9E79021 ADDRESS DUP8 PUSH1 0x40 MLOAD PUSH2 0xA64 SWAP3 SWAP2 SWAP1 PUSH2 0x19E7 JUMP JUMPDEST PUSH1 0x40 MLOAD DUP1 SWAP2 SUB SWAP1 LOG4 DUP2 SWAP4 POP POP POP POP SWAP3 SWAP2 POP POP JUMP JUMPDEST PUSH1 0x0 DUP1 PUSH1 0x0 SWAP1 SLOAD SWAP1 PUSH2 0x100 EXP SWAP1 DIV PUSH20 0xFFFFFFFFFFFFFFFFFFFFFFFFFFFFFFFFFFFFFFFF AND SWAP1 POP DUP2 PUSH1 0x0 DUP1 PUSH2 0x100 EXP DUP2 SLOAD DUP2 PUSH20 0xFFFFFFFFFFFFFFFFFFFFFFFFFFFFFFFFFFFFFFFF MUL NOT AND SWAP1 DUP4 PUSH20 0xFFFFFFFFFFFFFFFFFFFFFFFFFFFFFFFFFFFFFFFF AND MUL OR SWAP1 SSTORE POP DUP2 PUSH20 0xFFFFFFFFFFFFFFFFFFFFFFFFFFFFFFFFFFFFFFFF AND DUP2 PUSH20 0xFFFFFFFFFFFFFFFFFFFFFFFFFFFFFFFFFFFFFFFF AND PUSH32 0x8BE0079C531659141344CD1FD0A4F28419497F9722A3DAAFE3B4186F6B6457E0 PUSH1 0x40 MLOAD PUSH1 0x40 MLOAD DUP1 SWAP2 SUB SWAP1 LOG3 POP POP JUMP JUMPDEST PUSH1 0x0 CALLER SWAP1 POP SWAP1 JUMP JUMPDEST PUSH1 0x0 PUSH1 0x40 MLOAD SWAP1 POP SWAP1 JUMP JUMPDEST PUSH1 0x0 DUP1 REVERT JUMPDEST PUSH1 0x0 DUP1 REVERT JUMPDEST PUSH1 0x0 PUSH20 0xFFFFFFFFFFFFFFFFFFFFFFFFFFFFFFFFFFFFFFFF DUP3 AND SWAP1 POP SWAP2 SWAP1 POP JUMP JUMPDEST PUSH1 0x0 PUSH2 0xB83 DUP3 PUSH2 0xB58 JUMP JUMPDEST SWAP1 POP SWAP2 SWAP1 POP JUMP JUMPDEST PUSH2 0xB93 DUP2 PUSH2 0xB78 JUMP JUMPDEST DUP2 EQ PUSH2 0xB9E JUMPI PUSH1 0x0 DUP1 REVERT JUMPDEST POP JUMP JUMPDEST PUSH1 0x0 DUP2 CALLDATALOAD SWAP1 POP PUSH2 0xBB0 DUP2 PUSH2 0xB8A JUMP JUMPDEST SWAP3 SWAP2 POP POP JUMP JUMPDEST PUSH1 0x0 DUP2 SWAP1 POP SWAP2 SWAP1 POP JUMP JUMPDEST PUSH2 0xBC9 DUP2 PUSH2 0xBB6 JUMP JUMPDEST DUP2 EQ PUSH2 0xBD4 JUMPI PUSH1 0x0 DUP1 REVERT JUMPDEST POP JUMP JUMPDEST PUSH1 0x0 DUP2 CALLDATALOAD SWAP1 POP PUSH2 0xBE6 DUP2 PUSH2 0xBC0 JUMP JUMPDEST SWAP3 SWAP2 POP POP JUMP JUMPDEST PUSH1 0x0 DUP1 PUSH1 0x0 PUSH1 0x60 DUP5 DUP7 SUB SLT ISZERO PUSH2 0xC05 JUMPI PUSH2 0xC04 PUSH2 0xB4E JUMP JUMPDEST JUMPDEST PUSH1 0x0 PUSH2 0xC13 DUP7 DUP3 DUP8 ADD PUSH2 0xBA1 JUMP JUMPDEST SWAP4 POP POP PUSH1 0x20 PUSH2 0xC24 DUP7 DUP3 DUP8 ADD PUSH2 0xBA1 JUMP JUMPDEST SWAP3 POP POP PUSH1 0x40 PUSH2 0xC35 DUP7 DUP3 DUP8 ADD PUSH2 0xBD7 JUMP JUMPDEST SWAP2 POP POP SWAP3 POP SWAP3 POP SWAP3 JUMP JUMPDEST PUSH1 0x0 DUP1 REVERT JUMPDEST PUSH1 0x0 PUSH1 0x1F NOT PUSH1 0x1F DUP4 ADD AND SWAP1 POP SWAP2 SWAP1 POP JUMP JUMPDEST PUSH32 0x4E487B7100000000000000000000000000000000000000000000000000000000 PUSH1 0x0 MSTORE PUSH1 0x41 PUSH1 0x4 MSTORE PUSH1 0x24 PUSH1 0x0 REVERT JUMPDEST PUSH2 0xC8D DUP3 PUSH2 0xC44 JUMP JUMPDEST DUP2 ADD DUP2 DUP2 LT PUSH8 0xFFFFFFFFFFFFFFFF DUP3 GT OR ISZERO PUSH2 0xCAC JUMPI PUSH2 0xCAB PUSH2 0xC55 JUMP JUMPDEST JUMPDEST DUP1 PUSH1 0x40 MSTORE POP POP POP JUMP JUMPDEST PUSH1 0x0 PUSH2 0xCBF PUSH2 0xB44 JUMP JUMPDEST SWAP1 POP PUSH2 0xCCB DUP3 DUP3 PUSH2 0xC84 JUMP JUMPDEST SWAP2 SWAP1 POP JUMP JUMPDEST PUSH1 0x0 PUSH8 0xFFFFFFFFFFFFFFFF DUP3 GT ISZERO PUSH2 0xCEB JUMPI PUSH2 0xCEA PUSH2 0xC55 JUMP JUMPDEST JUMPDEST PUSH1 0x20 DUP3 MUL SWAP1 POP PUSH1 0x20 DUP2 ADD SWAP1 POP SWAP2 SWAP1 POP JUMP JUMPDEST PUSH1 0x0 DUP1 REVERT JUMPDEST PUSH1 0x0 DUP1 REVERT JUMPDEST PUSH1 0x0 DUP1 REVERT JUMPDEST PUSH1 0x0 DUP1 REVERT JUMPDEST PUSH1 0x0 PUSH8 0xFFFFFFFFFFFFFFFF DUP3 GT ISZERO PUSH2 0xD2B JUMPI PUSH2 0xD2A PUSH2 0xC55 JUMP JUMPDEST JUMPDEST PUSH2 0xD34 DUP3 PUSH2 0xC44 JUMP JUMPDEST SWAP1 POP PUSH1 0x20 DUP2 ADD SWAP1 POP SWAP2 SWAP1 POP JUMP JUMPDEST DUP3 DUP2 DUP4 CALLDATACOPY PUSH1 0x0 DUP4 DUP4 ADD MSTORE POP POP POP JUMP JUMPDEST PUSH1 0x0 PUSH2 0xD63 PUSH2 0xD5E DUP5 PUSH2 0xD10 JUMP JUMPDEST PUSH2 0xCB5 JUMP JUMPDEST SWAP1 POP DUP3 DUP2 MSTORE PUSH1 0x20 DUP2 ADD DUP5 DUP5 DUP5 ADD GT ISZERO PUSH2 0xD7F JUMPI PUSH2 0xD7E PUSH2 0xD0B JUMP JUMPDEST JUMPDEST PUSH2 0xD8A DUP5 DUP3 DUP6 PUSH2 0xD41 JUMP JUMPDEST POP SWAP4 SWAP3 POP POP POP JUMP JUMPDEST PUSH1 0x0 DUP3 PUSH1 0x1F DUP4 ADD SLT PUSH2 0xDA7 JUMPI PUSH2 0xDA6 PUSH2 0xC3F JUMP JUMPDEST JUMPDEST DUP2 CALLDATALOAD PUSH2 0xDB7 DUP5 DUP3 PUSH1 0x20 DUP7 ADD PUSH2 0xD50 JUMP JUMPDEST SWAP2 POP POP SWAP3 SWAP2 POP POP JUMP JUMPDEST PUSH1 0x0 PUSH8 0xFFFFFFFFFFFFFFFF DUP3 GT ISZERO PUSH2 0xDDB JUMPI PUSH2 0xDDA PUSH2 0xC55 JUMP JUMPDEST JUMPDEST PUSH1 0x20 DUP3 MUL SWAP1 POP PUSH1 0x20 DUP2 ADD SWAP1 POP SWAP2 SWAP1 POP JUMP JUMPDEST PUSH1 0x0 PUSH1 0x40 DUP3 DUP5 SUB SLT ISZERO PUSH2 0xE02 JUMPI PUSH2 0xE01 PUSH2 0xD01 JUMP JUMPDEST JUMPDEST PUSH2 0xE0C PUSH1 0x40 PUSH2 0xCB5 JUMP JUMPDEST SWAP1 POP PUSH1 0x0 PUSH2 0xE1C DUP5 DUP3 DUP6 ADD PUSH2 0xBA1 JUMP JUMPDEST PUSH1 0x0 DUP4 ADD MSTORE POP PUSH1 0x20 PUSH2 0xE30 DUP5 DUP3 DUP6 ADD PUSH2 0xBD7 JUMP JUMPDEST PUSH1 0x20 DUP4 ADD MSTORE POP SWAP3 SWAP2 POP POP JUMP JUMPDEST PUSH1 0x0 PUSH2 0xE4F PUSH2 0xE4A DUP5 PUSH2 0xDC0 JUMP JUMPDEST PUSH2 0xCB5 JUMP JUMPDEST SWAP1 POP DUP1 DUP4 DUP3 MSTORE PUSH1 0x20 DUP3 ADD SWAP1 POP PUSH1 0x40 DUP5 MUL DUP4 ADD DUP6 DUP2 GT ISZERO PUSH2 0xE72 JUMPI PUSH2 0xE71 PUSH2 0xCFC JUMP JUMPDEST JUMPDEST DUP4 JUMPDEST DUP2 DUP2 LT ISZERO PUSH2 0xE9B JUMPI DUP1 PUSH2 0xE87 DUP9 DUP3 PUSH2 0xDEC JUMP JUMPDEST DUP5 MSTORE PUSH1 0x20 DUP5 ADD SWAP4 POP POP PUSH1 0x40 DUP2 ADD SWAP1 POP PUSH2 0xE74 JUMP JUMPDEST POP POP POP SWAP4 SWAP3 POP POP POP JUMP JUMPDEST PUSH1 0x0 DUP3 PUSH1 0x1F DUP4 ADD SLT PUSH2 0xEBA JUMPI PUSH2 0xEB9 PUSH2 0xC3F JUMP JUMPDEST JUMPDEST DUP2 CALLDATALOAD PUSH2 0xECA DUP5 DUP3 PUSH1 0x20 DUP7 ADD PUSH2 0xE3C JUMP JUMPDEST SWAP2 POP POP SWAP3 SWAP2 POP POP JUMP JUMPDEST PUSH1 0x0 PUSH1 0xA0 DUP3 DUP5 SUB SLT ISZERO PUSH2 0xEE9 JUMPI PUSH2 0xEE8 PUSH2 0xD01 JUMP JUMPDEST JUMPDEST PUSH2 0xEF3 PUSH1 0xA0 PUSH2 0xCB5 JUMP JUMPDEST SWAP1 POP PUSH1 0x0 DUP3 ADD CALLDATALOAD PUSH8 0xFFFFFFFFFFFFFFFF DUP2 GT ISZERO PUSH2 0xF13 JUMPI PUSH2 0xF12 PUSH2 0xD06 JUMP JUMPDEST JUMPDEST PUSH2 0xF1F DUP5 DUP3 DUP6 ADD PUSH2 0xD92 JUMP JUMPDEST PUSH1 0x0 DUP4 ADD MSTORE POP PUSH1 0x20 DUP3 ADD CALLDATALOAD PUSH8 0xFFFFFFFFFFFFFFFF DUP2 GT ISZERO PUSH2 0xF43 JUMPI PUSH2 0xF42 PUSH2 0xD06 JUMP JUMPDEST JUMPDEST PUSH2 0xF4F DUP5 DUP3 DUP6 ADD PUSH2 0xD92 JUMP JUMPDEST PUSH1 0x20 DUP4 ADD MSTORE POP PUSH1 0x40 DUP3 ADD CALLDATALOAD PUSH8 0xFFFFFFFFFFFFFFFF DUP2 GT ISZERO PUSH2 0xF73 JUMPI PUSH2 0xF72 PUSH2 0xD06 JUMP JUMPDEST JUMPDEST PUSH2 0xF7F DUP5 DUP3 DUP6 ADD PUSH2 0xEA5 JUMP JUMPDEST PUSH1 0x40 DUP4 ADD MSTORE POP PUSH1 0x60 PUSH2 0xF93 DUP5 DUP3 DUP6 ADD PUSH2 0xBA1 JUMP JUMPDEST PUSH1 0x60 DUP4 ADD MSTORE POP PUSH1 0x80 DUP3 ADD CALLDATALOAD PUSH8 0xFFFFFFFFFFFFFFFF DUP2 GT ISZERO PUSH2 0xFB7 JUMPI PUSH2 0xFB6 PUSH2 0xD06 JUMP JUMPDEST JUMPDEST PUSH2 0xFC3 DUP5 DUP3 DUP6 ADD PUSH2 0xD92 JUMP JUMPDEST PUSH1 0x80 DUP4 ADD MSTORE POP SWAP3 SWAP2 POP POP JUMP JUMPDEST PUSH1 0x0 PUSH2 0xFE2 PUSH2 0xFDD DUP5 PUSH2 0xCD0 JUMP JUMPDEST PUSH2 0xCB5 JUMP JUMPDEST SWAP1 POP DUP1 DUP4 DUP3 MSTORE PUSH1 0x20 DUP3 ADD SWAP1 POP PUSH1 0x20 DUP5 MUL DUP4 ADD DUP6 DUP2 GT ISZERO PUSH2 0x1005 JUMPI PUSH2 0x1004 PUSH2 0xCFC JUMP JUMPDEST JUMPDEST DUP4 JUMPDEST DUP2 DUP2 LT ISZERO PUSH2 0x104C JUMPI DUP1 CALLDATALOAD PUSH8 0xFFFFFFFFFFFFFFFF DUP2 GT ISZERO PUSH2 0x102A JUMPI PUSH2 0x1029 PUSH2 0xC3F JUMP JUMPDEST JUMPDEST DUP1 DUP7 ADD PUSH2 0x1037 DUP10 DUP3 PUSH2 0xED3 JUMP JUMPDEST DUP6 MSTORE PUSH1 0x20 DUP6 ADD SWAP5 POP POP POP PUSH1 0x20 DUP2 ADD SWAP1 POP PUSH2 0x1007 JUMP JUMPDEST POP POP POP SWAP4 SWAP3 POP POP POP JUMP JUMPDEST PUSH1 0x0 DUP3 PUSH1 0x1F DUP4 ADD SLT PUSH2 0x106B JUMPI PUSH2 0x106A PUSH2 0xC3F JUMP JUMPDEST JUMPDEST DUP2 CALLDATALOAD PUSH2 0x107B DUP5 DUP3 PUSH1 0x20 DUP7 ADD PUSH2 0xFCF JUMP JUMPDEST SWAP2 POP POP SWAP3 SWAP2 POP POP JUMP JUMPDEST PUSH1 0x0 PUSH8 0xFFFFFFFFFFFFFFFF DUP3 GT ISZERO PUSH2 0x109F JUMPI PUSH2 0x109E PUSH2 0xC55 JUMP JUMPDEST JUMPDEST PUSH1 0x20 DUP3 MUL SWAP1 POP PUSH1 0x20 DUP2 ADD SWAP1 POP SWAP2 SWAP1 POP JUMP JUMPDEST PUSH1 0x0 PUSH8 0xFFFFFFFFFFFFFFFF DUP3 AND SWAP1 POP SWAP2 SWAP1 POP JUMP JUMPDEST PUSH2 0x10CD DUP2 PUSH2 0x10B0 JUMP JUMPDEST DUP2 EQ PUSH2 0x10D8 JUMPI PUSH1 0x0 DUP1 REVERT JUMPDEST POP JUMP JUMPDEST PUSH1 0x0 DUP2 CALLDATALOAD SWAP1 POP PUSH2 0x10EA DUP2 PUSH2 0x10C4 JUMP JUMPDEST SWAP3 SWAP2 POP POP JUMP JUMPDEST PUSH1 0x0 PUSH2 0x1103 PUSH2 0x10FE DUP5 PUSH2 0x1084 JUMP JUMPDEST PUSH2 0xCB5 JUMP JUMPDEST SWAP1 POP DUP1 DUP4 DUP3 MSTORE PUSH1 0x20 DUP3 ADD SWAP1 POP PUSH1 0x20 DUP5 MUL DUP4 ADD DUP6 DUP2 GT ISZERO PUSH2 0x1126 JUMPI PUSH2 0x1125 PUSH2 0xCFC JUMP JUMPDEST JUMPDEST DUP4 JUMPDEST DUP2 DUP2 LT ISZERO PUSH2 0x114F JUMPI DUP1 PUSH2 0x113B DUP9 DUP3 PUSH2 0x10DB JUMP JUMPDEST DUP5 MSTORE PUSH1 0x20 DUP5 ADD SWAP4 POP POP PUSH1 0x20 DUP2 ADD SWAP1 POP PUSH2 0x1128 JUMP JUMPDEST POP POP POP SWAP4 SWAP3 POP POP POP JUMP JUMPDEST PUSH1 0x0 DUP3 PUSH1 0x1F DUP4 ADD SLT PUSH2 0x116E JUMPI PUSH2 0x116D PUSH2 0xC3F JUMP JUMPDEST JUMPDEST DUP2 CALLDATALOAD PUSH2 0x117E DUP5 DUP3 PUSH1 0x20 DUP7 ADD PUSH2 0x10F0 JUMP JUMPDEST SWAP2 POP POP SWAP3 SWAP2 POP POP JUMP JUMPDEST PUSH1 0x0 DUP1 PUSH1 0x40 DUP4 DUP6 SUB SLT ISZERO PUSH2 0x119E JUMPI PUSH2 0x119D PUSH2 0xB4E JUMP JUMPDEST JUMPDEST PUSH1 0x0 DUP4 ADD CALLDATALOAD PUSH8 0xFFFFFFFFFFFFFFFF DUP2 GT ISZERO PUSH2 0x11BC JUMPI PUSH2 0x11BB PUSH2 0xB53 JUMP JUMPDEST JUMPDEST PUSH2 0x11C8 DUP6 DUP3 DUP7 ADD PUSH2 0x1056 JUMP JUMPDEST SWAP3 POP POP PUSH1 0x20 DUP4 ADD CALLDATALOAD PUSH8 0xFFFFFFFFFFFFFFFF DUP2 GT ISZERO PUSH2 0x11E9 JUMPI PUSH2 0x11E8 PUSH2 0xB53 JUMP JUMPDEST JUMPDEST PUSH2 0x11F5 DUP6 DUP3 DUP7 ADD PUSH2 0x1159 JUMP JUMPDEST SWAP2 POP POP SWAP3 POP SWAP3 SWAP1 POP JUMP JUMPDEST PUSH1 0x0 DUP2 MLOAD SWAP1 POP SWAP2 SWAP1 POP JUMP JUMPDEST PUSH1 0x0 DUP3 DUP3 MSTORE PUSH1 0x20 DUP3 ADD SWAP1 POP SWAP3 SWAP2 POP POP JUMP JUMPDEST PUSH1 0x0 DUP2 SWAP1 POP PUSH1 0x20 DUP3 ADD SWAP1 POP SWAP2 SWAP1 POP JUMP JUMPDEST PUSH1 0x0 DUP2 SWAP1 POP SWAP2 SWAP1 POP JUMP JUMPDEST PUSH2 0x123E DUP2 PUSH2 0x122B JUMP JUMPDEST DUP3 MSTORE POP POP JUMP JUMPDEST PUSH1 0x0 PUSH2 0x1250 DUP4 DUP4 PUSH2 0x1235 JUMP JUMPDEST PUSH1 0x20 DUP4 ADD SWAP1 POP SWAP3 SWAP2 POP POP JUMP JUMPDEST PUSH1 0x0 PUSH1 0x20 DUP3 ADD SWAP1 POP SWAP2 SWAP1 POP JUMP JUMPDEST PUSH1 0x0 PUSH2 0x1274 DUP3 PUSH2 0x11FF JUMP JUMPDEST PUSH2 0x127E DUP2 DUP6 PUSH2 0x120A JUMP JUMPDEST SWAP4 POP PUSH2 0x1289 DUP4 PUSH2 0x121B JUMP JUMPDEST DUP1 PUSH1 0x0 JUMPDEST DUP4 DUP2 LT ISZERO PUSH2 0x12BA JUMPI DUP2 MLOAD PUSH2 0x12A1 DUP9 DUP3 PUSH2 0x1244 JUMP JUMPDEST SWAP8 POP PUSH2 0x12AC DUP4 PUSH2 0x125C JUMP JUMPDEST SWAP3 POP POP PUSH1 0x1 DUP2 ADD SWAP1 POP PUSH2 0x128D JUMP JUMPDEST POP DUP6 SWAP4 POP POP POP POP SWAP3 SWAP2 POP POP JUMP JUMPDEST PUSH1 0x0 PUSH1 0x20 DUP3 ADD SWAP1 POP DUP2 DUP2 SUB PUSH1 0x0 DUP4 ADD MSTORE PUSH2 0x12E1 DUP2 DUP5 PUSH2 0x1269 JUMP JUMPDEST SWAP1 POP SWAP3 SWAP2 POP POP JUMP JUMPDEST PUSH2 0x12F2 DUP2 PUSH2 0xB78 JUMP JUMPDEST DUP3 MSTORE POP POP JUMP JUMPDEST PUSH1 0x0 PUSH1 0x20 DUP3 ADD SWAP1 POP PUSH2 0x130D PUSH1 0x0 DUP4 ADD DUP5 PUSH2 0x12E9 JUMP JUMPDEST SWAP3 SWAP2 POP POP JUMP JUMPDEST PUSH1 0x0 PUSH1 0x20 DUP3 DUP5 SUB SLT ISZERO PUSH2 0x1329 JUMPI PUSH2 0x1328 PUSH2 0xB4E JUMP JUMPDEST JUMPDEST PUSH1 0x0 PUSH2 0x1337 DUP5 DUP3 DUP6 ADD PUSH2 0x10DB JUMP JUMPDEST SWAP2 POP POP SWAP3 SWAP2 POP POP JUMP JUMPDEST PUSH1 0x0 DUP2 ISZERO ISZERO SWAP1 POP SWAP2 SWAP1 POP JUMP JUMPDEST PUSH2 0x1355 DUP2 PUSH2 0x1340 JUMP JUMPDEST DUP3 MSTORE POP POP JUMP JUMPDEST PUSH1 0x0 PUSH1 0x20 DUP3 ADD SWAP1 POP PUSH2 0x1370 PUSH1 0x0 DUP4 ADD DUP5 PUSH2 0x134C JUMP JUMPDEST SWAP3 SWAP2 POP POP JUMP JUMPDEST PUSH1 0x0 PUSH1 0x20 DUP3 DUP5 SUB SLT ISZERO PUSH2 0x138C JUMPI PUSH2 0x138B PUSH2 0xB4E JUMP JUMPDEST JUMPDEST PUSH1 0x0 PUSH2 0x139A DUP5 DUP3 DUP6 ADD PUSH2 0xBA1 JUMP JUMPDEST SWAP2 POP POP SWAP3 SWAP2 POP POP JUMP JUMPDEST PUSH1 0x0 DUP1 PUSH1 0x40 DUP4 DUP6 SUB SLT ISZERO PUSH2 0x13BA JUMPI PUSH2 0x13B9 PUSH2 0xB4E JUMP JUMPDEST JUMPDEST PUSH1 0x0 PUSH2 0x13C8 DUP6 DUP3 DUP7 ADD PUSH2 0xBA1 JUMP JUMPDEST SWAP3 POP POP PUSH1 0x20 PUSH2 0x13D9 DUP6 DUP3 DUP7 ADD PUSH2 0xBD7 JUMP JUMPDEST SWAP2 POP POP SWAP3 POP SWAP3 SWAP1 POP JUMP JUMPDEST PUSH32 0x4E487B7100000000000000000000000000000000000000000000000000000000 PUSH1 0x0 MSTORE PUSH1 0x32 PUSH1 0x4 MSTORE PUSH1 0x24 PUSH1 0x0 REVERT JUMPDEST PUSH32 0x4E487B7100000000000000000000000000000000000000000000000000000000 PUSH1 0x0 MSTORE PUSH1 0x11 PUSH1 0x4 MSTORE PUSH1 0x24 PUSH1 0x0 REVERT JUMPDEST PUSH1 0x0 PUSH2 0x144C DUP3 PUSH2 0xBB6 JUMP JUMPDEST SWAP2 POP PUSH32 0xFFFFFFFFFFFFFFFFFFFFFFFFFFFFFFFFFFFFFFFFFFFFFFFFFFFFFFFFFFFFFFFF DUP3 SUB PUSH2 0x147E JUMPI PUSH2 0x147D PUSH2 0x1412 JUMP JUMPDEST JUMPDEST PUSH1 0x1 DUP3 ADD SWAP1 POP SWAP2 SWAP1 POP JUMP JUMPDEST PUSH2 0x1492 DUP2 PUSH2 0x10B0 JUMP JUMPDEST DUP3 MSTORE POP POP JUMP JUMPDEST PUSH1 0x0 PUSH1 0x20 DUP3 ADD SWAP1 POP PUSH2 0x14AD PUSH1 0x0 DUP4 ADD DUP5 PUSH2 0x1489 JUMP JUMPDEST SWAP3 SWAP2 POP POP JUMP JUMPDEST PUSH2 0x14BC DUP2 PUSH2 0x1340 JUMP JUMPDEST DUP2 EQ PUSH2 0x14C7 JUMPI PUSH1 0x0 DUP1 REVERT JUMPDEST POP JUMP JUMPDEST PUSH1 0x0 DUP2 MLOAD SWAP1 POP PUSH2 0x14D9 DUP2 PUSH2 0x14B3 JUMP JUMPDEST SWAP3 SWAP2 POP POP JUMP JUMPDEST PUSH1 0x0 PUSH1 0x20 DUP3 DUP5 SUB SLT ISZERO PUSH2 0x14F5 JUMPI PUSH2 0x14F4 PUSH2 0xB4E JUMP JUMPDEST JUMPDEST PUSH1 0x0 PUSH2 0x1503 DUP5 DUP3 DUP6 ADD PUSH2 0x14CA JUMP JUMPDEST SWAP2 POP POP SWAP3 SWAP2 POP POP JUMP JUMPDEST PUSH1 0x0 DUP2 SWAP1 POP SWAP3 SWAP2 POP POP JUMP JUMPDEST POP JUMP JUMPDEST PUSH1 0x0 PUSH2 0x1527 PUSH1 0x0 DUP4 PUSH2 0x150C JUMP JUMPDEST SWAP2 POP PUSH2 0x1532 DUP3 PUSH2 0x1517 JUMP JUMPDEST PUSH1 0x0 DUP3 ADD SWAP1 POP SWAP2 SWAP1 POP JUMP JUMPDEST PUSH1 0x0 PUSH2 0x1548 DUP3 PUSH2 0x151A JUMP JUMPDEST SWAP2 POP DUP2 SWAP1 POP SWAP2 SWAP1 POP JUMP JUMPDEST PUSH2 0x155B DUP2 PUSH2 0xBB6 JUMP JUMPDEST DUP3 MSTORE POP POP JUMP JUMPDEST PUSH1 0x0 PUSH1 0x60 DUP3 ADD SWAP1 POP PUSH2 0x1576 PUSH1 0x0 DUP4 ADD DUP7 PUSH2 0x12E9 JUMP JUMPDEST PUSH2 0x1583 PUSH1 0x20 DUP4 ADD DUP6 PUSH2 0x12E9 JUMP JUMPDEST PUSH2 0x1590 PUSH1 0x40 DUP4 ADD DUP5 PUSH2 0x1552 JUMP JUMPDEST SWAP5 SWAP4 POP POP POP POP JUMP JUMPDEST PUSH1 0x0 DUP2 MLOAD SWAP1 POP SWAP2 SWAP1 POP JUMP JUMPDEST PUSH1 0x0 DUP3 DUP3 MSTORE PUSH1 0x20 DUP3 ADD SWAP1 POP SWAP3 SWAP2 POP POP JUMP JUMPDEST PUSH1 0x0 JUMPDEST DUP4 DUP2 LT ISZERO PUSH2 0x15D2 JUMPI DUP1 DUP3 ADD MLOAD DUP2 DUP5 ADD MSTORE PUSH1 0x20 DUP2 ADD SWAP1 POP PUSH2 0x15B7 JUMP JUMPDEST PUSH1 0x0 DUP5 DUP5 ADD MSTORE POP POP POP POP JUMP JUMPDEST PUSH1 0x0 PUSH2 0x15E9 DUP3 PUSH2 0x1598 JUMP JUMPDEST PUSH2 0x15F3 DUP2 DUP6 PUSH2 0x15A3 JUMP JUMPDEST SWAP4 POP PUSH2 0x1603 DUP2 DUP6 PUSH1 0x20 DUP7 ADD PUSH2 0x15B4 JUMP JUMPDEST PUSH2 0x160C DUP2 PUSH2 0xC44 JUMP JUMPDEST DUP5 ADD SWAP2 POP POP SWAP3 SWAP2 POP POP JUMP JUMPDEST PUSH1 0x0 DUP2 MLOAD SWAP1 POP SWAP2 SWAP1 POP JUMP JUMPDEST PUSH1 0x0 DUP3 DUP3 MSTORE PUSH1 0x20 DUP3 ADD SWAP1 POP SWAP3 SWAP2 POP POP JUMP JUMPDEST PUSH1 0x0 DUP2 SWAP1 POP PUSH1 0x20 DUP3 ADD SWAP1 POP SWAP2 SWAP1 POP JUMP JUMPDEST PUSH2 0x164C DUP2 PUSH2 0xB78 JUMP JUMPDEST DUP3 MSTORE POP POP JUMP JUMPDEST PUSH2 0x165B DUP2 PUSH2 0xBB6 JUMP JUMPDEST DUP3 MSTORE POP POP JUMP JUMPDEST PUSH1 0x40 DUP3 ADD PUSH1 0x0 DUP3 ADD MLOAD PUSH2 0x1677 PUSH1 0x0 DUP6 ADD DUP3 PUSH2 0x1643 JUMP JUMPDEST POP PUSH1 0x20 DUP3 ADD MLOAD PUSH2 0x168A PUSH1 0x20 DUP6 ADD DUP3 PUSH2 0x1652 JUMP JUMPDEST POP POP POP POP JUMP JUMPDEST PUSH1 0x0 PUSH2 0x169C DUP4 DUP4 PUSH2 0x1661 JUMP JUMPDEST PUSH1 0x40 DUP4 ADD SWAP1 POP SWAP3 SWAP2 POP POP JUMP JUMPDEST PUSH1 0x0 PUSH1 0x20 DUP3 ADD SWAP1 POP SWAP2 SWAP1 POP JUMP JUMPDEST PUSH1 0x0 PUSH2 0x16C0 DUP3 PUSH2 0x1617 JUMP JUMPDEST PUSH2 0x16CA DUP2 DUP6 PUSH2 0x1622 JUMP JUMPDEST SWAP4 POP PUSH2 0x16D5 DUP4 PUSH2 0x1633 JUMP JUMPDEST DUP1 PUSH1 0x0 JUMPDEST DUP4 DUP2 LT ISZERO PUSH2 0x1706 JUMPI DUP2 MLOAD PUSH2 0x16ED DUP9 DUP3 PUSH2 0x1690 JUMP JUMPDEST SWAP8 POP PUSH2 0x16F8 DUP4 PUSH2 0x16A8 JUMP JUMPDEST SWAP3 POP POP PUSH1 0x1 DUP2 ADD SWAP1 POP PUSH2 0x16D9 JUMP JUMPDEST POP DUP6 SWAP4 POP POP POP POP SWAP3 SWAP2 POP POP JUMP JUMPDEST PUSH1 0x0 PUSH1 0xA0 DUP4 ADD PUSH1 0x0 DUP4 ADD MLOAD DUP5 DUP3 SUB PUSH1 0x0 DUP7 ADD MSTORE PUSH2 0x1730 DUP3 DUP3 PUSH2 0x15DE JUMP JUMPDEST SWAP2 POP POP PUSH1 0x20 DUP4 ADD MLOAD DUP5 DUP3 SUB PUSH1 0x20 DUP7 ADD MSTORE PUSH2 0x174A DUP3 DUP3 PUSH2 0x15DE JUMP JUMPDEST SWAP2 POP POP PUSH1 0x40 DUP4 ADD MLOAD DUP5 DUP3 SUB PUSH1 0x40 DUP7 ADD MSTORE PUSH2 0x1764 DUP3 DUP3 PUSH2 0x16B5 JUMP JUMPDEST SWAP2 POP POP PUSH1 0x60 DUP4 ADD MLOAD PUSH2 0x1779 PUSH1 0x60 DUP7 ADD DUP3 PUSH2 0x1643 JUMP JUMPDEST POP PUSH1 0x80 DUP4 ADD MLOAD DUP5 DUP3 SUB PUSH1 0x80 DUP7 ADD MSTORE PUSH2 0x1791 DUP3 DUP3 PUSH2 0x15DE JUMP JUMPDEST SWAP2 POP POP DUP1 SWAP2 POP POP SWAP3 SWAP2 POP POP JUMP JUMPDEST PUSH1 0x0 PUSH1 0x40 DUP3 ADD SWAP1 POP PUSH2 0x17B3 PUSH1 0x0 DUP4 ADD DUP6 PUSH2 0x1489 JUMP JUMPDEST DUP2 DUP2 SUB PUSH1 0x20 DUP4 ADD MSTORE PUSH2 0x17C5 DUP2 DUP5 PUSH2 0x1713 JUMP JUMPDEST SWAP1 POP SWAP4 SWAP3 POP POP POP JUMP JUMPDEST PUSH1 0x0 DUP2 MLOAD SWAP1 POP PUSH2 0x17DD DUP2 PUSH2 0xBC0 JUMP JUMPDEST SWAP3 SWAP2 POP POP JUMP JUMPDEST PUSH1 0x0 PUSH1 0x20 DUP3 DUP5 SUB SLT ISZERO PUSH2 0x17F9 JUMPI PUSH2 0x17F8 PUSH2 0xB4E JUMP JUMPDEST JUMPDEST PUSH1 0x0 PUSH2 0x1807 DUP5 DUP3 DUP6 ADD PUSH2 0x17CE JUMP JUMPDEST SWAP2 POP POP SWAP3 SWAP2 POP POP JUMP JUMPDEST PUSH2 0x1819 DUP2 PUSH2 0x122B JUMP JUMPDEST DUP2 EQ PUSH2 0x1824 JUMPI PUSH1 0x0 DUP1 REVERT JUMPDEST POP JUMP JUMPDEST PUSH1 0x0 DUP2 MLOAD SWAP1 POP PUSH2 0x1836 DUP2 PUSH2 0x1810 JUMP JUMPDEST SWAP3 SWAP2 POP POP JUMP JUMPDEST PUSH1 0x0 PUSH1 0x20 DUP3 DUP5 SUB SLT ISZERO PUSH2 0x1852 JUMPI PUSH2 0x1851 PUSH2 0xB4E JUMP JUMPDEST JUMPDEST PUSH1 0x0 PUSH2 0x1860 DUP5 DUP3 DUP6 ADD PUSH2 0x1827 JUMP JUMPDEST SWAP2 POP POP SWAP3 SWAP2 POP POP JUMP JUMPDEST PUSH1 0x0 PUSH2 0x1874 DUP3 PUSH2 0xB58 JUMP JUMPDEST SWAP1 POP SWAP2 SWAP1 POP JUMP JUMPDEST PUSH2 0x1884 DUP2 PUSH2 0x1869 JUMP JUMPDEST DUP2 EQ PUSH2 0x188F JUMPI PUSH1 0x0 DUP1 REVERT JUMPDEST POP JUMP JUMPDEST PUSH1 0x0 DUP2 MLOAD SWAP1 POP PUSH2 0x18A1 DUP2 PUSH2 0x187B JUMP JUMPDEST SWAP3 SWAP2 POP POP JUMP JUMPDEST PUSH1 0x0 PUSH1 0xFF DUP3 AND SWAP1 POP SWAP2 SWAP1 POP JUMP JUMPDEST PUSH2 0x18BD DUP2 PUSH2 0x18A7 JUMP JUMPDEST DUP2 EQ PUSH2 0x18C8 JUMPI PUSH1 0x0 DUP1 REVERT JUMPDEST POP JUMP JUMPDEST PUSH1 0x0 DUP2 MLOAD SWAP1 POP PUSH2 0x18DA DUP2 PUSH2 0x18B4 JUMP JUMPDEST SWAP3 SWAP2 POP POP JUMP JUMPDEST PUSH1 0x0 PUSH2 0x18F3 PUSH2 0x18EE DUP5 PUSH2 0xD10 JUMP JUMPDEST PUSH2 0xCB5 JUMP JUMPDEST SWAP1 POP DUP3 DUP2 MSTORE PUSH1 0x20 DUP2 ADD DUP5 DUP5 DUP5 ADD GT ISZERO PUSH2 0x190F JUMPI PUSH2 0x190E PUSH2 0xD0B JUMP JUMPDEST JUMPDEST PUSH2 0x191A DUP5 DUP3 DUP6 PUSH2 0x15B4 JUMP JUMPDEST POP SWAP4 SWAP3 POP POP POP JUMP JUMPDEST PUSH1 0x0 DUP3 PUSH1 0x1F DUP4 ADD SLT PUSH2 0x1937 JUMPI PUSH2 0x1936 PUSH2 0xC3F JUMP JUMPDEST JUMPDEST DUP2 MLOAD PUSH2 0x1947 DUP5 DUP3 PUSH1 0x20 DUP7 ADD PUSH2 0x18E0 JUMP JUMPDEST SWAP2 POP POP SWAP3 SWAP2 POP POP JUMP JUMPDEST PUSH1 0x0 DUP1 PUSH1 0x0 DUP1 PUSH1 0x0 PUSH1 0xA0 DUP7 DUP9 SUB SLT ISZERO PUSH2 0x196C JUMPI PUSH2 0x196B PUSH2 0xB4E JUMP JUMPDEST JUMPDEST PUSH1 0x0 PUSH2 0x197A DUP9 DUP3 DUP10 ADD PUSH2 0x1892 JUMP JUMPDEST SWAP6 POP POP PUSH1 0x20 PUSH2 0x198B DUP9 DUP3 DUP10 ADD PUSH2 0x1892 JUMP JUMPDEST SWAP5 POP POP PUSH1 0x40 PUSH2 0x199C DUP9 DUP3 DUP10 ADD PUSH2 0x1892 JUMP JUMPDEST SWAP4 POP POP PUSH1 0x60 PUSH2 0x19AD DUP9 DUP3 DUP10 ADD PUSH2 0x18CB JUMP JUMPDEST SWAP3 POP POP PUSH1 0x80 DUP7 ADD MLOAD PUSH8 0xFFFFFFFFFFFFFFFF DUP2 GT ISZERO PUSH2 0x19CE JUMPI PUSH2 0x19CD PUSH2 0xB53 JUMP JUMPDEST JUMPDEST PUSH2 0x19DA DUP9 DUP3 DUP10 ADD PUSH2 0x1922 JUMP JUMPDEST SWAP2 POP POP SWAP3 SWAP6 POP SWAP3 SWAP6 SWAP1 SWAP4 POP JUMP JUMPDEST PUSH1 0x0 PUSH1 0x40 DUP3 ADD SWAP1 POP PUSH2 0x19FC PUSH1 0x0 DUP4 ADD DUP6 PUSH2 0x12E9 JUMP JUMPDEST PUSH2 0x1A09 PUSH1 0x20 DUP4 ADD DUP5 PUSH2 0x1552 JUMP JUMPDEST SWAP4 SWAP3 POP POP POP JUMP INVALID LOG2 PUSH5 0x6970667358 0x22 SLT KECCAK256 PUSH19 0x60749D28C6F63F821317490A82201992EBDD17 0xBC PUSH19 0xB5761627E9B20D1AE9B664736F6C6343000814 STOP CALLER LOG2 PUSH5 0x6970667358 0x22 SLT KECCAK256 0xE1 0x27 LOG0 0xC3 ADDMOD SWAP12 DUP7 SELFDESTRUCT PUSH19 0xF5FEF8CF3A35DFBEB9AEB38CBBEBDB42107905 PUSH20 0xA3EA8564736F6C63430008140033000000000000 "},"methodIdentifiers":{"WETH9()":"4aa4a4fc","borrow((address,address,uint256,uint8,bytes))":"95d992c3","ccipReceive((bytes32,uint64,bytes,bytes,(address,uint256)[]))":"85572ffb","close((address,address,uint256,uint8,bytes))":"5beeab33","executeOperation(address[],uint256[],uint256[],address,bytes)":"920f5c84","getRouter()":"b0f479a1","i_link()":"7d253aff","initialize(address,address,address,address)":"f8c8765e","isInitialized()":"392e53cd","owner()":"8da5cb5b","propagator()":"79b29333","renounceOwnership()":"715018a6","supply((address,address,uint256,uint8,bytes))":"2e99f1e4","supportsInterface(bytes4)":"01ffc9a7","transferOwnership(address)":"f2fde38b","vault()":"fbfa77cf","withdraw((address,address,uint256,uint8,bytes))":"528e4e5f"}}}}}