{"contracts/Propagator.sol":{"Propagator":{"abi":[{"inputs":[{"internalType":"address","name":"router","type":"address"},{"internalType":"address","name":"link","type":"address"},{"internalType":"address","name":"owner","type":"address"}],"stateMutability":"nonpayable","type":"constructor"},{"inputs":[{"internalType":"address","name":"owner","type":"address"},{"internalType":"address","name":"target","type":"address"},{"internalType":"uint256","name":"value","type":"uint256"}],"name":"FailedToWithdrawEth","type":"error"},{"inputs":[],"name":"OnlyLeverager","type":"error"},{"inputs":[{"internalType":"address","name":"owner","type":"address"}],"name":"OwnableInvalidOwner","type":"error"},{"inputs":[{"internalType":"address","name":"account","type":"address"}],"name":"OwnableUnauthorizedAccount","type":"error"},{"anonymous":false,"inputs":[{"indexed":true,"internalType":"bytes32","name":"messageId","type":"bytes32"},{"indexed":true,"internalType":"uint64","name":"destinationChainSelector","type":"uint64"},{"indexed":true,"internalType":"address","name":"sender","type":"address"},{"indexed":false,"internalType":"address","name":"lendingProtocol","type":"address"},{"indexed":false,"internalType":"uint256","name":"fees","type":"uint256"}],"name":"ClosePositionMsgSent","type":"event"},{"anonymous":false,"inputs":[{"indexed":true,"internalType":"address","name":"previousOwner","type":"address"},{"indexed":true,"internalType":"address","name":"newOwner","type":"address"}],"name":"OwnershipTransferred","type":"event"},{"inputs":[],"name":"i_link","outputs":[{"internalType":"address","name":"","type":"address"}],"stateMutability":"view","type":"function"},{"inputs":[],"name":"i_router","outputs":[{"internalType":"address","name":"","type":"address"}],"stateMutability":"view","type":"function"},{"inputs":[{"internalType":"uint64","name":"destChainSelector","type":"uint64"}],"name":"isChainSupported","outputs":[{"internalType":"bool","name":"supported","type":"bool"}],"stateMutability":"view","type":"function"},{"inputs":[],"name":"leverager","outputs":[{"internalType":"address","name":"","type":"address"}],"stateMutability":"view","type":"function"},{"inputs":[],"name":"owner","outputs":[{"internalType":"address","name":"","type":"address"}],"stateMutability":"view","type":"function"},{"inputs":[{"components":[{"internalType":"bytes","name":"receiver","type":"bytes"},{"internalType":"bytes","name":"data","type":"bytes"},{"components":[{"internalType":"address","name":"token","type":"address"},{"internalType":"uint256","name":"amount","type":"uint256"}],"internalType":"struct Client.EVMTokenAmount[]","name":"tokenAmounts","type":"tuple[]"},{"internalType":"address","name":"feeToken","type":"address"},{"internalType":"bytes","name":"extraArgs","type":"bytes"}],"internalType":"struct Client.EVM2AnyMessage[]","name":"messages","type":"tuple[]"},{"internalType":"uint64[]","name":"destinationChainSelectors","type":"uint64[]"}],"name":"propagate","outputs":[{"internalType":"bytes32[]","name":"messageIds","type":"bytes32[]"}],"stateMutability":"nonpayable","type":"function"},{"inputs":[],"name":"renounceOwnership","outputs":[],"stateMutability":"nonpayable","type":"function"},{"inputs":[{"internalType":"address","name":"newOwner","type":"address"}],"name":"transferOwnership","outputs":[],"stateMutability":"nonpayable","type":"function"},{"inputs":[{"internalType":"address","name":"to","type":"address"},{"internalType":"uint256","name":"amount","type":"uint256"}],"name":"withdraw","outputs":[],"stateMutability":"nonpayable","type":"function"},{"inputs":[{"internalType":"address","name":"to","type":"address"},{"internalType":"address","name":"token","type":"address"},{"internalType":"uint256","name":"amount","type":"uint256"}],"name":"withdrawToken","outputs":[],"stateMutability":"nonpayable","type":"function"},{"stateMutability":"payable","type":"receive"}],"evm":{"bytecode":{"linkReferences":{},"object":"60e06040523480156200001157600080fd5b5060405162001f1438038062001f1483398181016040528101906200003791906200033a565b80600073ffffffffffffffffffffffffffffffffffffffff168173ffffffffffffffffffffffffffffffffffffffff1603620000ad5760006040517f1e4fbdf7000000000000000000000000000000000000000000000000000000008152600401620000a49190620003a7565b60405180910390fd5b620000be816200020c60201b60201c565b503373ffffffffffffffffffffffffffffffffffffffff1660808173ffffffffffffffffffffffffffffffffffffffff16815250508273ffffffffffffffffffffffffffffffffffffffff1660a08173ffffffffffffffffffffffffffffffffffffffff16815250508173ffffffffffffffffffffffffffffffffffffffff1660c08173ffffffffffffffffffffffffffffffffffffffff168152505060c05173ffffffffffffffffffffffffffffffffffffffff1663095ea7b360a0517fffffffffffffffffffffffffffffffffffffffffffffffffffffffffffffffff6040518363ffffffff1660e01b8152600401620001bc929190620003df565b6020604051808303816000875af1158015620001dc573d6000803e3d6000fd5b505050506040513d601f19601f8201168201806040525081019062000202919062000449565b505050506200047b565b60008060009054906101000a900473ffffffffffffffffffffffffffffffffffffffff169050816000806101000a81548173ffffffffffffffffffffffffffffffffffffffff021916908373ffffffffffffffffffffffffffffffffffffffff1602179055508173ffffffffffffffffffffffffffffffffffffffff168173ffffffffffffffffffffffffffffffffffffffff167f8be0079c531659141344cd1fd0a4f28419497f9722a3daafe3b4186f6b6457e060405160405180910390a35050565b600080fd5b600073ffffffffffffffffffffffffffffffffffffffff82169050919050565b60006200030282620002d5565b9050919050565b6200031481620002f5565b81146200032057600080fd5b50565b600081519050620003348162000309565b92915050565b600080600060608486031215620003565762000355620002d0565b5b6000620003668682870162000323565b9350506020620003798682870162000323565b92505060406200038c8682870162000323565b9150509250925092565b620003a181620002f5565b82525050565b6000602082019050620003be600083018462000396565b92915050565b6000819050919050565b620003d981620003c4565b82525050565b6000604082019050620003f6600083018562000396565b620004056020830184620003ce565b9392505050565b60008115159050919050565b62000423816200040c565b81146200042f57600080fd5b50565b600081519050620004438162000418565b92915050565b600060208284031215620004625762000461620002d0565b5b6000620004728482850162000432565b91505092915050565b60805160a05160c051611a46620004ce600039600061045b015260008181610423015281816104aa015281816107d4015281816108ab01526109510152600081816102cf015261054b0152611a466000f3fe6080604052600436106100955760003560e01c80638da5cb5b116100595780638da5cb5b14610174578063a48a90581461019f578063db3e3461146101dc578063f2fde38b14610207578063f3fef3a3146102305761009c565b806301e33667146100a15780633626454d146100ca578063581bdd1614610107578063715018a6146101325780637d253aff146101495761009c565b3661009c57005b600080fd5b3480156100ad57600080fd5b506100c860048036038101906100c39190610bec565b610259565b005b3480156100d657600080fd5b506100f160048036038101906100ec9190611187565b6102cb565b6040516100fe91906112c7565b60405180910390f35b34801561011357600080fd5b5061011c610421565b60405161012991906112f8565b60405180910390f35b34801561013e57600080fd5b50610147610445565b005b34801561015557600080fd5b5061015e610459565b60405161016b91906112f8565b60405180910390f35b34801561018057600080fd5b5061018961047d565b60405161019691906112f8565b60405180910390f35b3480156101ab57600080fd5b506101c660048036038101906101c19190611313565b6104a6565b6040516101d3919061135b565b60405180910390f35b3480156101e857600080fd5b506101f1610549565b6040516101fe91906112f8565b60405180910390f35b34801561021357600080fd5b5061022e60048036038101906102299190611376565b61056d565b005b34801561023c57600080fd5b50610257600480360381019061025291906113a3565b6105f3565b005b6102616106c4565b600061028c308473ffffffffffffffffffffffffffffffffffffffff1661074b90919063ffffffff16565b90508082111561029a578091505b6102c584838573ffffffffffffffffffffffffffffffffffffffff166107809092919063ffffffff16565b50505050565b60607f000000000000000000000000000000000000000000000000000000000000000073ffffffffffffffffffffffffffffffffffffffff163373ffffffffffffffffffffffffffffffffffffffff1614610352576040517fb32d8c6600000000000000000000000000000000000000000000000000000000815260040160405180910390fd5b825167ffffffffffffffff81111561036d5761036c610c55565b5b60405190808252806020026020018201604052801561039b5781602001602082028036833780820191505090505b50905060005b835181101561041a576103e88482815181106103c0576103bf6113e3565b5b60200260200101518483815181106103db576103da6113e3565b5b60200260200101516107cf565b8282815181106103fb576103fa6113e3565b5b602002602001018181525050808061041290611441565b9150506103a1565b5092915050565b7f000000000000000000000000000000000000000000000000000000000000000081565b61044d6106c4565b6104576000610a78565b565b7f000000000000000000000000000000000000000000000000000000000000000081565b60008060009054906101000a900473ffffffffffffffffffffffffffffffffffffffff16905090565b60007f000000000000000000000000000000000000000000000000000000000000000073ffffffffffffffffffffffffffffffffffffffff1663a48a9058836040518263ffffffff1660e01b81526004016105019190611498565b602060405180830381865afa15801561051e573d6000803e3d6000fd5b505050506040513d601f19601f8201168201806040525081019061054291906114df565b9050919050565b7f000000000000000000000000000000000000000000000000000000000000000081565b6105756106c4565b600073ffffffffffffffffffffffffffffffffffffffff168173ffffffffffffffffffffffffffffffffffffffff16036105e75760006040517f1e4fbdf70000000000000000000000000000000000000000000000000000000081526004016105de91906112f8565b60405180910390fd5b6105f081610a78565b50565b6105fb6106c4565b60004790508082111561060c578091505b60008373ffffffffffffffffffffffffffffffffffffffff16836040516106329061153d565b60006040518083038185875af1925050503d806000811461066f576040519150601f19603f3d011682016040523d82523d6000602084013e610674565b606091505b50509050806106be573384846040517f9d11f5630000000000000000000000000000000000000000000000000000000081526004016106b593929190611561565b60405180910390fd5b50505050565b6106cc610b3c565b73ffffffffffffffffffffffffffffffffffffffff166106ea61047d565b73ffffffffffffffffffffffffffffffffffffffff16146107495761070d610b3c565b6040517f118cdaa700000000000000000000000000000000000000000000000000000000815260040161074091906112f8565b60405180910390fd5b565b6000816014526f70a0823100000000000000000000000060005260208060246010865afa601f3d111660205102905092915050565b81601452806034526fa9059cbb00000000000000000000000060005260206000604460106000875af13d1560016000511417166107c5576390b8ec186000526004601cfd5b6000603452505050565b6000807f000000000000000000000000000000000000000000000000000000000000000073ffffffffffffffffffffffffffffffffffffffff166320487ded84866040518363ffffffff1660e01b815260040161082d92919061179e565b602060405180830381865afa15801561084a573d6000803e3d6000fd5b505050506040513d601f19601f8201168201806040525081019061086e91906117e3565b905060008073ffffffffffffffffffffffffffffffffffffffff16856060015173ffffffffffffffffffffffffffffffffffffffff160361094f577f000000000000000000000000000000000000000000000000000000000000000073ffffffffffffffffffffffffffffffffffffffff166396f4e9f98386886040518463ffffffff1660e01b815260040161090592919061179e565b60206040518083038185885af1158015610923573d6000803e3d6000fd5b50505050506040513d601f19601f82011682018060405250810190610948919061183c565b90506109f0565b7f000000000000000000000000000000000000000000000000000000000000000073ffffffffffffffffffffffffffffffffffffffff166396f4e9f985876040518363ffffffff1660e01b81526004016109aa92919061179e565b6020604051808303816000875af11580156109c9573d6000803e3d6000fd5b505050506040513d601f19601f820116820180604052508101906109ed919061183c565b90505b60008560200151806020019051810190610a0a9190611950565b5050505090508073ffffffffffffffffffffffffffffffffffffffff168567ffffffffffffffff16837fbb84df71a0e51d82ff2e818a77257c7a05d8ea1bbcf265b377fd30d8e9e790213087604051610a649291906119e7565b60405180910390a481935050505092915050565b60008060009054906101000a900473ffffffffffffffffffffffffffffffffffffffff169050816000806101000a81548173ffffffffffffffffffffffffffffffffffffffff021916908373ffffffffffffffffffffffffffffffffffffffff1602179055508173ffffffffffffffffffffffffffffffffffffffff168173ffffffffffffffffffffffffffffffffffffffff167f8be0079c531659141344cd1fd0a4f28419497f9722a3daafe3b4186f6b6457e060405160405180910390a35050565b600033905090565b6000604051905090565b600080fd5b600080fd5b600073ffffffffffffffffffffffffffffffffffffffff82169050919050565b6000610b8382610b58565b9050919050565b610b9381610b78565b8114610b9e57600080fd5b50565b600081359050610bb081610b8a565b92915050565b6000819050919050565b610bc981610bb6565b8114610bd457600080fd5b50565b600081359050610be681610bc0565b92915050565b600080600060608486031215610c0557610c04610b4e565b5b6000610c1386828701610ba1565b9350506020610c2486828701610ba1565b9250506040610c3586828701610bd7565b9150509250925092565b600080fd5b6000601f19601f8301169050919050565b7f4e487b7100000000000000000000000000000000000000000000000000000000600052604160045260246000fd5b610c8d82610c44565b810181811067ffffffffffffffff82111715610cac57610cab610c55565b5b80604052505050565b6000610cbf610b44565b9050610ccb8282610c84565b919050565b600067ffffffffffffffff821115610ceb57610cea610c55565b5b602082029050602081019050919050565b600080fd5b600080fd5b600080fd5b600080fd5b600067ffffffffffffffff821115610d2b57610d2a610c55565b5b610d3482610c44565b9050602081019050919050565b82818337600083830152505050565b6000610d63610d5e84610d10565b610cb5565b905082815260208101848484011115610d7f57610d7e610d0b565b5b610d8a848285610d41565b509392505050565b600082601f830112610da757610da6610c3f565b5b8135610db7848260208601610d50565b91505092915050565b600067ffffffffffffffff821115610ddb57610dda610c55565b5b602082029050602081019050919050565b600060408284031215610e0257610e01610d01565b5b610e0c6040610cb5565b90506000610e1c84828501610ba1565b6000830152506020610e3084828501610bd7565b60208301525092915050565b6000610e4f610e4a84610dc0565b610cb5565b90508083825260208201905060408402830185811115610e7257610e71610cfc565b5b835b81811015610e9b5780610e878882610dec565b845260208401935050604081019050610e74565b5050509392505050565b600082601f830112610eba57610eb9610c3f565b5b8135610eca848260208601610e3c565b91505092915050565b600060a08284031215610ee957610ee8610d01565b5b610ef360a0610cb5565b9050600082013567ffffffffffffffff811115610f1357610f12610d06565b5b610f1f84828501610d92565b600083015250602082013567ffffffffffffffff811115610f4357610f42610d06565b5b610f4f84828501610d92565b602083015250604082013567ffffffffffffffff811115610f7357610f72610d06565b5b610f7f84828501610ea5565b6040830152506060610f9384828501610ba1565b606083015250608082013567ffffffffffffffff811115610fb757610fb6610d06565b5b610fc384828501610d92565b60808301525092915050565b6000610fe2610fdd84610cd0565b610cb5565b9050808382526020820190506020840283018581111561100557611004610cfc565b5b835b8181101561104c57803567ffffffffffffffff81111561102a57611029610c3f565b5b8086016110378982610ed3565b85526020850194505050602081019050611007565b5050509392505050565b600082601f83011261106b5761106a610c3f565b5b813561107b848260208601610fcf565b91505092915050565b600067ffffffffffffffff82111561109f5761109e610c55565b5b602082029050602081019050919050565b600067ffffffffffffffff82169050919050565b6110cd816110b0565b81146110d857600080fd5b50565b6000813590506110ea816110c4565b92915050565b60006111036110fe84611084565b610cb5565b9050808382526020820190506020840283018581111561112657611125610cfc565b5b835b8181101561114f578061113b88826110db565b845260208401935050602081019050611128565b5050509392505050565b600082601f83011261116e5761116d610c3f565b5b813561117e8482602086016110f0565b91505092915050565b6000806040838503121561119e5761119d610b4e565b5b600083013567ffffffffffffffff8111156111bc576111bb610b53565b5b6111c885828601611056565b925050602083013567ffffffffffffffff8111156111e9576111e8610b53565b5b6111f585828601611159565b9150509250929050565b600081519050919050565b600082825260208201905092915050565b6000819050602082019050919050565b6000819050919050565b61123e8161122b565b82525050565b60006112508383611235565b60208301905092915050565b6000602082019050919050565b6000611274826111ff565b61127e818561120a565b93506112898361121b565b8060005b838110156112ba5781516112a18882611244565b97506112ac8361125c565b92505060018101905061128d565b5085935050505092915050565b600060208201905081810360008301526112e18184611269565b905092915050565b6112f281610b78565b82525050565b600060208201905061130d60008301846112e9565b92915050565b60006020828403121561132957611328610b4e565b5b6000611337848285016110db565b91505092915050565b60008115159050919050565b61135581611340565b82525050565b6000602082019050611370600083018461134c565b92915050565b60006020828403121561138c5761138b610b4e565b5b600061139a84828501610ba1565b91505092915050565b600080604083850312156113ba576113b9610b4e565b5b60006113c885828601610ba1565b92505060206113d985828601610bd7565b9150509250929050565b7f4e487b7100000000000000000000000000000000000000000000000000000000600052603260045260246000fd5b7f4e487b7100000000000000000000000000000000000000000000000000000000600052601160045260246000fd5b600061144c82610bb6565b91507fffffffffffffffffffffffffffffffffffffffffffffffffffffffffffffffff820361147e5761147d611412565b5b600182019050919050565b611492816110b0565b82525050565b60006020820190506114ad6000830184611489565b92915050565b6114bc81611340565b81146114c757600080fd5b50565b6000815190506114d9816114b3565b92915050565b6000602082840312156114f5576114f4610b4e565b5b6000611503848285016114ca565b91505092915050565b600081905092915050565b50565b600061152760008361150c565b915061153282611517565b600082019050919050565b60006115488261151a565b9150819050919050565b61155b81610bb6565b82525050565b600060608201905061157660008301866112e9565b61158360208301856112e9565b6115906040830184611552565b949350505050565b600081519050919050565b600082825260208201905092915050565b60005b838110156115d25780820151818401526020810190506115b7565b60008484015250505050565b60006115e982611598565b6115f381856115a3565b93506116038185602086016115b4565b61160c81610c44565b840191505092915050565b600081519050919050565b600082825260208201905092915050565b6000819050602082019050919050565b61164c81610b78565b82525050565b61165b81610bb6565b82525050565b6040820160008201516116776000850182611643565b50602082015161168a6020850182611652565b50505050565b600061169c8383611661565b60408301905092915050565b6000602082019050919050565b60006116c082611617565b6116ca8185611622565b93506116d583611633565b8060005b838110156117065781516116ed8882611690565b97506116f8836116a8565b9250506001810190506116d9565b5085935050505092915050565b600060a083016000830151848203600086015261173082826115de565b9150506020830151848203602086015261174a82826115de565b9150506040830151848203604086015261176482826116b5565b91505060608301516117796060860182611643565b506080830151848203608086015261179182826115de565b9150508091505092915050565b60006040820190506117b36000830185611489565b81810360208301526117c58184611713565b90509392505050565b6000815190506117dd81610bc0565b92915050565b6000602082840312156117f9576117f8610b4e565b5b6000611807848285016117ce565b91505092915050565b6118198161122b565b811461182457600080fd5b50565b60008151905061183681611810565b92915050565b60006020828403121561185257611851610b4e565b5b600061186084828501611827565b91505092915050565b600061187482610b58565b9050919050565b61188481611869565b811461188f57600080fd5b50565b6000815190506118a18161187b565b92915050565b600060ff82169050919050565b6118bd816118a7565b81146118c857600080fd5b50565b6000815190506118da816118b4565b92915050565b60006118f36118ee84610d10565b610cb5565b90508281526020810184848401111561190f5761190e610d0b565b5b61191a8482856115b4565b509392505050565b600082601f83011261193757611936610c3f565b5b81516119478482602086016118e0565b91505092915050565b600080600080600060a0868803121561196c5761196b610b4e565b5b600061197a88828901611892565b955050602061198b88828901611892565b945050604061199c88828901611892565b93505060606119ad888289016118cb565b925050608086015167ffffffffffffffff8111156119ce576119cd610b53565b5b6119da88828901611922565b9150509295509295909350565b60006040820190506119fc60008301856112e9565b611a096020830184611552565b939250505056fea26469706673582212207260749d28c6f63f821317490a82201992ebdd17bc72b5761627e9b20d1ae9b664736f6c63430008140033","opcodes":"PUSH1 0xE0 PUSH1 0x40 MSTORE CALLVALUE DUP1 ISZERO PUSH3 0x11 JUMPI PUSH1 0x0 DUP1 REVERT JUMPDEST POP PUSH1 0x40 MLOAD PUSH3 0x1F14 CODESIZE SUB DUP1 PUSH3 0x1F14 DUP4 CODECOPY DUP2 DUP2 ADD PUSH1 0x40 MSTORE DUP2 ADD SWAP1 PUSH3 0x37 SWAP2 SWAP1 PUSH3 0x33A JUMP JUMPDEST DUP1 PUSH1 0x0 PUSH20 0xFFFFFFFFFFFFFFFFFFFFFFFFFFFFFFFFFFFFFFFF AND DUP2 PUSH20 0xFFFFFFFFFFFFFFFFFFFFFFFFFFFFFFFFFFFFFFFF AND SUB PUSH3 0xAD JUMPI PUSH1 0x0 PUSH1 0x40 MLOAD PUSH32 0x1E4FBDF700000000000000000000000000000000000000000000000000000000 DUP2 MSTORE PUSH1 0x4 ADD PUSH3 0xA4 SWAP2 SWAP1 PUSH3 0x3A7 JUMP JUMPDEST PUSH1 0x40 MLOAD DUP1 SWAP2 SUB SWAP1 REVERT JUMPDEST PUSH3 0xBE DUP2 PUSH3 0x20C PUSH1 0x20 SHL PUSH1 0x20 SHR JUMP JUMPDEST POP CALLER PUSH20 0xFFFFFFFFFFFFFFFFFFFFFFFFFFFFFFFFFFFFFFFF AND PUSH1 0x80 DUP2 PUSH20 0xFFFFFFFFFFFFFFFFFFFFFFFFFFFFFFFFFFFFFFFF AND DUP2 MSTORE POP POP DUP3 PUSH20 0xFFFFFFFFFFFFFFFFFFFFFFFFFFFFFFFFFFFFFFFF AND PUSH1 0xA0 DUP2 PUSH20 0xFFFFFFFFFFFFFFFFFFFFFFFFFFFFFFFFFFFFFFFF AND DUP2 MSTORE POP POP DUP2 PUSH20 0xFFFFFFFFFFFFFFFFFFFFFFFFFFFFFFFFFFFFFFFF AND PUSH1 0xC0 DUP2 PUSH20 0xFFFFFFFFFFFFFFFFFFFFFFFFFFFFFFFFFFFFFFFF AND DUP2 MSTORE POP POP PUSH1 0xC0 MLOAD PUSH20 0xFFFFFFFFFFFFFFFFFFFFFFFFFFFFFFFFFFFFFFFF AND PUSH4 0x95EA7B3 PUSH1 0xA0 MLOAD PUSH32 0xFFFFFFFFFFFFFFFFFFFFFFFFFFFFFFFFFFFFFFFFFFFFFFFFFFFFFFFFFFFFFFFF PUSH1 0x40 MLOAD DUP4 PUSH4 0xFFFFFFFF AND PUSH1 0xE0 SHL DUP2 MSTORE PUSH1 0x4 ADD PUSH3 0x1BC SWAP3 SWAP2 SWAP1 PUSH3 0x3DF JUMP JUMPDEST PUSH1 0x20 PUSH1 0x40 MLOAD DUP1 DUP4 SUB DUP2 PUSH1 0x0 DUP8 GAS CALL ISZERO DUP1 ISZERO PUSH3 0x1DC JUMPI RETURNDATASIZE PUSH1 0x0 DUP1 RETURNDATACOPY RETURNDATASIZE PUSH1 0x0 REVERT JUMPDEST POP POP POP POP PUSH1 0x40 MLOAD RETURNDATASIZE PUSH1 0x1F NOT PUSH1 0x1F DUP3 ADD AND DUP3 ADD DUP1 PUSH1 0x40 MSTORE POP DUP2 ADD SWAP1 PUSH3 0x202 SWAP2 SWAP1 PUSH3 0x449 JUMP JUMPDEST POP POP POP POP PUSH3 0x47B JUMP JUMPDEST PUSH1 0x0 DUP1 PUSH1 0x0 SWAP1 SLOAD SWAP1 PUSH2 0x100 EXP SWAP1 DIV PUSH20 0xFFFFFFFFFFFFFFFFFFFFFFFFFFFFFFFFFFFFFFFF AND SWAP1 POP DUP2 PUSH1 0x0 DUP1 PUSH2 0x100 EXP DUP2 SLOAD DUP2 PUSH20 0xFFFFFFFFFFFFFFFFFFFFFFFFFFFFFFFFFFFFFFFF MUL NOT AND SWAP1 DUP4 PUSH20 0xFFFFFFFFFFFFFFFFFFFFFFFFFFFFFFFFFFFFFFFF AND MUL OR SWAP1 SSTORE POP DUP2 PUSH20 0xFFFFFFFFFFFFFFFFFFFFFFFFFFFFFFFFFFFFFFFF AND DUP2 PUSH20 0xFFFFFFFFFFFFFFFFFFFFFFFFFFFFFFFFFFFFFFFF AND PUSH32 0x8BE0079C531659141344CD1FD0A4F28419497F9722A3DAAFE3B4186F6B6457E0 PUSH1 0x40 MLOAD PUSH1 0x40 MLOAD DUP1 SWAP2 SUB SWAP1 LOG3 POP POP JUMP JUMPDEST PUSH1 0x0 DUP1 REVERT JUMPDEST PUSH1 0x0 PUSH20 0xFFFFFFFFFFFFFFFFFFFFFFFFFFFFFFFFFFFFFFFF DUP3 AND SWAP1 POP SWAP2 SWAP1 POP JUMP JUMPDEST PUSH1 0x0 PUSH3 0x302 DUP3 PUSH3 0x2D5 JUMP JUMPDEST SWAP1 POP SWAP2 SWAP1 POP JUMP JUMPDEST PUSH3 0x314 DUP2 PUSH3 0x2F5 JUMP JUMPDEST DUP2 EQ PUSH3 0x320 JUMPI PUSH1 0x0 DUP1 REVERT JUMPDEST POP JUMP JUMPDEST PUSH1 0x0 DUP2 MLOAD SWAP1 POP PUSH3 0x334 DUP2 PUSH3 0x309 JUMP JUMPDEST SWAP3 SWAP2 POP POP JUMP JUMPDEST PUSH1 0x0 DUP1 PUSH1 0x0 PUSH1 0x60 DUP5 DUP7 SUB SLT ISZERO PUSH3 0x356 JUMPI PUSH3 0x355 PUSH3 0x2D0 JUMP JUMPDEST JUMPDEST PUSH1 0x0 PUSH3 0x366 DUP7 DUP3 DUP8 ADD PUSH3 0x323 JUMP JUMPDEST SWAP4 POP POP PUSH1 0x20 PUSH3 0x379 DUP7 DUP3 DUP8 ADD PUSH3 0x323 JUMP JUMPDEST SWAP3 POP POP PUSH1 0x40 PUSH3 0x38C DUP7 DUP3 DUP8 ADD PUSH3 0x323 JUMP JUMPDEST SWAP2 POP POP SWAP3 POP SWAP3 POP SWAP3 JUMP JUMPDEST PUSH3 0x3A1 DUP2 PUSH3 0x2F5 JUMP JUMPDEST DUP3 MSTORE POP POP JUMP JUMPDEST PUSH1 0x0 PUSH1 0x20 DUP3 ADD SWAP1 POP PUSH3 0x3BE PUSH1 0x0 DUP4 ADD DUP5 PUSH3 0x396 JUMP JUMPDEST SWAP3 SWAP2 POP POP JUMP JUMPDEST PUSH1 0x0 DUP2 SWAP1 POP SWAP2 SWAP1 POP JUMP JUMPDEST PUSH3 0x3D9 DUP2 PUSH3 0x3C4 JUMP JUMPDEST DUP3 MSTORE POP POP JUMP JUMPDEST PUSH1 0x0 PUSH1 0x40 DUP3 ADD SWAP1 POP PUSH3 0x3F6 PUSH1 0x0 DUP4 ADD DUP6 PUSH3 0x396 JUMP JUMPDEST PUSH3 0x405 PUSH1 0x20 DUP4 ADD DUP5 PUSH3 0x3CE JUMP JUMPDEST SWAP4 SWAP3 POP POP POP JUMP JUMPDEST PUSH1 0x0 DUP2 ISZERO ISZERO SWAP1 POP SWAP2 SWAP1 POP JUMP JUMPDEST PUSH3 0x423 DUP2 PUSH3 0x40C JUMP JUMPDEST DUP2 EQ PUSH3 0x42F JUMPI PUSH1 0x0 DUP1 REVERT JUMPDEST POP JUMP JUMPDEST PUSH1 0x0 DUP2 MLOAD SWAP1 POP PUSH3 0x443 DUP2 PUSH3 0x418 JUMP JUMPDEST SWAP3 SWAP2 POP POP JUMP JUMPDEST PUSH1 0x0 PUSH1 0x20 DUP3 DUP5 SUB SLT ISZERO PUSH3 0x462 JUMPI PUSH3 0x461 PUSH3 0x2D0 JUMP JUMPDEST JUMPDEST PUSH1 0x0 PUSH3 0x472 DUP5 DUP3 DUP6 ADD PUSH3 0x432 JUMP JUMPDEST SWAP2 POP POP SWAP3 SWAP2 POP POP JUMP JUMPDEST PUSH1 0x80 MLOAD PUSH1 0xA0 MLOAD PUSH1 0xC0 MLOAD PUSH2 0x1A46 PUSH3 0x4CE PUSH1 0x0 CODECOPY PUSH1 0x0 PUSH2 0x45B ADD MSTORE PUSH1 0x0 DUP2 DUP2 PUSH2 0x423 ADD MSTORE DUP2 DUP2 PUSH2 0x4AA ADD MSTORE DUP2 DUP2 PUSH2 0x7D4 ADD MSTORE DUP2 DUP2 PUSH2 0x8AB ADD MSTORE PUSH2 0x951 ADD MSTORE PUSH1 0x0 DUP2 DUP2 PUSH2 0x2CF ADD MSTORE PUSH2 0x54B ADD MSTORE PUSH2 0x1A46 PUSH1 0x0 RETURN INVALID PUSH1 0x80 PUSH1 0x40 MSTORE PUSH1 0x4 CALLDATASIZE LT PUSH2 0x95 JUMPI PUSH1 0x0 CALLDATALOAD PUSH1 0xE0 SHR DUP1 PUSH4 0x8DA5CB5B GT PUSH2 0x59 JUMPI DUP1 PUSH4 0x8DA5CB5B EQ PUSH2 0x174 JUMPI DUP1 PUSH4 0xA48A9058 EQ PUSH2 0x19F JUMPI DUP1 PUSH4 0xDB3E3461 EQ PUSH2 0x1DC JUMPI DUP1 PUSH4 0xF2FDE38B EQ PUSH2 0x207 JUMPI DUP1 PUSH4 0xF3FEF3A3 EQ PUSH2 0x230 JUMPI PUSH2 0x9C JUMP JUMPDEST DUP1 PUSH4 0x1E33667 EQ PUSH2 0xA1 JUMPI DUP1 PUSH4 0x3626454D EQ PUSH2 0xCA JUMPI DUP1 PUSH4 0x581BDD16 EQ PUSH2 0x107 JUMPI DUP1 PUSH4 0x715018A6 EQ PUSH2 0x132 JUMPI DUP1 PUSH4 0x7D253AFF EQ PUSH2 0x149 JUMPI PUSH2 0x9C JUMP JUMPDEST CALLDATASIZE PUSH2 0x9C JUMPI STOP JUMPDEST PUSH1 0x0 DUP1 REVERT JUMPDEST CALLVALUE DUP1 ISZERO PUSH2 0xAD JUMPI PUSH1 0x0 DUP1 REVERT JUMPDEST POP PUSH2 0xC8 PUSH1 0x4 DUP1 CALLDATASIZE SUB DUP2 ADD SWAP1 PUSH2 0xC3 SWAP2 SWAP1 PUSH2 0xBEC JUMP JUMPDEST PUSH2 0x259 JUMP JUMPDEST STOP JUMPDEST CALLVALUE DUP1 ISZERO PUSH2 0xD6 JUMPI PUSH1 0x0 DUP1 REVERT JUMPDEST POP PUSH2 0xF1 PUSH1 0x4 DUP1 CALLDATASIZE SUB DUP2 ADD SWAP1 PUSH2 0xEC SWAP2 SWAP1 PUSH2 0x1187 JUMP JUMPDEST PUSH2 0x2CB JUMP JUMPDEST PUSH1 0x40 MLOAD PUSH2 0xFE SWAP2 SWAP1 PUSH2 0x12C7 JUMP JUMPDEST PUSH1 0x40 MLOAD DUP1 SWAP2 SUB SWAP1 RETURN JUMPDEST CALLVALUE DUP1 ISZERO PUSH2 0x113 JUMPI PUSH1 0x0 DUP1 REVERT JUMPDEST POP PUSH2 0x11C PUSH2 0x421 JUMP JUMPDEST PUSH1 0x40 MLOAD PUSH2 0x129 SWAP2 SWAP1 PUSH2 0x12F8 JUMP JUMPDEST PUSH1 0x40 MLOAD DUP1 SWAP2 SUB SWAP1 RETURN JUMPDEST CALLVALUE DUP1 ISZERO PUSH2 0x13E JUMPI PUSH1 0x0 DUP1 REVERT JUMPDEST POP PUSH2 0x147 PUSH2 0x445 JUMP JUMPDEST STOP JUMPDEST CALLVALUE DUP1 ISZERO PUSH2 0x155 JUMPI PUSH1 0x0 DUP1 REVERT JUMPDEST POP PUSH2 0x15E PUSH2 0x459 JUMP JUMPDEST PUSH1 0x40 MLOAD PUSH2 0x16B SWAP2 SWAP1 PUSH2 0x12F8 JUMP JUMPDEST PUSH1 0x40 MLOAD DUP1 SWAP2 SUB SWAP1 RETURN JUMPDEST CALLVALUE DUP1 ISZERO PUSH2 0x180 JUMPI PUSH1 0x0 DUP1 REVERT JUMPDEST POP PUSH2 0x189 PUSH2 0x47D JUMP JUMPDEST PUSH1 0x40 MLOAD PUSH2 0x196 SWAP2 SWAP1 PUSH2 0x12F8 JUMP JUMPDEST PUSH1 0x40 MLOAD DUP1 SWAP2 SUB SWAP1 RETURN JUMPDEST CALLVALUE DUP1 ISZERO PUSH2 0x1AB JUMPI PUSH1 0x0 DUP1 REVERT JUMPDEST POP PUSH2 0x1C6 PUSH1 0x4 DUP1 CALLDATASIZE SUB DUP2 ADD SWAP1 PUSH2 0x1C1 SWAP2 SWAP1 PUSH2 0x1313 JUMP JUMPDEST PUSH2 0x4A6 JUMP JUMPDEST PUSH1 0x40 MLOAD PUSH2 0x1D3 SWAP2 SWAP1 PUSH2 0x135B JUMP JUMPDEST PUSH1 0x40 MLOAD DUP1 SWAP2 SUB SWAP1 RETURN JUMPDEST CALLVALUE DUP1 ISZERO PUSH2 0x1E8 JUMPI PUSH1 0x0 DUP1 REVERT JUMPDEST POP PUSH2 0x1F1 PUSH2 0x549 JUMP JUMPDEST PUSH1 0x40 MLOAD PUSH2 0x1FE SWAP2 SWAP1 PUSH2 0x12F8 JUMP JUMPDEST PUSH1 0x40 MLOAD DUP1 SWAP2 SUB SWAP1 RETURN JUMPDEST CALLVALUE DUP1 ISZERO PUSH2 0x213 JUMPI PUSH1 0x0 DUP1 REVERT JUMPDEST POP PUSH2 0x22E PUSH1 0x4 DUP1 CALLDATASIZE SUB DUP2 ADD SWAP1 PUSH2 0x229 SWAP2 SWAP1 PUSH2 0x1376 JUMP JUMPDEST PUSH2 0x56D JUMP JUMPDEST STOP JUMPDEST CALLVALUE DUP1 ISZERO PUSH2 0x23C JUMPI PUSH1 0x0 DUP1 REVERT JUMPDEST POP PUSH2 0x257 PUSH1 0x4 DUP1 CALLDATASIZE SUB DUP2 ADD SWAP1 PUSH2 0x252 SWAP2 SWAP1 PUSH2 0x13A3 JUMP JUMPDEST PUSH2 0x5F3 JUMP JUMPDEST STOP JUMPDEST PUSH2 0x261 PUSH2 0x6C4 JUMP JUMPDEST PUSH1 0x0 PUSH2 0x28C ADDRESS DUP5 PUSH20 0xFFFFFFFFFFFFFFFFFFFFFFFFFFFFFFFFFFFFFFFF AND PUSH2 0x74B SWAP1 SWAP2 SWAP1 PUSH4 0xFFFFFFFF AND JUMP JUMPDEST SWAP1 POP DUP1 DUP3 GT ISZERO PUSH2 0x29A JUMPI DUP1 SWAP2 POP JUMPDEST PUSH2 0x2C5 DUP5 DUP4 DUP6 PUSH20 0xFFFFFFFFFFFFFFFFFFFFFFFFFFFFFFFFFFFFFFFF AND PUSH2 0x780 SWAP1 SWAP3 SWAP2 SWAP1 PUSH4 0xFFFFFFFF AND JUMP JUMPDEST POP POP POP POP JUMP JUMPDEST PUSH1 0x60 PUSH32 0x0 PUSH20 0xFFFFFFFFFFFFFFFFFFFFFFFFFFFFFFFFFFFFFFFF AND CALLER PUSH20 0xFFFFFFFFFFFFFFFFFFFFFFFFFFFFFFFFFFFFFFFF AND EQ PUSH2 0x352 JUMPI PUSH1 0x40 MLOAD PUSH32 0xB32D8C6600000000000000000000000000000000000000000000000000000000 DUP2 MSTORE PUSH1 0x4 ADD PUSH1 0x40 MLOAD DUP1 SWAP2 SUB SWAP1 REVERT JUMPDEST DUP3 MLOAD PUSH8 0xFFFFFFFFFFFFFFFF DUP2 GT ISZERO PUSH2 0x36D JUMPI PUSH2 0x36C PUSH2 0xC55 JUMP JUMPDEST JUMPDEST PUSH1 0x40 MLOAD SWAP1 DUP1 DUP3 MSTORE DUP1 PUSH1 0x20 MUL PUSH1 0x20 ADD DUP3 ADD PUSH1 0x40 MSTORE DUP1 ISZERO PUSH2 0x39B JUMPI DUP2 PUSH1 0x20 ADD PUSH1 0x20 DUP3 MUL DUP1 CALLDATASIZE DUP4 CALLDATACOPY DUP1 DUP3 ADD SWAP2 POP POP SWAP1 POP JUMPDEST POP SWAP1 POP PUSH1 0x0 JUMPDEST DUP4 MLOAD DUP2 LT ISZERO PUSH2 0x41A JUMPI PUSH2 0x3E8 DUP5 DUP3 DUP2 MLOAD DUP2 LT PUSH2 0x3C0 JUMPI PUSH2 0x3BF PUSH2 0x13E3 JUMP JUMPDEST JUMPDEST PUSH1 0x20 MUL PUSH1 0x20 ADD ADD MLOAD DUP5 DUP4 DUP2 MLOAD DUP2 LT PUSH2 0x3DB JUMPI PUSH2 0x3DA PUSH2 0x13E3 JUMP JUMPDEST JUMPDEST PUSH1 0x20 MUL PUSH1 0x20 ADD ADD MLOAD PUSH2 0x7CF JUMP JUMPDEST DUP3 DUP3 DUP2 MLOAD DUP2 LT PUSH2 0x3FB JUMPI PUSH2 0x3FA PUSH2 0x13E3 JUMP JUMPDEST JUMPDEST PUSH1 0x20 MUL PUSH1 0x20 ADD ADD DUP2 DUP2 MSTORE POP POP DUP1 DUP1 PUSH2 0x412 SWAP1 PUSH2 0x1441 JUMP JUMPDEST SWAP2 POP POP PUSH2 0x3A1 JUMP JUMPDEST POP SWAP3 SWAP2 POP POP JUMP JUMPDEST PUSH32 0x0 DUP2 JUMP JUMPDEST PUSH2 0x44D PUSH2 0x6C4 JUMP JUMPDEST PUSH2 0x457 PUSH1 0x0 PUSH2 0xA78 JUMP JUMPDEST JUMP JUMPDEST PUSH32 0x0 DUP2 JUMP JUMPDEST PUSH1 0x0 DUP1 PUSH1 0x0 SWAP1 SLOAD SWAP1 PUSH2 0x100 EXP SWAP1 DIV PUSH20 0xFFFFFFFFFFFFFFFFFFFFFFFFFFFFFFFFFFFFFFFF AND SWAP1 POP SWAP1 JUMP JUMPDEST PUSH1 0x0 PUSH32 0x0 PUSH20 0xFFFFFFFFFFFFFFFFFFFFFFFFFFFFFFFFFFFFFFFF AND PUSH4 0xA48A9058 DUP4 PUSH1 0x40 MLOAD DUP3 PUSH4 0xFFFFFFFF AND PUSH1 0xE0 SHL DUP2 MSTORE PUSH1 0x4 ADD PUSH2 0x501 SWAP2 SWAP1 PUSH2 0x1498 JUMP JUMPDEST PUSH1 0x20 PUSH1 0x40 MLOAD DUP1 DUP4 SUB DUP2 DUP7 GAS STATICCALL ISZERO DUP1 ISZERO PUSH2 0x51E JUMPI RETURNDATASIZE PUSH1 0x0 DUP1 RETURNDATACOPY RETURNDATASIZE PUSH1 0x0 REVERT JUMPDEST POP POP POP POP PUSH1 0x40 MLOAD RETURNDATASIZE PUSH1 0x1F NOT PUSH1 0x1F DUP3 ADD AND DUP3 ADD DUP1 PUSH1 0x40 MSTORE POP DUP2 ADD SWAP1 PUSH2 0x542 SWAP2 SWAP1 PUSH2 0x14DF JUMP JUMPDEST SWAP1 POP SWAP2 SWAP1 POP JUMP JUMPDEST PUSH32 0x0 DUP2 JUMP JUMPDEST PUSH2 0x575 PUSH2 0x6C4 JUMP JUMPDEST PUSH1 0x0 PUSH20 0xFFFFFFFFFFFFFFFFFFFFFFFFFFFFFFFFFFFFFFFF AND DUP2 PUSH20 0xFFFFFFFFFFFFFFFFFFFFFFFFFFFFFFFFFFFFFFFF AND SUB PUSH2 0x5E7 JUMPI PUSH1 0x0 PUSH1 0x40 MLOAD PUSH32 0x1E4FBDF700000000000000000000000000000000000000000000000000000000 DUP2 MSTORE PUSH1 0x4 ADD PUSH2 0x5DE SWAP2 SWAP1 PUSH2 0x12F8 JUMP JUMPDEST PUSH1 0x40 MLOAD DUP1 SWAP2 SUB SWAP1 REVERT JUMPDEST PUSH2 0x5F0 DUP2 PUSH2 0xA78 JUMP JUMPDEST POP JUMP JUMPDEST PUSH2 0x5FB PUSH2 0x6C4 JUMP JUMPDEST PUSH1 0x0 SELFBALANCE SWAP1 POP DUP1 DUP3 GT ISZERO PUSH2 0x60C JUMPI DUP1 SWAP2 POP JUMPDEST PUSH1 0x0 DUP4 PUSH20 0xFFFFFFFFFFFFFFFFFFFFFFFFFFFFFFFFFFFFFFFF AND DUP4 PUSH1 0x40 MLOAD PUSH2 0x632 SWAP1 PUSH2 0x153D JUMP JUMPDEST PUSH1 0x0 PUSH1 0x40 MLOAD DUP1 DUP4 SUB DUP2 DUP6 DUP8 GAS CALL SWAP3 POP POP POP RETURNDATASIZE DUP1 PUSH1 0x0 DUP2 EQ PUSH2 0x66F JUMPI PUSH1 0x40 MLOAD SWAP2 POP PUSH1 0x1F NOT PUSH1 0x3F RETURNDATASIZE ADD AND DUP3 ADD PUSH1 0x40 MSTORE RETURNDATASIZE DUP3 MSTORE RETURNDATASIZE PUSH1 0x0 PUSH1 0x20 DUP5 ADD RETURNDATACOPY PUSH2 0x674 JUMP JUMPDEST PUSH1 0x60 SWAP2 POP JUMPDEST POP POP SWAP1 POP DUP1 PUSH2 0x6BE JUMPI CALLER DUP5 DUP5 PUSH1 0x40 MLOAD PUSH32 0x9D11F56300000000000000000000000000000000000000000000000000000000 DUP2 MSTORE PUSH1 0x4 ADD PUSH2 0x6B5 SWAP4 SWAP3 SWAP2 SWAP1 PUSH2 0x1561 JUMP JUMPDEST PUSH1 0x40 MLOAD DUP1 SWAP2 SUB SWAP1 REVERT JUMPDEST POP POP POP POP JUMP JUMPDEST PUSH2 0x6CC PUSH2 0xB3C JUMP JUMPDEST PUSH20 0xFFFFFFFFFFFFFFFFFFFFFFFFFFFFFFFFFFFFFFFF AND PUSH2 0x6EA PUSH2 0x47D JUMP JUMPDEST PUSH20 0xFFFFFFFFFFFFFFFFFFFFFFFFFFFFFFFFFFFFFFFF AND EQ PUSH2 0x749 JUMPI PUSH2 0x70D PUSH2 0xB3C JUMP JUMPDEST PUSH1 0x40 MLOAD PUSH32 0x118CDAA700000000000000000000000000000000000000000000000000000000 DUP2 MSTORE PUSH1 0x4 ADD PUSH2 0x740 SWAP2 SWAP1 PUSH2 0x12F8 JUMP JUMPDEST PUSH1 0x40 MLOAD DUP1 SWAP2 SUB SWAP1 REVERT JUMPDEST JUMP JUMPDEST PUSH1 0x0 DUP2 PUSH1 0x14 MSTORE PUSH16 0x70A08231000000000000000000000000 PUSH1 0x0 MSTORE PUSH1 0x20 DUP1 PUSH1 0x24 PUSH1 0x10 DUP7 GAS STATICCALL PUSH1 0x1F RETURNDATASIZE GT AND PUSH1 0x20 MLOAD MUL SWAP1 POP SWAP3 SWAP2 POP POP JUMP JUMPDEST DUP2 PUSH1 0x14 MSTORE DUP1 PUSH1 0x34 MSTORE PUSH16 0xA9059CBB000000000000000000000000 PUSH1 0x0 MSTORE PUSH1 0x20 PUSH1 0x0 PUSH1 0x44 PUSH1 0x10 PUSH1 0x0 DUP8 GAS CALL RETURNDATASIZE ISZERO PUSH1 0x1 PUSH1 0x0 MLOAD EQ OR AND PUSH2 0x7C5 JUMPI PUSH4 0x90B8EC18 PUSH1 0x0 MSTORE PUSH1 0x4 PUSH1 0x1C REVERT JUMPDEST PUSH1 0x0 PUSH1 0x34 MSTORE POP POP POP JUMP JUMPDEST PUSH1 0x0 DUP1 PUSH32 0x0 PUSH20 0xFFFFFFFFFFFFFFFFFFFFFFFFFFFFFFFFFFFFFFFF AND PUSH4 0x20487DED DUP5 DUP7 PUSH1 0x40 MLOAD DUP4 PUSH4 0xFFFFFFFF AND PUSH1 0xE0 SHL DUP2 MSTORE PUSH1 0x4 ADD PUSH2 0x82D SWAP3 SWAP2 SWAP1 PUSH2 0x179E JUMP JUMPDEST PUSH1 0x20 PUSH1 0x40 MLOAD DUP1 DUP4 SUB DUP2 DUP7 GAS STATICCALL ISZERO DUP1 ISZERO PUSH2 0x84A JUMPI RETURNDATASIZE PUSH1 0x0 DUP1 RETURNDATACOPY RETURNDATASIZE PUSH1 0x0 REVERT JUMPDEST POP POP POP POP PUSH1 0x40 MLOAD RETURNDATASIZE PUSH1 0x1F NOT PUSH1 0x1F DUP3 ADD AND DUP3 ADD DUP1 PUSH1 0x40 MSTORE POP DUP2 ADD SWAP1 PUSH2 0x86E SWAP2 SWAP1 PUSH2 0x17E3 JUMP JUMPDEST SWAP1 POP PUSH1 0x0 DUP1 PUSH20 0xFFFFFFFFFFFFFFFFFFFFFFFFFFFFFFFFFFFFFFFF AND DUP6 PUSH1 0x60 ADD MLOAD PUSH20 0xFFFFFFFFFFFFFFFFFFFFFFFFFFFFFFFFFFFFFFFF AND SUB PUSH2 0x94F JUMPI PUSH32 0x0 PUSH20 0xFFFFFFFFFFFFFFFFFFFFFFFFFFFFFFFFFFFFFFFF AND PUSH4 0x96F4E9F9 DUP4 DUP7 DUP9 PUSH1 0x40 MLOAD DUP5 PUSH4 0xFFFFFFFF AND PUSH1 0xE0 SHL DUP2 MSTORE PUSH1 0x4 ADD PUSH2 0x905 SWAP3 SWAP2 SWAP1 PUSH2 0x179E JUMP JUMPDEST PUSH1 0x20 PUSH1 0x40 MLOAD DUP1 DUP4 SUB DUP2 DUP6 DUP9 GAS CALL ISZERO DUP1 ISZERO PUSH2 0x923 JUMPI RETURNDATASIZE PUSH1 0x0 DUP1 RETURNDATACOPY RETURNDATASIZE PUSH1 0x0 REVERT JUMPDEST POP POP POP POP POP PUSH1 0x40 MLOAD RETURNDATASIZE PUSH1 0x1F NOT PUSH1 0x1F DUP3 ADD AND DUP3 ADD DUP1 PUSH1 0x40 MSTORE POP DUP2 ADD SWAP1 PUSH2 0x948 SWAP2 SWAP1 PUSH2 0x183C JUMP JUMPDEST SWAP1 POP PUSH2 0x9F0 JUMP JUMPDEST PUSH32 0x0 PUSH20 0xFFFFFFFFFFFFFFFFFFFFFFFFFFFFFFFFFFFFFFFF AND PUSH4 0x96F4E9F9 DUP6 DUP8 PUSH1 0x40 MLOAD DUP4 PUSH4 0xFFFFFFFF AND PUSH1 0xE0 SHL DUP2 MSTORE PUSH1 0x4 ADD PUSH2 0x9AA SWAP3 SWAP2 SWAP1 PUSH2 0x179E JUMP JUMPDEST PUSH1 0x20 PUSH1 0x40 MLOAD DUP1 DUP4 SUB DUP2 PUSH1 0x0 DUP8 GAS CALL ISZERO DUP1 ISZERO PUSH2 0x9C9 JUMPI RETURNDATASIZE PUSH1 0x0 DUP1 RETURNDATACOPY RETURNDATASIZE PUSH1 0x0 REVERT JUMPDEST POP POP POP POP PUSH1 0x40 MLOAD RETURNDATASIZE PUSH1 0x1F NOT PUSH1 0x1F DUP3 ADD AND DUP3 ADD DUP1 PUSH1 0x40 MSTORE POP DUP2 ADD SWAP1 PUSH2 0x9ED SWAP2 SWAP1 PUSH2 0x183C JUMP JUMPDEST SWAP1 POP JUMPDEST PUSH1 0x0 DUP6 PUSH1 0x20 ADD MLOAD DUP1 PUSH1 0x20 ADD SWAP1 MLOAD DUP2 ADD SWAP1 PUSH2 0xA0A SWAP2 SWAP1 PUSH2 0x1950 JUMP JUMPDEST POP POP POP POP SWAP1 POP DUP1 PUSH20 0xFFFFFFFFFFFFFFFFFFFFFFFFFFFFFFFFFFFFFFFF AND DUP6 PUSH8 0xFFFFFFFFFFFFFFFF AND DUP4 PUSH32 0xBB84DF71A0E51D82FF2E818A77257C7A05D8EA1BBCF265B377FD30D8E9E79021 ADDRESS DUP8 PUSH1 0x40 MLOAD PUSH2 0xA64 SWAP3 SWAP2 SWAP1 PUSH2 0x19E7 JUMP JUMPDEST PUSH1 0x40 MLOAD DUP1 SWAP2 SUB SWAP1 LOG4 DUP2 SWAP4 POP POP POP POP SWAP3 SWAP2 POP POP JUMP JUMPDEST PUSH1 0x0 DUP1 PUSH1 0x0 SWAP1 SLOAD SWAP1 PUSH2 0x100 EXP SWAP1 DIV PUSH20 0xFFFFFFFFFFFFFFFFFFFFFFFFFFFFFFFFFFFFFFFF AND SWAP1 POP DUP2 PUSH1 0x0 DUP1 PUSH2 0x100 EXP DUP2 SLOAD DUP2 PUSH20 0xFFFFFFFFFFFFFFFFFFFFFFFFFFFFFFFFFFFFFFFF MUL NOT AND SWAP1 DUP4 PUSH20 0xFFFFFFFFFFFFFFFFFFFFFFFFFFFFFFFFFFFFFFFF AND MUL OR SWAP1 SSTORE POP DUP2 PUSH20 0xFFFFFFFFFFFFFFFFFFFFFFFFFFFFFFFFFFFFFFFF AND DUP2 PUSH20 0xFFFFFFFFFFFFFFFFFFFFFFFFFFFFFFFFFFFFFFFF AND PUSH32 0x8BE0079C531659141344CD1FD0A4F28419497F9722A3DAAFE3B4186F6B6457E0 PUSH1 0x40 MLOAD PUSH1 0x40 MLOAD DUP1 SWAP2 SUB SWAP1 LOG3 POP POP JUMP JUMPDEST PUSH1 0x0 CALLER SWAP1 POP SWAP1 JUMP JUMPDEST PUSH1 0x0 PUSH1 0x40 MLOAD SWAP1 POP SWAP1 JUMP JUMPDEST PUSH1 0x0 DUP1 REVERT JUMPDEST PUSH1 0x0 DUP1 REVERT JUMPDEST PUSH1 0x0 PUSH20 0xFFFFFFFFFFFFFFFFFFFFFFFFFFFFFFFFFFFFFFFF DUP3 AND SWAP1 POP SWAP2 SWAP1 POP JUMP JUMPDEST PUSH1 0x0 PUSH2 0xB83 DUP3 PUSH2 0xB58 JUMP JUMPDEST SWAP1 POP SWAP2 SWAP1 POP JUMP JUMPDEST PUSH2 0xB93 DUP2 PUSH2 0xB78 JUMP JUMPDEST DUP2 EQ PUSH2 0xB9E JUMPI PUSH1 0x0 DUP1 REVERT JUMPDEST POP JUMP JUMPDEST PUSH1 0x0 DUP2 CALLDATALOAD SWAP1 POP PUSH2 0xBB0 DUP2 PUSH2 0xB8A JUMP JUMPDEST SWAP3 SWAP2 POP POP JUMP JUMPDEST PUSH1 0x0 DUP2 SWAP1 POP SWAP2 SWAP1 POP JUMP JUMPDEST PUSH2 0xBC9 DUP2 PUSH2 0xBB6 JUMP JUMPDEST DUP2 EQ PUSH2 0xBD4 JUMPI PUSH1 0x0 DUP1 REVERT JUMPDEST POP JUMP JUMPDEST PUSH1 0x0 DUP2 CALLDATALOAD SWAP1 POP PUSH2 0xBE6 DUP2 PUSH2 0xBC0 JUMP JUMPDEST SWAP3 SWAP2 POP POP JUMP JUMPDEST PUSH1 0x0 DUP1 PUSH1 0x0 PUSH1 0x60 DUP5 DUP7 SUB SLT ISZERO PUSH2 0xC05 JUMPI PUSH2 0xC04 PUSH2 0xB4E JUMP JUMPDEST JUMPDEST PUSH1 0x0 PUSH2 0xC13 DUP7 DUP3 DUP8 ADD PUSH2 0xBA1 JUMP JUMPDEST SWAP4 POP POP PUSH1 0x20 PUSH2 0xC24 DUP7 DUP3 DUP8 ADD PUSH2 0xBA1 JUMP JUMPDEST SWAP3 POP POP PUSH1 0x40 PUSH2 0xC35 DUP7 DUP3 DUP8 ADD PUSH2 0xBD7 JUMP JUMPDEST SWAP2 POP POP SWAP3 POP SWAP3 POP SWAP3 JUMP JUMPDEST PUSH1 0x0 DUP1 REVERT JUMPDEST PUSH1 0x0 PUSH1 0x1F NOT PUSH1 0x1F DUP4 ADD AND SWAP1 POP SWAP2 SWAP1 POP JUMP JUMPDEST PUSH32 0x4E487B7100000000000000000000000000000000000000000000000000000000 PUSH1 0x0 MSTORE PUSH1 0x41 PUSH1 0x4 MSTORE PUSH1 0x24 PUSH1 0x0 REVERT JUMPDEST PUSH2 0xC8D DUP3 PUSH2 0xC44 JUMP JUMPDEST DUP2 ADD DUP2 DUP2 LT PUSH8 0xFFFFFFFFFFFFFFFF DUP3 GT OR ISZERO PUSH2 0xCAC JUMPI PUSH2 0xCAB PUSH2 0xC55 JUMP JUMPDEST JUMPDEST DUP1 PUSH1 0x40 MSTORE POP POP POP JUMP JUMPDEST PUSH1 0x0 PUSH2 0xCBF PUSH2 0xB44 JUMP JUMPDEST SWAP1 POP PUSH2 0xCCB DUP3 DUP3 PUSH2 0xC84 JUMP JUMPDEST SWAP2 SWAP1 POP JUMP JUMPDEST PUSH1 0x0 PUSH8 0xFFFFFFFFFFFFFFFF DUP3 GT ISZERO PUSH2 0xCEB JUMPI PUSH2 0xCEA PUSH2 0xC55 JUMP JUMPDEST JUMPDEST PUSH1 0x20 DUP3 MUL SWAP1 POP PUSH1 0x20 DUP2 ADD SWAP1 POP SWAP2 SWAP1 POP JUMP JUMPDEST PUSH1 0x0 DUP1 REVERT JUMPDEST PUSH1 0x0 DUP1 REVERT JUMPDEST PUSH1 0x0 DUP1 REVERT JUMPDEST PUSH1 0x0 DUP1 REVERT JUMPDEST PUSH1 0x0 PUSH8 0xFFFFFFFFFFFFFFFF DUP3 GT ISZERO PUSH2 0xD2B JUMPI PUSH2 0xD2A PUSH2 0xC55 JUMP JUMPDEST JUMPDEST PUSH2 0xD34 DUP3 PUSH2 0xC44 JUMP JUMPDEST SWAP1 POP PUSH1 0x20 DUP2 ADD SWAP1 POP SWAP2 SWAP1 POP JUMP JUMPDEST DUP3 DUP2 DUP4 CALLDATACOPY PUSH1 0x0 DUP4 DUP4 ADD MSTORE POP POP POP JUMP JUMPDEST PUSH1 0x0 PUSH2 0xD63 PUSH2 0xD5E DUP5 PUSH2 0xD10 JUMP JUMPDEST PUSH2 0xCB5 JUMP JUMPDEST SWAP1 POP DUP3 DUP2 MSTORE PUSH1 0x20 DUP2 ADD DUP5 DUP5 DUP5 ADD GT ISZERO PUSH2 0xD7F JUMPI PUSH2 0xD7E PUSH2 0xD0B JUMP JUMPDEST JUMPDEST PUSH2 0xD8A DUP5 DUP3 DUP6 PUSH2 0xD41 JUMP JUMPDEST POP SWAP4 SWAP3 POP POP POP JUMP JUMPDEST PUSH1 0x0 DUP3 PUSH1 0x1F DUP4 ADD SLT PUSH2 0xDA7 JUMPI PUSH2 0xDA6 PUSH2 0xC3F JUMP JUMPDEST JUMPDEST DUP2 CALLDATALOAD PUSH2 0xDB7 DUP5 DUP3 PUSH1 0x20 DUP7 ADD PUSH2 0xD50 JUMP JUMPDEST SWAP2 POP POP SWAP3 SWAP2 POP POP JUMP JUMPDEST PUSH1 0x0 PUSH8 0xFFFFFFFFFFFFFFFF DUP3 GT ISZERO PUSH2 0xDDB JUMPI PUSH2 0xDDA PUSH2 0xC55 JUMP JUMPDEST JUMPDEST PUSH1 0x20 DUP3 MUL SWAP1 POP PUSH1 0x20 DUP2 ADD SWAP1 POP SWAP2 SWAP1 POP JUMP JUMPDEST PUSH1 0x0 PUSH1 0x40 DUP3 DUP5 SUB SLT ISZERO PUSH2 0xE02 JUMPI PUSH2 0xE01 PUSH2 0xD01 JUMP JUMPDEST JUMPDEST PUSH2 0xE0C PUSH1 0x40 PUSH2 0xCB5 JUMP JUMPDEST SWAP1 POP PUSH1 0x0 PUSH2 0xE1C DUP5 DUP3 DUP6 ADD PUSH2 0xBA1 JUMP JUMPDEST PUSH1 0x0 DUP4 ADD MSTORE POP PUSH1 0x20 PUSH2 0xE30 DUP5 DUP3 DUP6 ADD PUSH2 0xBD7 JUMP JUMPDEST PUSH1 0x20 DUP4 ADD MSTORE POP SWAP3 SWAP2 POP POP JUMP JUMPDEST PUSH1 0x0 PUSH2 0xE4F PUSH2 0xE4A DUP5 PUSH2 0xDC0 JUMP JUMPDEST PUSH2 0xCB5 JUMP JUMPDEST SWAP1 POP DUP1 DUP4 DUP3 MSTORE PUSH1 0x20 DUP3 ADD SWAP1 POP PUSH1 0x40 DUP5 MUL DUP4 ADD DUP6 DUP2 GT ISZERO PUSH2 0xE72 JUMPI PUSH2 0xE71 PUSH2 0xCFC JUMP JUMPDEST JUMPDEST DUP4 JUMPDEST DUP2 DUP2 LT ISZERO PUSH2 0xE9B JUMPI DUP1 PUSH2 0xE87 DUP9 DUP3 PUSH2 0xDEC JUMP JUMPDEST DUP5 MSTORE PUSH1 0x20 DUP5 ADD SWAP4 POP POP PUSH1 0x40 DUP2 ADD SWAP1 POP PUSH2 0xE74 JUMP JUMPDEST POP POP POP SWAP4 SWAP3 POP POP POP JUMP JUMPDEST PUSH1 0x0 DUP3 PUSH1 0x1F DUP4 ADD SLT PUSH2 0xEBA JUMPI PUSH2 0xEB9 PUSH2 0xC3F JUMP JUMPDEST JUMPDEST DUP2 CALLDATALOAD PUSH2 0xECA DUP5 DUP3 PUSH1 0x20 DUP7 ADD PUSH2 0xE3C JUMP JUMPDEST SWAP2 POP POP SWAP3 SWAP2 POP POP JUMP JUMPDEST PUSH1 0x0 PUSH1 0xA0 DUP3 DUP5 SUB SLT ISZERO PUSH2 0xEE9 JUMPI PUSH2 0xEE8 PUSH2 0xD01 JUMP JUMPDEST JUMPDEST PUSH2 0xEF3 PUSH1 0xA0 PUSH2 0xCB5 JUMP JUMPDEST SWAP1 POP PUSH1 0x0 DUP3 ADD CALLDATALOAD PUSH8 0xFFFFFFFFFFFFFFFF DUP2 GT ISZERO PUSH2 0xF13 JUMPI PUSH2 0xF12 PUSH2 0xD06 JUMP JUMPDEST JUMPDEST PUSH2 0xF1F DUP5 DUP3 DUP6 ADD PUSH2 0xD92 JUMP JUMPDEST PUSH1 0x0 DUP4 ADD MSTORE POP PUSH1 0x20 DUP3 ADD CALLDATALOAD PUSH8 0xFFFFFFFFFFFFFFFF DUP2 GT ISZERO PUSH2 0xF43 JUMPI PUSH2 0xF42 PUSH2 0xD06 JUMP JUMPDEST JUMPDEST PUSH2 0xF4F DUP5 DUP3 DUP6 ADD PUSH2 0xD92 JUMP JUMPDEST PUSH1 0x20 DUP4 ADD MSTORE POP PUSH1 0x40 DUP3 ADD CALLDATALOAD PUSH8 0xFFFFFFFFFFFFFFFF DUP2 GT ISZERO PUSH2 0xF73 JUMPI PUSH2 0xF72 PUSH2 0xD06 JUMP JUMPDEST JUMPDEST PUSH2 0xF7F DUP5 DUP3 DUP6 ADD PUSH2 0xEA5 JUMP JUMPDEST PUSH1 0x40 DUP4 ADD MSTORE POP PUSH1 0x60 PUSH2 0xF93 DUP5 DUP3 DUP6 ADD PUSH2 0xBA1 JUMP JUMPDEST PUSH1 0x60 DUP4 ADD MSTORE POP PUSH1 0x80 DUP3 ADD CALLDATALOAD PUSH8 0xFFFFFFFFFFFFFFFF DUP2 GT ISZERO PUSH2 0xFB7 JUMPI PUSH2 0xFB6 PUSH2 0xD06 JUMP JUMPDEST JUMPDEST PUSH2 0xFC3 DUP5 DUP3 DUP6 ADD PUSH2 0xD92 JUMP JUMPDEST PUSH1 0x80 DUP4 ADD MSTORE POP SWAP3 SWAP2 POP POP JUMP JUMPDEST PUSH1 0x0 PUSH2 0xFE2 PUSH2 0xFDD DUP5 PUSH2 0xCD0 JUMP JUMPDEST PUSH2 0xCB5 JUMP JUMPDEST SWAP1 POP DUP1 DUP4 DUP3 MSTORE PUSH1 0x20 DUP3 ADD SWAP1 POP PUSH1 0x20 DUP5 MUL DUP4 ADD DUP6 DUP2 GT ISZERO PUSH2 0x1005 JUMPI PUSH2 0x1004 PUSH2 0xCFC JUMP JUMPDEST JUMPDEST DUP4 JUMPDEST DUP2 DUP2 LT ISZERO PUSH2 0x104C JUMPI DUP1 CALLDATALOAD PUSH8 0xFFFFFFFFFFFFFFFF DUP2 GT ISZERO PUSH2 0x102A JUMPI PUSH2 0x1029 PUSH2 0xC3F JUMP JUMPDEST JUMPDEST DUP1 DUP7 ADD PUSH2 0x1037 DUP10 DUP3 PUSH2 0xED3 JUMP JUMPDEST DUP6 MSTORE PUSH1 0x20 DUP6 ADD SWAP5 POP POP POP PUSH1 0x20 DUP2 ADD SWAP1 POP PUSH2 0x1007 JUMP JUMPDEST POP POP POP SWAP4 SWAP3 POP POP POP JUMP JUMPDEST PUSH1 0x0 DUP3 PUSH1 0x1F DUP4 ADD SLT PUSH2 0x106B JUMPI PUSH2 0x106A PUSH2 0xC3F JUMP JUMPDEST JUMPDEST DUP2 CALLDATALOAD PUSH2 0x107B DUP5 DUP3 PUSH1 0x20 DUP7 ADD PUSH2 0xFCF JUMP JUMPDEST SWAP2 POP POP SWAP3 SWAP2 POP POP JUMP JUMPDEST PUSH1 0x0 PUSH8 0xFFFFFFFFFFFFFFFF DUP3 GT ISZERO PUSH2 0x109F JUMPI PUSH2 0x109E PUSH2 0xC55 JUMP JUMPDEST JUMPDEST PUSH1 0x20 DUP3 MUL SWAP1 POP PUSH1 0x20 DUP2 ADD SWAP1 POP SWAP2 SWAP1 POP JUMP JUMPDEST PUSH1 0x0 PUSH8 0xFFFFFFFFFFFFFFFF DUP3 AND SWAP1 POP SWAP2 SWAP1 POP JUMP JUMPDEST PUSH2 0x10CD DUP2 PUSH2 0x10B0 JUMP JUMPDEST DUP2 EQ PUSH2 0x10D8 JUMPI PUSH1 0x0 DUP1 REVERT JUMPDEST POP JUMP JUMPDEST PUSH1 0x0 DUP2 CALLDATALOAD SWAP1 POP PUSH2 0x10EA DUP2 PUSH2 0x10C4 JUMP JUMPDEST SWAP3 SWAP2 POP POP JUMP JUMPDEST PUSH1 0x0 PUSH2 0x1103 PUSH2 0x10FE DUP5 PUSH2 0x1084 JUMP JUMPDEST PUSH2 0xCB5 JUMP JUMPDEST SWAP1 POP DUP1 DUP4 DUP3 MSTORE PUSH1 0x20 DUP3 ADD SWAP1 POP PUSH1 0x20 DUP5 MUL DUP4 ADD DUP6 DUP2 GT ISZERO PUSH2 0x1126 JUMPI PUSH2 0x1125 PUSH2 0xCFC JUMP JUMPDEST JUMPDEST DUP4 JUMPDEST DUP2 DUP2 LT ISZERO PUSH2 0x114F JUMPI DUP1 PUSH2 0x113B DUP9 DUP3 PUSH2 0x10DB JUMP JUMPDEST DUP5 MSTORE PUSH1 0x20 DUP5 ADD SWAP4 POP POP PUSH1 0x20 DUP2 ADD SWAP1 POP PUSH2 0x1128 JUMP JUMPDEST POP POP POP SWAP4 SWAP3 POP POP POP JUMP JUMPDEST PUSH1 0x0 DUP3 PUSH1 0x1F DUP4 ADD SLT PUSH2 0x116E JUMPI PUSH2 0x116D PUSH2 0xC3F JUMP JUMPDEST JUMPDEST DUP2 CALLDATALOAD PUSH2 0x117E DUP5 DUP3 PUSH1 0x20 DUP7 ADD PUSH2 0x10F0 JUMP JUMPDEST SWAP2 POP POP SWAP3 SWAP2 POP POP JUMP JUMPDEST PUSH1 0x0 DUP1 PUSH1 0x40 DUP4 DUP6 SUB SLT ISZERO PUSH2 0x119E JUMPI PUSH2 0x119D PUSH2 0xB4E JUMP JUMPDEST JUMPDEST PUSH1 0x0 DUP4 ADD CALLDATALOAD PUSH8 0xFFFFFFFFFFFFFFFF DUP2 GT ISZERO PUSH2 0x11BC JUMPI PUSH2 0x11BB PUSH2 0xB53 JUMP JUMPDEST JUMPDEST PUSH2 0x11C8 DUP6 DUP3 DUP7 ADD PUSH2 0x1056 JUMP JUMPDEST SWAP3 POP POP PUSH1 0x20 DUP4 ADD CALLDATALOAD PUSH8 0xFFFFFFFFFFFFFFFF DUP2 GT ISZERO PUSH2 0x11E9 JUMPI PUSH2 0x11E8 PUSH2 0xB53 JUMP JUMPDEST JUMPDEST PUSH2 0x11F5 DUP6 DUP3 DUP7 ADD PUSH2 0x1159 JUMP JUMPDEST SWAP2 POP POP SWAP3 POP SWAP3 SWAP1 POP JUMP JUMPDEST PUSH1 0x0 DUP2 MLOAD SWAP1 POP SWAP2 SWAP1 POP JUMP JUMPDEST PUSH1 0x0 DUP3 DUP3 MSTORE PUSH1 0x20 DUP3 ADD SWAP1 POP SWAP3 SWAP2 POP POP JUMP JUMPDEST PUSH1 0x0 DUP2 SWAP1 POP PUSH1 0x20 DUP3 ADD SWAP1 POP SWAP2 SWAP1 POP JUMP JUMPDEST PUSH1 0x0 DUP2 SWAP1 POP SWAP2 SWAP1 POP JUMP JUMPDEST PUSH2 0x123E DUP2 PUSH2 0x122B JUMP JUMPDEST DUP3 MSTORE POP POP JUMP JUMPDEST PUSH1 0x0 PUSH2 0x1250 DUP4 DUP4 PUSH2 0x1235 JUMP JUMPDEST PUSH1 0x20 DUP4 ADD SWAP1 POP SWAP3 SWAP2 POP POP JUMP JUMPDEST PUSH1 0x0 PUSH1 0x20 DUP3 ADD SWAP1 POP SWAP2 SWAP1 POP JUMP JUMPDEST PUSH1 0x0 PUSH2 0x1274 DUP3 PUSH2 0x11FF JUMP JUMPDEST PUSH2 0x127E DUP2 DUP6 PUSH2 0x120A JUMP JUMPDEST SWAP4 POP PUSH2 0x1289 DUP4 PUSH2 0x121B JUMP JUMPDEST DUP1 PUSH1 0x0 JUMPDEST DUP4 DUP2 LT ISZERO PUSH2 0x12BA JUMPI DUP2 MLOAD PUSH2 0x12A1 DUP9 DUP3 PUSH2 0x1244 JUMP JUMPDEST SWAP8 POP PUSH2 0x12AC DUP4 PUSH2 0x125C JUMP JUMPDEST SWAP3 POP POP PUSH1 0x1 DUP2 ADD SWAP1 POP PUSH2 0x128D JUMP JUMPDEST POP DUP6 SWAP4 POP POP POP POP SWAP3 SWAP2 POP POP JUMP JUMPDEST PUSH1 0x0 PUSH1 0x20 DUP3 ADD SWAP1 POP DUP2 DUP2 SUB PUSH1 0x0 DUP4 ADD MSTORE PUSH2 0x12E1 DUP2 DUP5 PUSH2 0x1269 JUMP JUMPDEST SWAP1 POP SWAP3 SWAP2 POP POP JUMP JUMPDEST PUSH2 0x12F2 DUP2 PUSH2 0xB78 JUMP JUMPDEST DUP3 MSTORE POP POP JUMP JUMPDEST PUSH1 0x0 PUSH1 0x20 DUP3 ADD SWAP1 POP PUSH2 0x130D PUSH1 0x0 DUP4 ADD DUP5 PUSH2 0x12E9 JUMP JUMPDEST SWAP3 SWAP2 POP POP JUMP JUMPDEST PUSH1 0x0 PUSH1 0x20 DUP3 DUP5 SUB SLT ISZERO PUSH2 0x1329 JUMPI PUSH2 0x1328 PUSH2 0xB4E JUMP JUMPDEST JUMPDEST PUSH1 0x0 PUSH2 0x1337 DUP5 DUP3 DUP6 ADD PUSH2 0x10DB JUMP JUMPDEST SWAP2 POP POP SWAP3 SWAP2 POP POP JUMP JUMPDEST PUSH1 0x0 DUP2 ISZERO ISZERO SWAP1 POP SWAP2 SWAP1 POP JUMP JUMPDEST PUSH2 0x1355 DUP2 PUSH2 0x1340 JUMP JUMPDEST DUP3 MSTORE POP POP JUMP JUMPDEST PUSH1 0x0 PUSH1 0x20 DUP3 ADD SWAP1 POP PUSH2 0x1370 PUSH1 0x0 DUP4 ADD DUP5 PUSH2 0x134C JUMP JUMPDEST SWAP3 SWAP2 POP POP JUMP JUMPDEST PUSH1 0x0 PUSH1 0x20 DUP3 DUP5 SUB SLT ISZERO PUSH2 0x138C JUMPI PUSH2 0x138B PUSH2 0xB4E JUMP JUMPDEST JUMPDEST PUSH1 0x0 PUSH2 0x139A DUP5 DUP3 DUP6 ADD PUSH2 0xBA1 JUMP JUMPDEST SWAP2 POP POP SWAP3 SWAP2 POP POP JUMP JUMPDEST PUSH1 0x0 DUP1 PUSH1 0x40 DUP4 DUP6 SUB SLT ISZERO PUSH2 0x13BA JUMPI PUSH2 0x13B9 PUSH2 0xB4E JUMP JUMPDEST JUMPDEST PUSH1 0x0 PUSH2 0x13C8 DUP6 DUP3 DUP7 ADD PUSH2 0xBA1 JUMP JUMPDEST SWAP3 POP POP PUSH1 0x20 PUSH2 0x13D9 DUP6 DUP3 DUP7 ADD PUSH2 0xBD7 JUMP JUMPDEST SWAP2 POP POP SWAP3 POP SWAP3 SWAP1 POP JUMP JUMPDEST PUSH32 0x4E487B7100000000000000000000000000000000000000000000000000000000 PUSH1 0x0 MSTORE PUSH1 0x32 PUSH1 0x4 MSTORE PUSH1 0x24 PUSH1 0x0 REVERT JUMPDEST PUSH32 0x4E487B7100000000000000000000000000000000000000000000000000000000 PUSH1 0x0 MSTORE PUSH1 0x11 PUSH1 0x4 MSTORE PUSH1 0x24 PUSH1 0x0 REVERT JUMPDEST PUSH1 0x0 PUSH2 0x144C DUP3 PUSH2 0xBB6 JUMP JUMPDEST SWAP2 POP PUSH32 0xFFFFFFFFFFFFFFFFFFFFFFFFFFFFFFFFFFFFFFFFFFFFFFFFFFFFFFFFFFFFFFFF DUP3 SUB PUSH2 0x147E JUMPI PUSH2 0x147D PUSH2 0x1412 JUMP JUMPDEST JUMPDEST PUSH1 0x1 DUP3 ADD SWAP1 POP SWAP2 SWAP1 POP JUMP JUMPDEST PUSH2 0x1492 DUP2 PUSH2 0x10B0 JUMP JUMPDEST DUP3 MSTORE POP POP JUMP JUMPDEST PUSH1 0x0 PUSH1 0x20 DUP3 ADD SWAP1 POP PUSH2 0x14AD PUSH1 0x0 DUP4 ADD DUP5 PUSH2 0x1489 JUMP JUMPDEST SWAP3 SWAP2 POP POP JUMP JUMPDEST PUSH2 0x14BC DUP2 PUSH2 0x1340 JUMP JUMPDEST DUP2 EQ PUSH2 0x14C7 JUMPI PUSH1 0x0 DUP1 REVERT JUMPDEST POP JUMP JUMPDEST PUSH1 0x0 DUP2 MLOAD SWAP1 POP PUSH2 0x14D9 DUP2 PUSH2 0x14B3 JUMP JUMPDEST SWAP3 SWAP2 POP POP JUMP JUMPDEST PUSH1 0x0 PUSH1 0x20 DUP3 DUP5 SUB SLT ISZERO PUSH2 0x14F5 JUMPI PUSH2 0x14F4 PUSH2 0xB4E JUMP JUMPDEST JUMPDEST PUSH1 0x0 PUSH2 0x1503 DUP5 DUP3 DUP6 ADD PUSH2 0x14CA JUMP JUMPDEST SWAP2 POP POP SWAP3 SWAP2 POP POP JUMP JUMPDEST PUSH1 0x0 DUP2 SWAP1 POP SWAP3 SWAP2 POP POP JUMP JUMPDEST POP JUMP JUMPDEST PUSH1 0x0 PUSH2 0x1527 PUSH1 0x0 DUP4 PUSH2 0x150C JUMP JUMPDEST SWAP2 POP PUSH2 0x1532 DUP3 PUSH2 0x1517 JUMP JUMPDEST PUSH1 0x0 DUP3 ADD SWAP1 POP SWAP2 SWAP1 POP JUMP JUMPDEST PUSH1 0x0 PUSH2 0x1548 DUP3 PUSH2 0x151A JUMP JUMPDEST SWAP2 POP DUP2 SWAP1 POP SWAP2 SWAP1 POP JUMP JUMPDEST PUSH2 0x155B DUP2 PUSH2 0xBB6 JUMP JUMPDEST DUP3 MSTORE POP POP JUMP JUMPDEST PUSH1 0x0 PUSH1 0x60 DUP3 ADD SWAP1 POP PUSH2 0x1576 PUSH1 0x0 DUP4 ADD DUP7 PUSH2 0x12E9 JUMP JUMPDEST PUSH2 0x1583 PUSH1 0x20 DUP4 ADD DUP6 PUSH2 0x12E9 JUMP JUMPDEST PUSH2 0x1590 PUSH1 0x40 DUP4 ADD DUP5 PUSH2 0x1552 JUMP JUMPDEST SWAP5 SWAP4 POP POP POP POP JUMP JUMPDEST PUSH1 0x0 DUP2 MLOAD SWAP1 POP SWAP2 SWAP1 POP JUMP JUMPDEST PUSH1 0x0 DUP3 DUP3 MSTORE PUSH1 0x20 DUP3 ADD SWAP1 POP SWAP3 SWAP2 POP POP JUMP JUMPDEST PUSH1 0x0 JUMPDEST DUP4 DUP2 LT ISZERO PUSH2 0x15D2 JUMPI DUP1 DUP3 ADD MLOAD DUP2 DUP5 ADD MSTORE PUSH1 0x20 DUP2 ADD SWAP1 POP PUSH2 0x15B7 JUMP JUMPDEST PUSH1 0x0 DUP5 DUP5 ADD MSTORE POP POP POP POP JUMP JUMPDEST PUSH1 0x0 PUSH2 0x15E9 DUP3 PUSH2 0x1598 JUMP JUMPDEST PUSH2 0x15F3 DUP2 DUP6 PUSH2 0x15A3 JUMP JUMPDEST SWAP4 POP PUSH2 0x1603 DUP2 DUP6 PUSH1 0x20 DUP7 ADD PUSH2 0x15B4 JUMP JUMPDEST PUSH2 0x160C DUP2 PUSH2 0xC44 JUMP JUMPDEST DUP5 ADD SWAP2 POP POP SWAP3 SWAP2 POP POP JUMP JUMPDEST PUSH1 0x0 DUP2 MLOAD SWAP1 POP SWAP2 SWAP1 POP JUMP JUMPDEST PUSH1 0x0 DUP3 DUP3 MSTORE PUSH1 0x20 DUP3 ADD SWAP1 POP SWAP3 SWAP2 POP POP JUMP JUMPDEST PUSH1 0x0 DUP2 SWAP1 POP PUSH1 0x20 DUP3 ADD SWAP1 POP SWAP2 SWAP1 POP JUMP JUMPDEST PUSH2 0x164C DUP2 PUSH2 0xB78 JUMP JUMPDEST DUP3 MSTORE POP POP JUMP JUMPDEST PUSH2 0x165B DUP2 PUSH2 0xBB6 JUMP JUMPDEST DUP3 MSTORE POP POP JUMP JUMPDEST PUSH1 0x40 DUP3 ADD PUSH1 0x0 DUP3 ADD MLOAD PUSH2 0x1677 PUSH1 0x0 DUP6 ADD DUP3 PUSH2 0x1643 JUMP JUMPDEST POP PUSH1 0x20 DUP3 ADD MLOAD PUSH2 0x168A PUSH1 0x20 DUP6 ADD DUP3 PUSH2 0x1652 JUMP JUMPDEST POP POP POP POP JUMP JUMPDEST PUSH1 0x0 PUSH2 0x169C DUP4 DUP4 PUSH2 0x1661 JUMP JUMPDEST PUSH1 0x40 DUP4 ADD SWAP1 POP SWAP3 SWAP2 POP POP JUMP JUMPDEST PUSH1 0x0 PUSH1 0x20 DUP3 ADD SWAP1 POP SWAP2 SWAP1 POP JUMP JUMPDEST PUSH1 0x0 PUSH2 0x16C0 DUP3 PUSH2 0x1617 JUMP JUMPDEST PUSH2 0x16CA DUP2 DUP6 PUSH2 0x1622 JUMP JUMPDEST SWAP4 POP PUSH2 0x16D5 DUP4 PUSH2 0x1633 JUMP JUMPDEST DUP1 PUSH1 0x0 JUMPDEST DUP4 DUP2 LT ISZERO PUSH2 0x1706 JUMPI DUP2 MLOAD PUSH2 0x16ED DUP9 DUP3 PUSH2 0x1690 JUMP JUMPDEST SWAP8 POP PUSH2 0x16F8 DUP4 PUSH2 0x16A8 JUMP JUMPDEST SWAP3 POP POP PUSH1 0x1 DUP2 ADD SWAP1 POP PUSH2 0x16D9 JUMP JUMPDEST POP DUP6 SWAP4 POP POP POP POP SWAP3 SWAP2 POP POP JUMP JUMPDEST PUSH1 0x0 PUSH1 0xA0 DUP4 ADD PUSH1 0x0 DUP4 ADD MLOAD DUP5 DUP3 SUB PUSH1 0x0 DUP7 ADD MSTORE PUSH2 0x1730 DUP3 DUP3 PUSH2 0x15DE JUMP JUMPDEST SWAP2 POP POP PUSH1 0x20 DUP4 ADD MLOAD DUP5 DUP3 SUB PUSH1 0x20 DUP7 ADD MSTORE PUSH2 0x174A DUP3 DUP3 PUSH2 0x15DE JUMP JUMPDEST SWAP2 POP POP PUSH1 0x40 DUP4 ADD MLOAD DUP5 DUP3 SUB PUSH1 0x40 DUP7 ADD MSTORE PUSH2 0x1764 DUP3 DUP3 PUSH2 0x16B5 JUMP JUMPDEST SWAP2 POP POP PUSH1 0x60 DUP4 ADD MLOAD PUSH2 0x1779 PUSH1 0x60 DUP7 ADD DUP3 PUSH2 0x1643 JUMP JUMPDEST POP PUSH1 0x80 DUP4 ADD MLOAD DUP5 DUP3 SUB PUSH1 0x80 DUP7 ADD MSTORE PUSH2 0x1791 DUP3 DUP3 PUSH2 0x15DE JUMP JUMPDEST SWAP2 POP POP DUP1 SWAP2 POP POP SWAP3 SWAP2 POP POP JUMP JUMPDEST PUSH1 0x0 PUSH1 0x40 DUP3 ADD SWAP1 POP PUSH2 0x17B3 PUSH1 0x0 DUP4 ADD DUP6 PUSH2 0x1489 JUMP JUMPDEST DUP2 DUP2 SUB PUSH1 0x20 DUP4 ADD MSTORE PUSH2 0x17C5 DUP2 DUP5 PUSH2 0x1713 JUMP JUMPDEST SWAP1 POP SWAP4 SWAP3 POP POP POP JUMP JUMPDEST PUSH1 0x0 DUP2 MLOAD SWAP1 POP PUSH2 0x17DD DUP2 PUSH2 0xBC0 JUMP JUMPDEST SWAP3 SWAP2 POP POP JUMP JUMPDEST PUSH1 0x0 PUSH1 0x20 DUP3 DUP5 SUB SLT ISZERO PUSH2 0x17F9 JUMPI PUSH2 0x17F8 PUSH2 0xB4E JUMP JUMPDEST JUMPDEST PUSH1 0x0 PUSH2 0x1807 DUP5 DUP3 DUP6 ADD PUSH2 0x17CE JUMP JUMPDEST SWAP2 POP POP SWAP3 SWAP2 POP POP JUMP JUMPDEST PUSH2 0x1819 DUP2 PUSH2 0x122B JUMP JUMPDEST DUP2 EQ PUSH2 0x1824 JUMPI PUSH1 0x0 DUP1 REVERT JUMPDEST POP JUMP JUMPDEST PUSH1 0x0 DUP2 MLOAD SWAP1 POP PUSH2 0x1836 DUP2 PUSH2 0x1810 JUMP JUMPDEST SWAP3 SWAP2 POP POP JUMP JUMPDEST PUSH1 0x0 PUSH1 0x20 DUP3 DUP5 SUB SLT ISZERO PUSH2 0x1852 JUMPI PUSH2 0x1851 PUSH2 0xB4E JUMP JUMPDEST JUMPDEST PUSH1 0x0 PUSH2 0x1860 DUP5 DUP3 DUP6 ADD PUSH2 0x1827 JUMP JUMPDEST SWAP2 POP POP SWAP3 SWAP2 POP POP JUMP JUMPDEST PUSH1 0x0 PUSH2 0x1874 DUP3 PUSH2 0xB58 JUMP JUMPDEST SWAP1 POP SWAP2 SWAP1 POP JUMP JUMPDEST PUSH2 0x1884 DUP2 PUSH2 0x1869 JUMP JUMPDEST DUP2 EQ PUSH2 0x188F JUMPI PUSH1 0x0 DUP1 REVERT JUMPDEST POP JUMP JUMPDEST PUSH1 0x0 DUP2 MLOAD SWAP1 POP PUSH2 0x18A1 DUP2 PUSH2 0x187B JUMP JUMPDEST SWAP3 SWAP2 POP POP JUMP JUMPDEST PUSH1 0x0 PUSH1 0xFF DUP3 AND SWAP1 POP SWAP2 SWAP1 POP JUMP JUMPDEST PUSH2 0x18BD DUP2 PUSH2 0x18A7 JUMP JUMPDEST DUP2 EQ PUSH2 0x18C8 JUMPI PUSH1 0x0 DUP1 REVERT JUMPDEST POP JUMP JUMPDEST PUSH1 0x0 DUP2 MLOAD SWAP1 POP PUSH2 0x18DA DUP2 PUSH2 0x18B4 JUMP JUMPDEST SWAP3 SWAP2 POP POP JUMP JUMPDEST PUSH1 0x0 PUSH2 0x18F3 PUSH2 0x18EE DUP5 PUSH2 0xD10 JUMP JUMPDEST PUSH2 0xCB5 JUMP JUMPDEST SWAP1 POP DUP3 DUP2 MSTORE PUSH1 0x20 DUP2 ADD DUP5 DUP5 DUP5 ADD GT ISZERO PUSH2 0x190F JUMPI PUSH2 0x190E PUSH2 0xD0B JUMP JUMPDEST JUMPDEST PUSH2 0x191A DUP5 DUP3 DUP6 PUSH2 0x15B4 JUMP JUMPDEST POP SWAP4 SWAP3 POP POP POP JUMP JUMPDEST PUSH1 0x0 DUP3 PUSH1 0x1F DUP4 ADD SLT PUSH2 0x1937 JUMPI PUSH2 0x1936 PUSH2 0xC3F JUMP JUMPDEST JUMPDEST DUP2 MLOAD PUSH2 0x1947 DUP5 DUP3 PUSH1 0x20 DUP7 ADD PUSH2 0x18E0 JUMP JUMPDEST SWAP2 POP POP SWAP3 SWAP2 POP POP JUMP JUMPDEST PUSH1 0x0 DUP1 PUSH1 0x0 DUP1 PUSH1 0x0 PUSH1 0xA0 DUP7 DUP9 SUB SLT ISZERO PUSH2 0x196C JUMPI PUSH2 0x196B PUSH2 0xB4E JUMP JUMPDEST JUMPDEST PUSH1 0x0 PUSH2 0x197A DUP9 DUP3 DUP10 ADD PUSH2 0x1892 JUMP JUMPDEST SWAP6 POP POP PUSH1 0x20 PUSH2 0x198B DUP9 DUP3 DUP10 ADD PUSH2 0x1892 JUMP JUMPDEST SWAP5 POP POP PUSH1 0x40 PUSH2 0x199C DUP9 DUP3 DUP10 ADD PUSH2 0x1892 JUMP JUMPDEST SWAP4 POP POP PUSH1 0x60 PUSH2 0x19AD DUP9 DUP3 DUP10 ADD PUSH2 0x18CB JUMP JUMPDEST SWAP3 POP POP PUSH1 0x80 DUP7 ADD MLOAD PUSH8 0xFFFFFFFFFFFFFFFF DUP2 GT ISZERO PUSH2 0x19CE JUMPI PUSH2 0x19CD PUSH2 0xB53 JUMP JUMPDEST JUMPDEST PUSH2 0x19DA DUP9 DUP3 DUP10 ADD PUSH2 0x1922 JUMP JUMPDEST SWAP2 POP POP SWAP3 SWAP6 POP SWAP3 SWAP6 SWAP1 SWAP4 POP JUMP JUMPDEST PUSH1 0x0 PUSH1 0x40 DUP3 ADD SWAP1 POP PUSH2 0x19FC PUSH1 0x0 DUP4 ADD DUP6 PUSH2 0x12E9 JUMP JUMPDEST PUSH2 0x1A09 PUSH1 0x20 DUP4 ADD DUP5 PUSH2 0x1552 JUMP JUMPDEST SWAP4 SWAP3 POP POP POP JUMP INVALID LOG2 PUSH5 0x6970667358 0x22 SLT KECCAK256 PUSH19 0x60749D28C6F63F821317490A82201992EBDD17 0xBC PUSH19 0xB5761627E9B20D1AE9B664736F6C6343000814 STOP CALLER "},"methodIdentifiers":{"i_link()":"7d253aff","i_router()":"581bdd16","isChainSupported(uint64)":"a48a9058","leverager()":"db3e3461","owner()":"8da5cb5b","propagate((bytes,bytes,(address,uint256)[],address,bytes)[],uint64[])":"3626454d","renounceOwnership()":"715018a6","transferOwnership(address)":"f2fde38b","withdraw(address,uint256)":"f3fef3a3","withdrawToken(address,address,uint256)":"01e33667"}}}}}